{
	"Contracts/Blind Auction.sol": {
		"BlindAuction": {
			"abi": [
				{
					"inputs": [
						{
							"internalType": "uint256",
							"name": "biddingTime",
							"type": "uint256"
						},
						{
							"internalType": "uint256",
							"name": "revealTime",
							"type": "uint256"
						},
						{
							"internalType": "address payable",
							"name": "beneficiaryAddress",
							"type": "address"
						}
					],
					"stateMutability": "nonpayable",
					"type": "constructor"
				},
				{
					"inputs": [],
					"name": "AuctionEndAlreadyCalled",
					"type": "error"
				},
				{
					"inputs": [
						{
							"internalType": "uint256",
							"name": "time",
							"type": "uint256"
						}
					],
					"name": "TooEarly",
					"type": "error"
				},
				{
					"inputs": [
						{
							"internalType": "uint256",
							"name": "time",
							"type": "uint256"
						}
					],
					"name": "TooLate",
					"type": "error"
				},
				{
					"anonymous": false,
					"inputs": [
						{
							"indexed": false,
							"internalType": "address",
							"name": "winner",
							"type": "address"
						},
						{
							"indexed": false,
							"internalType": "uint256",
							"name": "highestBid",
							"type": "uint256"
						}
					],
					"name": "AuctionEnded",
					"type": "event"
				},
				{
					"inputs": [],
					"name": "auctionEnd",
					"outputs": [],
					"stateMutability": "nonpayable",
					"type": "function"
				},
				{
					"inputs": [],
					"name": "beneficiary",
					"outputs": [
						{
							"internalType": "address payable",
							"name": "",
							"type": "address"
						}
					],
					"stateMutability": "view",
					"type": "function"
				},
				{
					"inputs": [
						{
							"internalType": "bytes32",
							"name": "blindedBid",
							"type": "bytes32"
						}
					],
					"name": "bid",
					"outputs": [],
					"stateMutability": "payable",
					"type": "function"
				},
				{
					"inputs": [],
					"name": "biddingEnd",
					"outputs": [
						{
							"internalType": "uint256",
							"name": "",
							"type": "uint256"
						}
					],
					"stateMutability": "view",
					"type": "function"
				},
				{
					"inputs": [
						{
							"internalType": "address",
							"name": "",
							"type": "address"
						},
						{
							"internalType": "uint256",
							"name": "",
							"type": "uint256"
						}
					],
					"name": "bids",
					"outputs": [
						{
							"internalType": "bytes32",
							"name": "blindedBid",
							"type": "bytes32"
						},
						{
							"internalType": "uint256",
							"name": "deposit",
							"type": "uint256"
						}
					],
					"stateMutability": "view",
					"type": "function"
				},
				{
					"inputs": [],
					"name": "ended",
					"outputs": [
						{
							"internalType": "bool",
							"name": "",
							"type": "bool"
						}
					],
					"stateMutability": "view",
					"type": "function"
				},
				{
					"inputs": [],
					"name": "highestBid",
					"outputs": [
						{
							"internalType": "uint256",
							"name": "",
							"type": "uint256"
						}
					],
					"stateMutability": "view",
					"type": "function"
				},
				{
					"inputs": [],
					"name": "highestBidder",
					"outputs": [
						{
							"internalType": "address",
							"name": "",
							"type": "address"
						}
					],
					"stateMutability": "view",
					"type": "function"
				},
				{
					"inputs": [
						{
							"internalType": "uint256[]",
							"name": "values",
							"type": "uint256[]"
						},
						{
							"internalType": "bool[]",
							"name": "fakes",
							"type": "bool[]"
						},
						{
							"internalType": "bytes32[]",
							"name": "secrets",
							"type": "bytes32[]"
						}
					],
					"name": "reveal",
					"outputs": [],
					"stateMutability": "nonpayable",
					"type": "function"
				},
				{
					"inputs": [],
					"name": "revealEnd",
					"outputs": [
						{
							"internalType": "uint256",
							"name": "",
							"type": "uint256"
						}
					],
					"stateMutability": "view",
					"type": "function"
				},
				{
					"inputs": [],
					"name": "withdraw",
					"outputs": [],
					"stateMutability": "nonpayable",
					"type": "function"
				}
			],
			"devdoc": {
				"kind": "dev",
				"methods": {},
				"version": 1
			},
			"evm": {
				"assembly": "    /* \"Contracts/Blind Auction.sol\":60:4717  contract BlindAuction {... */\n  mstore(0x40, 0x80)\n    /* \"Contracts/Blind Auction.sol\":1390:1649  constructor(... */\n  callvalue\n  dup1\n  iszero\n  tag_1\n  jumpi\n  revert(0x00, 0x00)\ntag_1:\n  pop\n  mload(0x40)\n  sub(codesize, bytecodeSize)\n  dup1\n  bytecodeSize\n  dup4\n  codecopy\n  dup2\n  dup2\n  add\n  0x40\n  mstore\n  dup2\n  add\n  swap1\n  tag_2\n  swap2\n  swap1\n  tag_3\n  jump\t// in\ntag_2:\n    /* \"Contracts/Blind Auction.sol\":1527:1545  beneficiaryAddress */\n  dup1\n    /* \"Contracts/Blind Auction.sol\":1513:1524  beneficiary */\n  0x00\n  0x00\n    /* \"Contracts/Blind Auction.sol\":1513:1545  beneficiary = beneficiaryAddress */\n  0x0100\n  exp\n  dup2\n  sload\n  dup2\n  0xffffffffffffffffffffffffffffffffffffffff\n  mul\n  not\n  and\n  swap1\n  dup4\n  0xffffffffffffffffffffffffffffffffffffffff\n  and\n  mul\n  or\n  swap1\n  sstore\n  pop\n    /* \"Contracts/Blind Auction.sol\":1586:1597  biddingTime */\n  dup3\n    /* \"Contracts/Blind Auction.sol\":1568:1583  block.timestamp */\n  timestamp\n    /* \"Contracts/Blind Auction.sol\":1568:1597  block.timestamp + biddingTime */\n  tag_6\n  swap2\n  swap1\n  tag_7\n  jump\t// in\ntag_6:\n    /* \"Contracts/Blind Auction.sol\":1555:1565  biddingEnd */\n  0x01\n    /* \"Contracts/Blind Auction.sol\":1555:1597  biddingEnd = block.timestamp + biddingTime */\n  dup2\n  swap1\n  sstore\n  pop\n    /* \"Contracts/Blind Auction.sol\":1632:1642  revealTime */\n  dup2\n    /* \"Contracts/Blind Auction.sol\":1619:1629  biddingEnd */\n  sload(0x01)\n    /* \"Contracts/Blind Auction.sol\":1619:1642  biddingEnd + revealTime */\n  tag_8\n  swap2\n  swap1\n  tag_7\n  jump\t// in\ntag_8:\n    /* \"Contracts/Blind Auction.sol\":1607:1616  revealEnd */\n  0x02\n    /* \"Contracts/Blind Auction.sol\":1607:1642  revealEnd = biddingEnd + revealTime */\n  dup2\n  swap1\n  sstore\n  pop\n    /* \"Contracts/Blind Auction.sol\":1390:1649  constructor(... */\n  pop\n  pop\n  pop\n    /* \"Contracts/Blind Auction.sol\":60:4717  contract BlindAuction {... */\n  jump(tag_9)\n    /* \"#utility.yul\":88:205   */\ntag_11:\n    /* \"#utility.yul\":197:198   */\n  0x00\n    /* \"#utility.yul\":194:195   */\n  0x00\n    /* \"#utility.yul\":187:199   */\n  revert\n    /* \"#utility.yul\":334:411   */\ntag_13:\n    /* \"#utility.yul\":371:378   */\n  0x00\n    /* \"#utility.yul\":400:405   */\n  dup2\n    /* \"#utility.yul\":389:405   */\n  swap1\n  pop\n    /* \"#utility.yul\":334:411   */\n  swap2\n  swap1\n  pop\n  jump\t// out\n    /* \"#utility.yul\":417:539   */\ntag_14:\n    /* \"#utility.yul\":490:514   */\n  tag_27\n    /* \"#utility.yul\":508:513   */\n  dup2\n    /* \"#utility.yul\":490:514   */\n  tag_13\n  jump\t// in\ntag_27:\n    /* \"#utility.yul\":483:488   */\n  dup2\n    /* \"#utility.yul\":480:515   */\n  eq\n    /* \"#utility.yul\":470:533   */\n  tag_28\n  jumpi\n    /* \"#utility.yul\":529:530   */\n  0x00\n    /* \"#utility.yul\":526:527   */\n  0x00\n    /* \"#utility.yul\":519:531   */\n  revert\n    /* \"#utility.yul\":470:533   */\ntag_28:\n    /* \"#utility.yul\":417:539   */\n  pop\n  jump\t// out\n    /* \"#utility.yul\":545:688   */\ntag_15:\n    /* \"#utility.yul\":602:607   */\n  0x00\n    /* \"#utility.yul\":633:639   */\n  dup2\n    /* \"#utility.yul\":627:640   */\n  mload\n    /* \"#utility.yul\":618:640   */\n  swap1\n  pop\n    /* \"#utility.yul\":649:682   */\n  tag_30\n    /* \"#utility.yul\":676:681   */\n  dup2\n    /* \"#utility.yul\":649:682   */\n  tag_14\n  jump\t// in\ntag_30:\n    /* \"#utility.yul\":545:688   */\n  swap3\n  swap2\n  pop\n  pop\n  jump\t// out\n    /* \"#utility.yul\":694:820   */\ntag_16:\n    /* \"#utility.yul\":731:738   */\n  0x00\n    /* \"#utility.yul\":771:813   */\n  0xffffffffffffffffffffffffffffffffffffffff\n    /* \"#utility.yul\":764:769   */\n  dup3\n    /* \"#utility.yul\":760:814   */\n  and\n    /* \"#utility.yul\":749:814   */\n  swap1\n  pop\n    /* \"#utility.yul\":694:820   */\n  swap2\n  swap1\n  pop\n  jump\t// out\n    /* \"#utility.yul\":826:930   */\ntag_17:\n    /* \"#utility.yul\":871:878   */\n  0x00\n    /* \"#utility.yul\":900:924   */\n  tag_33\n    /* \"#utility.yul\":918:923   */\n  dup3\n    /* \"#utility.yul\":900:924   */\n  tag_16\n  jump\t// in\ntag_33:\n    /* \"#utility.yul\":889:924   */\n  swap1\n  pop\n    /* \"#utility.yul\":826:930   */\n  swap2\n  swap1\n  pop\n  jump\t// out\n    /* \"#utility.yul\":936:1074   */\ntag_18:\n    /* \"#utility.yul\":1017:1049   */\n  tag_35\n    /* \"#utility.yul\":1043:1048   */\n  dup2\n    /* \"#utility.yul\":1017:1049   */\n  tag_17\n  jump\t// in\ntag_35:\n    /* \"#utility.yul\":1010:1015   */\n  dup2\n    /* \"#utility.yul\":1007:1050   */\n  eq\n    /* \"#utility.yul\":997:1068   */\n  tag_36\n  jumpi\n    /* \"#utility.yul\":1064:1065   */\n  0x00\n    /* \"#utility.yul\":1061:1062   */\n  0x00\n    /* \"#utility.yul\":1054:1066   */\n  revert\n    /* \"#utility.yul\":997:1068   */\ntag_36:\n    /* \"#utility.yul\":936:1074   */\n  pop\n  jump\t// out\n    /* \"#utility.yul\":1080:1239   */\ntag_19:\n    /* \"#utility.yul\":1145:1150   */\n  0x00\n    /* \"#utility.yul\":1176:1182   */\n  dup2\n    /* \"#utility.yul\":1170:1183   */\n  mload\n    /* \"#utility.yul\":1161:1183   */\n  swap1\n  pop\n    /* \"#utility.yul\":1192:1233   */\n  tag_38\n    /* \"#utility.yul\":1227:1232   */\n  dup2\n    /* \"#utility.yul\":1192:1233   */\n  tag_18\n  jump\t// in\ntag_38:\n    /* \"#utility.yul\":1080:1239   */\n  swap3\n  swap2\n  pop\n  pop\n  jump\t// out\n    /* \"#utility.yul\":1245:1924   */\ntag_3:\n    /* \"#utility.yul\":1341:1347   */\n  0x00\n    /* \"#utility.yul\":1349:1355   */\n  0x00\n    /* \"#utility.yul\":1357:1363   */\n  0x00\n    /* \"#utility.yul\":1406:1408   */\n  0x60\n    /* \"#utility.yul\":1394:1403   */\n  dup5\n    /* \"#utility.yul\":1385:1392   */\n  dup7\n    /* \"#utility.yul\":1381:1404   */\n  sub\n    /* \"#utility.yul\":1377:1409   */\n  slt\n    /* \"#utility.yul\":1374:1493   */\n  iszero\n  tag_40\n  jumpi\n    /* \"#utility.yul\":1412:1491   */\n  tag_41\n  tag_11\n  jump\t// in\ntag_41:\n    /* \"#utility.yul\":1374:1493   */\ntag_40:\n    /* \"#utility.yul\":1532:1533   */\n  0x00\n    /* \"#utility.yul\":1557:1621   */\n  tag_42\n    /* \"#utility.yul\":1613:1620   */\n  dup7\n    /* \"#utility.yul\":1604:1610   */\n  dup3\n    /* \"#utility.yul\":1593:1602   */\n  dup8\n    /* \"#utility.yul\":1589:1611   */\n  add\n    /* \"#utility.yul\":1557:1621   */\n  tag_15\n  jump\t// in\ntag_42:\n    /* \"#utility.yul\":1547:1621   */\n  swap4\n  pop\n    /* \"#utility.yul\":1503:1631   */\n  pop\n    /* \"#utility.yul\":1670:1672   */\n  0x20\n    /* \"#utility.yul\":1696:1760   */\n  tag_43\n    /* \"#utility.yul\":1752:1759   */\n  dup7\n    /* \"#utility.yul\":1743:1749   */\n  dup3\n    /* \"#utility.yul\":1732:1741   */\n  dup8\n    /* \"#utility.yul\":1728:1750   */\n  add\n    /* \"#utility.yul\":1696:1760   */\n  tag_15\n  jump\t// in\ntag_43:\n    /* \"#utility.yul\":1686:1760   */\n  swap3\n  pop\n    /* \"#utility.yul\":1641:1770   */\n  pop\n    /* \"#utility.yul\":1809:1811   */\n  0x40\n    /* \"#utility.yul\":1835:1907   */\n  tag_44\n    /* \"#utility.yul\":1899:1906   */\n  dup7\n    /* \"#utility.yul\":1890:1896   */\n  dup3\n    /* \"#utility.yul\":1879:1888   */\n  dup8\n    /* \"#utility.yul\":1875:1897   */\n  add\n    /* \"#utility.yul\":1835:1907   */\n  tag_19\n  jump\t// in\ntag_44:\n    /* \"#utility.yul\":1825:1907   */\n  swap2\n  pop\n    /* \"#utility.yul\":1780:1917   */\n  pop\n    /* \"#utility.yul\":1245:1924   */\n  swap3\n  pop\n  swap3\n  pop\n  swap3\n  jump\t// out\n    /* \"#utility.yul\":1930:2110   */\ntag_20:\n    /* \"#utility.yul\":1978:2055   */\n  0x4e487b7100000000000000000000000000000000000000000000000000000000\n    /* \"#utility.yul\":1975:1976   */\n  0x00\n    /* \"#utility.yul\":1968:2056   */\n  mstore\n    /* \"#utility.yul\":2075:2079   */\n  0x11\n    /* \"#utility.yul\":2072:2073   */\n  0x04\n    /* \"#utility.yul\":2065:2080   */\n  mstore\n    /* \"#utility.yul\":2099:2103   */\n  0x24\n    /* \"#utility.yul\":2096:2097   */\n  0x00\n    /* \"#utility.yul\":2089:2104   */\n  revert\n    /* \"#utility.yul\":2116:2307   */\ntag_7:\n    /* \"#utility.yul\":2156:2159   */\n  0x00\n    /* \"#utility.yul\":2175:2195   */\n  tag_47\n    /* \"#utility.yul\":2193:2194   */\n  dup3\n    /* \"#utility.yul\":2175:2195   */\n  tag_13\n  jump\t// in\ntag_47:\n    /* \"#utility.yul\":2170:2195   */\n  swap2\n  pop\n    /* \"#utility.yul\":2209:2229   */\n  tag_48\n    /* \"#utility.yul\":2227:2228   */\n  dup4\n    /* \"#utility.yul\":2209:2229   */\n  tag_13\n  jump\t// in\ntag_48:\n    /* \"#utility.yul\":2204:2229   */\n  swap3\n  pop\n    /* \"#utility.yul\":2252:2253   */\n  dup3\n    /* \"#utility.yul\":2249:2250   */\n  dup3\n    /* \"#utility.yul\":2245:2254   */\n  add\n    /* \"#utility.yul\":2238:2254   */\n  swap1\n  pop\n    /* \"#utility.yul\":2273:2276   */\n  dup1\n    /* \"#utility.yul\":2270:2271   */\n  dup3\n    /* \"#utility.yul\":2267:2277   */\n  gt\n    /* \"#utility.yul\":2264:2300   */\n  iszero\n  tag_49\n  jumpi\n    /* \"#utility.yul\":2280:2298   */\n  tag_50\n  tag_20\n  jump\t// in\ntag_50:\n    /* \"#utility.yul\":2264:2300   */\ntag_49:\n    /* \"#utility.yul\":2116:2307   */\n  swap3\n  swap2\n  pop\n  pop\n  jump\t// out\n    /* \"Contracts/Blind Auction.sol\":60:4717  contract BlindAuction {... */\ntag_9:\n  dataSize(sub_0)\n  dup1\n  dataOffset(sub_0)\n  0x00\n  codecopy\n  0x00\n  return\nstop\n\nsub_0: assembly {\n        /* \"Contracts/Blind Auction.sol\":60:4717  contract BlindAuction {... */\n      mstore(0x40, 0x80)\n      jumpi(tag_1, lt(calldatasize, 0x04))\n      shr(0xe0, calldataload(0x00))\n      dup1\n      0x423b217f\n      gt\n      tag_13\n      jumpi\n      dup1\n      0x423b217f\n      eq\n      tag_7\n      jumpi\n      dup1\n      0x900f080a\n      eq\n      tag_8\n      jumpi\n      dup1\n      0x91f90157\n      eq\n      tag_9\n      jumpi\n      dup1\n      0x957bb1e0\n      eq\n      tag_10\n      jumpi\n      dup1\n      0xa6e66477\n      eq\n      tag_11\n      jumpi\n      dup1\n      0xd57bde79\n      eq\n      tag_12\n      jumpi\n      jump(tag_1)\n    tag_13:\n      dup1\n      0x01495c1c\n      eq\n      tag_2\n      jumpi\n      dup1\n      0x12fa6feb\n      eq\n      tag_3\n      jumpi\n      dup1\n      0x2a24f46c\n      eq\n      tag_4\n      jumpi\n      dup1\n      0x38af3eed\n      eq\n      tag_5\n      jumpi\n      dup1\n      0x3ccfd60b\n      eq\n      tag_6\n      jumpi\n    tag_1:\n      revert(0x00, 0x00)\n        /* \"Contracts/Blind Auction.sol\":322:359  mapping(address => Bid[]) public bids */\n    tag_2:\n      callvalue\n      dup1\n      iszero\n      tag_14\n      jumpi\n      revert(0x00, 0x00)\n    tag_14:\n      pop\n      tag_15\n      0x04\n      dup1\n      calldatasize\n      sub\n      dup2\n      add\n      swap1\n      tag_16\n      swap2\n      swap1\n      tag_17\n      jump\t// in\n    tag_16:\n      tag_18\n      jump\t// in\n    tag_15:\n      mload(0x40)\n      tag_19\n      swap3\n      swap2\n      swap1\n      tag_20\n      jump\t// in\n    tag_19:\n      mload(0x40)\n      dup1\n      swap2\n      sub\n      swap1\n      return\n        /* \"Contracts/Blind Auction.sol\":298:315  bool public ended */\n    tag_3:\n      callvalue\n      dup1\n      iszero\n      tag_21\n      jumpi\n      revert(0x00, 0x00)\n    tag_21:\n      pop\n      tag_22\n      tag_23\n      jump\t// in\n    tag_22:\n      mload(0x40)\n      tag_24\n      swap2\n      swap1\n      tag_25\n      jump\t// in\n    tag_24:\n      mload(0x40)\n      dup1\n      swap2\n      sub\n      swap1\n      return\n        /* \"Contracts/Blind Auction.sol\":3898:4148  function auctionEnd()... */\n    tag_4:\n      callvalue\n      dup1\n      iszero\n      tag_26\n      jumpi\n      revert(0x00, 0x00)\n    tag_26:\n      pop\n      tag_27\n      tag_28\n      jump\t// in\n    tag_27:\n      stop\n        /* \"Contracts/Blind Auction.sol\":203:237  address payable public beneficiary */\n    tag_5:\n      callvalue\n      dup1\n      iszero\n      tag_29\n      jumpi\n      revert(0x00, 0x00)\n    tag_29:\n      pop\n      tag_30\n      tag_31\n      jump\t// in\n    tag_30:\n      mload(0x40)\n      tag_32\n      swap2\n      swap1\n      tag_33\n      jump\t// in\n    tag_32:\n      mload(0x40)\n      dup1\n      swap2\n      sub\n      swap1\n      return\n        /* \"Contracts/Blind Auction.sol\":3328:3815  function withdraw() external {... */\n    tag_6:\n      callvalue\n      dup1\n      iszero\n      tag_34\n      jumpi\n      revert(0x00, 0x00)\n    tag_34:\n      pop\n      tag_35\n      tag_36\n      jump\t// in\n    tag_35:\n      stop\n        /* \"Contracts/Blind Auction.sol\":243:265  uint public biddingEnd */\n    tag_7:\n      callvalue\n      dup1\n      iszero\n      tag_37\n      jumpi\n      revert(0x00, 0x00)\n    tag_37:\n      pop\n      tag_38\n      tag_39\n      jump\t// in\n    tag_38:\n      mload(0x40)\n      tag_40\n      swap2\n      swap1\n      tag_41\n      jump\t// in\n    tag_40:\n      mload(0x40)\n      dup1\n      swap2\n      sub\n      swap1\n      return\n        /* \"Contracts/Blind Auction.sol\":2045:3281  function reveal(... */\n    tag_8:\n      callvalue\n      dup1\n      iszero\n      tag_42\n      jumpi\n      revert(0x00, 0x00)\n    tag_42:\n      pop\n      tag_43\n      0x04\n      dup1\n      calldatasize\n      sub\n      dup2\n      add\n      swap1\n      tag_44\n      swap2\n      swap1\n      tag_45\n      jump\t// in\n    tag_44:\n      tag_46\n      jump\t// in\n    tag_43:\n      stop\n        /* \"Contracts/Blind Auction.sol\":366:394  address public highestBidder */\n    tag_9:\n      callvalue\n      dup1\n      iszero\n      tag_47\n      jumpi\n      revert(0x00, 0x00)\n    tag_47:\n      pop\n      tag_48\n      tag_49\n      jump\t// in\n    tag_48:\n      mload(0x40)\n      tag_50\n      swap2\n      swap1\n      tag_51\n      jump\t// in\n    tag_50:\n      mload(0x40)\n      dup1\n      swap2\n      sub\n      swap1\n      return\n        /* \"Contracts/Blind Auction.sol\":1655:1879  function bid(bytes32 blindedBid)... */\n    tag_10:\n      tag_52\n      0x04\n      dup1\n      calldatasize\n      sub\n      dup2\n      add\n      swap1\n      tag_53\n      swap2\n      swap1\n      tag_54\n      jump\t// in\n    tag_53:\n      tag_55\n      jump\t// in\n    tag_52:\n      stop\n        /* \"Contracts/Blind Auction.sol\":271:292  uint public revealEnd */\n    tag_11:\n      callvalue\n      dup1\n      iszero\n      tag_56\n      jumpi\n      revert(0x00, 0x00)\n    tag_56:\n      pop\n      tag_57\n      tag_58\n      jump\t// in\n    tag_57:\n      mload(0x40)\n      tag_59\n      swap2\n      swap1\n      tag_41\n      jump\t// in\n    tag_59:\n      mload(0x40)\n      dup1\n      swap2\n      sub\n      swap1\n      return\n        /* \"Contracts/Blind Auction.sol\":400:422  uint public highestBid */\n    tag_12:\n      callvalue\n      dup1\n      iszero\n      tag_60\n      jumpi\n      revert(0x00, 0x00)\n    tag_60:\n      pop\n      tag_61\n      tag_62\n      jump\t// in\n    tag_61:\n      mload(0x40)\n      tag_63\n      swap2\n      swap1\n      tag_41\n      jump\t// in\n    tag_63:\n      mload(0x40)\n      dup1\n      swap2\n      sub\n      swap1\n      return\n        /* \"Contracts/Blind Auction.sol\":322:359  mapping(address => Bid[]) public bids */\n    tag_18:\n      mstore(0x20, 0x04)\n      dup2\n      0x00\n      mstore\n      keccak256(0x00, 0x40)\n      dup2\n      dup2\n      sload\n      dup2\n      lt\n      tag_64\n      jumpi\n      0x00\n      dup1\n      revert\n    tag_64:\n      swap1\n      0x00\n      mstore\n      keccak256(0x00, 0x20)\n      swap1\n      0x02\n      mul\n      add\n      0x00\n      swap2\n      pop\n      swap2\n      pop\n      pop\n      dup1\n      0x00\n      add\n      sload\n      swap1\n      dup1\n      0x01\n      add\n      sload\n      swap1\n      pop\n      dup3\n      jump\t// out\n        /* \"Contracts/Blind Auction.sol\":298:315  bool public ended */\n    tag_23:\n      0x03\n      0x00\n      swap1\n      sload\n      swap1\n      0x0100\n      exp\n      swap1\n      div\n      0xff\n      and\n      dup2\n      jump\t// out\n        /* \"Contracts/Blind Auction.sol\":3898:4148  function auctionEnd()... */\n    tag_28:\n        /* \"Contracts/Blind Auction.sol\":3955:3964  revealEnd */\n      sload(0x02)\n        /* \"Contracts/Blind Auction.sol\":1339:1343  time */\n      dup1\n        /* \"Contracts/Blind Auction.sol\":1320:1335  block.timestamp */\n      timestamp\n        /* \"Contracts/Blind Auction.sol\":1320:1343  block.timestamp <= time */\n      gt\n        /* \"Contracts/Blind Auction.sol\":1316:1366  if (block.timestamp <= time) revert TooEarly(time) */\n      tag_67\n      jumpi\n        /* \"Contracts/Blind Auction.sol\":1361:1365  time */\n      dup1\n        /* \"Contracts/Blind Auction.sol\":1352:1366  TooEarly(time) */\n      mload(0x40)\n      0x2a35a32400000000000000000000000000000000000000000000000000000000\n      dup2\n      mstore\n      0x04\n      add\n      tag_68\n      swap2\n      swap1\n      tag_41\n      jump\t// in\n    tag_68:\n      mload(0x40)\n      dup1\n      swap2\n      sub\n      swap1\n      revert\n        /* \"Contracts/Blind Auction.sol\":1316:1366  if (block.timestamp <= time) revert TooEarly(time) */\n    tag_67:\n        /* \"Contracts/Blind Auction.sol\":3984:3989  ended */\n      0x03\n      0x00\n      swap1\n      sload\n      swap1\n      0x0100\n      exp\n      swap1\n      div\n      0xff\n      and\n        /* \"Contracts/Blind Auction.sol\":3980:4023  if (ended) revert AuctionEndAlreadyCalled() */\n      iszero\n      tag_70\n      jumpi\n        /* \"Contracts/Blind Auction.sol\":3998:4023  AuctionEndAlreadyCalled() */\n      mload(0x40)\n      0x61cfdcf800000000000000000000000000000000000000000000000000000000\n      dup2\n      mstore\n      0x04\n      add\n      mload(0x40)\n      dup1\n      swap2\n      sub\n      swap1\n      revert\n        /* \"Contracts/Blind Auction.sol\":3980:4023  if (ended) revert AuctionEndAlreadyCalled() */\n    tag_70:\n        /* \"Contracts/Blind Auction.sol\":4038:4077  AuctionEnded(highestBidder, highestBid) */\n      0xdaec4582d5d9595688c8c98545fdd1c696d41c6aeaeb636737e84ed2f5c00eda\n        /* \"Contracts/Blind Auction.sol\":4051:4064  highestBidder */\n      0x05\n      0x00\n      swap1\n      sload\n      swap1\n      0x0100\n      exp\n      swap1\n      div\n      0xffffffffffffffffffffffffffffffffffffffff\n      and\n        /* \"Contracts/Blind Auction.sol\":4066:4076  highestBid */\n      sload(0x06)\n        /* \"Contracts/Blind Auction.sol\":4038:4077  AuctionEnded(highestBidder, highestBid) */\n      mload(0x40)\n      tag_71\n      swap3\n      swap2\n      swap1\n      tag_72\n      jump\t// in\n    tag_71:\n      mload(0x40)\n      dup1\n      swap2\n      sub\n      swap1\n      log1\n        /* \"Contracts/Blind Auction.sol\":4095:4099  true */\n      0x01\n        /* \"Contracts/Blind Auction.sol\":4087:4092  ended */\n      0x03\n      0x00\n        /* \"Contracts/Blind Auction.sol\":4087:4099  ended = true */\n      0x0100\n      exp\n      dup2\n      sload\n      dup2\n      0xff\n      mul\n      not\n      and\n      swap1\n      dup4\n      iszero\n      iszero\n      mul\n      or\n      swap1\n      sstore\n      pop\n        /* \"Contracts/Blind Auction.sol\":4109:4120  beneficiary */\n      0x00\n      0x00\n      swap1\n      sload\n      swap1\n      0x0100\n      exp\n      swap1\n      div\n      0xffffffffffffffffffffffffffffffffffffffff\n      and\n        /* \"Contracts/Blind Auction.sol\":4109:4129  beneficiary.transfer */\n      0xffffffffffffffffffffffffffffffffffffffff\n      and\n        /* \"Contracts/Blind Auction.sol\":4109:4141  beneficiary.transfer(highestBid) */\n      0x08fc\n        /* \"Contracts/Blind Auction.sol\":4130:4140  highestBid */\n      sload(0x06)\n        /* \"Contracts/Blind Auction.sol\":4109:4141  beneficiary.transfer(highestBid) */\n      swap1\n      dup2\n      iszero\n      mul\n      swap1\n      mload(0x40)\n      0x00\n      mload(0x40)\n      dup1\n      dup4\n      sub\n      dup2\n      dup6\n      dup9\n      dup9\n      call\n      swap4\n      pop\n      pop\n      pop\n      pop\n      iszero\n      dup1\n      iszero\n      tag_74\n      jumpi\n      returndatacopy(0x00, 0x00, returndatasize)\n      revert(0x00, returndatasize)\n    tag_74:\n      pop\n        /* \"Contracts/Blind Auction.sol\":3898:4148  function auctionEnd()... */\n      pop\n      jump\t// out\n        /* \"Contracts/Blind Auction.sol\":203:237  address payable public beneficiary */\n    tag_31:\n      0x00\n      0x00\n      swap1\n      sload\n      swap1\n      0x0100\n      exp\n      swap1\n      div\n      0xffffffffffffffffffffffffffffffffffffffff\n      and\n      dup2\n      jump\t// out\n        /* \"Contracts/Blind Auction.sol\":3328:3815  function withdraw() external {... */\n    tag_36:\n        /* \"Contracts/Blind Auction.sol\":3367:3378  uint amount */\n      0x00\n        /* \"Contracts/Blind Auction.sol\":3381:3395  pendingReturns */\n      0x07\n        /* \"Contracts/Blind Auction.sol\":3381:3407  pendingReturns[msg.sender] */\n      0x00\n        /* \"Contracts/Blind Auction.sol\":3396:3406  msg.sender */\n      caller\n        /* \"Contracts/Blind Auction.sol\":3381:3407  pendingReturns[msg.sender] */\n      0xffffffffffffffffffffffffffffffffffffffff\n      and\n      0xffffffffffffffffffffffffffffffffffffffff\n      and\n      dup2\n      mstore\n      0x20\n      add\n      swap1\n      dup2\n      mstore\n      0x20\n      add\n      0x00\n      keccak256\n      sload\n        /* \"Contracts/Blind Auction.sol\":3367:3407  uint amount = pendingReturns[msg.sender] */\n      swap1\n      pop\n        /* \"Contracts/Blind Auction.sol\":3430:3431  0 */\n      0x00\n        /* \"Contracts/Blind Auction.sol\":3421:3427  amount */\n      dup2\n        /* \"Contracts/Blind Auction.sol\":3421:3431  amount > 0 */\n      gt\n        /* \"Contracts/Blind Auction.sol\":3417:3809  if (amount > 0) {... */\n      iszero\n      tag_76\n      jumpi\n        /* \"Contracts/Blind Auction.sol\":3746:3747  0 */\n      0x00\n        /* \"Contracts/Blind Auction.sol\":3717:3731  pendingReturns */\n      0x07\n        /* \"Contracts/Blind Auction.sol\":3717:3743  pendingReturns[msg.sender] */\n      0x00\n        /* \"Contracts/Blind Auction.sol\":3732:3742  msg.sender */\n      caller\n        /* \"Contracts/Blind Auction.sol\":3717:3743  pendingReturns[msg.sender] */\n      0xffffffffffffffffffffffffffffffffffffffff\n      and\n      0xffffffffffffffffffffffffffffffffffffffff\n      and\n      dup2\n      mstore\n      0x20\n      add\n      swap1\n      dup2\n      mstore\n      0x20\n      add\n      0x00\n      keccak256\n        /* \"Contracts/Blind Auction.sol\":3717:3747  pendingReturns[msg.sender] = 0 */\n      dup2\n      swap1\n      sstore\n      pop\n        /* \"Contracts/Blind Auction.sol\":3770:3780  msg.sender */\n      caller\n        /* \"Contracts/Blind Auction.sol\":3762:3790  payable(msg.sender).transfer */\n      0xffffffffffffffffffffffffffffffffffffffff\n      and\n        /* \"Contracts/Blind Auction.sol\":3762:3798  payable(msg.sender).transfer(amount) */\n      0x08fc\n        /* \"Contracts/Blind Auction.sol\":3791:3797  amount */\n      dup3\n        /* \"Contracts/Blind Auction.sol\":3762:3798  payable(msg.sender).transfer(amount) */\n      swap1\n      dup2\n      iszero\n      mul\n      swap1\n      mload(0x40)\n      0x00\n      mload(0x40)\n      dup1\n      dup4\n      sub\n      dup2\n      dup6\n      dup9\n      dup9\n      call\n      swap4\n      pop\n      pop\n      pop\n      pop\n      iszero\n      dup1\n      iszero\n      tag_78\n      jumpi\n      returndatacopy(0x00, 0x00, returndatasize)\n      revert(0x00, returndatasize)\n    tag_78:\n      pop\n        /* \"Contracts/Blind Auction.sol\":3417:3809  if (amount > 0) {... */\n    tag_76:\n        /* \"Contracts/Blind Auction.sol\":3357:3815  {... */\n      pop\n        /* \"Contracts/Blind Auction.sol\":3328:3815  function withdraw() external {... */\n      jump\t// out\n        /* \"Contracts/Blind Auction.sol\":243:265  uint public biddingEnd */\n    tag_39:\n      sload(0x01)\n      dup2\n      jump\t// out\n        /* \"Contracts/Blind Auction.sol\":2045:3281  function reveal(... */\n    tag_46:\n        /* \"Contracts/Blind Auction.sol\":2201:2211  biddingEnd */\n      sload(0x01)\n        /* \"Contracts/Blind Auction.sol\":1339:1343  time */\n      dup1\n        /* \"Contracts/Blind Auction.sol\":1320:1335  block.timestamp */\n      timestamp\n        /* \"Contracts/Blind Auction.sol\":1320:1343  block.timestamp <= time */\n      gt\n        /* \"Contracts/Blind Auction.sol\":1316:1366  if (block.timestamp <= time) revert TooEarly(time) */\n      tag_80\n      jumpi\n        /* \"Contracts/Blind Auction.sol\":1361:1365  time */\n      dup1\n        /* \"Contracts/Blind Auction.sol\":1352:1366  TooEarly(time) */\n      mload(0x40)\n      0x2a35a32400000000000000000000000000000000000000000000000000000000\n      dup2\n      mstore\n      0x04\n      add\n      tag_81\n      swap2\n      swap1\n      tag_41\n      jump\t// in\n    tag_81:\n      mload(0x40)\n      dup1\n      swap2\n      sub\n      swap1\n      revert\n        /* \"Contracts/Blind Auction.sol\":1316:1366  if (block.timestamp <= time) revert TooEarly(time) */\n    tag_80:\n        /* \"Contracts/Blind Auction.sol\":2232:2241  revealEnd */\n      sload(0x02)\n        /* \"Contracts/Blind Auction.sol\":1227:1231  time */\n      dup1\n        /* \"Contracts/Blind Auction.sol\":1208:1223  block.timestamp */\n      timestamp\n        /* \"Contracts/Blind Auction.sol\":1208:1231  block.timestamp >= time */\n      lt\n        /* \"Contracts/Blind Auction.sol\":1204:1253  if (block.timestamp >= time) revert TooLate(time) */\n      tag_83\n      jumpi\n        /* \"Contracts/Blind Auction.sol\":1248:1252  time */\n      dup1\n        /* \"Contracts/Blind Auction.sol\":1240:1253  TooLate(time) */\n      mload(0x40)\n      0x691e568200000000000000000000000000000000000000000000000000000000\n      dup2\n      mstore\n      0x04\n      add\n      tag_84\n      swap2\n      swap1\n      tag_41\n      jump\t// in\n    tag_84:\n      mload(0x40)\n      dup1\n      swap2\n      sub\n      swap1\n      revert\n        /* \"Contracts/Blind Auction.sol\":1204:1253  if (block.timestamp >= time) revert TooLate(time) */\n    tag_83:\n        /* \"Contracts/Blind Auction.sol\":2257:2268  uint length */\n      0x00\n        /* \"Contracts/Blind Auction.sol\":2271:2275  bids */\n      0x04\n        /* \"Contracts/Blind Auction.sol\":2271:2287  bids[msg.sender] */\n      0x00\n        /* \"Contracts/Blind Auction.sol\":2276:2286  msg.sender */\n      caller\n        /* \"Contracts/Blind Auction.sol\":2271:2287  bids[msg.sender] */\n      0xffffffffffffffffffffffffffffffffffffffff\n      and\n      0xffffffffffffffffffffffffffffffffffffffff\n      and\n      dup2\n      mstore\n      0x20\n      add\n      swap1\n      dup2\n      mstore\n      0x20\n      add\n      0x00\n      keccak256\n        /* \"Contracts/Blind Auction.sol\":2271:2294  bids[msg.sender].length */\n      dup1\n      sload\n      swap1\n      pop\n        /* \"Contracts/Blind Auction.sol\":2257:2294  uint length = bids[msg.sender].length */\n      swap1\n      pop\n        /* \"Contracts/Blind Auction.sol\":2329:2335  length */\n      dup1\n        /* \"Contracts/Blind Auction.sol\":2312:2318  values */\n      dup10\n      dup10\n        /* \"Contracts/Blind Auction.sol\":2312:2325  values.length */\n      swap1\n      pop\n        /* \"Contracts/Blind Auction.sol\":2312:2335  values.length == length */\n      eq\n        /* \"Contracts/Blind Auction.sol\":2304:2336  require(values.length == length) */\n      tag_86\n      jumpi\n      revert(0x00, 0x00)\n    tag_86:\n        /* \"Contracts/Blind Auction.sol\":2370:2376  length */\n      dup1\n        /* \"Contracts/Blind Auction.sol\":2354:2359  fakes */\n      dup8\n      dup8\n        /* \"Contracts/Blind Auction.sol\":2354:2366  fakes.length */\n      swap1\n      pop\n        /* \"Contracts/Blind Auction.sol\":2354:2376  fakes.length == length */\n      eq\n        /* \"Contracts/Blind Auction.sol\":2346:2377  require(fakes.length == length) */\n      tag_87\n      jumpi\n      revert(0x00, 0x00)\n    tag_87:\n        /* \"Contracts/Blind Auction.sol\":2413:2419  length */\n      dup1\n        /* \"Contracts/Blind Auction.sol\":2395:2402  secrets */\n      dup6\n      dup6\n        /* \"Contracts/Blind Auction.sol\":2395:2409  secrets.length */\n      swap1\n      pop\n        /* \"Contracts/Blind Auction.sol\":2395:2419  secrets.length == length */\n      eq\n        /* \"Contracts/Blind Auction.sol\":2387:2420  require(secrets.length == length) */\n      tag_88\n      jumpi\n      revert(0x00, 0x00)\n    tag_88:\n        /* \"Contracts/Blind Auction.sol\":2431:2442  uint refund */\n      0x00\n        /* \"Contracts/Blind Auction.sol\":2457:2463  uint i */\n      0x00\n        /* \"Contracts/Blind Auction.sol\":2466:2467  0 */\n      0x00\n        /* \"Contracts/Blind Auction.sol\":2457:2467  uint i = 0 */\n      swap1\n      pop\n        /* \"Contracts/Blind Auction.sol\":2452:3229  for (uint i = 0; i < length; i++) {... */\n    tag_89:\n        /* \"Contracts/Blind Auction.sol\":2473:2479  length */\n      dup3\n        /* \"Contracts/Blind Auction.sol\":2469:2470  i */\n      dup2\n        /* \"Contracts/Blind Auction.sol\":2469:2479  i < length */\n      lt\n        /* \"Contracts/Blind Auction.sol\":2452:3229  for (uint i = 0; i < length; i++) {... */\n      iszero\n      tag_90\n      jumpi\n        /* \"Contracts/Blind Auction.sol\":2500:2522  Bid storage bidToCheck */\n      0x00\n        /* \"Contracts/Blind Auction.sol\":2525:2529  bids */\n      0x04\n        /* \"Contracts/Blind Auction.sol\":2525:2541  bids[msg.sender] */\n      0x00\n        /* \"Contracts/Blind Auction.sol\":2530:2540  msg.sender */\n      caller\n        /* \"Contracts/Blind Auction.sol\":2525:2541  bids[msg.sender] */\n      0xffffffffffffffffffffffffffffffffffffffff\n      and\n      0xffffffffffffffffffffffffffffffffffffffff\n      and\n      dup2\n      mstore\n      0x20\n      add\n      swap1\n      dup2\n      mstore\n      0x20\n      add\n      0x00\n      keccak256\n        /* \"Contracts/Blind Auction.sol\":2542:2543  i */\n      dup3\n        /* \"Contracts/Blind Auction.sol\":2525:2544  bids[msg.sender][i] */\n      dup2\n      sload\n      dup2\n      lt\n      tag_92\n      jumpi\n      tag_93\n      tag_94\n      jump\t// in\n    tag_93:\n    tag_92:\n      swap1\n      0x00\n      mstore\n      keccak256(0x00, 0x20)\n      swap1\n      0x02\n      mul\n      add\n        /* \"Contracts/Blind Auction.sol\":2500:2544  Bid storage bidToCheck = bids[msg.sender][i] */\n      swap1\n      pop\n        /* \"Contracts/Blind Auction.sol\":2559:2569  uint value */\n      0x00\n        /* \"Contracts/Blind Auction.sol\":2571:2580  bool fake */\n      0x00\n        /* \"Contracts/Blind Auction.sol\":2582:2596  bytes32 secret */\n      0x00\n        /* \"Contracts/Blind Auction.sol\":2621:2627  values */\n      dup15\n      dup15\n        /* \"Contracts/Blind Auction.sol\":2628:2629  i */\n      dup7\n        /* \"Contracts/Blind Auction.sol\":2621:2630  values[i] */\n      dup2\n      dup2\n      lt\n      tag_96\n      jumpi\n      tag_97\n      tag_94\n      jump\t// in\n    tag_97:\n    tag_96:\n      swap1\n      pop\n      0x20\n      mul\n      add\n      calldataload\n        /* \"Contracts/Blind Auction.sol\":2632:2637  fakes */\n      dup14\n      dup14\n        /* \"Contracts/Blind Auction.sol\":2638:2639  i */\n      dup8\n        /* \"Contracts/Blind Auction.sol\":2632:2640  fakes[i] */\n      dup2\n      dup2\n      lt\n      tag_98\n      jumpi\n      tag_99\n      tag_94\n      jump\t// in\n    tag_99:\n    tag_98:\n      swap1\n      pop\n      0x20\n      mul\n      add\n      0x20\n      dup2\n      add\n      swap1\n      tag_100\n      swap2\n      swap1\n      tag_101\n      jump\t// in\n    tag_100:\n        /* \"Contracts/Blind Auction.sol\":2642:2649  secrets */\n      dup13\n      dup13\n        /* \"Contracts/Blind Auction.sol\":2650:2651  i */\n      dup9\n        /* \"Contracts/Blind Auction.sol\":2642:2652  secrets[i] */\n      dup2\n      dup2\n      lt\n      tag_102\n      jumpi\n      tag_103\n      tag_94\n      jump\t// in\n    tag_103:\n    tag_102:\n      swap1\n      pop\n      0x20\n      mul\n      add\n      calldataload\n        /* \"Contracts/Blind Auction.sol\":2558:2653  (uint value, bool fake, bytes32 secret) =... */\n      swap3\n      pop\n      swap3\n      pop\n      swap3\n      pop\n        /* \"Contracts/Blind Auction.sol\":2723:2728  value */\n      dup3\n        /* \"Contracts/Blind Auction.sol\":2730:2734  fake */\n      dup3\n        /* \"Contracts/Blind Auction.sol\":2736:2742  secret */\n      dup3\n        /* \"Contracts/Blind Auction.sol\":2706:2743  abi.encodePacked(value, fake, secret) */\n      add(0x20, mload(0x40))\n      tag_104\n      swap4\n      swap3\n      swap2\n      swap1\n      tag_105\n      jump\t// in\n    tag_104:\n      mload(0x40)\n      0x20\n      dup2\n      dup4\n      sub\n      sub\n      dup2\n      mstore\n      swap1\n      0x40\n      mstore\n        /* \"Contracts/Blind Auction.sol\":2696:2744  keccak256(abi.encodePacked(value, fake, secret)) */\n      dup1\n      mload\n      swap1\n      0x20\n      add\n      keccak256\n        /* \"Contracts/Blind Auction.sol\":2671:2681  bidToCheck */\n      dup5\n        /* \"Contracts/Blind Auction.sol\":2671:2692  bidToCheck.blindedBid */\n      0x00\n      add\n      sload\n        /* \"Contracts/Blind Auction.sol\":2671:2744  bidToCheck.blindedBid != keccak256(abi.encodePacked(value, fake, secret)) */\n      eq\n        /* \"Contracts/Blind Auction.sol\":2667:2879  if (bidToCheck.blindedBid != keccak256(abi.encodePacked(value, fake, secret))) {... */\n      tag_106\n      jumpi\n        /* \"Contracts/Blind Auction.sol\":2856:2864  continue */\n      pop\n      pop\n      pop\n      pop\n      jump(tag_91)\n        /* \"Contracts/Blind Auction.sol\":2667:2879  if (bidToCheck.blindedBid != keccak256(abi.encodePacked(value, fake, secret))) {... */\n    tag_106:\n        /* \"Contracts/Blind Auction.sol\":2902:2912  bidToCheck */\n      dup4\n        /* \"Contracts/Blind Auction.sol\":2902:2920  bidToCheck.deposit */\n      0x01\n      add\n      sload\n        /* \"Contracts/Blind Auction.sol\":2892:2920  refund += bidToCheck.deposit */\n      dup7\n      tag_107\n      swap2\n      swap1\n      tag_108\n      jump\t// in\n    tag_107:\n      swap6\n      pop\n        /* \"Contracts/Blind Auction.sol\":2939:2943  fake */\n      dup2\n        /* \"Contracts/Blind Auction.sol\":2938:2943  !fake */\n      iszero\n        /* \"Contracts/Blind Auction.sol\":2938:2974  !fake && bidToCheck.deposit >= value */\n      dup1\n      iszero\n      tag_109\n      jumpi\n      pop\n        /* \"Contracts/Blind Auction.sol\":2969:2974  value */\n      dup3\n        /* \"Contracts/Blind Auction.sol\":2947:2957  bidToCheck */\n      dup5\n        /* \"Contracts/Blind Auction.sol\":2947:2965  bidToCheck.deposit */\n      0x01\n      add\n      sload\n        /* \"Contracts/Blind Auction.sol\":2947:2974  bidToCheck.deposit >= value */\n      lt\n      iszero\n        /* \"Contracts/Blind Auction.sol\":2938:2974  !fake && bidToCheck.deposit >= value */\n    tag_109:\n        /* \"Contracts/Blind Auction.sol\":2934:3077  if (!fake && bidToCheck.deposit >= value) {... */\n      iszero\n      tag_110\n      jumpi\n        /* \"Contracts/Blind Auction.sol\":2998:3025  placeBid(msg.sender, value) */\n      tag_111\n        /* \"Contracts/Blind Auction.sol\":3007:3017  msg.sender */\n      caller\n        /* \"Contracts/Blind Auction.sol\":3019:3024  value */\n      dup5\n        /* \"Contracts/Blind Auction.sol\":2998:3006  placeBid */\n      tag_112\n        /* \"Contracts/Blind Auction.sol\":2998:3025  placeBid(msg.sender, value) */\n      jump\t// in\n    tag_111:\n        /* \"Contracts/Blind Auction.sol\":2994:3062  if (placeBid(msg.sender, value))... */\n      iszero\n      tag_113\n      jumpi\n        /* \"Contracts/Blind Auction.sol\":3057:3062  value */\n      dup3\n        /* \"Contracts/Blind Auction.sol\":3047:3062  refund -= value */\n      dup7\n      tag_114\n      swap2\n      swap1\n      tag_115\n      jump\t// in\n    tag_114:\n      swap6\n      pop\n        /* \"Contracts/Blind Auction.sol\":2994:3062  if (placeBid(msg.sender, value))... */\n    tag_113:\n        /* \"Contracts/Blind Auction.sol\":2934:3077  if (!fake && bidToCheck.deposit >= value) {... */\n    tag_110:\n        /* \"Contracts/Blind Auction.sol\":3216:3217  0 */\n      0x00\n        /* \"Contracts/Blind Auction.sol\":3208:3218  bytes32(0) */\n      0x00\n      shl\n        /* \"Contracts/Blind Auction.sol\":3184:3194  bidToCheck */\n      dup5\n        /* \"Contracts/Blind Auction.sol\":3184:3205  bidToCheck.blindedBid */\n      0x00\n      add\n        /* \"Contracts/Blind Auction.sol\":3184:3218  bidToCheck.blindedBid = bytes32(0) */\n      dup2\n      swap1\n      sstore\n      pop\n        /* \"Contracts/Blind Auction.sol\":2486:3229  {... */\n      pop\n      pop\n      pop\n      pop\n        /* \"Contracts/Blind Auction.sol\":2452:3229  for (uint i = 0; i < length; i++) {... */\n    tag_91:\n        /* \"Contracts/Blind Auction.sol\":2481:2484  i++ */\n      dup1\n      dup1\n      0x01\n      add\n      swap2\n      pop\n      pop\n        /* \"Contracts/Blind Auction.sol\":2452:3229  for (uint i = 0; i < length; i++) {... */\n      jump(tag_89)\n    tag_90:\n      pop\n        /* \"Contracts/Blind Auction.sol\":3246:3256  msg.sender */\n      caller\n        /* \"Contracts/Blind Auction.sol\":3238:3266  payable(msg.sender).transfer */\n      0xffffffffffffffffffffffffffffffffffffffff\n      and\n        /* \"Contracts/Blind Auction.sol\":3238:3274  payable(msg.sender).transfer(refund) */\n      0x08fc\n        /* \"Contracts/Blind Auction.sol\":3267:3273  refund */\n      dup3\n        /* \"Contracts/Blind Auction.sol\":3238:3274  payable(msg.sender).transfer(refund) */\n      swap1\n      dup2\n      iszero\n      mul\n      swap1\n      mload(0x40)\n      0x00\n      mload(0x40)\n      dup1\n      dup4\n      sub\n      dup2\n      dup6\n      dup9\n      dup9\n      call\n      swap4\n      pop\n      pop\n      pop\n      pop\n      iszero\n      dup1\n      iszero\n      tag_117\n      jumpi\n      returndatacopy(0x00, 0x00, returndatasize)\n      revert(0x00, returndatasize)\n    tag_117:\n      pop\n        /* \"Contracts/Blind Auction.sol\":2247:3281  {... */\n      pop\n      pop\n        /* \"Contracts/Blind Auction.sol\":1376:1377  _ */\n      pop\n        /* \"Contracts/Blind Auction.sol\":2045:3281  function reveal(... */\n      pop\n      pop\n      pop\n      pop\n      pop\n      pop\n      pop\n      jump\t// out\n        /* \"Contracts/Blind Auction.sol\":366:394  address public highestBidder */\n    tag_49:\n      0x05\n      0x00\n      swap1\n      sload\n      swap1\n      0x0100\n      exp\n      swap1\n      div\n      0xffffffffffffffffffffffffffffffffffffffff\n      and\n      dup2\n      jump\t// out\n        /* \"Contracts/Blind Auction.sol\":1655:1879  function bid(bytes32 blindedBid)... */\n    tag_55:\n        /* \"Contracts/Blind Auction.sol\":1740:1750  biddingEnd */\n      sload(0x01)\n        /* \"Contracts/Blind Auction.sol\":1227:1231  time */\n      dup1\n        /* \"Contracts/Blind Auction.sol\":1208:1223  block.timestamp */\n      timestamp\n        /* \"Contracts/Blind Auction.sol\":1208:1231  block.timestamp >= time */\n      lt\n        /* \"Contracts/Blind Auction.sol\":1204:1253  if (block.timestamp >= time) revert TooLate(time) */\n      tag_119\n      jumpi\n        /* \"Contracts/Blind Auction.sol\":1248:1252  time */\n      dup1\n        /* \"Contracts/Blind Auction.sol\":1240:1253  TooLate(time) */\n      mload(0x40)\n      0x691e568200000000000000000000000000000000000000000000000000000000\n      dup2\n      mstore\n      0x04\n      add\n      tag_120\n      swap2\n      swap1\n      tag_41\n      jump\t// in\n    tag_120:\n      mload(0x40)\n      dup1\n      swap2\n      sub\n      swap1\n      revert\n        /* \"Contracts/Blind Auction.sol\":1204:1253  if (block.timestamp >= time) revert TooLate(time) */\n    tag_119:\n        /* \"Contracts/Blind Auction.sol\":1766:1770  bids */\n      0x04\n        /* \"Contracts/Blind Auction.sol\":1766:1782  bids[msg.sender] */\n      0x00\n        /* \"Contracts/Blind Auction.sol\":1771:1781  msg.sender */\n      caller\n        /* \"Contracts/Blind Auction.sol\":1766:1782  bids[msg.sender] */\n      0xffffffffffffffffffffffffffffffffffffffff\n      and\n      0xffffffffffffffffffffffffffffffffffffffff\n      and\n      dup2\n      mstore\n      0x20\n      add\n      swap1\n      dup2\n      mstore\n      0x20\n      add\n      0x00\n      keccak256\n        /* \"Contracts/Blind Auction.sol\":1788:1871  Bid({... */\n      mload(0x40)\n      dup1\n      0x40\n      add\n      0x40\n      mstore\n      dup1\n        /* \"Contracts/Blind Auction.sol\":1818:1828  blindedBid */\n      dup5\n        /* \"Contracts/Blind Auction.sol\":1788:1871  Bid({... */\n      dup2\n      mstore\n      0x20\n      add\n        /* \"Contracts/Blind Auction.sol\":1851:1860  msg.value */\n      callvalue\n        /* \"Contracts/Blind Auction.sol\":1788:1871  Bid({... */\n      dup2\n      mstore\n      pop\n        /* \"Contracts/Blind Auction.sol\":1766:1872  bids[msg.sender].push(Bid({... */\n      swap1\n      dup1\n      0x01\n      dup2\n      sload\n      add\n      dup1\n      dup3\n      sstore\n      dup1\n      swap2\n      pop\n      pop\n      0x01\n      swap1\n      sub\n      swap1\n      0x00\n      mstore\n      keccak256(0x00, 0x20)\n      swap1\n      0x02\n      mul\n      add\n      0x00\n      swap1\n      swap2\n      swap1\n      swap2\n      swap1\n      swap2\n      pop\n      0x00\n      dup3\n      add\n      mload\n      dup2\n      0x00\n      add\n      sstore\n      0x20\n      dup3\n      add\n      mload\n      dup2\n      0x01\n      add\n      sstore\n      pop\n      pop\n        /* \"Contracts/Blind Auction.sol\":1655:1879  function bid(bytes32 blindedBid)... */\n      pop\n      pop\n      jump\t// out\n        /* \"Contracts/Blind Auction.sol\":271:292  uint public revealEnd */\n    tag_58:\n      sload(0x02)\n      dup2\n      jump\t// out\n        /* \"Contracts/Blind Auction.sol\":400:422  uint public highestBid */\n    tag_62:\n      sload(0x06)\n      dup2\n      jump\t// out\n        /* \"Contracts/Blind Auction.sol\":4299:4715  function placeBid(address bidder, uint value) internal... */\n    tag_112:\n        /* \"Contracts/Blind Auction.sol\":4375:4387  bool success */\n      0x00\n        /* \"Contracts/Blind Auction.sol\":4416:4426  highestBid */\n      sload(0x06)\n        /* \"Contracts/Blind Auction.sol\":4407:4412  value */\n      dup3\n        /* \"Contracts/Blind Auction.sol\":4407:4426  value <= highestBid */\n      gt\n        /* \"Contracts/Blind Auction.sol\":4403:4465  if (value <= highestBid) {... */\n      tag_124\n      jumpi\n        /* \"Contracts/Blind Auction.sol\":4449:4454  false */\n      0x00\n        /* \"Contracts/Blind Auction.sol\":4442:4454  return false */\n      swap1\n      pop\n      jump(tag_123)\n        /* \"Contracts/Blind Auction.sol\":4403:4465  if (value <= highestBid) {... */\n    tag_124:\n        /* \"Contracts/Blind Auction.sol\":4503:4504  0 */\n      0x00\n        /* \"Contracts/Blind Auction.sol\":4478:4505  highestBidder != address(0) */\n      0xffffffffffffffffffffffffffffffffffffffff\n      and\n        /* \"Contracts/Blind Auction.sol\":4478:4491  highestBidder */\n      0x05\n      0x00\n      swap1\n      sload\n      swap1\n      0x0100\n      exp\n      swap1\n      div\n      0xffffffffffffffffffffffffffffffffffffffff\n      and\n        /* \"Contracts/Blind Auction.sol\":4478:4505  highestBidder != address(0) */\n      0xffffffffffffffffffffffffffffffffffffffff\n      and\n      eq\n        /* \"Contracts/Blind Auction.sol\":4474:4628  if (highestBidder != address(0)) {... */\n      tag_125\n      jumpi\n        /* \"Contracts/Blind Auction.sol\":4607:4617  highestBid */\n      sload(0x06)\n        /* \"Contracts/Blind Auction.sol\":4574:4588  pendingReturns */\n      0x07\n        /* \"Contracts/Blind Auction.sol\":4574:4603  pendingReturns[highestBidder] */\n      0x00\n        /* \"Contracts/Blind Auction.sol\":4589:4602  highestBidder */\n      0x05\n      0x00\n      swap1\n      sload\n      swap1\n      0x0100\n      exp\n      swap1\n      div\n      0xffffffffffffffffffffffffffffffffffffffff\n      and\n        /* \"Contracts/Blind Auction.sol\":4574:4603  pendingReturns[highestBidder] */\n      0xffffffffffffffffffffffffffffffffffffffff\n      and\n      0xffffffffffffffffffffffffffffffffffffffff\n      and\n      dup2\n      mstore\n      0x20\n      add\n      swap1\n      dup2\n      mstore\n      0x20\n      add\n      0x00\n      keccak256\n      0x00\n        /* \"Contracts/Blind Auction.sol\":4574:4617  pendingReturns[highestBidder] += highestBid */\n      dup3\n      dup3\n      sload\n      tag_126\n      swap2\n      swap1\n      tag_108\n      jump\t// in\n    tag_126:\n      swap3\n      pop\n      pop\n      dup2\n      swap1\n      sstore\n      pop\n        /* \"Contracts/Blind Auction.sol\":4474:4628  if (highestBidder != address(0)) {... */\n    tag_125:\n        /* \"Contracts/Blind Auction.sol\":4650:4655  value */\n      dup2\n        /* \"Contracts/Blind Auction.sol\":4637:4647  highestBid */\n      0x06\n        /* \"Contracts/Blind Auction.sol\":4637:4655  highestBid = value */\n      dup2\n      swap1\n      sstore\n      pop\n        /* \"Contracts/Blind Auction.sol\":4681:4687  bidder */\n      dup3\n        /* \"Contracts/Blind Auction.sol\":4665:4678  highestBidder */\n      0x05\n      0x00\n        /* \"Contracts/Blind Auction.sol\":4665:4687  highestBidder = bidder */\n      0x0100\n      exp\n      dup2\n      sload\n      dup2\n      0xffffffffffffffffffffffffffffffffffffffff\n      mul\n      not\n      and\n      swap1\n      dup4\n      0xffffffffffffffffffffffffffffffffffffffff\n      and\n      mul\n      or\n      swap1\n      sstore\n      pop\n        /* \"Contracts/Blind Auction.sol\":4704:4708  true */\n      0x01\n        /* \"Contracts/Blind Auction.sol\":4697:4708  return true */\n      swap1\n      pop\n        /* \"Contracts/Blind Auction.sol\":4299:4715  function placeBid(address bidder, uint value) internal... */\n    tag_123:\n      swap3\n      swap2\n      pop\n      pop\n      jump\t// out\n        /* \"#utility.yul\":88:205   */\n    tag_128:\n        /* \"#utility.yul\":197:198   */\n      0x00\n        /* \"#utility.yul\":194:195   */\n      0x00\n        /* \"#utility.yul\":187:199   */\n      revert\n        /* \"#utility.yul\":211:328   */\n    tag_129:\n        /* \"#utility.yul\":320:321   */\n      0x00\n        /* \"#utility.yul\":317:318   */\n      0x00\n        /* \"#utility.yul\":310:322   */\n      revert\n        /* \"#utility.yul\":334:460   */\n    tag_130:\n        /* \"#utility.yul\":371:378   */\n      0x00\n        /* \"#utility.yul\":411:453   */\n      0xffffffffffffffffffffffffffffffffffffffff\n        /* \"#utility.yul\":404:409   */\n      dup3\n        /* \"#utility.yul\":400:454   */\n      and\n        /* \"#utility.yul\":389:454   */\n      swap1\n      pop\n        /* \"#utility.yul\":334:460   */\n      swap2\n      swap1\n      pop\n      jump\t// out\n        /* \"#utility.yul\":466:562   */\n    tag_131:\n        /* \"#utility.yul\":503:510   */\n      0x00\n        /* \"#utility.yul\":532:556   */\n      tag_170\n        /* \"#utility.yul\":550:555   */\n      dup3\n        /* \"#utility.yul\":532:556   */\n      tag_130\n      jump\t// in\n    tag_170:\n        /* \"#utility.yul\":521:556   */\n      swap1\n      pop\n        /* \"#utility.yul\":466:562   */\n      swap2\n      swap1\n      pop\n      jump\t// out\n        /* \"#utility.yul\":568:690   */\n    tag_132:\n        /* \"#utility.yul\":641:665   */\n      tag_172\n        /* \"#utility.yul\":659:664   */\n      dup2\n        /* \"#utility.yul\":641:665   */\n      tag_131\n      jump\t// in\n    tag_172:\n        /* \"#utility.yul\":634:639   */\n      dup2\n        /* \"#utility.yul\":631:666   */\n      eq\n        /* \"#utility.yul\":621:684   */\n      tag_173\n      jumpi\n        /* \"#utility.yul\":680:681   */\n      0x00\n        /* \"#utility.yul\":677:678   */\n      0x00\n        /* \"#utility.yul\":670:682   */\n      revert\n        /* \"#utility.yul\":621:684   */\n    tag_173:\n        /* \"#utility.yul\":568:690   */\n      pop\n      jump\t// out\n        /* \"#utility.yul\":696:835   */\n    tag_133:\n        /* \"#utility.yul\":742:747   */\n      0x00\n        /* \"#utility.yul\":780:786   */\n      dup2\n        /* \"#utility.yul\":767:787   */\n      calldataload\n        /* \"#utility.yul\":758:787   */\n      swap1\n      pop\n        /* \"#utility.yul\":796:829   */\n      tag_175\n        /* \"#utility.yul\":823:828   */\n      dup2\n        /* \"#utility.yul\":796:829   */\n      tag_132\n      jump\t// in\n    tag_175:\n        /* \"#utility.yul\":696:835   */\n      swap3\n      swap2\n      pop\n      pop\n      jump\t// out\n        /* \"#utility.yul\":841:918   */\n    tag_134:\n        /* \"#utility.yul\":878:885   */\n      0x00\n        /* \"#utility.yul\":907:912   */\n      dup2\n        /* \"#utility.yul\":896:912   */\n      swap1\n      pop\n        /* \"#utility.yul\":841:918   */\n      swap2\n      swap1\n      pop\n      jump\t// out\n        /* \"#utility.yul\":924:1046   */\n    tag_135:\n        /* \"#utility.yul\":997:1021   */\n      tag_178\n        /* \"#utility.yul\":1015:1020   */\n      dup2\n        /* \"#utility.yul\":997:1021   */\n      tag_134\n      jump\t// in\n    tag_178:\n        /* \"#utility.yul\":990:995   */\n      dup2\n        /* \"#utility.yul\":987:1022   */\n      eq\n        /* \"#utility.yul\":977:1040   */\n      tag_179\n      jumpi\n        /* \"#utility.yul\":1036:1037   */\n      0x00\n        /* \"#utility.yul\":1033:1034   */\n      0x00\n        /* \"#utility.yul\":1026:1038   */\n      revert\n        /* \"#utility.yul\":977:1040   */\n    tag_179:\n        /* \"#utility.yul\":924:1046   */\n      pop\n      jump\t// out\n        /* \"#utility.yul\":1052:1191   */\n    tag_136:\n        /* \"#utility.yul\":1098:1103   */\n      0x00\n        /* \"#utility.yul\":1136:1142   */\n      dup2\n        /* \"#utility.yul\":1123:1143   */\n      calldataload\n        /* \"#utility.yul\":1114:1143   */\n      swap1\n      pop\n        /* \"#utility.yul\":1152:1185   */\n      tag_181\n        /* \"#utility.yul\":1179:1184   */\n      dup2\n        /* \"#utility.yul\":1152:1185   */\n      tag_135\n      jump\t// in\n    tag_181:\n        /* \"#utility.yul\":1052:1191   */\n      swap3\n      swap2\n      pop\n      pop\n      jump\t// out\n        /* \"#utility.yul\":1197:1671   */\n    tag_17:\n        /* \"#utility.yul\":1265:1271   */\n      0x00\n        /* \"#utility.yul\":1273:1279   */\n      0x00\n        /* \"#utility.yul\":1322:1324   */\n      0x40\n        /* \"#utility.yul\":1310:1319   */\n      dup4\n        /* \"#utility.yul\":1301:1308   */\n      dup6\n        /* \"#utility.yul\":1297:1320   */\n      sub\n        /* \"#utility.yul\":1293:1325   */\n      slt\n        /* \"#utility.yul\":1290:1409   */\n      iszero\n      tag_183\n      jumpi\n        /* \"#utility.yul\":1328:1407   */\n      tag_184\n      tag_128\n      jump\t// in\n    tag_184:\n        /* \"#utility.yul\":1290:1409   */\n    tag_183:\n        /* \"#utility.yul\":1448:1449   */\n      0x00\n        /* \"#utility.yul\":1473:1526   */\n      tag_185\n        /* \"#utility.yul\":1518:1525   */\n      dup6\n        /* \"#utility.yul\":1509:1515   */\n      dup3\n        /* \"#utility.yul\":1498:1507   */\n      dup7\n        /* \"#utility.yul\":1494:1516   */\n      add\n        /* \"#utility.yul\":1473:1526   */\n      tag_133\n      jump\t// in\n    tag_185:\n        /* \"#utility.yul\":1463:1526   */\n      swap3\n      pop\n        /* \"#utility.yul\":1419:1536   */\n      pop\n        /* \"#utility.yul\":1575:1577   */\n      0x20\n        /* \"#utility.yul\":1601:1654   */\n      tag_186\n        /* \"#utility.yul\":1646:1653   */\n      dup6\n        /* \"#utility.yul\":1637:1643   */\n      dup3\n        /* \"#utility.yul\":1626:1635   */\n      dup7\n        /* \"#utility.yul\":1622:1644   */\n      add\n        /* \"#utility.yul\":1601:1654   */\n      tag_136\n      jump\t// in\n    tag_186:\n        /* \"#utility.yul\":1591:1654   */\n      swap2\n      pop\n        /* \"#utility.yul\":1546:1664   */\n      pop\n        /* \"#utility.yul\":1197:1671   */\n      swap3\n      pop\n      swap3\n      swap1\n      pop\n      jump\t// out\n        /* \"#utility.yul\":1677:1754   */\n    tag_137:\n        /* \"#utility.yul\":1714:1721   */\n      0x00\n        /* \"#utility.yul\":1743:1748   */\n      dup2\n        /* \"#utility.yul\":1732:1748   */\n      swap1\n      pop\n        /* \"#utility.yul\":1677:1754   */\n      swap2\n      swap1\n      pop\n      jump\t// out\n        /* \"#utility.yul\":1760:1878   */\n    tag_138:\n        /* \"#utility.yul\":1847:1871   */\n      tag_189\n        /* \"#utility.yul\":1865:1870   */\n      dup2\n        /* \"#utility.yul\":1847:1871   */\n      tag_137\n      jump\t// in\n    tag_189:\n        /* \"#utility.yul\":1842:1845   */\n      dup3\n        /* \"#utility.yul\":1835:1872   */\n      mstore\n        /* \"#utility.yul\":1760:1878   */\n      pop\n      pop\n      jump\t// out\n        /* \"#utility.yul\":1884:2002   */\n    tag_139:\n        /* \"#utility.yul\":1971:1995   */\n      tag_191\n        /* \"#utility.yul\":1989:1994   */\n      dup2\n        /* \"#utility.yul\":1971:1995   */\n      tag_134\n      jump\t// in\n    tag_191:\n        /* \"#utility.yul\":1966:1969   */\n      dup3\n        /* \"#utility.yul\":1959:1996   */\n      mstore\n        /* \"#utility.yul\":1884:2002   */\n      pop\n      pop\n      jump\t// out\n        /* \"#utility.yul\":2008:2340   */\n    tag_20:\n        /* \"#utility.yul\":2129:2133   */\n      0x00\n        /* \"#utility.yul\":2167:2169   */\n      0x40\n        /* \"#utility.yul\":2156:2165   */\n      dup3\n        /* \"#utility.yul\":2152:2170   */\n      add\n        /* \"#utility.yul\":2144:2170   */\n      swap1\n      pop\n        /* \"#utility.yul\":2180:2251   */\n      tag_193\n        /* \"#utility.yul\":2248:2249   */\n      0x00\n        /* \"#utility.yul\":2237:2246   */\n      dup4\n        /* \"#utility.yul\":2233:2250   */\n      add\n        /* \"#utility.yul\":2224:2230   */\n      dup6\n        /* \"#utility.yul\":2180:2251   */\n      tag_138\n      jump\t// in\n    tag_193:\n        /* \"#utility.yul\":2261:2333   */\n      tag_194\n        /* \"#utility.yul\":2329:2331   */\n      0x20\n        /* \"#utility.yul\":2318:2327   */\n      dup4\n        /* \"#utility.yul\":2314:2332   */\n      add\n        /* \"#utility.yul\":2305:2311   */\n      dup5\n        /* \"#utility.yul\":2261:2333   */\n      tag_139\n      jump\t// in\n    tag_194:\n        /* \"#utility.yul\":2008:2340   */\n      swap4\n      swap3\n      pop\n      pop\n      pop\n      jump\t// out\n        /* \"#utility.yul\":2346:2436   */\n    tag_140:\n        /* \"#utility.yul\":2380:2387   */\n      0x00\n        /* \"#utility.yul\":2423:2428   */\n      dup2\n        /* \"#utility.yul\":2416:2429   */\n      iszero\n        /* \"#utility.yul\":2409:2430   */\n      iszero\n        /* \"#utility.yul\":2398:2430   */\n      swap1\n      pop\n        /* \"#utility.yul\":2346:2436   */\n      swap2\n      swap1\n      pop\n      jump\t// out\n        /* \"#utility.yul\":2442:2551   */\n    tag_141:\n        /* \"#utility.yul\":2523:2544   */\n      tag_197\n        /* \"#utility.yul\":2538:2543   */\n      dup2\n        /* \"#utility.yul\":2523:2544   */\n      tag_140\n      jump\t// in\n    tag_197:\n        /* \"#utility.yul\":2518:2521   */\n      dup3\n        /* \"#utility.yul\":2511:2545   */\n      mstore\n        /* \"#utility.yul\":2442:2551   */\n      pop\n      pop\n      jump\t// out\n        /* \"#utility.yul\":2557:2767   */\n    tag_25:\n        /* \"#utility.yul\":2644:2648   */\n      0x00\n        /* \"#utility.yul\":2682:2684   */\n      0x20\n        /* \"#utility.yul\":2671:2680   */\n      dup3\n        /* \"#utility.yul\":2667:2685   */\n      add\n        /* \"#utility.yul\":2659:2685   */\n      swap1\n      pop\n        /* \"#utility.yul\":2695:2760   */\n      tag_199\n        /* \"#utility.yul\":2757:2758   */\n      0x00\n        /* \"#utility.yul\":2746:2755   */\n      dup4\n        /* \"#utility.yul\":2742:2759   */\n      add\n        /* \"#utility.yul\":2733:2739   */\n      dup5\n        /* \"#utility.yul\":2695:2760   */\n      tag_141\n      jump\t// in\n    tag_199:\n        /* \"#utility.yul\":2557:2767   */\n      swap3\n      swap2\n      pop\n      pop\n      jump\t// out\n        /* \"#utility.yul\":2773:2877   */\n    tag_142:\n        /* \"#utility.yul\":2818:2825   */\n      0x00\n        /* \"#utility.yul\":2847:2871   */\n      tag_201\n        /* \"#utility.yul\":2865:2870   */\n      dup3\n        /* \"#utility.yul\":2847:2871   */\n      tag_130\n      jump\t// in\n    tag_201:\n        /* \"#utility.yul\":2836:2871   */\n      swap1\n      pop\n        /* \"#utility.yul\":2773:2877   */\n      swap2\n      swap1\n      pop\n      jump\t// out\n        /* \"#utility.yul\":2883:3025   */\n    tag_143:\n        /* \"#utility.yul\":2986:3018   */\n      tag_203\n        /* \"#utility.yul\":3012:3017   */\n      dup2\n        /* \"#utility.yul\":2986:3018   */\n      tag_142\n      jump\t// in\n    tag_203:\n        /* \"#utility.yul\":2981:2984   */\n      dup3\n        /* \"#utility.yul\":2974:3019   */\n      mstore\n        /* \"#utility.yul\":2883:3025   */\n      pop\n      pop\n      jump\t// out\n        /* \"#utility.yul\":3031:3285   */\n    tag_33:\n        /* \"#utility.yul\":3140:3144   */\n      0x00\n        /* \"#utility.yul\":3178:3180   */\n      0x20\n        /* \"#utility.yul\":3167:3176   */\n      dup3\n        /* \"#utility.yul\":3163:3181   */\n      add\n        /* \"#utility.yul\":3155:3181   */\n      swap1\n      pop\n        /* \"#utility.yul\":3191:3278   */\n      tag_205\n        /* \"#utility.yul\":3275:3276   */\n      0x00\n        /* \"#utility.yul\":3264:3273   */\n      dup4\n        /* \"#utility.yul\":3260:3277   */\n      add\n        /* \"#utility.yul\":3251:3257   */\n      dup5\n        /* \"#utility.yul\":3191:3278   */\n      tag_143\n      jump\t// in\n    tag_205:\n        /* \"#utility.yul\":3031:3285   */\n      swap3\n      swap2\n      pop\n      pop\n      jump\t// out\n        /* \"#utility.yul\":3291:3513   */\n    tag_41:\n        /* \"#utility.yul\":3384:3388   */\n      0x00\n        /* \"#utility.yul\":3422:3424   */\n      0x20\n        /* \"#utility.yul\":3411:3420   */\n      dup3\n        /* \"#utility.yul\":3407:3425   */\n      add\n        /* \"#utility.yul\":3399:3425   */\n      swap1\n      pop\n        /* \"#utility.yul\":3435:3506   */\n      tag_207\n        /* \"#utility.yul\":3503:3504   */\n      0x00\n        /* \"#utility.yul\":3492:3501   */\n      dup4\n        /* \"#utility.yul\":3488:3505   */\n      add\n        /* \"#utility.yul\":3479:3485   */\n      dup5\n        /* \"#utility.yul\":3435:3506   */\n      tag_139\n      jump\t// in\n    tag_207:\n        /* \"#utility.yul\":3291:3513   */\n      swap3\n      swap2\n      pop\n      pop\n      jump\t// out\n        /* \"#utility.yul\":3519:3636   */\n    tag_144:\n        /* \"#utility.yul\":3628:3629   */\n      0x00\n        /* \"#utility.yul\":3625:3626   */\n      0x00\n        /* \"#utility.yul\":3618:3630   */\n      revert\n        /* \"#utility.yul\":3642:3759   */\n    tag_145:\n        /* \"#utility.yul\":3751:3752   */\n      0x00\n        /* \"#utility.yul\":3748:3749   */\n      0x00\n        /* \"#utility.yul\":3741:3753   */\n      revert\n        /* \"#utility.yul\":3765:3882   */\n    tag_146:\n        /* \"#utility.yul\":3874:3875   */\n      0x00\n        /* \"#utility.yul\":3871:3872   */\n      0x00\n        /* \"#utility.yul\":3864:3876   */\n      revert\n        /* \"#utility.yul\":3905:4473   */\n    tag_147:\n        /* \"#utility.yul\":3978:3986   */\n      0x00\n        /* \"#utility.yul\":3988:3994   */\n      0x00\n        /* \"#utility.yul\":4038:4041   */\n      dup4\n        /* \"#utility.yul\":4031:4035   */\n      0x1f\n        /* \"#utility.yul\":4023:4029   */\n      dup5\n        /* \"#utility.yul\":4019:4036   */\n      add\n        /* \"#utility.yul\":4015:4042   */\n      slt\n        /* \"#utility.yul\":4005:4127   */\n      tag_212\n      jumpi\n        /* \"#utility.yul\":4046:4125   */\n      tag_213\n      tag_144\n      jump\t// in\n    tag_213:\n        /* \"#utility.yul\":4005:4127   */\n    tag_212:\n        /* \"#utility.yul\":4159:4165   */\n      dup3\n        /* \"#utility.yul\":4146:4166   */\n      calldataload\n        /* \"#utility.yul\":4136:4166   */\n      swap1\n      pop\n        /* \"#utility.yul\":4189:4207   */\n      0xffffffffffffffff\n        /* \"#utility.yul\":4181:4187   */\n      dup2\n        /* \"#utility.yul\":4178:4208   */\n      gt\n        /* \"#utility.yul\":4175:4292   */\n      iszero\n      tag_214\n      jumpi\n        /* \"#utility.yul\":4211:4290   */\n      tag_215\n      tag_145\n      jump\t// in\n    tag_215:\n        /* \"#utility.yul\":4175:4292   */\n    tag_214:\n        /* \"#utility.yul\":4325:4329   */\n      0x20\n        /* \"#utility.yul\":4317:4323   */\n      dup4\n        /* \"#utility.yul\":4313:4330   */\n      add\n        /* \"#utility.yul\":4301:4330   */\n      swap2\n      pop\n        /* \"#utility.yul\":4379:4382   */\n      dup4\n        /* \"#utility.yul\":4371:4375   */\n      0x20\n        /* \"#utility.yul\":4363:4369   */\n      dup3\n        /* \"#utility.yul\":4359:4376   */\n      mul\n        /* \"#utility.yul\":4349:4357   */\n      dup4\n        /* \"#utility.yul\":4345:4377   */\n      add\n        /* \"#utility.yul\":4342:4383   */\n      gt\n        /* \"#utility.yul\":4339:4467   */\n      iszero\n      tag_216\n      jumpi\n        /* \"#utility.yul\":4386:4465   */\n      tag_217\n      tag_146\n      jump\t// in\n    tag_217:\n        /* \"#utility.yul\":4339:4467   */\n    tag_216:\n        /* \"#utility.yul\":3905:4473   */\n      swap3\n      pop\n      swap3\n      swap1\n      pop\n      jump\t// out\n        /* \"#utility.yul\":4493:5058   */\n    tag_148:\n        /* \"#utility.yul\":4563:4571   */\n      0x00\n        /* \"#utility.yul\":4573:4579   */\n      0x00\n        /* \"#utility.yul\":4623:4626   */\n      dup4\n        /* \"#utility.yul\":4616:4620   */\n      0x1f\n        /* \"#utility.yul\":4608:4614   */\n      dup5\n        /* \"#utility.yul\":4604:4621   */\n      add\n        /* \"#utility.yul\":4600:4627   */\n      slt\n        /* \"#utility.yul\":4590:4712   */\n      tag_219\n      jumpi\n        /* \"#utility.yul\":4631:4710   */\n      tag_220\n      tag_144\n      jump\t// in\n    tag_220:\n        /* \"#utility.yul\":4590:4712   */\n    tag_219:\n        /* \"#utility.yul\":4744:4750   */\n      dup3\n        /* \"#utility.yul\":4731:4751   */\n      calldataload\n        /* \"#utility.yul\":4721:4751   */\n      swap1\n      pop\n        /* \"#utility.yul\":4774:4792   */\n      0xffffffffffffffff\n        /* \"#utility.yul\":4766:4772   */\n      dup2\n        /* \"#utility.yul\":4763:4793   */\n      gt\n        /* \"#utility.yul\":4760:4877   */\n      iszero\n      tag_221\n      jumpi\n        /* \"#utility.yul\":4796:4875   */\n      tag_222\n      tag_145\n      jump\t// in\n    tag_222:\n        /* \"#utility.yul\":4760:4877   */\n    tag_221:\n        /* \"#utility.yul\":4910:4914   */\n      0x20\n        /* \"#utility.yul\":4902:4908   */\n      dup4\n        /* \"#utility.yul\":4898:4915   */\n      add\n        /* \"#utility.yul\":4886:4915   */\n      swap2\n      pop\n        /* \"#utility.yul\":4964:4967   */\n      dup4\n        /* \"#utility.yul\":4956:4960   */\n      0x20\n        /* \"#utility.yul\":4948:4954   */\n      dup3\n        /* \"#utility.yul\":4944:4961   */\n      mul\n        /* \"#utility.yul\":4934:4942   */\n      dup4\n        /* \"#utility.yul\":4930:4962   */\n      add\n        /* \"#utility.yul\":4927:4968   */\n      gt\n        /* \"#utility.yul\":4924:5052   */\n      iszero\n      tag_223\n      jumpi\n        /* \"#utility.yul\":4971:5050   */\n      tag_224\n      tag_146\n      jump\t// in\n    tag_224:\n        /* \"#utility.yul\":4924:5052   */\n    tag_223:\n        /* \"#utility.yul\":4493:5058   */\n      swap3\n      pop\n      swap3\n      swap1\n      pop\n      jump\t// out\n        /* \"#utility.yul\":5081:5649   */\n    tag_149:\n        /* \"#utility.yul\":5154:5162   */\n      0x00\n        /* \"#utility.yul\":5164:5170   */\n      0x00\n        /* \"#utility.yul\":5214:5217   */\n      dup4\n        /* \"#utility.yul\":5207:5211   */\n      0x1f\n        /* \"#utility.yul\":5199:5205   */\n      dup5\n        /* \"#utility.yul\":5195:5212   */\n      add\n        /* \"#utility.yul\":5191:5218   */\n      slt\n        /* \"#utility.yul\":5181:5303   */\n      tag_226\n      jumpi\n        /* \"#utility.yul\":5222:5301   */\n      tag_227\n      tag_144\n      jump\t// in\n    tag_227:\n        /* \"#utility.yul\":5181:5303   */\n    tag_226:\n        /* \"#utility.yul\":5335:5341   */\n      dup3\n        /* \"#utility.yul\":5322:5342   */\n      calldataload\n        /* \"#utility.yul\":5312:5342   */\n      swap1\n      pop\n        /* \"#utility.yul\":5365:5383   */\n      0xffffffffffffffff\n        /* \"#utility.yul\":5357:5363   */\n      dup2\n        /* \"#utility.yul\":5354:5384   */\n      gt\n        /* \"#utility.yul\":5351:5468   */\n      iszero\n      tag_228\n      jumpi\n        /* \"#utility.yul\":5387:5466   */\n      tag_229\n      tag_145\n      jump\t// in\n    tag_229:\n        /* \"#utility.yul\":5351:5468   */\n    tag_228:\n        /* \"#utility.yul\":5501:5505   */\n      0x20\n        /* \"#utility.yul\":5493:5499   */\n      dup4\n        /* \"#utility.yul\":5489:5506   */\n      add\n        /* \"#utility.yul\":5477:5506   */\n      swap2\n      pop\n        /* \"#utility.yul\":5555:5558   */\n      dup4\n        /* \"#utility.yul\":5547:5551   */\n      0x20\n        /* \"#utility.yul\":5539:5545   */\n      dup3\n        /* \"#utility.yul\":5535:5552   */\n      mul\n        /* \"#utility.yul\":5525:5533   */\n      dup4\n        /* \"#utility.yul\":5521:5553   */\n      add\n        /* \"#utility.yul\":5518:5559   */\n      gt\n        /* \"#utility.yul\":5515:5643   */\n      iszero\n      tag_230\n      jumpi\n        /* \"#utility.yul\":5562:5641   */\n      tag_231\n      tag_146\n      jump\t// in\n    tag_231:\n        /* \"#utility.yul\":5515:5643   */\n    tag_230:\n        /* \"#utility.yul\":5081:5649   */\n      swap3\n      pop\n      swap3\n      swap1\n      pop\n      jump\t// out\n        /* \"#utility.yul\":5655:6958   */\n    tag_45:\n        /* \"#utility.yul\":5810:5816   */\n      0x00\n        /* \"#utility.yul\":5818:5824   */\n      0x00\n        /* \"#utility.yul\":5826:5832   */\n      0x00\n        /* \"#utility.yul\":5834:5840   */\n      0x00\n        /* \"#utility.yul\":5842:5848   */\n      0x00\n        /* \"#utility.yul\":5850:5856   */\n      0x00\n        /* \"#utility.yul\":5899:5901   */\n      0x60\n        /* \"#utility.yul\":5887:5896   */\n      dup8\n        /* \"#utility.yul\":5878:5885   */\n      dup10\n        /* \"#utility.yul\":5874:5897   */\n      sub\n        /* \"#utility.yul\":5870:5902   */\n      slt\n        /* \"#utility.yul\":5867:5986   */\n      iszero\n      tag_233\n      jumpi\n        /* \"#utility.yul\":5905:5984   */\n      tag_234\n      tag_128\n      jump\t// in\n    tag_234:\n        /* \"#utility.yul\":5867:5986   */\n    tag_233:\n        /* \"#utility.yul\":6053:6054   */\n      0x00\n        /* \"#utility.yul\":6042:6051   */\n      dup8\n        /* \"#utility.yul\":6038:6055   */\n      add\n        /* \"#utility.yul\":6025:6056   */\n      calldataload\n        /* \"#utility.yul\":6083:6101   */\n      0xffffffffffffffff\n        /* \"#utility.yul\":6075:6081   */\n      dup2\n        /* \"#utility.yul\":6072:6102   */\n      gt\n        /* \"#utility.yul\":6069:6186   */\n      iszero\n      tag_235\n      jumpi\n        /* \"#utility.yul\":6105:6184   */\n      tag_236\n      tag_129\n      jump\t// in\n    tag_236:\n        /* \"#utility.yul\":6069:6186   */\n    tag_235:\n        /* \"#utility.yul\":6218:6298   */\n      tag_237\n        /* \"#utility.yul\":6290:6297   */\n      dup10\n        /* \"#utility.yul\":6281:6287   */\n      dup3\n        /* \"#utility.yul\":6270:6279   */\n      dup11\n        /* \"#utility.yul\":6266:6288   */\n      add\n        /* \"#utility.yul\":6218:6298   */\n      tag_147\n      jump\t// in\n    tag_237:\n        /* \"#utility.yul\":6200:6298   */\n      swap7\n      pop\n      swap7\n      pop\n        /* \"#utility.yul\":5996:6308   */\n      pop\n        /* \"#utility.yul\":6375:6377   */\n      0x20\n        /* \"#utility.yul\":6364:6373   */\n      dup8\n        /* \"#utility.yul\":6360:6378   */\n      add\n        /* \"#utility.yul\":6347:6379   */\n      calldataload\n        /* \"#utility.yul\":6406:6424   */\n      0xffffffffffffffff\n        /* \"#utility.yul\":6398:6404   */\n      dup2\n        /* \"#utility.yul\":6395:6425   */\n      gt\n        /* \"#utility.yul\":6392:6509   */\n      iszero\n      tag_238\n      jumpi\n        /* \"#utility.yul\":6428:6507   */\n      tag_239\n      tag_129\n      jump\t// in\n    tag_239:\n        /* \"#utility.yul\":6392:6509   */\n    tag_238:\n        /* \"#utility.yul\":6541:6618   */\n      tag_240\n        /* \"#utility.yul\":6610:6617   */\n      dup10\n        /* \"#utility.yul\":6601:6607   */\n      dup3\n        /* \"#utility.yul\":6590:6599   */\n      dup11\n        /* \"#utility.yul\":6586:6608   */\n      add\n        /* \"#utility.yul\":6541:6618   */\n      tag_148\n      jump\t// in\n    tag_240:\n        /* \"#utility.yul\":6523:6618   */\n      swap5\n      pop\n      swap5\n      pop\n        /* \"#utility.yul\":6318:6628   */\n      pop\n        /* \"#utility.yul\":6695:6697   */\n      0x40\n        /* \"#utility.yul\":6684:6693   */\n      dup8\n        /* \"#utility.yul\":6680:6698   */\n      add\n        /* \"#utility.yul\":6667:6699   */\n      calldataload\n        /* \"#utility.yul\":6726:6744   */\n      0xffffffffffffffff\n        /* \"#utility.yul\":6718:6724   */\n      dup2\n        /* \"#utility.yul\":6715:6745   */\n      gt\n        /* \"#utility.yul\":6712:6829   */\n      iszero\n      tag_241\n      jumpi\n        /* \"#utility.yul\":6748:6827   */\n      tag_242\n      tag_129\n      jump\t// in\n    tag_242:\n        /* \"#utility.yul\":6712:6829   */\n    tag_241:\n        /* \"#utility.yul\":6861:6941   */\n      tag_243\n        /* \"#utility.yul\":6933:6940   */\n      dup10\n        /* \"#utility.yul\":6924:6930   */\n      dup3\n        /* \"#utility.yul\":6913:6922   */\n      dup11\n        /* \"#utility.yul\":6909:6931   */\n      add\n        /* \"#utility.yul\":6861:6941   */\n      tag_149\n      jump\t// in\n    tag_243:\n        /* \"#utility.yul\":6843:6941   */\n      swap3\n      pop\n      swap3\n      pop\n        /* \"#utility.yul\":6638:6951   */\n      pop\n        /* \"#utility.yul\":5655:6958   */\n      swap3\n      swap6\n      pop\n      swap3\n      swap6\n      pop\n      swap3\n      swap6\n      jump\t// out\n        /* \"#utility.yul\":6964:7082   */\n    tag_150:\n        /* \"#utility.yul\":7051:7075   */\n      tag_245\n        /* \"#utility.yul\":7069:7074   */\n      dup2\n        /* \"#utility.yul\":7051:7075   */\n      tag_131\n      jump\t// in\n    tag_245:\n        /* \"#utility.yul\":7046:7049   */\n      dup3\n        /* \"#utility.yul\":7039:7076   */\n      mstore\n        /* \"#utility.yul\":6964:7082   */\n      pop\n      pop\n      jump\t// out\n        /* \"#utility.yul\":7088:7310   */\n    tag_51:\n        /* \"#utility.yul\":7181:7185   */\n      0x00\n        /* \"#utility.yul\":7219:7221   */\n      0x20\n        /* \"#utility.yul\":7208:7217   */\n      dup3\n        /* \"#utility.yul\":7204:7222   */\n      add\n        /* \"#utility.yul\":7196:7222   */\n      swap1\n      pop\n        /* \"#utility.yul\":7232:7303   */\n      tag_247\n        /* \"#utility.yul\":7300:7301   */\n      0x00\n        /* \"#utility.yul\":7289:7298   */\n      dup4\n        /* \"#utility.yul\":7285:7302   */\n      add\n        /* \"#utility.yul\":7276:7282   */\n      dup5\n        /* \"#utility.yul\":7232:7303   */\n      tag_150\n      jump\t// in\n    tag_247:\n        /* \"#utility.yul\":7088:7310   */\n      swap3\n      swap2\n      pop\n      pop\n      jump\t// out\n        /* \"#utility.yul\":7316:7438   */\n    tag_151:\n        /* \"#utility.yul\":7389:7413   */\n      tag_249\n        /* \"#utility.yul\":7407:7412   */\n      dup2\n        /* \"#utility.yul\":7389:7413   */\n      tag_137\n      jump\t// in\n    tag_249:\n        /* \"#utility.yul\":7382:7387   */\n      dup2\n        /* \"#utility.yul\":7379:7414   */\n      eq\n        /* \"#utility.yul\":7369:7432   */\n      tag_250\n      jumpi\n        /* \"#utility.yul\":7428:7429   */\n      0x00\n        /* \"#utility.yul\":7425:7426   */\n      0x00\n        /* \"#utility.yul\":7418:7430   */\n      revert\n        /* \"#utility.yul\":7369:7432   */\n    tag_250:\n        /* \"#utility.yul\":7316:7438   */\n      pop\n      jump\t// out\n        /* \"#utility.yul\":7444:7583   */\n    tag_152:\n        /* \"#utility.yul\":7490:7495   */\n      0x00\n        /* \"#utility.yul\":7528:7534   */\n      dup2\n        /* \"#utility.yul\":7515:7535   */\n      calldataload\n        /* \"#utility.yul\":7506:7535   */\n      swap1\n      pop\n        /* \"#utility.yul\":7544:7577   */\n      tag_252\n        /* \"#utility.yul\":7571:7576   */\n      dup2\n        /* \"#utility.yul\":7544:7577   */\n      tag_151\n      jump\t// in\n    tag_252:\n        /* \"#utility.yul\":7444:7583   */\n      swap3\n      swap2\n      pop\n      pop\n      jump\t// out\n        /* \"#utility.yul\":7589:7918   */\n    tag_54:\n        /* \"#utility.yul\":7648:7654   */\n      0x00\n        /* \"#utility.yul\":7697:7699   */\n      0x20\n        /* \"#utility.yul\":7685:7694   */\n      dup3\n        /* \"#utility.yul\":7676:7683   */\n      dup5\n        /* \"#utility.yul\":7672:7695   */\n      sub\n        /* \"#utility.yul\":7668:7700   */\n      slt\n        /* \"#utility.yul\":7665:7784   */\n      iszero\n      tag_254\n      jumpi\n        /* \"#utility.yul\":7703:7782   */\n      tag_255\n      tag_128\n      jump\t// in\n    tag_255:\n        /* \"#utility.yul\":7665:7784   */\n    tag_254:\n        /* \"#utility.yul\":7823:7824   */\n      0x00\n        /* \"#utility.yul\":7848:7901   */\n      tag_256\n        /* \"#utility.yul\":7893:7900   */\n      dup5\n        /* \"#utility.yul\":7884:7890   */\n      dup3\n        /* \"#utility.yul\":7873:7882   */\n      dup6\n        /* \"#utility.yul\":7869:7891   */\n      add\n        /* \"#utility.yul\":7848:7901   */\n      tag_152\n      jump\t// in\n    tag_256:\n        /* \"#utility.yul\":7838:7901   */\n      swap2\n      pop\n        /* \"#utility.yul\":7794:7911   */\n      pop\n        /* \"#utility.yul\":7589:7918   */\n      swap3\n      swap2\n      pop\n      pop\n      jump\t// out\n        /* \"#utility.yul\":7924:8256   */\n    tag_72:\n        /* \"#utility.yul\":8045:8049   */\n      0x00\n        /* \"#utility.yul\":8083:8085   */\n      0x40\n        /* \"#utility.yul\":8072:8081   */\n      dup3\n        /* \"#utility.yul\":8068:8086   */\n      add\n        /* \"#utility.yul\":8060:8086   */\n      swap1\n      pop\n        /* \"#utility.yul\":8096:8167   */\n      tag_258\n        /* \"#utility.yul\":8164:8165   */\n      0x00\n        /* \"#utility.yul\":8153:8162   */\n      dup4\n        /* \"#utility.yul\":8149:8166   */\n      add\n        /* \"#utility.yul\":8140:8146   */\n      dup6\n        /* \"#utility.yul\":8096:8167   */\n      tag_150\n      jump\t// in\n    tag_258:\n        /* \"#utility.yul\":8177:8249   */\n      tag_259\n        /* \"#utility.yul\":8245:8247   */\n      0x20\n        /* \"#utility.yul\":8234:8243   */\n      dup4\n        /* \"#utility.yul\":8230:8248   */\n      add\n        /* \"#utility.yul\":8221:8227   */\n      dup5\n        /* \"#utility.yul\":8177:8249   */\n      tag_139\n      jump\t// in\n    tag_259:\n        /* \"#utility.yul\":7924:8256   */\n      swap4\n      swap3\n      pop\n      pop\n      pop\n      jump\t// out\n        /* \"#utility.yul\":8262:8442   */\n    tag_94:\n        /* \"#utility.yul\":8310:8387   */\n      0x4e487b7100000000000000000000000000000000000000000000000000000000\n        /* \"#utility.yul\":8307:8308   */\n      0x00\n        /* \"#utility.yul\":8300:8388   */\n      mstore\n        /* \"#utility.yul\":8407:8411   */\n      0x32\n        /* \"#utility.yul\":8404:8405   */\n      0x04\n        /* \"#utility.yul\":8397:8412   */\n      mstore\n        /* \"#utility.yul\":8431:8435   */\n      0x24\n        /* \"#utility.yul\":8428:8429   */\n      0x00\n        /* \"#utility.yul\":8421:8436   */\n      revert\n        /* \"#utility.yul\":8448:8564   */\n    tag_153:\n        /* \"#utility.yul\":8518:8539   */\n      tag_262\n        /* \"#utility.yul\":8533:8538   */\n      dup2\n        /* \"#utility.yul\":8518:8539   */\n      tag_140\n      jump\t// in\n    tag_262:\n        /* \"#utility.yul\":8511:8516   */\n      dup2\n        /* \"#utility.yul\":8508:8540   */\n      eq\n        /* \"#utility.yul\":8498:8558   */\n      tag_263\n      jumpi\n        /* \"#utility.yul\":8554:8555   */\n      0x00\n        /* \"#utility.yul\":8551:8552   */\n      0x00\n        /* \"#utility.yul\":8544:8556   */\n      revert\n        /* \"#utility.yul\":8498:8558   */\n    tag_263:\n        /* \"#utility.yul\":8448:8564   */\n      pop\n      jump\t// out\n        /* \"#utility.yul\":8570:8703   */\n    tag_154:\n        /* \"#utility.yul\":8613:8618   */\n      0x00\n        /* \"#utility.yul\":8651:8657   */\n      dup2\n        /* \"#utility.yul\":8638:8658   */\n      calldataload\n        /* \"#utility.yul\":8629:8658   */\n      swap1\n      pop\n        /* \"#utility.yul\":8667:8697   */\n      tag_265\n        /* \"#utility.yul\":8691:8696   */\n      dup2\n        /* \"#utility.yul\":8667:8697   */\n      tag_153\n      jump\t// in\n    tag_265:\n        /* \"#utility.yul\":8570:8703   */\n      swap3\n      swap2\n      pop\n      pop\n      jump\t// out\n        /* \"#utility.yul\":8709:9032   */\n    tag_101:\n        /* \"#utility.yul\":8765:8771   */\n      0x00\n        /* \"#utility.yul\":8814:8816   */\n      0x20\n        /* \"#utility.yul\":8802:8811   */\n      dup3\n        /* \"#utility.yul\":8793:8800   */\n      dup5\n        /* \"#utility.yul\":8789:8812   */\n      sub\n        /* \"#utility.yul\":8785:8817   */\n      slt\n        /* \"#utility.yul\":8782:8901   */\n      iszero\n      tag_267\n      jumpi\n        /* \"#utility.yul\":8820:8899   */\n      tag_268\n      tag_128\n      jump\t// in\n    tag_268:\n        /* \"#utility.yul\":8782:8901   */\n    tag_267:\n        /* \"#utility.yul\":8940:8941   */\n      0x00\n        /* \"#utility.yul\":8965:9015   */\n      tag_269\n        /* \"#utility.yul\":9007:9014   */\n      dup5\n        /* \"#utility.yul\":8998:9004   */\n      dup3\n        /* \"#utility.yul\":8987:8996   */\n      dup6\n        /* \"#utility.yul\":8983:9005   */\n      add\n        /* \"#utility.yul\":8965:9015   */\n      tag_154\n      jump\t// in\n    tag_269:\n        /* \"#utility.yul\":8955:9015   */\n      swap2\n      pop\n        /* \"#utility.yul\":8911:9025   */\n      pop\n        /* \"#utility.yul\":8709:9032   */\n      swap3\n      swap2\n      pop\n      pop\n      jump\t// out\n        /* \"#utility.yul\":9038:9117   */\n    tag_155:\n        /* \"#utility.yul\":9077:9084   */\n      0x00\n        /* \"#utility.yul\":9106:9111   */\n      dup2\n        /* \"#utility.yul\":9095:9111   */\n      swap1\n      pop\n        /* \"#utility.yul\":9038:9117   */\n      swap2\n      swap1\n      pop\n      jump\t// out\n        /* \"#utility.yul\":9123:9280   */\n    tag_156:\n        /* \"#utility.yul\":9228:9273   */\n      tag_272\n        /* \"#utility.yul\":9248:9272   */\n      tag_273\n        /* \"#utility.yul\":9266:9271   */\n      dup3\n        /* \"#utility.yul\":9248:9272   */\n      tag_134\n      jump\t// in\n    tag_273:\n        /* \"#utility.yul\":9228:9273   */\n      tag_155\n      jump\t// in\n    tag_272:\n        /* \"#utility.yul\":9223:9226   */\n      dup3\n        /* \"#utility.yul\":9216:9274   */\n      mstore\n        /* \"#utility.yul\":9123:9280   */\n      pop\n      pop\n      jump\t// out\n        /* \"#utility.yul\":9286:9382   */\n    tag_157:\n        /* \"#utility.yul\":9320:9328   */\n      0x00\n        /* \"#utility.yul\":9369:9374   */\n      dup2\n        /* \"#utility.yul\":9364:9367   */\n      0xf8\n        /* \"#utility.yul\":9360:9375   */\n      shl\n        /* \"#utility.yul\":9339:9375   */\n      swap1\n      pop\n        /* \"#utility.yul\":9286:9382   */\n      swap2\n      swap1\n      pop\n      jump\t// out\n        /* \"#utility.yul\":9388:9481   */\n    tag_158:\n        /* \"#utility.yul\":9425:9432   */\n      0x00\n        /* \"#utility.yul\":9454:9475   */\n      tag_276\n        /* \"#utility.yul\":9469:9474   */\n      dup3\n        /* \"#utility.yul\":9454:9475   */\n      tag_157\n      jump\t// in\n    tag_276:\n        /* \"#utility.yul\":9443:9475   */\n      swap1\n      pop\n        /* \"#utility.yul\":9388:9481   */\n      swap2\n      swap1\n      pop\n      jump\t// out\n        /* \"#utility.yul\":9487:9582   */\n    tag_159:\n        /* \"#utility.yul\":9523:9530   */\n      0x00\n        /* \"#utility.yul\":9552:9576   */\n      tag_278\n        /* \"#utility.yul\":9570:9575   */\n      dup3\n        /* \"#utility.yul\":9552:9576   */\n      tag_158\n      jump\t// in\n    tag_278:\n        /* \"#utility.yul\":9541:9576   */\n      swap1\n      pop\n        /* \"#utility.yul\":9487:9582   */\n      swap2\n      swap1\n      pop\n      jump\t// out\n        /* \"#utility.yul\":9588:9733   */\n    tag_160:\n        /* \"#utility.yul\":9687:9726   */\n      tag_280\n        /* \"#utility.yul\":9704:9725   */\n      tag_281\n        /* \"#utility.yul\":9719:9724   */\n      dup3\n        /* \"#utility.yul\":9704:9725   */\n      tag_140\n      jump\t// in\n    tag_281:\n        /* \"#utility.yul\":9687:9726   */\n      tag_159\n      jump\t// in\n    tag_280:\n        /* \"#utility.yul\":9682:9685   */\n      dup3\n        /* \"#utility.yul\":9675:9727   */\n      mstore\n        /* \"#utility.yul\":9588:9733   */\n      pop\n      pop\n      jump\t// out\n        /* \"#utility.yul\":9739:9818   */\n    tag_161:\n        /* \"#utility.yul\":9778:9785   */\n      0x00\n        /* \"#utility.yul\":9807:9812   */\n      dup2\n        /* \"#utility.yul\":9796:9812   */\n      swap1\n      pop\n        /* \"#utility.yul\":9739:9818   */\n      swap2\n      swap1\n      pop\n      jump\t// out\n        /* \"#utility.yul\":9824:9981   */\n    tag_162:\n        /* \"#utility.yul\":9929:9974   */\n      tag_284\n        /* \"#utility.yul\":9949:9973   */\n      tag_285\n        /* \"#utility.yul\":9967:9972   */\n      dup3\n        /* \"#utility.yul\":9949:9973   */\n      tag_137\n      jump\t// in\n    tag_285:\n        /* \"#utility.yul\":9929:9974   */\n      tag_161\n      jump\t// in\n    tag_284:\n        /* \"#utility.yul\":9924:9927   */\n      dup3\n        /* \"#utility.yul\":9917:9975   */\n      mstore\n        /* \"#utility.yul\":9824:9981   */\n      pop\n      pop\n      jump\t// out\n        /* \"#utility.yul\":9987:10512   */\n    tag_105:\n        /* \"#utility.yul\":10149:10152   */\n      0x00\n        /* \"#utility.yul\":10164:10239   */\n      tag_287\n        /* \"#utility.yul\":10235:10238   */\n      dup3\n        /* \"#utility.yul\":10226:10232   */\n      dup7\n        /* \"#utility.yul\":10164:10239   */\n      tag_156\n      jump\t// in\n    tag_287:\n        /* \"#utility.yul\":10264:10266   */\n      0x20\n        /* \"#utility.yul\":10259:10262   */\n      dup3\n        /* \"#utility.yul\":10255:10267   */\n      add\n        /* \"#utility.yul\":10248:10267   */\n      swap2\n      pop\n        /* \"#utility.yul\":10277:10346   */\n      tag_288\n        /* \"#utility.yul\":10342:10345   */\n      dup3\n        /* \"#utility.yul\":10333:10339   */\n      dup6\n        /* \"#utility.yul\":10277:10346   */\n      tag_160\n      jump\t// in\n    tag_288:\n        /* \"#utility.yul\":10371:10372   */\n      0x01\n        /* \"#utility.yul\":10366:10369   */\n      dup3\n        /* \"#utility.yul\":10362:10373   */\n      add\n        /* \"#utility.yul\":10355:10373   */\n      swap2\n      pop\n        /* \"#utility.yul\":10383:10458   */\n      tag_289\n        /* \"#utility.yul\":10454:10457   */\n      dup3\n        /* \"#utility.yul\":10445:10451   */\n      dup5\n        /* \"#utility.yul\":10383:10458   */\n      tag_162\n      jump\t// in\n    tag_289:\n        /* \"#utility.yul\":10483:10485   */\n      0x20\n        /* \"#utility.yul\":10478:10481   */\n      dup3\n        /* \"#utility.yul\":10474:10486   */\n      add\n        /* \"#utility.yul\":10467:10486   */\n      swap2\n      pop\n        /* \"#utility.yul\":10503:10506   */\n      dup2\n        /* \"#utility.yul\":10496:10506   */\n      swap1\n      pop\n        /* \"#utility.yul\":9987:10512   */\n      swap5\n      swap4\n      pop\n      pop\n      pop\n      pop\n      jump\t// out\n        /* \"#utility.yul\":10518:10698   */\n    tag_163:\n        /* \"#utility.yul\":10566:10643   */\n      0x4e487b7100000000000000000000000000000000000000000000000000000000\n        /* \"#utility.yul\":10563:10564   */\n      0x00\n        /* \"#utility.yul\":10556:10644   */\n      mstore\n        /* \"#utility.yul\":10663:10667   */\n      0x11\n        /* \"#utility.yul\":10660:10661   */\n      0x04\n        /* \"#utility.yul\":10653:10668   */\n      mstore\n        /* \"#utility.yul\":10687:10691   */\n      0x24\n        /* \"#utility.yul\":10684:10685   */\n      0x00\n        /* \"#utility.yul\":10677:10692   */\n      revert\n        /* \"#utility.yul\":10704:10895   */\n    tag_108:\n        /* \"#utility.yul\":10744:10747   */\n      0x00\n        /* \"#utility.yul\":10763:10783   */\n      tag_292\n        /* \"#utility.yul\":10781:10782   */\n      dup3\n        /* \"#utility.yul\":10763:10783   */\n      tag_134\n      jump\t// in\n    tag_292:\n        /* \"#utility.yul\":10758:10783   */\n      swap2\n      pop\n        /* \"#utility.yul\":10797:10817   */\n      tag_293\n        /* \"#utility.yul\":10815:10816   */\n      dup4\n        /* \"#utility.yul\":10797:10817   */\n      tag_134\n      jump\t// in\n    tag_293:\n        /* \"#utility.yul\":10792:10817   */\n      swap3\n      pop\n        /* \"#utility.yul\":10840:10841   */\n      dup3\n        /* \"#utility.yul\":10837:10838   */\n      dup3\n        /* \"#utility.yul\":10833:10842   */\n      add\n        /* \"#utility.yul\":10826:10842   */\n      swap1\n      pop\n        /* \"#utility.yul\":10861:10864   */\n      dup1\n        /* \"#utility.yul\":10858:10859   */\n      dup3\n        /* \"#utility.yul\":10855:10865   */\n      gt\n        /* \"#utility.yul\":10852:10888   */\n      iszero\n      tag_294\n      jumpi\n        /* \"#utility.yul\":10868:10886   */\n      tag_295\n      tag_163\n      jump\t// in\n    tag_295:\n        /* \"#utility.yul\":10852:10888   */\n    tag_294:\n        /* \"#utility.yul\":10704:10895   */\n      swap3\n      swap2\n      pop\n      pop\n      jump\t// out\n        /* \"#utility.yul\":10901:11095   */\n    tag_115:\n        /* \"#utility.yul\":10941:10945   */\n      0x00\n        /* \"#utility.yul\":10961:10981   */\n      tag_297\n        /* \"#utility.yul\":10979:10980   */\n      dup3\n        /* \"#utility.yul\":10961:10981   */\n      tag_134\n      jump\t// in\n    tag_297:\n        /* \"#utility.yul\":10956:10981   */\n      swap2\n      pop\n        /* \"#utility.yul\":10995:11015   */\n      tag_298\n        /* \"#utility.yul\":11013:11014   */\n      dup4\n        /* \"#utility.yul\":10995:11015   */\n      tag_134\n      jump\t// in\n    tag_298:\n        /* \"#utility.yul\":10990:11015   */\n      swap3\n      pop\n        /* \"#utility.yul\":11039:11040   */\n      dup3\n        /* \"#utility.yul\":11036:11037   */\n      dup3\n        /* \"#utility.yul\":11032:11041   */\n      sub\n        /* \"#utility.yul\":11024:11041   */\n      swap1\n      pop\n        /* \"#utility.yul\":11063:11064   */\n      dup2\n        /* \"#utility.yul\":11057:11061   */\n      dup2\n        /* \"#utility.yul\":11054:11065   */\n      gt\n        /* \"#utility.yul\":11051:11088   */\n      iszero\n      tag_299\n      jumpi\n        /* \"#utility.yul\":11068:11086   */\n      tag_300\n      tag_163\n      jump\t// in\n    tag_300:\n        /* \"#utility.yul\":11051:11088   */\n    tag_299:\n        /* \"#utility.yul\":10901:11095   */\n      swap3\n      swap2\n      pop\n      pop\n      jump\t// out\n\n    auxdata: 0xa2646970667358221220489f1f843c089dc90181ce9ddaba253feea201be0ecc073b34c383712ea4476464736f6c634300081c0033\n}\n",
				"bytecode": {
					"linkReferences": {},
					"object": "608060405234801561000f575f5ffd5b506040516111f03803806111f08339818101604052810190610031919061012f565b805f5f6101000a81548173ffffffffffffffffffffffffffffffffffffffff021916908373ffffffffffffffffffffffffffffffffffffffff160217905550824261007c91906101ac565b6001819055508160015461009091906101ac565b6002819055505050506101df565b5f5ffd5b5f819050919050565b6100b4816100a2565b81146100be575f5ffd5b50565b5f815190506100cf816100ab565b92915050565b5f73ffffffffffffffffffffffffffffffffffffffff82169050919050565b5f6100fe826100d5565b9050919050565b61010e816100f4565b8114610118575f5ffd5b50565b5f8151905061012981610105565b92915050565b5f5f5f606084860312156101465761014561009e565b5b5f610153868287016100c1565b9350506020610164868287016100c1565b92505060406101758682870161011b565b9150509250925092565b7f4e487b71000000000000000000000000000000000000000000000000000000005f52601160045260245ffd5b5f6101b6826100a2565b91506101c1836100a2565b92508282019050808211156101d9576101d861017f565b5b92915050565b611004806101ec5f395ff3fe60806040526004361061009b575f3560e01c8063423b217f11610063578063423b217f1461015c578063900f080a1461018657806391f90157146101ae578063957bb1e0146101d8578063a6e66477146101f4578063d57bde791461021e5761009b565b806301495c1c1461009f57806312fa6feb146100dc5780632a24f46c1461010657806338af3eed1461011c5780633ccfd60b14610146575b5f5ffd5b3480156100aa575f5ffd5b506100c560048036038101906100c09190610a88565b610248565b6040516100d3929190610aed565b60405180910390f35b3480156100e7575f5ffd5b506100f0610282565b6040516100fd9190610b2e565b60405180910390f35b348015610111575f5ffd5b5061011a610294565b005b348015610127575f5ffd5b50610130610400565b60405161013d9190610b67565b60405180910390f35b348015610151575f5ffd5b5061015a610424565b005b348015610167575f5ffd5b506101706104f7565b60405161017d9190610b80565b60405180910390f35b348015610191575f5ffd5b506101ac60048036038101906101a79190610ca4565b6104fd565b005b3480156101b9575f5ffd5b506101c26107bc565b6040516101cf9190610d63565b60405180910390f35b6101f260048036038101906101ed9190610da6565b6107e1565b005b3480156101ff575f5ffd5b506102086108b8565b6040516102159190610b80565b60405180910390f35b348015610229575f5ffd5b506102326108be565b60405161023f9190610b80565b60405180910390f35b6004602052815f5260405f208181548110610261575f80fd5b905f5260205f2090600202015f9150915050805f0154908060010154905082565b60035f9054906101000a900460ff1681565b6002548042116102db57806040517f2a35a3240000000000000000000000000000000000000000000000000000000081526004016102d29190610b80565b60405180910390fd5b60035f9054906101000a900460ff1615610321576040517f61cfdcf800000000000000000000000000000000000000000000000000000000815260040160405180910390fd5b7fdaec4582d5d9595688c8c98545fdd1c696d41c6aeaeb636737e84ed2f5c00eda60055f9054906101000a900473ffffffffffffffffffffffffffffffffffffffff16600654604051610375929190610dd1565b60405180910390a1600160035f6101000a81548160ff0219169083151502179055505f5f9054906101000a900473ffffffffffffffffffffffffffffffffffffffff1673ffffffffffffffffffffffffffffffffffffffff166108fc60065490811502906040515f60405180830381858888f193505050501580156103fc573d5f5f3e3d5ffd5b5050565b5f5f9054906101000a900473ffffffffffffffffffffffffffffffffffffffff1681565b5f60075f3373ffffffffffffffffffffffffffffffffffffffff1673ffffffffffffffffffffffffffffffffffffffff1681526020019081526020015f205490505f8111156104f4575f60075f3373ffffffffffffffffffffffffffffffffffffffff1673ffffffffffffffffffffffffffffffffffffffff1681526020019081526020015f20819055503373ffffffffffffffffffffffffffffffffffffffff166108fc8290811502906040515f60405180830381858888f193505050501580156104f2573d5f5f3e3d5ffd5b505b50565b60015481565b60015480421161054457806040517f2a35a32400000000000000000000000000000000000000000000000000000000815260040161053b9190610b80565b60405180910390fd5b60025480421061058b57806040517f691e56820000000000000000000000000000000000000000000000000000000081526004016105829190610b80565b60405180910390fd5b5f60045f3373ffffffffffffffffffffffffffffffffffffffff1673ffffffffffffffffffffffffffffffffffffffff1681526020019081526020015f208054905090508089899050146105dd575f5ffd5b8087879050146105eb575f5ffd5b8085859050146105f9575f5ffd5b5f5f5f90505b8281101561076b575f60045f3373ffffffffffffffffffffffffffffffffffffffff1673ffffffffffffffffffffffffffffffffffffffff1681526020019081526020015f20828154811061065757610656610df8565b5b905f5260205f20906002020190505f5f5f8e8e8681811061067b5761067a610df8565b5b905060200201358d8d8781811061069557610694610df8565b5b90506020020160208101906106aa9190610e4f565b8c8c888181106106bd576106bc610df8565b5b905060200201359250925092508282826040516020016106df93929190610eff565b60405160208183030381529060405280519060200120845f015414610707575050505061075e565b8360010154866107179190610f68565b95508115801561072b575082846001015410155b1561074f5761073a33846108c4565b1561074e57828661074b9190610f9b565b95505b5b5f5f1b845f0181905550505050505b80806001019150506105ff565b503373ffffffffffffffffffffffffffffffffffffffff166108fc8290811502906040515f60405180830381858888f193505050501580156107af573d5f5f3e3d5ffd5b5050505050505050505050565b60055f9054906101000a900473ffffffffffffffffffffffffffffffffffffffff1681565b60015480421061082857806040517f691e568200000000000000000000000000000000000000000000000000000000815260040161081f9190610b80565b60405180910390fd5b60045f3373ffffffffffffffffffffffffffffffffffffffff1673ffffffffffffffffffffffffffffffffffffffff1681526020019081526020015f20604051806040016040528084815260200134815250908060018154018082558091505060019003905f5260205f2090600202015f909190919091505f820151815f01556020820151816001015550505050565b60025481565b60065481565b5f60065482116108d6575f90506109ed565b5f73ffffffffffffffffffffffffffffffffffffffff1660055f9054906101000a900473ffffffffffffffffffffffffffffffffffffffff1673ffffffffffffffffffffffffffffffffffffffff16146109a15760065460075f60055f9054906101000a900473ffffffffffffffffffffffffffffffffffffffff1673ffffffffffffffffffffffffffffffffffffffff1673ffffffffffffffffffffffffffffffffffffffff1681526020019081526020015f205f8282546109999190610f68565b925050819055505b816006819055508260055f6101000a81548173ffffffffffffffffffffffffffffffffffffffff021916908373ffffffffffffffffffffffffffffffffffffffff160217905550600190505b92915050565b5f5ffd5b5f5ffd5b5f73ffffffffffffffffffffffffffffffffffffffff82169050919050565b5f610a24826109fb565b9050919050565b610a3481610a1a565b8114610a3e575f5ffd5b50565b5f81359050610a4f81610a2b565b92915050565b5f819050919050565b610a6781610a55565b8114610a71575f5ffd5b50565b5f81359050610a8281610a5e565b92915050565b5f5f60408385031215610a9e57610a9d6109f3565b5b5f610aab85828601610a41565b9250506020610abc85828601610a74565b9150509250929050565b5f819050919050565b610ad881610ac6565b82525050565b610ae781610a55565b82525050565b5f604082019050610b005f830185610acf565b610b0d6020830184610ade565b9392505050565b5f8115159050919050565b610b2881610b14565b82525050565b5f602082019050610b415f830184610b1f565b92915050565b5f610b51826109fb565b9050919050565b610b6181610b47565b82525050565b5f602082019050610b7a5f830184610b58565b92915050565b5f602082019050610b935f830184610ade565b92915050565b5f5ffd5b5f5ffd5b5f5ffd5b5f5f83601f840112610bba57610bb9610b99565b5b8235905067ffffffffffffffff811115610bd757610bd6610b9d565b5b602083019150836020820283011115610bf357610bf2610ba1565b5b9250929050565b5f5f83601f840112610c0f57610c0e610b99565b5b8235905067ffffffffffffffff811115610c2c57610c2b610b9d565b5b602083019150836020820283011115610c4857610c47610ba1565b5b9250929050565b5f5f83601f840112610c6457610c63610b99565b5b8235905067ffffffffffffffff811115610c8157610c80610b9d565b5b602083019150836020820283011115610c9d57610c9c610ba1565b5b9250929050565b5f5f5f5f5f5f60608789031215610cbe57610cbd6109f3565b5b5f87013567ffffffffffffffff811115610cdb57610cda6109f7565b5b610ce789828a01610ba5565b9650965050602087013567ffffffffffffffff811115610d0a57610d096109f7565b5b610d1689828a01610bfa565b9450945050604087013567ffffffffffffffff811115610d3957610d386109f7565b5b610d4589828a01610c4f565b92509250509295509295509295565b610d5d81610a1a565b82525050565b5f602082019050610d765f830184610d54565b92915050565b610d8581610ac6565b8114610d8f575f5ffd5b50565b5f81359050610da081610d7c565b92915050565b5f60208284031215610dbb57610dba6109f3565b5b5f610dc884828501610d92565b91505092915050565b5f604082019050610de45f830185610d54565b610df16020830184610ade565b9392505050565b7f4e487b71000000000000000000000000000000000000000000000000000000005f52603260045260245ffd5b610e2e81610b14565b8114610e38575f5ffd5b50565b5f81359050610e4981610e25565b92915050565b5f60208284031215610e6457610e636109f3565b5b5f610e7184828501610e3b565b91505092915050565b5f819050919050565b610e94610e8f82610a55565b610e7a565b82525050565b5f8160f81b9050919050565b5f610eb082610e9a565b9050919050565b5f610ec182610ea6565b9050919050565b610ed9610ed482610b14565b610eb7565b82525050565b5f819050919050565b610ef9610ef482610ac6565b610edf565b82525050565b5f610f0a8286610e83565b602082019150610f1a8285610ec8565b600182019150610f2a8284610ee8565b602082019150819050949350505050565b7f4e487b71000000000000000000000000000000000000000000000000000000005f52601160045260245ffd5b5f610f7282610a55565b9150610f7d83610a55565b9250828201905080821115610f9557610f94610f3b565b5b92915050565b5f610fa582610a55565b9150610fb083610a55565b9250828203905081811115610fc857610fc7610f3b565b5b9291505056fea2646970667358221220489f1f843c089dc90181ce9ddaba253feea201be0ecc073b34c383712ea4476464736f6c634300081c0033",
					"opcodes": "PUSH1 0x80 PUSH1 0x40 MSTORE CALLVALUE DUP1 ISZERO PUSH2 0xF JUMPI PUSH0 PUSH0 REVERT JUMPDEST POP PUSH1 0x40 MLOAD PUSH2 0x11F0 CODESIZE SUB DUP1 PUSH2 0x11F0 DUP4 CODECOPY DUP2 DUP2 ADD PUSH1 0x40 MSTORE DUP2 ADD SWAP1 PUSH2 0x31 SWAP2 SWAP1 PUSH2 0x12F JUMP JUMPDEST DUP1 PUSH0 PUSH0 PUSH2 0x100 EXP DUP2 SLOAD DUP2 PUSH20 0xFFFFFFFFFFFFFFFFFFFFFFFFFFFFFFFFFFFFFFFF MUL NOT AND SWAP1 DUP4 PUSH20 0xFFFFFFFFFFFFFFFFFFFFFFFFFFFFFFFFFFFFFFFF AND MUL OR SWAP1 SSTORE POP DUP3 TIMESTAMP PUSH2 0x7C SWAP2 SWAP1 PUSH2 0x1AC JUMP JUMPDEST PUSH1 0x1 DUP2 SWAP1 SSTORE POP DUP2 PUSH1 0x1 SLOAD PUSH2 0x90 SWAP2 SWAP1 PUSH2 0x1AC JUMP JUMPDEST PUSH1 0x2 DUP2 SWAP1 SSTORE POP POP POP POP PUSH2 0x1DF JUMP JUMPDEST PUSH0 PUSH0 REVERT JUMPDEST PUSH0 DUP2 SWAP1 POP SWAP2 SWAP1 POP JUMP JUMPDEST PUSH2 0xB4 DUP2 PUSH2 0xA2 JUMP JUMPDEST DUP2 EQ PUSH2 0xBE JUMPI PUSH0 PUSH0 REVERT JUMPDEST POP JUMP JUMPDEST PUSH0 DUP2 MLOAD SWAP1 POP PUSH2 0xCF DUP2 PUSH2 0xAB JUMP JUMPDEST SWAP3 SWAP2 POP POP JUMP JUMPDEST PUSH0 PUSH20 0xFFFFFFFFFFFFFFFFFFFFFFFFFFFFFFFFFFFFFFFF DUP3 AND SWAP1 POP SWAP2 SWAP1 POP JUMP JUMPDEST PUSH0 PUSH2 0xFE DUP3 PUSH2 0xD5 JUMP JUMPDEST SWAP1 POP SWAP2 SWAP1 POP JUMP JUMPDEST PUSH2 0x10E DUP2 PUSH2 0xF4 JUMP JUMPDEST DUP2 EQ PUSH2 0x118 JUMPI PUSH0 PUSH0 REVERT JUMPDEST POP JUMP JUMPDEST PUSH0 DUP2 MLOAD SWAP1 POP PUSH2 0x129 DUP2 PUSH2 0x105 JUMP JUMPDEST SWAP3 SWAP2 POP POP JUMP JUMPDEST PUSH0 PUSH0 PUSH0 PUSH1 0x60 DUP5 DUP7 SUB SLT ISZERO PUSH2 0x146 JUMPI PUSH2 0x145 PUSH2 0x9E JUMP JUMPDEST JUMPDEST PUSH0 PUSH2 0x153 DUP7 DUP3 DUP8 ADD PUSH2 0xC1 JUMP JUMPDEST SWAP4 POP POP PUSH1 0x20 PUSH2 0x164 DUP7 DUP3 DUP8 ADD PUSH2 0xC1 JUMP JUMPDEST SWAP3 POP POP PUSH1 0x40 PUSH2 0x175 DUP7 DUP3 DUP8 ADD PUSH2 0x11B JUMP JUMPDEST SWAP2 POP POP SWAP3 POP SWAP3 POP SWAP3 JUMP JUMPDEST PUSH32 0x4E487B7100000000000000000000000000000000000000000000000000000000 PUSH0 MSTORE PUSH1 0x11 PUSH1 0x4 MSTORE PUSH1 0x24 PUSH0 REVERT JUMPDEST PUSH0 PUSH2 0x1B6 DUP3 PUSH2 0xA2 JUMP JUMPDEST SWAP2 POP PUSH2 0x1C1 DUP4 PUSH2 0xA2 JUMP JUMPDEST SWAP3 POP DUP3 DUP3 ADD SWAP1 POP DUP1 DUP3 GT ISZERO PUSH2 0x1D9 JUMPI PUSH2 0x1D8 PUSH2 0x17F JUMP JUMPDEST JUMPDEST SWAP3 SWAP2 POP POP JUMP JUMPDEST PUSH2 0x1004 DUP1 PUSH2 0x1EC PUSH0 CODECOPY PUSH0 RETURN INVALID PUSH1 0x80 PUSH1 0x40 MSTORE PUSH1 0x4 CALLDATASIZE LT PUSH2 0x9B JUMPI PUSH0 CALLDATALOAD PUSH1 0xE0 SHR DUP1 PUSH4 0x423B217F GT PUSH2 0x63 JUMPI DUP1 PUSH4 0x423B217F EQ PUSH2 0x15C JUMPI DUP1 PUSH4 0x900F080A EQ PUSH2 0x186 JUMPI DUP1 PUSH4 0x91F90157 EQ PUSH2 0x1AE JUMPI DUP1 PUSH4 0x957BB1E0 EQ PUSH2 0x1D8 JUMPI DUP1 PUSH4 0xA6E66477 EQ PUSH2 0x1F4 JUMPI DUP1 PUSH4 0xD57BDE79 EQ PUSH2 0x21E JUMPI PUSH2 0x9B JUMP JUMPDEST DUP1 PUSH4 0x1495C1C EQ PUSH2 0x9F JUMPI DUP1 PUSH4 0x12FA6FEB EQ PUSH2 0xDC JUMPI DUP1 PUSH4 0x2A24F46C EQ PUSH2 0x106 JUMPI DUP1 PUSH4 0x38AF3EED EQ PUSH2 0x11C JUMPI DUP1 PUSH4 0x3CCFD60B EQ PUSH2 0x146 JUMPI JUMPDEST PUSH0 PUSH0 REVERT JUMPDEST CALLVALUE DUP1 ISZERO PUSH2 0xAA JUMPI PUSH0 PUSH0 REVERT JUMPDEST POP PUSH2 0xC5 PUSH1 0x4 DUP1 CALLDATASIZE SUB DUP2 ADD SWAP1 PUSH2 0xC0 SWAP2 SWAP1 PUSH2 0xA88 JUMP JUMPDEST PUSH2 0x248 JUMP JUMPDEST PUSH1 0x40 MLOAD PUSH2 0xD3 SWAP3 SWAP2 SWAP1 PUSH2 0xAED JUMP JUMPDEST PUSH1 0x40 MLOAD DUP1 SWAP2 SUB SWAP1 RETURN JUMPDEST CALLVALUE DUP1 ISZERO PUSH2 0xE7 JUMPI PUSH0 PUSH0 REVERT JUMPDEST POP PUSH2 0xF0 PUSH2 0x282 JUMP JUMPDEST PUSH1 0x40 MLOAD PUSH2 0xFD SWAP2 SWAP1 PUSH2 0xB2E JUMP JUMPDEST PUSH1 0x40 MLOAD DUP1 SWAP2 SUB SWAP1 RETURN JUMPDEST CALLVALUE DUP1 ISZERO PUSH2 0x111 JUMPI PUSH0 PUSH0 REVERT JUMPDEST POP PUSH2 0x11A PUSH2 0x294 JUMP JUMPDEST STOP JUMPDEST CALLVALUE DUP1 ISZERO PUSH2 0x127 JUMPI PUSH0 PUSH0 REVERT JUMPDEST POP PUSH2 0x130 PUSH2 0x400 JUMP JUMPDEST PUSH1 0x40 MLOAD PUSH2 0x13D SWAP2 SWAP1 PUSH2 0xB67 JUMP JUMPDEST PUSH1 0x40 MLOAD DUP1 SWAP2 SUB SWAP1 RETURN JUMPDEST CALLVALUE DUP1 ISZERO PUSH2 0x151 JUMPI PUSH0 PUSH0 REVERT JUMPDEST POP PUSH2 0x15A PUSH2 0x424 JUMP JUMPDEST STOP JUMPDEST CALLVALUE DUP1 ISZERO PUSH2 0x167 JUMPI PUSH0 PUSH0 REVERT JUMPDEST POP PUSH2 0x170 PUSH2 0x4F7 JUMP JUMPDEST PUSH1 0x40 MLOAD PUSH2 0x17D SWAP2 SWAP1 PUSH2 0xB80 JUMP JUMPDEST PUSH1 0x40 MLOAD DUP1 SWAP2 SUB SWAP1 RETURN JUMPDEST CALLVALUE DUP1 ISZERO PUSH2 0x191 JUMPI PUSH0 PUSH0 REVERT JUMPDEST POP PUSH2 0x1AC PUSH1 0x4 DUP1 CALLDATASIZE SUB DUP2 ADD SWAP1 PUSH2 0x1A7 SWAP2 SWAP1 PUSH2 0xCA4 JUMP JUMPDEST PUSH2 0x4FD JUMP JUMPDEST STOP JUMPDEST CALLVALUE DUP1 ISZERO PUSH2 0x1B9 JUMPI PUSH0 PUSH0 REVERT JUMPDEST POP PUSH2 0x1C2 PUSH2 0x7BC JUMP JUMPDEST PUSH1 0x40 MLOAD PUSH2 0x1CF SWAP2 SWAP1 PUSH2 0xD63 JUMP JUMPDEST PUSH1 0x40 MLOAD DUP1 SWAP2 SUB SWAP1 RETURN JUMPDEST PUSH2 0x1F2 PUSH1 0x4 DUP1 CALLDATASIZE SUB DUP2 ADD SWAP1 PUSH2 0x1ED SWAP2 SWAP1 PUSH2 0xDA6 JUMP JUMPDEST PUSH2 0x7E1 JUMP JUMPDEST STOP JUMPDEST CALLVALUE DUP1 ISZERO PUSH2 0x1FF JUMPI PUSH0 PUSH0 REVERT JUMPDEST POP PUSH2 0x208 PUSH2 0x8B8 JUMP JUMPDEST PUSH1 0x40 MLOAD PUSH2 0x215 SWAP2 SWAP1 PUSH2 0xB80 JUMP JUMPDEST PUSH1 0x40 MLOAD DUP1 SWAP2 SUB SWAP1 RETURN JUMPDEST CALLVALUE DUP1 ISZERO PUSH2 0x229 JUMPI PUSH0 PUSH0 REVERT JUMPDEST POP PUSH2 0x232 PUSH2 0x8BE JUMP JUMPDEST PUSH1 0x40 MLOAD PUSH2 0x23F SWAP2 SWAP1 PUSH2 0xB80 JUMP JUMPDEST PUSH1 0x40 MLOAD DUP1 SWAP2 SUB SWAP1 RETURN JUMPDEST PUSH1 0x4 PUSH1 0x20 MSTORE DUP2 PUSH0 MSTORE PUSH1 0x40 PUSH0 KECCAK256 DUP2 DUP2 SLOAD DUP2 LT PUSH2 0x261 JUMPI PUSH0 DUP1 REVERT JUMPDEST SWAP1 PUSH0 MSTORE PUSH1 0x20 PUSH0 KECCAK256 SWAP1 PUSH1 0x2 MUL ADD PUSH0 SWAP2 POP SWAP2 POP POP DUP1 PUSH0 ADD SLOAD SWAP1 DUP1 PUSH1 0x1 ADD SLOAD SWAP1 POP DUP3 JUMP JUMPDEST PUSH1 0x3 PUSH0 SWAP1 SLOAD SWAP1 PUSH2 0x100 EXP SWAP1 DIV PUSH1 0xFF AND DUP2 JUMP JUMPDEST PUSH1 0x2 SLOAD DUP1 TIMESTAMP GT PUSH2 0x2DB JUMPI DUP1 PUSH1 0x40 MLOAD PUSH32 0x2A35A32400000000000000000000000000000000000000000000000000000000 DUP2 MSTORE PUSH1 0x4 ADD PUSH2 0x2D2 SWAP2 SWAP1 PUSH2 0xB80 JUMP JUMPDEST PUSH1 0x40 MLOAD DUP1 SWAP2 SUB SWAP1 REVERT JUMPDEST PUSH1 0x3 PUSH0 SWAP1 SLOAD SWAP1 PUSH2 0x100 EXP SWAP1 DIV PUSH1 0xFF AND ISZERO PUSH2 0x321 JUMPI PUSH1 0x40 MLOAD PUSH32 0x61CFDCF800000000000000000000000000000000000000000000000000000000 DUP2 MSTORE PUSH1 0x4 ADD PUSH1 0x40 MLOAD DUP1 SWAP2 SUB SWAP1 REVERT JUMPDEST PUSH32 0xDAEC4582D5D9595688C8C98545FDD1C696D41C6AEAEB636737E84ED2F5C00EDA PUSH1 0x5 PUSH0 SWAP1 SLOAD SWAP1 PUSH2 0x100 EXP SWAP1 DIV PUSH20 0xFFFFFFFFFFFFFFFFFFFFFFFFFFFFFFFFFFFFFFFF AND PUSH1 0x6 SLOAD PUSH1 0x40 MLOAD PUSH2 0x375 SWAP3 SWAP2 SWAP1 PUSH2 0xDD1 JUMP JUMPDEST PUSH1 0x40 MLOAD DUP1 SWAP2 SUB SWAP1 LOG1 PUSH1 0x1 PUSH1 0x3 PUSH0 PUSH2 0x100 EXP DUP2 SLOAD DUP2 PUSH1 0xFF MUL NOT AND SWAP1 DUP4 ISZERO ISZERO MUL OR SWAP1 SSTORE POP PUSH0 PUSH0 SWAP1 SLOAD SWAP1 PUSH2 0x100 EXP SWAP1 DIV PUSH20 0xFFFFFFFFFFFFFFFFFFFFFFFFFFFFFFFFFFFFFFFF AND PUSH20 0xFFFFFFFFFFFFFFFFFFFFFFFFFFFFFFFFFFFFFFFF AND PUSH2 0x8FC PUSH1 0x6 SLOAD SWAP1 DUP2 ISZERO MUL SWAP1 PUSH1 0x40 MLOAD PUSH0 PUSH1 0x40 MLOAD DUP1 DUP4 SUB DUP2 DUP6 DUP9 DUP9 CALL SWAP4 POP POP POP POP ISZERO DUP1 ISZERO PUSH2 0x3FC JUMPI RETURNDATASIZE PUSH0 PUSH0 RETURNDATACOPY RETURNDATASIZE PUSH0 REVERT JUMPDEST POP POP JUMP JUMPDEST PUSH0 PUSH0 SWAP1 SLOAD SWAP1 PUSH2 0x100 EXP SWAP1 DIV PUSH20 0xFFFFFFFFFFFFFFFFFFFFFFFFFFFFFFFFFFFFFFFF AND DUP2 JUMP JUMPDEST PUSH0 PUSH1 0x7 PUSH0 CALLER PUSH20 0xFFFFFFFFFFFFFFFFFFFFFFFFFFFFFFFFFFFFFFFF AND PUSH20 0xFFFFFFFFFFFFFFFFFFFFFFFFFFFFFFFFFFFFFFFF AND DUP2 MSTORE PUSH1 0x20 ADD SWAP1 DUP2 MSTORE PUSH1 0x20 ADD PUSH0 KECCAK256 SLOAD SWAP1 POP PUSH0 DUP2 GT ISZERO PUSH2 0x4F4 JUMPI PUSH0 PUSH1 0x7 PUSH0 CALLER PUSH20 0xFFFFFFFFFFFFFFFFFFFFFFFFFFFFFFFFFFFFFFFF AND PUSH20 0xFFFFFFFFFFFFFFFFFFFFFFFFFFFFFFFFFFFFFFFF AND DUP2 MSTORE PUSH1 0x20 ADD SWAP1 DUP2 MSTORE PUSH1 0x20 ADD PUSH0 KECCAK256 DUP2 SWAP1 SSTORE POP CALLER PUSH20 0xFFFFFFFFFFFFFFFFFFFFFFFFFFFFFFFFFFFFFFFF AND PUSH2 0x8FC DUP3 SWAP1 DUP2 ISZERO MUL SWAP1 PUSH1 0x40 MLOAD PUSH0 PUSH1 0x40 MLOAD DUP1 DUP4 SUB DUP2 DUP6 DUP9 DUP9 CALL SWAP4 POP POP POP POP ISZERO DUP1 ISZERO PUSH2 0x4F2 JUMPI RETURNDATASIZE PUSH0 PUSH0 RETURNDATACOPY RETURNDATASIZE PUSH0 REVERT JUMPDEST POP JUMPDEST POP JUMP JUMPDEST PUSH1 0x1 SLOAD DUP2 JUMP JUMPDEST PUSH1 0x1 SLOAD DUP1 TIMESTAMP GT PUSH2 0x544 JUMPI DUP1 PUSH1 0x40 MLOAD PUSH32 0x2A35A32400000000000000000000000000000000000000000000000000000000 DUP2 MSTORE PUSH1 0x4 ADD PUSH2 0x53B SWAP2 SWAP1 PUSH2 0xB80 JUMP JUMPDEST PUSH1 0x40 MLOAD DUP1 SWAP2 SUB SWAP1 REVERT JUMPDEST PUSH1 0x2 SLOAD DUP1 TIMESTAMP LT PUSH2 0x58B JUMPI DUP1 PUSH1 0x40 MLOAD PUSH32 0x691E568200000000000000000000000000000000000000000000000000000000 DUP2 MSTORE PUSH1 0x4 ADD PUSH2 0x582 SWAP2 SWAP1 PUSH2 0xB80 JUMP JUMPDEST PUSH1 0x40 MLOAD DUP1 SWAP2 SUB SWAP1 REVERT JUMPDEST PUSH0 PUSH1 0x4 PUSH0 CALLER PUSH20 0xFFFFFFFFFFFFFFFFFFFFFFFFFFFFFFFFFFFFFFFF AND PUSH20 0xFFFFFFFFFFFFFFFFFFFFFFFFFFFFFFFFFFFFFFFF AND DUP2 MSTORE PUSH1 0x20 ADD SWAP1 DUP2 MSTORE PUSH1 0x20 ADD PUSH0 KECCAK256 DUP1 SLOAD SWAP1 POP SWAP1 POP DUP1 DUP10 DUP10 SWAP1 POP EQ PUSH2 0x5DD JUMPI PUSH0 PUSH0 REVERT JUMPDEST DUP1 DUP8 DUP8 SWAP1 POP EQ PUSH2 0x5EB JUMPI PUSH0 PUSH0 REVERT JUMPDEST DUP1 DUP6 DUP6 SWAP1 POP EQ PUSH2 0x5F9 JUMPI PUSH0 PUSH0 REVERT JUMPDEST PUSH0 PUSH0 PUSH0 SWAP1 POP JUMPDEST DUP3 DUP2 LT ISZERO PUSH2 0x76B JUMPI PUSH0 PUSH1 0x4 PUSH0 CALLER PUSH20 0xFFFFFFFFFFFFFFFFFFFFFFFFFFFFFFFFFFFFFFFF AND PUSH20 0xFFFFFFFFFFFFFFFFFFFFFFFFFFFFFFFFFFFFFFFF AND DUP2 MSTORE PUSH1 0x20 ADD SWAP1 DUP2 MSTORE PUSH1 0x20 ADD PUSH0 KECCAK256 DUP3 DUP2 SLOAD DUP2 LT PUSH2 0x657 JUMPI PUSH2 0x656 PUSH2 0xDF8 JUMP JUMPDEST JUMPDEST SWAP1 PUSH0 MSTORE PUSH1 0x20 PUSH0 KECCAK256 SWAP1 PUSH1 0x2 MUL ADD SWAP1 POP PUSH0 PUSH0 PUSH0 DUP15 DUP15 DUP7 DUP2 DUP2 LT PUSH2 0x67B JUMPI PUSH2 0x67A PUSH2 0xDF8 JUMP JUMPDEST JUMPDEST SWAP1 POP PUSH1 0x20 MUL ADD CALLDATALOAD DUP14 DUP14 DUP8 DUP2 DUP2 LT PUSH2 0x695 JUMPI PUSH2 0x694 PUSH2 0xDF8 JUMP JUMPDEST JUMPDEST SWAP1 POP PUSH1 0x20 MUL ADD PUSH1 0x20 DUP2 ADD SWAP1 PUSH2 0x6AA SWAP2 SWAP1 PUSH2 0xE4F JUMP JUMPDEST DUP13 DUP13 DUP9 DUP2 DUP2 LT PUSH2 0x6BD JUMPI PUSH2 0x6BC PUSH2 0xDF8 JUMP JUMPDEST JUMPDEST SWAP1 POP PUSH1 0x20 MUL ADD CALLDATALOAD SWAP3 POP SWAP3 POP SWAP3 POP DUP3 DUP3 DUP3 PUSH1 0x40 MLOAD PUSH1 0x20 ADD PUSH2 0x6DF SWAP4 SWAP3 SWAP2 SWAP1 PUSH2 0xEFF JUMP JUMPDEST PUSH1 0x40 MLOAD PUSH1 0x20 DUP2 DUP4 SUB SUB DUP2 MSTORE SWAP1 PUSH1 0x40 MSTORE DUP1 MLOAD SWAP1 PUSH1 0x20 ADD KECCAK256 DUP5 PUSH0 ADD SLOAD EQ PUSH2 0x707 JUMPI POP POP POP POP PUSH2 0x75E JUMP JUMPDEST DUP4 PUSH1 0x1 ADD SLOAD DUP7 PUSH2 0x717 SWAP2 SWAP1 PUSH2 0xF68 JUMP JUMPDEST SWAP6 POP DUP2 ISZERO DUP1 ISZERO PUSH2 0x72B JUMPI POP DUP3 DUP5 PUSH1 0x1 ADD SLOAD LT ISZERO JUMPDEST ISZERO PUSH2 0x74F JUMPI PUSH2 0x73A CALLER DUP5 PUSH2 0x8C4 JUMP JUMPDEST ISZERO PUSH2 0x74E JUMPI DUP3 DUP7 PUSH2 0x74B SWAP2 SWAP1 PUSH2 0xF9B JUMP JUMPDEST SWAP6 POP JUMPDEST JUMPDEST PUSH0 PUSH0 SHL DUP5 PUSH0 ADD DUP2 SWAP1 SSTORE POP POP POP POP POP JUMPDEST DUP1 DUP1 PUSH1 0x1 ADD SWAP2 POP POP PUSH2 0x5FF JUMP JUMPDEST POP CALLER PUSH20 0xFFFFFFFFFFFFFFFFFFFFFFFFFFFFFFFFFFFFFFFF AND PUSH2 0x8FC DUP3 SWAP1 DUP2 ISZERO MUL SWAP1 PUSH1 0x40 MLOAD PUSH0 PUSH1 0x40 MLOAD DUP1 DUP4 SUB DUP2 DUP6 DUP9 DUP9 CALL SWAP4 POP POP POP POP ISZERO DUP1 ISZERO PUSH2 0x7AF JUMPI RETURNDATASIZE PUSH0 PUSH0 RETURNDATACOPY RETURNDATASIZE PUSH0 REVERT JUMPDEST POP POP POP POP POP POP POP POP POP POP POP JUMP JUMPDEST PUSH1 0x5 PUSH0 SWAP1 SLOAD SWAP1 PUSH2 0x100 EXP SWAP1 DIV PUSH20 0xFFFFFFFFFFFFFFFFFFFFFFFFFFFFFFFFFFFFFFFF AND DUP2 JUMP JUMPDEST PUSH1 0x1 SLOAD DUP1 TIMESTAMP LT PUSH2 0x828 JUMPI DUP1 PUSH1 0x40 MLOAD PUSH32 0x691E568200000000000000000000000000000000000000000000000000000000 DUP2 MSTORE PUSH1 0x4 ADD PUSH2 0x81F SWAP2 SWAP1 PUSH2 0xB80 JUMP JUMPDEST PUSH1 0x40 MLOAD DUP1 SWAP2 SUB SWAP1 REVERT JUMPDEST PUSH1 0x4 PUSH0 CALLER PUSH20 0xFFFFFFFFFFFFFFFFFFFFFFFFFFFFFFFFFFFFFFFF AND PUSH20 0xFFFFFFFFFFFFFFFFFFFFFFFFFFFFFFFFFFFFFFFF AND DUP2 MSTORE PUSH1 0x20 ADD SWAP1 DUP2 MSTORE PUSH1 0x20 ADD PUSH0 KECCAK256 PUSH1 0x40 MLOAD DUP1 PUSH1 0x40 ADD PUSH1 0x40 MSTORE DUP1 DUP5 DUP2 MSTORE PUSH1 0x20 ADD CALLVALUE DUP2 MSTORE POP SWAP1 DUP1 PUSH1 0x1 DUP2 SLOAD ADD DUP1 DUP3 SSTORE DUP1 SWAP2 POP POP PUSH1 0x1 SWAP1 SUB SWAP1 PUSH0 MSTORE PUSH1 0x20 PUSH0 KECCAK256 SWAP1 PUSH1 0x2 MUL ADD PUSH0 SWAP1 SWAP2 SWAP1 SWAP2 SWAP1 SWAP2 POP PUSH0 DUP3 ADD MLOAD DUP2 PUSH0 ADD SSTORE PUSH1 0x20 DUP3 ADD MLOAD DUP2 PUSH1 0x1 ADD SSTORE POP POP POP POP JUMP JUMPDEST PUSH1 0x2 SLOAD DUP2 JUMP JUMPDEST PUSH1 0x6 SLOAD DUP2 JUMP JUMPDEST PUSH0 PUSH1 0x6 SLOAD DUP3 GT PUSH2 0x8D6 JUMPI PUSH0 SWAP1 POP PUSH2 0x9ED JUMP JUMPDEST PUSH0 PUSH20 0xFFFFFFFFFFFFFFFFFFFFFFFFFFFFFFFFFFFFFFFF AND PUSH1 0x5 PUSH0 SWAP1 SLOAD SWAP1 PUSH2 0x100 EXP SWAP1 DIV PUSH20 0xFFFFFFFFFFFFFFFFFFFFFFFFFFFFFFFFFFFFFFFF AND PUSH20 0xFFFFFFFFFFFFFFFFFFFFFFFFFFFFFFFFFFFFFFFF AND EQ PUSH2 0x9A1 JUMPI PUSH1 0x6 SLOAD PUSH1 0x7 PUSH0 PUSH1 0x5 PUSH0 SWAP1 SLOAD SWAP1 PUSH2 0x100 EXP SWAP1 DIV PUSH20 0xFFFFFFFFFFFFFFFFFFFFFFFFFFFFFFFFFFFFFFFF AND PUSH20 0xFFFFFFFFFFFFFFFFFFFFFFFFFFFFFFFFFFFFFFFF AND PUSH20 0xFFFFFFFFFFFFFFFFFFFFFFFFFFFFFFFFFFFFFFFF AND DUP2 MSTORE PUSH1 0x20 ADD SWAP1 DUP2 MSTORE PUSH1 0x20 ADD PUSH0 KECCAK256 PUSH0 DUP3 DUP3 SLOAD PUSH2 0x999 SWAP2 SWAP1 PUSH2 0xF68 JUMP JUMPDEST SWAP3 POP POP DUP2 SWAP1 SSTORE POP JUMPDEST DUP2 PUSH1 0x6 DUP2 SWAP1 SSTORE POP DUP3 PUSH1 0x5 PUSH0 PUSH2 0x100 EXP DUP2 SLOAD DUP2 PUSH20 0xFFFFFFFFFFFFFFFFFFFFFFFFFFFFFFFFFFFFFFFF MUL NOT AND SWAP1 DUP4 PUSH20 0xFFFFFFFFFFFFFFFFFFFFFFFFFFFFFFFFFFFFFFFF AND MUL OR SWAP1 SSTORE POP PUSH1 0x1 SWAP1 POP JUMPDEST SWAP3 SWAP2 POP POP JUMP JUMPDEST PUSH0 PUSH0 REVERT JUMPDEST PUSH0 PUSH0 REVERT JUMPDEST PUSH0 PUSH20 0xFFFFFFFFFFFFFFFFFFFFFFFFFFFFFFFFFFFFFFFF DUP3 AND SWAP1 POP SWAP2 SWAP1 POP JUMP JUMPDEST PUSH0 PUSH2 0xA24 DUP3 PUSH2 0x9FB JUMP JUMPDEST SWAP1 POP SWAP2 SWAP1 POP JUMP JUMPDEST PUSH2 0xA34 DUP2 PUSH2 0xA1A JUMP JUMPDEST DUP2 EQ PUSH2 0xA3E JUMPI PUSH0 PUSH0 REVERT JUMPDEST POP JUMP JUMPDEST PUSH0 DUP2 CALLDATALOAD SWAP1 POP PUSH2 0xA4F DUP2 PUSH2 0xA2B JUMP JUMPDEST SWAP3 SWAP2 POP POP JUMP JUMPDEST PUSH0 DUP2 SWAP1 POP SWAP2 SWAP1 POP JUMP JUMPDEST PUSH2 0xA67 DUP2 PUSH2 0xA55 JUMP JUMPDEST DUP2 EQ PUSH2 0xA71 JUMPI PUSH0 PUSH0 REVERT JUMPDEST POP JUMP JUMPDEST PUSH0 DUP2 CALLDATALOAD SWAP1 POP PUSH2 0xA82 DUP2 PUSH2 0xA5E JUMP JUMPDEST SWAP3 SWAP2 POP POP JUMP JUMPDEST PUSH0 PUSH0 PUSH1 0x40 DUP4 DUP6 SUB SLT ISZERO PUSH2 0xA9E JUMPI PUSH2 0xA9D PUSH2 0x9F3 JUMP JUMPDEST JUMPDEST PUSH0 PUSH2 0xAAB DUP6 DUP3 DUP7 ADD PUSH2 0xA41 JUMP JUMPDEST SWAP3 POP POP PUSH1 0x20 PUSH2 0xABC DUP6 DUP3 DUP7 ADD PUSH2 0xA74 JUMP JUMPDEST SWAP2 POP POP SWAP3 POP SWAP3 SWAP1 POP JUMP JUMPDEST PUSH0 DUP2 SWAP1 POP SWAP2 SWAP1 POP JUMP JUMPDEST PUSH2 0xAD8 DUP2 PUSH2 0xAC6 JUMP JUMPDEST DUP3 MSTORE POP POP JUMP JUMPDEST PUSH2 0xAE7 DUP2 PUSH2 0xA55 JUMP JUMPDEST DUP3 MSTORE POP POP JUMP JUMPDEST PUSH0 PUSH1 0x40 DUP3 ADD SWAP1 POP PUSH2 0xB00 PUSH0 DUP4 ADD DUP6 PUSH2 0xACF JUMP JUMPDEST PUSH2 0xB0D PUSH1 0x20 DUP4 ADD DUP5 PUSH2 0xADE JUMP JUMPDEST SWAP4 SWAP3 POP POP POP JUMP JUMPDEST PUSH0 DUP2 ISZERO ISZERO SWAP1 POP SWAP2 SWAP1 POP JUMP JUMPDEST PUSH2 0xB28 DUP2 PUSH2 0xB14 JUMP JUMPDEST DUP3 MSTORE POP POP JUMP JUMPDEST PUSH0 PUSH1 0x20 DUP3 ADD SWAP1 POP PUSH2 0xB41 PUSH0 DUP4 ADD DUP5 PUSH2 0xB1F JUMP JUMPDEST SWAP3 SWAP2 POP POP JUMP JUMPDEST PUSH0 PUSH2 0xB51 DUP3 PUSH2 0x9FB JUMP JUMPDEST SWAP1 POP SWAP2 SWAP1 POP JUMP JUMPDEST PUSH2 0xB61 DUP2 PUSH2 0xB47 JUMP JUMPDEST DUP3 MSTORE POP POP JUMP JUMPDEST PUSH0 PUSH1 0x20 DUP3 ADD SWAP1 POP PUSH2 0xB7A PUSH0 DUP4 ADD DUP5 PUSH2 0xB58 JUMP JUMPDEST SWAP3 SWAP2 POP POP JUMP JUMPDEST PUSH0 PUSH1 0x20 DUP3 ADD SWAP1 POP PUSH2 0xB93 PUSH0 DUP4 ADD DUP5 PUSH2 0xADE JUMP JUMPDEST SWAP3 SWAP2 POP POP JUMP JUMPDEST PUSH0 PUSH0 REVERT JUMPDEST PUSH0 PUSH0 REVERT JUMPDEST PUSH0 PUSH0 REVERT JUMPDEST PUSH0 PUSH0 DUP4 PUSH1 0x1F DUP5 ADD SLT PUSH2 0xBBA JUMPI PUSH2 0xBB9 PUSH2 0xB99 JUMP JUMPDEST JUMPDEST DUP3 CALLDATALOAD SWAP1 POP PUSH8 0xFFFFFFFFFFFFFFFF DUP2 GT ISZERO PUSH2 0xBD7 JUMPI PUSH2 0xBD6 PUSH2 0xB9D JUMP JUMPDEST JUMPDEST PUSH1 0x20 DUP4 ADD SWAP2 POP DUP4 PUSH1 0x20 DUP3 MUL DUP4 ADD GT ISZERO PUSH2 0xBF3 JUMPI PUSH2 0xBF2 PUSH2 0xBA1 JUMP JUMPDEST JUMPDEST SWAP3 POP SWAP3 SWAP1 POP JUMP JUMPDEST PUSH0 PUSH0 DUP4 PUSH1 0x1F DUP5 ADD SLT PUSH2 0xC0F JUMPI PUSH2 0xC0E PUSH2 0xB99 JUMP JUMPDEST JUMPDEST DUP3 CALLDATALOAD SWAP1 POP PUSH8 0xFFFFFFFFFFFFFFFF DUP2 GT ISZERO PUSH2 0xC2C JUMPI PUSH2 0xC2B PUSH2 0xB9D JUMP JUMPDEST JUMPDEST PUSH1 0x20 DUP4 ADD SWAP2 POP DUP4 PUSH1 0x20 DUP3 MUL DUP4 ADD GT ISZERO PUSH2 0xC48 JUMPI PUSH2 0xC47 PUSH2 0xBA1 JUMP JUMPDEST JUMPDEST SWAP3 POP SWAP3 SWAP1 POP JUMP JUMPDEST PUSH0 PUSH0 DUP4 PUSH1 0x1F DUP5 ADD SLT PUSH2 0xC64 JUMPI PUSH2 0xC63 PUSH2 0xB99 JUMP JUMPDEST JUMPDEST DUP3 CALLDATALOAD SWAP1 POP PUSH8 0xFFFFFFFFFFFFFFFF DUP2 GT ISZERO PUSH2 0xC81 JUMPI PUSH2 0xC80 PUSH2 0xB9D JUMP JUMPDEST JUMPDEST PUSH1 0x20 DUP4 ADD SWAP2 POP DUP4 PUSH1 0x20 DUP3 MUL DUP4 ADD GT ISZERO PUSH2 0xC9D JUMPI PUSH2 0xC9C PUSH2 0xBA1 JUMP JUMPDEST JUMPDEST SWAP3 POP SWAP3 SWAP1 POP JUMP JUMPDEST PUSH0 PUSH0 PUSH0 PUSH0 PUSH0 PUSH0 PUSH1 0x60 DUP8 DUP10 SUB SLT ISZERO PUSH2 0xCBE JUMPI PUSH2 0xCBD PUSH2 0x9F3 JUMP JUMPDEST JUMPDEST PUSH0 DUP8 ADD CALLDATALOAD PUSH8 0xFFFFFFFFFFFFFFFF DUP2 GT ISZERO PUSH2 0xCDB JUMPI PUSH2 0xCDA PUSH2 0x9F7 JUMP JUMPDEST JUMPDEST PUSH2 0xCE7 DUP10 DUP3 DUP11 ADD PUSH2 0xBA5 JUMP JUMPDEST SWAP7 POP SWAP7 POP POP PUSH1 0x20 DUP8 ADD CALLDATALOAD PUSH8 0xFFFFFFFFFFFFFFFF DUP2 GT ISZERO PUSH2 0xD0A JUMPI PUSH2 0xD09 PUSH2 0x9F7 JUMP JUMPDEST JUMPDEST PUSH2 0xD16 DUP10 DUP3 DUP11 ADD PUSH2 0xBFA JUMP JUMPDEST SWAP5 POP SWAP5 POP POP PUSH1 0x40 DUP8 ADD CALLDATALOAD PUSH8 0xFFFFFFFFFFFFFFFF DUP2 GT ISZERO PUSH2 0xD39 JUMPI PUSH2 0xD38 PUSH2 0x9F7 JUMP JUMPDEST JUMPDEST PUSH2 0xD45 DUP10 DUP3 DUP11 ADD PUSH2 0xC4F JUMP JUMPDEST SWAP3 POP SWAP3 POP POP SWAP3 SWAP6 POP SWAP3 SWAP6 POP SWAP3 SWAP6 JUMP JUMPDEST PUSH2 0xD5D DUP2 PUSH2 0xA1A JUMP JUMPDEST DUP3 MSTORE POP POP JUMP JUMPDEST PUSH0 PUSH1 0x20 DUP3 ADD SWAP1 POP PUSH2 0xD76 PUSH0 DUP4 ADD DUP5 PUSH2 0xD54 JUMP JUMPDEST SWAP3 SWAP2 POP POP JUMP JUMPDEST PUSH2 0xD85 DUP2 PUSH2 0xAC6 JUMP JUMPDEST DUP2 EQ PUSH2 0xD8F JUMPI PUSH0 PUSH0 REVERT JUMPDEST POP JUMP JUMPDEST PUSH0 DUP2 CALLDATALOAD SWAP1 POP PUSH2 0xDA0 DUP2 PUSH2 0xD7C JUMP JUMPDEST SWAP3 SWAP2 POP POP JUMP JUMPDEST PUSH0 PUSH1 0x20 DUP3 DUP5 SUB SLT ISZERO PUSH2 0xDBB JUMPI PUSH2 0xDBA PUSH2 0x9F3 JUMP JUMPDEST JUMPDEST PUSH0 PUSH2 0xDC8 DUP5 DUP3 DUP6 ADD PUSH2 0xD92 JUMP JUMPDEST SWAP2 POP POP SWAP3 SWAP2 POP POP JUMP JUMPDEST PUSH0 PUSH1 0x40 DUP3 ADD SWAP1 POP PUSH2 0xDE4 PUSH0 DUP4 ADD DUP6 PUSH2 0xD54 JUMP JUMPDEST PUSH2 0xDF1 PUSH1 0x20 DUP4 ADD DUP5 PUSH2 0xADE JUMP JUMPDEST SWAP4 SWAP3 POP POP POP JUMP JUMPDEST PUSH32 0x4E487B7100000000000000000000000000000000000000000000000000000000 PUSH0 MSTORE PUSH1 0x32 PUSH1 0x4 MSTORE PUSH1 0x24 PUSH0 REVERT JUMPDEST PUSH2 0xE2E DUP2 PUSH2 0xB14 JUMP JUMPDEST DUP2 EQ PUSH2 0xE38 JUMPI PUSH0 PUSH0 REVERT JUMPDEST POP JUMP JUMPDEST PUSH0 DUP2 CALLDATALOAD SWAP1 POP PUSH2 0xE49 DUP2 PUSH2 0xE25 JUMP JUMPDEST SWAP3 SWAP2 POP POP JUMP JUMPDEST PUSH0 PUSH1 0x20 DUP3 DUP5 SUB SLT ISZERO PUSH2 0xE64 JUMPI PUSH2 0xE63 PUSH2 0x9F3 JUMP JUMPDEST JUMPDEST PUSH0 PUSH2 0xE71 DUP5 DUP3 DUP6 ADD PUSH2 0xE3B JUMP JUMPDEST SWAP2 POP POP SWAP3 SWAP2 POP POP JUMP JUMPDEST PUSH0 DUP2 SWAP1 POP SWAP2 SWAP1 POP JUMP JUMPDEST PUSH2 0xE94 PUSH2 0xE8F DUP3 PUSH2 0xA55 JUMP JUMPDEST PUSH2 0xE7A JUMP JUMPDEST DUP3 MSTORE POP POP JUMP JUMPDEST PUSH0 DUP2 PUSH1 0xF8 SHL SWAP1 POP SWAP2 SWAP1 POP JUMP JUMPDEST PUSH0 PUSH2 0xEB0 DUP3 PUSH2 0xE9A JUMP JUMPDEST SWAP1 POP SWAP2 SWAP1 POP JUMP JUMPDEST PUSH0 PUSH2 0xEC1 DUP3 PUSH2 0xEA6 JUMP JUMPDEST SWAP1 POP SWAP2 SWAP1 POP JUMP JUMPDEST PUSH2 0xED9 PUSH2 0xED4 DUP3 PUSH2 0xB14 JUMP JUMPDEST PUSH2 0xEB7 JUMP JUMPDEST DUP3 MSTORE POP POP JUMP JUMPDEST PUSH0 DUP2 SWAP1 POP SWAP2 SWAP1 POP JUMP JUMPDEST PUSH2 0xEF9 PUSH2 0xEF4 DUP3 PUSH2 0xAC6 JUMP JUMPDEST PUSH2 0xEDF JUMP JUMPDEST DUP3 MSTORE POP POP JUMP JUMPDEST PUSH0 PUSH2 0xF0A DUP3 DUP7 PUSH2 0xE83 JUMP JUMPDEST PUSH1 0x20 DUP3 ADD SWAP2 POP PUSH2 0xF1A DUP3 DUP6 PUSH2 0xEC8 JUMP JUMPDEST PUSH1 0x1 DUP3 ADD SWAP2 POP PUSH2 0xF2A DUP3 DUP5 PUSH2 0xEE8 JUMP JUMPDEST PUSH1 0x20 DUP3 ADD SWAP2 POP DUP2 SWAP1 POP SWAP5 SWAP4 POP POP POP POP JUMP JUMPDEST PUSH32 0x4E487B7100000000000000000000000000000000000000000000000000000000 PUSH0 MSTORE PUSH1 0x11 PUSH1 0x4 MSTORE PUSH1 0x24 PUSH0 REVERT JUMPDEST PUSH0 PUSH2 0xF72 DUP3 PUSH2 0xA55 JUMP JUMPDEST SWAP2 POP PUSH2 0xF7D DUP4 PUSH2 0xA55 JUMP JUMPDEST SWAP3 POP DUP3 DUP3 ADD SWAP1 POP DUP1 DUP3 GT ISZERO PUSH2 0xF95 JUMPI PUSH2 0xF94 PUSH2 0xF3B JUMP JUMPDEST JUMPDEST SWAP3 SWAP2 POP POP JUMP JUMPDEST PUSH0 PUSH2 0xFA5 DUP3 PUSH2 0xA55 JUMP JUMPDEST SWAP2 POP PUSH2 0xFB0 DUP4 PUSH2 0xA55 JUMP JUMPDEST SWAP3 POP DUP3 DUP3 SUB SWAP1 POP DUP2 DUP2 GT ISZERO PUSH2 0xFC8 JUMPI PUSH2 0xFC7 PUSH2 0xF3B JUMP JUMPDEST JUMPDEST SWAP3 SWAP2 POP POP JUMP INVALID LOG2 PUSH5 0x6970667358 0x22 SLT KECCAK256 BASEFEE SWAP16 0x1F DUP5 EXTCODECOPY ADDMOD SWAP14 0xC9 ADD DUP2 0xCE SWAP14 0xDA 0xBA 0x25 EXTCODEHASH 0xEE LOG2 ADD 0xBE 0xE 0xCC SMOD EXTCODESIZE CALLVALUE 0xC3 DUP4 PUSH18 0x2EA4476464736F6C634300081C0033000000 "
				},
				"gasEstimates": {
					"creation": {
						"codeDepositCost": "820000",
						"executionCost": "infinite",
						"totalCost": "infinite"
					},
					"external": {
						"auctionEnd()": "infinite",
						"beneficiary()": "2574",
						"bid(bytes32)": "71287",
						"biddingEnd()": "2425",
						"bids(address,uint256)": "infinite",
						"ended()": "2489",
						"highestBid()": "2535",
						"highestBidder()": "2552",
						"reveal(uint256[],bool[],bytes32[])": "infinite",
						"revealEnd()": "2513",
						"withdraw()": "infinite"
					},
					"internal": {
						"placeBid(address,uint256)": "infinite"
					}
				},
				"methodIdentifiers": {
					"auctionEnd()": "2a24f46c",
					"beneficiary()": "38af3eed",
					"bid(bytes32)": "957bb1e0",
					"biddingEnd()": "423b217f",
					"bids(address,uint256)": "01495c1c",
					"ended()": "12fa6feb",
					"highestBid()": "d57bde79",
					"highestBidder()": "91f90157",
					"reveal(uint256[],bool[],bytes32[])": "900f080a",
					"revealEnd()": "a6e66477",
					"withdraw()": "3ccfd60b"
				}
			},
			"storageLayout": {
				"storage": [
					{
						"astId": 8,
						"contract": "Contracts/Blind Auction.sol:BlindAuction",
						"label": "beneficiary",
						"offset": 0,
						"slot": "0",
						"type": "t_address_payable"
					},
					{
						"astId": 10,
						"contract": "Contracts/Blind Auction.sol:BlindAuction",
						"label": "biddingEnd",
						"offset": 0,
						"slot": "1",
						"type": "t_uint256"
					},
					{
						"astId": 12,
						"contract": "Contracts/Blind Auction.sol:BlindAuction",
						"label": "revealEnd",
						"offset": 0,
						"slot": "2",
						"type": "t_uint256"
					},
					{
						"astId": 14,
						"contract": "Contracts/Blind Auction.sol:BlindAuction",
						"label": "ended",
						"offset": 0,
						"slot": "3",
						"type": "t_bool"
					},
					{
						"astId": 20,
						"contract": "Contracts/Blind Auction.sol:BlindAuction",
						"label": "bids",
						"offset": 0,
						"slot": "4",
						"type": "t_mapping(t_address,t_array(t_struct(Bid)6_storage)dyn_storage)"
					},
					{
						"astId": 22,
						"contract": "Contracts/Blind Auction.sol:BlindAuction",
						"label": "highestBidder",
						"offset": 0,
						"slot": "5",
						"type": "t_address"
					},
					{
						"astId": 24,
						"contract": "Contracts/Blind Auction.sol:BlindAuction",
						"label": "highestBid",
						"offset": 0,
						"slot": "6",
						"type": "t_uint256"
					},
					{
						"astId": 28,
						"contract": "Contracts/Blind Auction.sol:BlindAuction",
						"label": "pendingReturns",
						"offset": 0,
						"slot": "7",
						"type": "t_mapping(t_address,t_uint256)"
					}
				],
				"types": {
					"t_address": {
						"encoding": "inplace",
						"label": "address",
						"numberOfBytes": "20"
					},
					"t_address_payable": {
						"encoding": "inplace",
						"label": "address payable",
						"numberOfBytes": "20"
					},
					"t_array(t_struct(Bid)6_storage)dyn_storage": {
						"base": "t_struct(Bid)6_storage",
						"encoding": "dynamic_array",
						"label": "struct BlindAuction.Bid[]",
						"numberOfBytes": "32"
					},
					"t_bool": {
						"encoding": "inplace",
						"label": "bool",
						"numberOfBytes": "1"
					},
					"t_bytes32": {
						"encoding": "inplace",
						"label": "bytes32",
						"numberOfBytes": "32"
					},
					"t_mapping(t_address,t_array(t_struct(Bid)6_storage)dyn_storage)": {
						"encoding": "mapping",
						"key": "t_address",
						"label": "mapping(address => struct BlindAuction.Bid[])",
						"numberOfBytes": "32",
						"value": "t_array(t_struct(Bid)6_storage)dyn_storage"
					},
					"t_mapping(t_address,t_uint256)": {
						"encoding": "mapping",
						"key": "t_address",
						"label": "mapping(address => uint256)",
						"numberOfBytes": "32",
						"value": "t_uint256"
					},
					"t_struct(Bid)6_storage": {
						"encoding": "inplace",
						"label": "struct BlindAuction.Bid",
						"members": [
							{
								"astId": 3,
								"contract": "Contracts/Blind Auction.sol:BlindAuction",
								"label": "blindedBid",
								"offset": 0,
								"slot": "0",
								"type": "t_bytes32"
							},
							{
								"astId": 5,
								"contract": "Contracts/Blind Auction.sol:BlindAuction",
								"label": "deposit",
								"offset": 0,
								"slot": "1",
								"type": "t_uint256"
							}
						],
						"numberOfBytes": "64"
					},
					"t_uint256": {
						"encoding": "inplace",
						"label": "uint256",
						"numberOfBytes": "32"
					}
				}
			},
			"userdoc": {
				"errors": {
					"AuctionEndAlreadyCalled()": [
						{
							"notice": "The function auctionEnd has already been called."
						}
					],
					"TooEarly(uint256)": [
						{
							"notice": "The function has been called too early. Try again at `time`."
						}
					],
					"TooLate(uint256)": [
						{
							"notice": "The function has been called too late. It cannot be called after `time`."
						}
					]
				},
				"kind": "user",
				"methods": {
					"auctionEnd()": {
						"notice": "End the auction and send the highest bid to the beneficiary."
					},
					"reveal(uint256[],bool[],bytes32[])": {
						"notice": "Reveal your blinded bids. You will get a refund for all correctly blinded invalid bids and for all bids except for the totally highest."
					},
					"withdraw()": {
						"notice": "Withdraw a bid that was overbid."
					}
				},
				"version": 1
			}
		}
	}
}