{
	"Contracts/Safe Remote Purchase.sol": {
		"Purchase": {
			"abi": [
				{
					"inputs": [],
					"stateMutability": "payable",
					"type": "constructor"
				},
				{
					"inputs": [],
					"name": "InvalidState",
					"type": "error"
				},
				{
					"inputs": [],
					"name": "OnlyBuyer",
					"type": "error"
				},
				{
					"inputs": [],
					"name": "OnlySeller",
					"type": "error"
				},
				{
					"inputs": [],
					"name": "ValueNotEven",
					"type": "error"
				},
				{
					"anonymous": false,
					"inputs": [],
					"name": "Aborted",
					"type": "event"
				},
				{
					"anonymous": false,
					"inputs": [],
					"name": "ItemReceived",
					"type": "event"
				},
				{
					"anonymous": false,
					"inputs": [],
					"name": "PurchaseConfirmed",
					"type": "event"
				},
				{
					"anonymous": false,
					"inputs": [],
					"name": "SellerRefunded",
					"type": "event"
				},
				{
					"inputs": [],
					"name": "abort",
					"outputs": [],
					"stateMutability": "nonpayable",
					"type": "function"
				},
				{
					"inputs": [],
					"name": "buyer",
					"outputs": [
						{
							"internalType": "address payable",
							"name": "",
							"type": "address"
						}
					],
					"stateMutability": "view",
					"type": "function"
				},
				{
					"inputs": [],
					"name": "confirmPurchase",
					"outputs": [],
					"stateMutability": "payable",
					"type": "function"
				},
				{
					"inputs": [],
					"name": "confirmReceived",
					"outputs": [],
					"stateMutability": "nonpayable",
					"type": "function"
				},
				{
					"inputs": [],
					"name": "refundSeller",
					"outputs": [],
					"stateMutability": "nonpayable",
					"type": "function"
				},
				{
					"inputs": [],
					"name": "seller",
					"outputs": [
						{
							"internalType": "address payable",
							"name": "",
							"type": "address"
						}
					],
					"stateMutability": "view",
					"type": "function"
				},
				{
					"inputs": [],
					"name": "state",
					"outputs": [
						{
							"internalType": "enum Purchase.State",
							"name": "",
							"type": "uint8"
						}
					],
					"stateMutability": "view",
					"type": "function"
				},
				{
					"inputs": [],
					"name": "value",
					"outputs": [
						{
							"internalType": "uint256",
							"name": "",
							"type": "uint256"
						}
					],
					"stateMutability": "view",
					"type": "function"
				}
			],
			"devdoc": {
				"kind": "dev",
				"methods": {},
				"version": 1
			},
			"evm": {
				"assembly": "    /* \"Contracts/Safe Remote Purchase.sol\":61:3369  contract Purchase {... */\n  mstore(0x40, 0x80)\n    /* \"Contracts/Safe Remote Purchase.sol\":1391:1401  msg.sender */\n  caller\n    /* \"Contracts/Safe Remote Purchase.sol\":1374:1380  seller */\n  0x01\n  0x00\n    /* \"Contracts/Safe Remote Purchase.sol\":1374:1402  seller = payable(msg.sender) */\n  0x0100\n  exp\n  dup2\n  sload\n  dup2\n  0xffffffffffffffffffffffffffffffffffffffff\n  mul\n  not\n  and\n  swap1\n  dup4\n  0xffffffffffffffffffffffffffffffffffffffff\n  and\n  mul\n  or\n  swap1\n  sstore\n  pop\n    /* \"Contracts/Safe Remote Purchase.sol\":1432:1433  2 */\n  0x02\n    /* \"Contracts/Safe Remote Purchase.sol\":1420:1429  msg.value */\n  callvalue\n    /* \"Contracts/Safe Remote Purchase.sol\":1420:1433  msg.value / 2 */\n  tag_3\n  swap2\n  swap1\n  tag_4\n  jump\t// in\ntag_3:\n    /* \"Contracts/Safe Remote Purchase.sol\":1412:1417  value */\n  0x00\n    /* \"Contracts/Safe Remote Purchase.sol\":1412:1433  value = msg.value / 2 */\n  dup2\n  swap1\n  sstore\n  pop\n    /* \"Contracts/Safe Remote Purchase.sol\":1462:1471  msg.value */\n  callvalue\n    /* \"Contracts/Safe Remote Purchase.sol\":1452:1457  value */\n  sload(0x00)\n    /* \"Contracts/Safe Remote Purchase.sol\":1448:1449  2 */\n  0x02\n    /* \"Contracts/Safe Remote Purchase.sol\":1448:1457  2 * value */\n  tag_5\n  swap2\n  swap1\n  tag_6\n  jump\t// in\ntag_5:\n    /* \"Contracts/Safe Remote Purchase.sol\":1447:1471  (2 * value) != msg.value */\n  eq\n    /* \"Contracts/Safe Remote Purchase.sol\":1443:1506  if ((2 * value) != msg.value)... */\n  tag_7\n  jumpi\n    /* \"Contracts/Safe Remote Purchase.sol\":1492:1506  ValueNotEven() */\n  mload(0x40)\n  0xbe3e4c4200000000000000000000000000000000000000000000000000000000\n  dup2\n  mstore\n  0x04\n  add\n  mload(0x40)\n  dup1\n  swap2\n  sub\n  swap1\n  revert\n    /* \"Contracts/Safe Remote Purchase.sol\":1443:1506  if ((2 * value) != msg.value)... */\ntag_7:\n    /* \"Contracts/Safe Remote Purchase.sol\":61:3369  contract Purchase {... */\n  jump(tag_8)\n    /* \"#utility.yul\":7:84   */\ntag_9:\n    /* \"#utility.yul\":44:51   */\n  0x00\n    /* \"#utility.yul\":73:78   */\n  dup2\n    /* \"#utility.yul\":62:78   */\n  swap1\n  pop\n    /* \"#utility.yul\":7:84   */\n  swap2\n  swap1\n  pop\n  jump\t// out\n    /* \"#utility.yul\":90:270   */\ntag_10:\n    /* \"#utility.yul\":138:215   */\n  0x4e487b7100000000000000000000000000000000000000000000000000000000\n    /* \"#utility.yul\":135:136   */\n  0x00\n    /* \"#utility.yul\":128:216   */\n  mstore\n    /* \"#utility.yul\":235:239   */\n  0x12\n    /* \"#utility.yul\":232:233   */\n  0x04\n    /* \"#utility.yul\":225:240   */\n  mstore\n    /* \"#utility.yul\":259:263   */\n  0x24\n    /* \"#utility.yul\":256:257   */\n  0x00\n    /* \"#utility.yul\":249:264   */\n  revert\n    /* \"#utility.yul\":276:456   */\ntag_11:\n    /* \"#utility.yul\":324:401   */\n  0x4e487b7100000000000000000000000000000000000000000000000000000000\n    /* \"#utility.yul\":321:322   */\n  0x00\n    /* \"#utility.yul\":314:402   */\n  mstore\n    /* \"#utility.yul\":421:425   */\n  0x11\n    /* \"#utility.yul\":418:419   */\n  0x04\n    /* \"#utility.yul\":411:426   */\n  mstore\n    /* \"#utility.yul\":445:449   */\n  0x24\n    /* \"#utility.yul\":442:443   */\n  0x00\n    /* \"#utility.yul\":435:450   */\n  revert\n    /* \"#utility.yul\":462:647   */\ntag_4:\n    /* \"#utility.yul\":502:503   */\n  0x00\n    /* \"#utility.yul\":519:539   */\n  tag_17\n    /* \"#utility.yul\":537:538   */\n  dup3\n    /* \"#utility.yul\":519:539   */\n  tag_9\n  jump\t// in\ntag_17:\n    /* \"#utility.yul\":514:539   */\n  swap2\n  pop\n    /* \"#utility.yul\":553:573   */\n  tag_18\n    /* \"#utility.yul\":571:572   */\n  dup4\n    /* \"#utility.yul\":553:573   */\n  tag_9\n  jump\t// in\ntag_18:\n    /* \"#utility.yul\":548:573   */\n  swap3\n  pop\n    /* \"#utility.yul\":592:593   */\n  dup3\n    /* \"#utility.yul\":582:617   */\n  tag_19\n  jumpi\n    /* \"#utility.yul\":597:615   */\n  tag_20\n  tag_10\n  jump\t// in\ntag_20:\n    /* \"#utility.yul\":582:617   */\ntag_19:\n    /* \"#utility.yul\":639:640   */\n  dup3\n    /* \"#utility.yul\":636:637   */\n  dup3\n    /* \"#utility.yul\":632:641   */\n  div\n    /* \"#utility.yul\":627:641   */\n  swap1\n  pop\n    /* \"#utility.yul\":462:647   */\n  swap3\n  swap2\n  pop\n  pop\n  jump\t// out\n    /* \"#utility.yul\":653:1063   */\ntag_6:\n    /* \"#utility.yul\":693:700   */\n  0x00\n    /* \"#utility.yul\":716:736   */\n  tag_22\n    /* \"#utility.yul\":734:735   */\n  dup3\n    /* \"#utility.yul\":716:736   */\n  tag_9\n  jump\t// in\ntag_22:\n    /* \"#utility.yul\":711:736   */\n  swap2\n  pop\n    /* \"#utility.yul\":750:770   */\n  tag_23\n    /* \"#utility.yul\":768:769   */\n  dup4\n    /* \"#utility.yul\":750:770   */\n  tag_9\n  jump\t// in\ntag_23:\n    /* \"#utility.yul\":745:770   */\n  swap3\n  pop\n    /* \"#utility.yul\":805:806   */\n  dup3\n    /* \"#utility.yul\":802:803   */\n  dup3\n    /* \"#utility.yul\":798:807   */\n  mul\n    /* \"#utility.yul\":827:857   */\n  tag_24\n    /* \"#utility.yul\":845:856   */\n  dup2\n    /* \"#utility.yul\":827:857   */\n  tag_9\n  jump\t// in\ntag_24:\n    /* \"#utility.yul\":816:857   */\n  swap2\n  pop\n    /* \"#utility.yul\":1006:1007   */\n  dup3\n    /* \"#utility.yul\":997:1004   */\n  dup3\n    /* \"#utility.yul\":993:1008   */\n  div\n    /* \"#utility.yul\":990:991   */\n  dup5\n    /* \"#utility.yul\":987:1009   */\n  eq\n    /* \"#utility.yul\":967:968   */\n  dup4\n    /* \"#utility.yul\":960:969   */\n  iszero\n    /* \"#utility.yul\":940:1023   */\n  or\n    /* \"#utility.yul\":917:1056   */\n  tag_25\n  jumpi\n    /* \"#utility.yul\":1036:1054   */\n  tag_26\n  tag_11\n  jump\t// in\ntag_26:\n    /* \"#utility.yul\":917:1056   */\ntag_25:\n    /* \"#utility.yul\":701:1063   */\n  pop\n    /* \"#utility.yul\":653:1063   */\n  swap3\n  swap2\n  pop\n  pop\n  jump\t// out\n    /* \"Contracts/Safe Remote Purchase.sol\":61:3369  contract Purchase {... */\ntag_8:\n  dataSize(sub_0)\n  dup1\n  dataOffset(sub_0)\n  0x00\n  codecopy\n  0x00\n  return\nstop\n\nsub_0: assembly {\n        /* \"Contracts/Safe Remote Purchase.sol\":61:3369  contract Purchase {... */\n      mstore(0x40, 0x80)\n      jumpi(tag_1, lt(calldatasize, 0x04))\n      shr(0xe0, calldataload(0x00))\n      dup1\n      0x73fac6f0\n      gt\n      tag_10\n      jumpi\n      dup1\n      0x73fac6f0\n      eq\n      tag_6\n      jumpi\n      dup1\n      0xc19d93fb\n      eq\n      tag_7\n      jumpi\n      dup1\n      0xc7981b1b\n      eq\n      tag_8\n      jumpi\n      dup1\n      0xd6960697\n      eq\n      tag_9\n      jumpi\n      jump(tag_1)\n    tag_10:\n      dup1\n      0x08551a53\n      eq\n      tag_2\n      jumpi\n      dup1\n      0x35a063b4\n      eq\n      tag_3\n      jumpi\n      dup1\n      0x3fa4f245\n      eq\n      tag_4\n      jumpi\n      dup1\n      0x7150d8ae\n      eq\n      tag_5\n      jumpi\n    tag_1:\n      revert(0x00, 0x00)\n        /* \"Contracts/Safe Remote Purchase.sol\":108:137  address payable public seller */\n    tag_2:\n      callvalue\n      dup1\n      iszero\n      tag_11\n      jumpi\n      revert(0x00, 0x00)\n    tag_11:\n      pop\n      tag_12\n      tag_13\n      jump\t// in\n    tag_12:\n      mload(0x40)\n      tag_14\n      swap2\n      swap1\n      tag_15\n      jump\t// in\n    tag_14:\n      mload(0x40)\n      dup1\n      swap2\n      sub\n      swap1\n      return\n        /* \"Contracts/Safe Remote Purchase.sol\":1649:2025  function abort()... */\n    tag_3:\n      callvalue\n      dup1\n      iszero\n      tag_16\n      jumpi\n      revert(0x00, 0x00)\n    tag_16:\n      pop\n      tag_17\n      tag_18\n      jump\t// in\n    tag_17:\n      stop\n        /* \"Contracts/Safe Remote Purchase.sol\":85:102  uint public value */\n    tag_4:\n      callvalue\n      dup1\n      iszero\n      tag_19\n      jumpi\n      revert(0x00, 0x00)\n    tag_19:\n      pop\n      tag_20\n      tag_21\n      jump\t// in\n    tag_20:\n      mload(0x40)\n      tag_22\n      swap2\n      swap1\n      tag_23\n      jump\t// in\n    tag_22:\n      mload(0x40)\n      dup1\n      swap2\n      sub\n      swap1\n      return\n        /* \"Contracts/Safe Remote Purchase.sol\":143:171  address payable public buyer */\n    tag_5:\n      callvalue\n      dup1\n      iszero\n      tag_24\n      jumpi\n      revert(0x00, 0x00)\n    tag_24:\n      pop\n      tag_25\n      tag_26\n      jump\t// in\n    tag_25:\n      mload(0x40)\n      tag_27\n      swap2\n      swap1\n      tag_15\n      jump\t// in\n    tag_27:\n      mload(0x40)\n      dup1\n      swap2\n      sub\n      swap1\n      return\n        /* \"Contracts/Safe Remote Purchase.sol\":2551:2904  function confirmReceived()... */\n    tag_6:\n      callvalue\n      dup1\n      iszero\n      tag_28\n      jumpi\n      revert(0x00, 0x00)\n    tag_28:\n      pop\n      tag_29\n      tag_30\n      jump\t// in\n    tag_29:\n      stop\n        /* \"Contracts/Safe Remote Purchase.sol\":315:333  State public state */\n    tag_7:\n      callvalue\n      dup1\n      iszero\n      tag_31\n      jumpi\n      revert(0x00, 0x00)\n    tag_31:\n      pop\n      tag_32\n      tag_33\n      jump\t// in\n    tag_32:\n      mload(0x40)\n      tag_34\n      swap2\n      swap1\n      tag_35\n      jump\t// in\n    tag_34:\n      mload(0x40)\n      dup1\n      swap2\n      sub\n      swap1\n      return\n        /* \"Contracts/Safe Remote Purchase.sol\":3007:3367  function refundSeller()... */\n    tag_8:\n      callvalue\n      dup1\n      iszero\n      tag_36\n      jumpi\n      revert(0x00, 0x00)\n    tag_36:\n      pop\n      tag_37\n      tag_38\n      jump\t// in\n    tag_37:\n      stop\n        /* \"Contracts/Safe Remote Purchase.sol\":2198:2445  function confirmPurchase()... */\n    tag_9:\n      tag_39\n      tag_40\n      jump\t// in\n    tag_39:\n      stop\n        /* \"Contracts/Safe Remote Purchase.sol\":108:137  address payable public seller */\n    tag_13:\n      0x01\n      0x00\n      swap1\n      sload\n      swap1\n      0x0100\n      exp\n      swap1\n      div\n      0xffffffffffffffffffffffffffffffffffffffff\n      and\n      dup2\n      jump\t// out\n        /* \"Contracts/Safe Remote Purchase.sol\":1649:2025  function abort()... */\n    tag_18:\n        /* \"Contracts/Safe Remote Purchase.sol\":887:893  seller */\n      0x01\n      0x00\n      swap1\n      sload\n      swap1\n      0x0100\n      exp\n      swap1\n      div\n      0xffffffffffffffffffffffffffffffffffffffff\n      and\n        /* \"Contracts/Safe Remote Purchase.sol\":873:893  msg.sender != seller */\n      0xffffffffffffffffffffffffffffffffffffffff\n      and\n        /* \"Contracts/Safe Remote Purchase.sol\":873:883  msg.sender */\n      caller\n        /* \"Contracts/Safe Remote Purchase.sol\":873:893  msg.sender != seller */\n      0xffffffffffffffffffffffffffffffffffffffff\n      and\n      eq\n        /* \"Contracts/Safe Remote Purchase.sol\":869:926  if (msg.sender != seller)... */\n      tag_42\n      jumpi\n        /* \"Contracts/Safe Remote Purchase.sol\":914:926  OnlySeller() */\n      mload(0x40)\n      0x85d1f72600000000000000000000000000000000000000000000000000000000\n      dup2\n      mstore\n      0x04\n      add\n      mload(0x40)\n      dup1\n      swap2\n      sub\n      swap1\n      revert\n        /* \"Contracts/Safe Remote Purchase.sol\":869:926  if (msg.sender != seller)... */\n    tag_42:\n        /* \"Contracts/Safe Remote Purchase.sol\":1718:1731  State.Created */\n      0x00\n        /* \"Contracts/Safe Remote Purchase.sol\":1004:1010  state_ */\n      dup1\n        /* \"Contracts/Safe Remote Purchase.sol\":995:1010  state != state_ */\n      0x03\n      dup2\n      gt\n      iszero\n      tag_44\n      jumpi\n      tag_45\n      tag_46\n      jump\t// in\n    tag_45:\n    tag_44:\n        /* \"Contracts/Safe Remote Purchase.sol\":995:1000  state */\n      0x02\n      0x14\n      swap1\n      sload\n      swap1\n      0x0100\n      exp\n      swap1\n      div\n      0xff\n      and\n        /* \"Contracts/Safe Remote Purchase.sol\":995:1010  state != state_ */\n      0x03\n      dup2\n      gt\n      iszero\n      tag_47\n      jumpi\n      tag_48\n      tag_46\n      jump\t// in\n    tag_48:\n    tag_47:\n      eq\n        /* \"Contracts/Safe Remote Purchase.sol\":991:1045  if (state != state_)... */\n      tag_49\n      jumpi\n        /* \"Contracts/Safe Remote Purchase.sol\":1031:1045  InvalidState() */\n      mload(0x40)\n      0xbaf3f0f700000000000000000000000000000000000000000000000000000000\n      dup2\n      mstore\n      0x04\n      add\n      mload(0x40)\n      dup1\n      swap2\n      sub\n      swap1\n      revert\n        /* \"Contracts/Safe Remote Purchase.sol\":991:1045  if (state != state_)... */\n    tag_49:\n        /* \"Contracts/Safe Remote Purchase.sol\":1752:1761  Aborted() */\n      0x72c874aeff0b183a56e2b79c71b46e1aed4dee5e09862134b8821ba2fddbf8bf\n      mload(0x40)\n      mload(0x40)\n      dup1\n      swap2\n      sub\n      swap1\n      log1\n        /* \"Contracts/Safe Remote Purchase.sol\":1779:1793  State.Inactive */\n      0x03\n        /* \"Contracts/Safe Remote Purchase.sol\":1771:1776  state */\n      0x02\n      0x14\n        /* \"Contracts/Safe Remote Purchase.sol\":1771:1793  state = State.Inactive */\n      0x0100\n      exp\n      dup2\n      sload\n      dup2\n      0xff\n      mul\n      not\n      and\n      swap1\n      dup4\n      0x03\n      dup2\n      gt\n      iszero\n      tag_51\n      jumpi\n      tag_52\n      tag_46\n      jump\t// in\n    tag_52:\n    tag_51:\n      mul\n      or\n      swap1\n      sstore\n      pop\n        /* \"Contracts/Safe Remote Purchase.sol\":1980:1986  seller */\n      0x01\n      0x00\n      swap1\n      sload\n      swap1\n      0x0100\n      exp\n      swap1\n      div\n      0xffffffffffffffffffffffffffffffffffffffff\n      and\n        /* \"Contracts/Safe Remote Purchase.sol\":1980:1995  seller.transfer */\n      0xffffffffffffffffffffffffffffffffffffffff\n      and\n        /* \"Contracts/Safe Remote Purchase.sol\":1980:2018  seller.transfer(address(this).balance) */\n      0x08fc\n        /* \"Contracts/Safe Remote Purchase.sol\":1996:2017  address(this).balance */\n      selfbalance\n        /* \"Contracts/Safe Remote Purchase.sol\":1980:2018  seller.transfer(address(this).balance) */\n      swap1\n      dup2\n      iszero\n      mul\n      swap1\n      mload(0x40)\n      0x00\n      mload(0x40)\n      dup1\n      dup4\n      sub\n      dup2\n      dup6\n      dup9\n      dup9\n      call\n      swap4\n      pop\n      pop\n      pop\n      pop\n      iszero\n      dup1\n      iszero\n      tag_54\n      jumpi\n      returndatacopy(0x00, 0x00, returndatasize)\n      revert(0x00, returndatasize)\n    tag_54:\n      pop\n        /* \"Contracts/Safe Remote Purchase.sol\":936:937  _ */\n      pop\n        /* \"Contracts/Safe Remote Purchase.sol\":1649:2025  function abort()... */\n      jump\t// out\n        /* \"Contracts/Safe Remote Purchase.sol\":85:102  uint public value */\n    tag_21:\n      sload(0x00)\n      dup2\n      jump\t// out\n        /* \"Contracts/Safe Remote Purchase.sol\":143:171  address payable public buyer */\n    tag_26:\n      0x02\n      0x00\n      swap1\n      sload\n      swap1\n      0x0100\n      exp\n      swap1\n      div\n      0xffffffffffffffffffffffffffffffffffffffff\n      and\n      dup2\n      jump\t// out\n        /* \"Contracts/Safe Remote Purchase.sol\":2551:2904  function confirmReceived()... */\n    tag_30:\n        /* \"Contracts/Safe Remote Purchase.sol\":776:781  buyer */\n      0x02\n      0x00\n      swap1\n      sload\n      swap1\n      0x0100\n      exp\n      swap1\n      div\n      0xffffffffffffffffffffffffffffffffffffffff\n      and\n        /* \"Contracts/Safe Remote Purchase.sol\":762:781  msg.sender != buyer */\n      0xffffffffffffffffffffffffffffffffffffffff\n      and\n        /* \"Contracts/Safe Remote Purchase.sol\":762:772  msg.sender */\n      caller\n        /* \"Contracts/Safe Remote Purchase.sol\":762:781  msg.sender != buyer */\n      0xffffffffffffffffffffffffffffffffffffffff\n      and\n      eq\n        /* \"Contracts/Safe Remote Purchase.sol\":758:813  if (msg.sender != buyer)... */\n      tag_56\n      jumpi\n        /* \"Contracts/Safe Remote Purchase.sol\":802:813  OnlyBuyer() */\n      mload(0x40)\n      0x86efbb5500000000000000000000000000000000000000000000000000000000\n      dup2\n      mstore\n      0x04\n      add\n      mload(0x40)\n      dup1\n      swap2\n      sub\n      swap1\n      revert\n        /* \"Contracts/Safe Remote Purchase.sol\":758:813  if (msg.sender != buyer)... */\n    tag_56:\n        /* \"Contracts/Safe Remote Purchase.sol\":2629:2641  State.Locked */\n      0x01\n        /* \"Contracts/Safe Remote Purchase.sol\":1004:1010  state_ */\n      dup1\n        /* \"Contracts/Safe Remote Purchase.sol\":995:1010  state != state_ */\n      0x03\n      dup2\n      gt\n      iszero\n      tag_58\n      jumpi\n      tag_59\n      tag_46\n      jump\t// in\n    tag_59:\n    tag_58:\n        /* \"Contracts/Safe Remote Purchase.sol\":995:1000  state */\n      0x02\n      0x14\n      swap1\n      sload\n      swap1\n      0x0100\n      exp\n      swap1\n      div\n      0xff\n      and\n        /* \"Contracts/Safe Remote Purchase.sol\":995:1010  state != state_ */\n      0x03\n      dup2\n      gt\n      iszero\n      tag_60\n      jumpi\n      tag_61\n      tag_46\n      jump\t// in\n    tag_61:\n    tag_60:\n      eq\n        /* \"Contracts/Safe Remote Purchase.sol\":991:1045  if (state != state_)... */\n      tag_62\n      jumpi\n        /* \"Contracts/Safe Remote Purchase.sol\":1031:1045  InvalidState() */\n      mload(0x40)\n      0xbaf3f0f700000000000000000000000000000000000000000000000000000000\n      dup2\n      mstore\n      0x04\n      add\n      mload(0x40)\n      dup1\n      swap2\n      sub\n      swap1\n      revert\n        /* \"Contracts/Safe Remote Purchase.sol\":991:1045  if (state != state_)... */\n    tag_62:\n        /* \"Contracts/Safe Remote Purchase.sol\":2662:2676  ItemReceived() */\n      0xe89152acd703c9d8c7d28829d443260b411454d45394e7995815140c8cbcbcf7\n      mload(0x40)\n      mload(0x40)\n      dup1\n      swap2\n      sub\n      swap1\n      log1\n        /* \"Contracts/Safe Remote Purchase.sol\":2852:2865  State.Release */\n      0x02\n        /* \"Contracts/Safe Remote Purchase.sol\":2844:2849  state */\n      dup1\n      0x14\n        /* \"Contracts/Safe Remote Purchase.sol\":2844:2865  state = State.Release */\n      0x0100\n      exp\n      dup2\n      sload\n      dup2\n      0xff\n      mul\n      not\n      and\n      swap1\n      dup4\n      0x03\n      dup2\n      gt\n      iszero\n      tag_64\n      jumpi\n      tag_65\n      tag_46\n      jump\t// in\n    tag_65:\n    tag_64:\n      mul\n      or\n      swap1\n      sstore\n      pop\n        /* \"Contracts/Safe Remote Purchase.sol\":2876:2881  buyer */\n      0x02\n      0x00\n      swap1\n      sload\n      swap1\n      0x0100\n      exp\n      swap1\n      div\n      0xffffffffffffffffffffffffffffffffffffffff\n      and\n        /* \"Contracts/Safe Remote Purchase.sol\":2876:2890  buyer.transfer */\n      0xffffffffffffffffffffffffffffffffffffffff\n      and\n        /* \"Contracts/Safe Remote Purchase.sol\":2876:2897  buyer.transfer(value) */\n      0x08fc\n        /* \"Contracts/Safe Remote Purchase.sol\":2891:2896  value */\n      sload(0x00)\n        /* \"Contracts/Safe Remote Purchase.sol\":2876:2897  buyer.transfer(value) */\n      swap1\n      dup2\n      iszero\n      mul\n      swap1\n      mload(0x40)\n      0x00\n      mload(0x40)\n      dup1\n      dup4\n      sub\n      dup2\n      dup6\n      dup9\n      dup9\n      call\n      swap4\n      pop\n      pop\n      pop\n      pop\n      iszero\n      dup1\n      iszero\n      tag_67\n      jumpi\n      returndatacopy(0x00, 0x00, returndatasize)\n      revert(0x00, returndatasize)\n    tag_67:\n      pop\n        /* \"Contracts/Safe Remote Purchase.sol\":823:824  _ */\n      pop\n        /* \"Contracts/Safe Remote Purchase.sol\":2551:2904  function confirmReceived()... */\n      jump\t// out\n        /* \"Contracts/Safe Remote Purchase.sol\":315:333  State public state */\n    tag_33:\n      0x02\n      0x14\n      swap1\n      sload\n      swap1\n      0x0100\n      exp\n      swap1\n      div\n      0xff\n      and\n      dup2\n      jump\t// out\n        /* \"Contracts/Safe Remote Purchase.sol\":3007:3367  function refundSeller()... */\n    tag_38:\n        /* \"Contracts/Safe Remote Purchase.sol\":887:893  seller */\n      0x01\n      0x00\n      swap1\n      sload\n      swap1\n      0x0100\n      exp\n      swap1\n      div\n      0xffffffffffffffffffffffffffffffffffffffff\n      and\n        /* \"Contracts/Safe Remote Purchase.sol\":873:893  msg.sender != seller */\n      0xffffffffffffffffffffffffffffffffffffffff\n      and\n        /* \"Contracts/Safe Remote Purchase.sol\":873:883  msg.sender */\n      caller\n        /* \"Contracts/Safe Remote Purchase.sol\":873:893  msg.sender != seller */\n      0xffffffffffffffffffffffffffffffffffffffff\n      and\n      eq\n        /* \"Contracts/Safe Remote Purchase.sol\":869:926  if (msg.sender != seller)... */\n      tag_69\n      jumpi\n        /* \"Contracts/Safe Remote Purchase.sol\":914:926  OnlySeller() */\n      mload(0x40)\n      0x85d1f72600000000000000000000000000000000000000000000000000000000\n      dup2\n      mstore\n      0x04\n      add\n      mload(0x40)\n      dup1\n      swap2\n      sub\n      swap1\n      revert\n        /* \"Contracts/Safe Remote Purchase.sol\":869:926  if (msg.sender != seller)... */\n    tag_69:\n        /* \"Contracts/Safe Remote Purchase.sol\":3083:3096  State.Release */\n      0x02\n        /* \"Contracts/Safe Remote Purchase.sol\":1004:1010  state_ */\n      dup1\n        /* \"Contracts/Safe Remote Purchase.sol\":995:1010  state != state_ */\n      0x03\n      dup2\n      gt\n      iszero\n      tag_71\n      jumpi\n      tag_72\n      tag_46\n      jump\t// in\n    tag_72:\n    tag_71:\n        /* \"Contracts/Safe Remote Purchase.sol\":995:1000  state */\n      0x02\n      0x14\n      swap1\n      sload\n      swap1\n      0x0100\n      exp\n      swap1\n      div\n      0xff\n      and\n        /* \"Contracts/Safe Remote Purchase.sol\":995:1010  state != state_ */\n      0x03\n      dup2\n      gt\n      iszero\n      tag_73\n      jumpi\n      tag_74\n      tag_46\n      jump\t// in\n    tag_74:\n    tag_73:\n      eq\n        /* \"Contracts/Safe Remote Purchase.sol\":991:1045  if (state != state_)... */\n      tag_75\n      jumpi\n        /* \"Contracts/Safe Remote Purchase.sol\":1031:1045  InvalidState() */\n      mload(0x40)\n      0xbaf3f0f700000000000000000000000000000000000000000000000000000000\n      dup2\n      mstore\n      0x04\n      add\n      mload(0x40)\n      dup1\n      swap2\n      sub\n      swap1\n      revert\n        /* \"Contracts/Safe Remote Purchase.sol\":991:1045  if (state != state_)... */\n    tag_75:\n        /* \"Contracts/Safe Remote Purchase.sol\":3117:3133  SellerRefunded() */\n      0xfda69c32bcfdba840a167777906b173b607eb8b4d8853b97a80d26e613d858db\n      mload(0x40)\n      mload(0x40)\n      dup1\n      swap2\n      sub\n      swap1\n      log1\n        /* \"Contracts/Safe Remote Purchase.sol\":3309:3323  State.Inactive */\n      0x03\n        /* \"Contracts/Safe Remote Purchase.sol\":3301:3306  state */\n      0x02\n      0x14\n        /* \"Contracts/Safe Remote Purchase.sol\":3301:3323  state = State.Inactive */\n      0x0100\n      exp\n      dup2\n      sload\n      dup2\n      0xff\n      mul\n      not\n      and\n      swap1\n      dup4\n      0x03\n      dup2\n      gt\n      iszero\n      tag_77\n      jumpi\n      tag_78\n      tag_46\n      jump\t// in\n    tag_78:\n    tag_77:\n      mul\n      or\n      swap1\n      sstore\n      pop\n        /* \"Contracts/Safe Remote Purchase.sol\":3334:3340  seller */\n      0x01\n      0x00\n      swap1\n      sload\n      swap1\n      0x0100\n      exp\n      swap1\n      div\n      0xffffffffffffffffffffffffffffffffffffffff\n      and\n        /* \"Contracts/Safe Remote Purchase.sol\":3334:3349  seller.transfer */\n      0xffffffffffffffffffffffffffffffffffffffff\n      and\n        /* \"Contracts/Safe Remote Purchase.sol\":3334:3360  seller.transfer(3 * value) */\n      0x08fc\n        /* \"Contracts/Safe Remote Purchase.sol\":3354:3359  value */\n      sload(0x00)\n        /* \"Contracts/Safe Remote Purchase.sol\":3350:3351  3 */\n      0x03\n        /* \"Contracts/Safe Remote Purchase.sol\":3350:3359  3 * value */\n      tag_79\n      swap2\n      swap1\n      tag_80\n      jump\t// in\n    tag_79:\n        /* \"Contracts/Safe Remote Purchase.sol\":3334:3360  seller.transfer(3 * value) */\n      swap1\n      dup2\n      iszero\n      mul\n      swap1\n      mload(0x40)\n      0x00\n      mload(0x40)\n      dup1\n      dup4\n      sub\n      dup2\n      dup6\n      dup9\n      dup9\n      call\n      swap4\n      pop\n      pop\n      pop\n      pop\n      iszero\n      dup1\n      iszero\n      tag_82\n      jumpi\n      returndatacopy(0x00, 0x00, returndatasize)\n      revert(0x00, returndatasize)\n    tag_82:\n      pop\n        /* \"Contracts/Safe Remote Purchase.sol\":936:937  _ */\n      pop\n        /* \"Contracts/Safe Remote Purchase.sol\":3007:3367  function refundSeller()... */\n      jump\t// out\n        /* \"Contracts/Safe Remote Purchase.sol\":2198:2445  function confirmPurchase()... */\n    tag_40:\n        /* \"Contracts/Safe Remote Purchase.sol\":2258:2271  State.Created */\n      0x00\n        /* \"Contracts/Safe Remote Purchase.sol\":1004:1010  state_ */\n      dup1\n        /* \"Contracts/Safe Remote Purchase.sol\":995:1010  state != state_ */\n      0x03\n      dup2\n      gt\n      iszero\n      tag_84\n      jumpi\n      tag_85\n      tag_46\n      jump\t// in\n    tag_85:\n    tag_84:\n        /* \"Contracts/Safe Remote Purchase.sol\":995:1000  state */\n      0x02\n      0x14\n      swap1\n      sload\n      swap1\n      0x0100\n      exp\n      swap1\n      div\n      0xff\n      and\n        /* \"Contracts/Safe Remote Purchase.sol\":995:1010  state != state_ */\n      0x03\n      dup2\n      gt\n      iszero\n      tag_86\n      jumpi\n      tag_87\n      tag_46\n      jump\t// in\n    tag_87:\n    tag_86:\n      eq\n        /* \"Contracts/Safe Remote Purchase.sol\":991:1045  if (state != state_)... */\n      tag_88\n      jumpi\n        /* \"Contracts/Safe Remote Purchase.sol\":1031:1045  InvalidState() */\n      mload(0x40)\n      0xbaf3f0f700000000000000000000000000000000000000000000000000000000\n      dup2\n      mstore\n      0x04\n      add\n      mload(0x40)\n      dup1\n      swap2\n      sub\n      swap1\n      revert\n        /* \"Contracts/Safe Remote Purchase.sol\":991:1045  if (state != state_)... */\n    tag_88:\n        /* \"Contracts/Safe Remote Purchase.sol\":2309:2314  value */\n      sload(0x00)\n        /* \"Contracts/Safe Remote Purchase.sol\":2305:2306  2 */\n      0x02\n        /* \"Contracts/Safe Remote Purchase.sol\":2305:2314  2 * value */\n      tag_89\n      swap2\n      swap1\n      tag_80\n      jump\t// in\n    tag_89:\n        /* \"Contracts/Safe Remote Purchase.sol\":2291:2300  msg.value */\n      callvalue\n        /* \"Contracts/Safe Remote Purchase.sol\":2291:2315  msg.value == (2 * value) */\n      eq\n        /* \"Contracts/Safe Remote Purchase.sol\":394:404  condition_ */\n      dup1\n        /* \"Contracts/Safe Remote Purchase.sol\":386:405  require(condition_) */\n      tag_91\n      jumpi\n      revert(0x00, 0x00)\n    tag_91:\n        /* \"Contracts/Safe Remote Purchase.sol\":2352:2371  PurchaseConfirmed() */\n      0xd5d55c8a68912e9a110618df8d5e2e83b8d83211c57a8ddd1203df92885dc881\n      mload(0x40)\n      mload(0x40)\n      dup1\n      swap2\n      sub\n      swap1\n      log1\n        /* \"Contracts/Safe Remote Purchase.sol\":2397:2407  msg.sender */\n      caller\n        /* \"Contracts/Safe Remote Purchase.sol\":2381:2386  buyer */\n      0x02\n      0x00\n        /* \"Contracts/Safe Remote Purchase.sol\":2381:2408  buyer = payable(msg.sender) */\n      0x0100\n      exp\n      dup2\n      sload\n      dup2\n      0xffffffffffffffffffffffffffffffffffffffff\n      mul\n      not\n      and\n      swap1\n      dup4\n      0xffffffffffffffffffffffffffffffffffffffff\n      and\n      mul\n      or\n      swap1\n      sstore\n      pop\n        /* \"Contracts/Safe Remote Purchase.sol\":2426:2438  State.Locked */\n      0x01\n        /* \"Contracts/Safe Remote Purchase.sol\":2418:2423  state */\n      0x02\n      0x14\n        /* \"Contracts/Safe Remote Purchase.sol\":2418:2438  state = State.Locked */\n      0x0100\n      exp\n      dup2\n      sload\n      dup2\n      0xff\n      mul\n      not\n      and\n      swap1\n      dup4\n      0x03\n      dup2\n      gt\n      iszero\n      tag_93\n      jumpi\n      tag_94\n      tag_46\n      jump\t// in\n    tag_94:\n    tag_93:\n      mul\n      or\n      swap1\n      sstore\n      pop\n        /* \"Contracts/Safe Remote Purchase.sol\":1055:1056  _ */\n      pop\n        /* \"Contracts/Safe Remote Purchase.sol\":2198:2445  function confirmPurchase()... */\n      pop\n      jump\t// out\n        /* \"#utility.yul\":7:133   */\n    tag_95:\n        /* \"#utility.yul\":44:51   */\n      0x00\n        /* \"#utility.yul\":84:126   */\n      0xffffffffffffffffffffffffffffffffffffffff\n        /* \"#utility.yul\":77:82   */\n      dup3\n        /* \"#utility.yul\":73:127   */\n      and\n        /* \"#utility.yul\":62:127   */\n      swap1\n      pop\n        /* \"#utility.yul\":7:133   */\n      swap2\n      swap1\n      pop\n      jump\t// out\n        /* \"#utility.yul\":139:243   */\n    tag_96:\n        /* \"#utility.yul\":184:191   */\n      0x00\n        /* \"#utility.yul\":213:237   */\n      tag_108\n        /* \"#utility.yul\":231:236   */\n      dup3\n        /* \"#utility.yul\":213:237   */\n      tag_95\n      jump\t// in\n    tag_108:\n        /* \"#utility.yul\":202:237   */\n      swap1\n      pop\n        /* \"#utility.yul\":139:243   */\n      swap2\n      swap1\n      pop\n      jump\t// out\n        /* \"#utility.yul\":249:391   */\n    tag_97:\n        /* \"#utility.yul\":352:384   */\n      tag_110\n        /* \"#utility.yul\":378:383   */\n      dup2\n        /* \"#utility.yul\":352:384   */\n      tag_96\n      jump\t// in\n    tag_110:\n        /* \"#utility.yul\":347:350   */\n      dup3\n        /* \"#utility.yul\":340:385   */\n      mstore\n        /* \"#utility.yul\":249:391   */\n      pop\n      pop\n      jump\t// out\n        /* \"#utility.yul\":397:651   */\n    tag_15:\n        /* \"#utility.yul\":506:510   */\n      0x00\n        /* \"#utility.yul\":544:546   */\n      0x20\n        /* \"#utility.yul\":533:542   */\n      dup3\n        /* \"#utility.yul\":529:547   */\n      add\n        /* \"#utility.yul\":521:547   */\n      swap1\n      pop\n        /* \"#utility.yul\":557:644   */\n      tag_112\n        /* \"#utility.yul\":641:642   */\n      0x00\n        /* \"#utility.yul\":630:639   */\n      dup4\n        /* \"#utility.yul\":626:643   */\n      add\n        /* \"#utility.yul\":617:623   */\n      dup5\n        /* \"#utility.yul\":557:644   */\n      tag_97\n      jump\t// in\n    tag_112:\n        /* \"#utility.yul\":397:651   */\n      swap3\n      swap2\n      pop\n      pop\n      jump\t// out\n        /* \"#utility.yul\":657:734   */\n    tag_98:\n        /* \"#utility.yul\":694:701   */\n      0x00\n        /* \"#utility.yul\":723:728   */\n      dup2\n        /* \"#utility.yul\":712:728   */\n      swap1\n      pop\n        /* \"#utility.yul\":657:734   */\n      swap2\n      swap1\n      pop\n      jump\t// out\n        /* \"#utility.yul\":740:858   */\n    tag_99:\n        /* \"#utility.yul\":827:851   */\n      tag_115\n        /* \"#utility.yul\":845:850   */\n      dup2\n        /* \"#utility.yul\":827:851   */\n      tag_98\n      jump\t// in\n    tag_115:\n        /* \"#utility.yul\":822:825   */\n      dup3\n        /* \"#utility.yul\":815:852   */\n      mstore\n        /* \"#utility.yul\":740:858   */\n      pop\n      pop\n      jump\t// out\n        /* \"#utility.yul\":864:1086   */\n    tag_23:\n        /* \"#utility.yul\":957:961   */\n      0x00\n        /* \"#utility.yul\":995:997   */\n      0x20\n        /* \"#utility.yul\":984:993   */\n      dup3\n        /* \"#utility.yul\":980:998   */\n      add\n        /* \"#utility.yul\":972:998   */\n      swap1\n      pop\n        /* \"#utility.yul\":1008:1079   */\n      tag_117\n        /* \"#utility.yul\":1076:1077   */\n      0x00\n        /* \"#utility.yul\":1065:1074   */\n      dup4\n        /* \"#utility.yul\":1061:1078   */\n      add\n        /* \"#utility.yul\":1052:1058   */\n      dup5\n        /* \"#utility.yul\":1008:1079   */\n      tag_99\n      jump\t// in\n    tag_117:\n        /* \"#utility.yul\":864:1086   */\n      swap3\n      swap2\n      pop\n      pop\n      jump\t// out\n        /* \"#utility.yul\":1092:1272   */\n    tag_46:\n        /* \"#utility.yul\":1140:1217   */\n      0x4e487b7100000000000000000000000000000000000000000000000000000000\n        /* \"#utility.yul\":1137:1138   */\n      0x00\n        /* \"#utility.yul\":1130:1218   */\n      mstore\n        /* \"#utility.yul\":1237:1241   */\n      0x21\n        /* \"#utility.yul\":1234:1235   */\n      0x04\n        /* \"#utility.yul\":1227:1242   */\n      mstore\n        /* \"#utility.yul\":1261:1265   */\n      0x24\n        /* \"#utility.yul\":1258:1259   */\n      0x00\n        /* \"#utility.yul\":1251:1266   */\n      revert\n        /* \"#utility.yul\":1278:1391   */\n    tag_100:\n        /* \"#utility.yul\":1359:1360   */\n      0x04\n        /* \"#utility.yul\":1352:1357   */\n      dup2\n        /* \"#utility.yul\":1349:1361   */\n      lt\n        /* \"#utility.yul\":1339:1385   */\n      tag_120\n      jumpi\n        /* \"#utility.yul\":1365:1383   */\n      tag_121\n      tag_46\n      jump\t// in\n    tag_121:\n        /* \"#utility.yul\":1339:1385   */\n    tag_120:\n        /* \"#utility.yul\":1278:1391   */\n      pop\n      jump\t// out\n        /* \"#utility.yul\":1397:1524   */\n    tag_101:\n        /* \"#utility.yul\":1442:1449   */\n      0x00\n        /* \"#utility.yul\":1471:1476   */\n      dup2\n        /* \"#utility.yul\":1460:1476   */\n      swap1\n      pop\n        /* \"#utility.yul\":1477:1518   */\n      tag_123\n        /* \"#utility.yul\":1512:1517   */\n      dup3\n        /* \"#utility.yul\":1477:1518   */\n      tag_100\n      jump\t// in\n    tag_123:\n        /* \"#utility.yul\":1397:1524   */\n      swap2\n      swap1\n      pop\n      jump\t// out\n        /* \"#utility.yul\":1530:1657   */\n    tag_102:\n        /* \"#utility.yul\":1586:1595   */\n      0x00\n        /* \"#utility.yul\":1619:1651   */\n      tag_125\n        /* \"#utility.yul\":1645:1650   */\n      dup3\n        /* \"#utility.yul\":1619:1651   */\n      tag_101\n      jump\t// in\n    tag_125:\n        /* \"#utility.yul\":1606:1651   */\n      swap1\n      pop\n        /* \"#utility.yul\":1530:1657   */\n      swap2\n      swap1\n      pop\n      jump\t// out\n        /* \"#utility.yul\":1663:1806   */\n    tag_103:\n        /* \"#utility.yul\":1756:1799   */\n      tag_127\n        /* \"#utility.yul\":1793:1798   */\n      dup2\n        /* \"#utility.yul\":1756:1799   */\n      tag_102\n      jump\t// in\n    tag_127:\n        /* \"#utility.yul\":1751:1754   */\n      dup3\n        /* \"#utility.yul\":1744:1800   */\n      mstore\n        /* \"#utility.yul\":1663:1806   */\n      pop\n      pop\n      jump\t// out\n        /* \"#utility.yul\":1812:2046   */\n    tag_35:\n        /* \"#utility.yul\":1911:1915   */\n      0x00\n        /* \"#utility.yul\":1949:1951   */\n      0x20\n        /* \"#utility.yul\":1938:1947   */\n      dup3\n        /* \"#utility.yul\":1934:1952   */\n      add\n        /* \"#utility.yul\":1926:1952   */\n      swap1\n      pop\n        /* \"#utility.yul\":1962:2039   */\n      tag_129\n        /* \"#utility.yul\":2036:2037   */\n      0x00\n        /* \"#utility.yul\":2025:2034   */\n      dup4\n        /* \"#utility.yul\":2021:2038   */\n      add\n        /* \"#utility.yul\":2012:2018   */\n      dup5\n        /* \"#utility.yul\":1962:2039   */\n      tag_103\n      jump\t// in\n    tag_129:\n        /* \"#utility.yul\":1812:2046   */\n      swap3\n      swap2\n      pop\n      pop\n      jump\t// out\n        /* \"#utility.yul\":2052:2232   */\n    tag_104:\n        /* \"#utility.yul\":2100:2177   */\n      0x4e487b7100000000000000000000000000000000000000000000000000000000\n        /* \"#utility.yul\":2097:2098   */\n      0x00\n        /* \"#utility.yul\":2090:2178   */\n      mstore\n        /* \"#utility.yul\":2197:2201   */\n      0x11\n        /* \"#utility.yul\":2194:2195   */\n      0x04\n        /* \"#utility.yul\":2187:2202   */\n      mstore\n        /* \"#utility.yul\":2221:2225   */\n      0x24\n        /* \"#utility.yul\":2218:2219   */\n      0x00\n        /* \"#utility.yul\":2211:2226   */\n      revert\n        /* \"#utility.yul\":2238:2648   */\n    tag_80:\n        /* \"#utility.yul\":2278:2285   */\n      0x00\n        /* \"#utility.yul\":2301:2321   */\n      tag_132\n        /* \"#utility.yul\":2319:2320   */\n      dup3\n        /* \"#utility.yul\":2301:2321   */\n      tag_98\n      jump\t// in\n    tag_132:\n        /* \"#utility.yul\":2296:2321   */\n      swap2\n      pop\n        /* \"#utility.yul\":2335:2355   */\n      tag_133\n        /* \"#utility.yul\":2353:2354   */\n      dup4\n        /* \"#utility.yul\":2335:2355   */\n      tag_98\n      jump\t// in\n    tag_133:\n        /* \"#utility.yul\":2330:2355   */\n      swap3\n      pop\n        /* \"#utility.yul\":2390:2391   */\n      dup3\n        /* \"#utility.yul\":2387:2388   */\n      dup3\n        /* \"#utility.yul\":2383:2392   */\n      mul\n        /* \"#utility.yul\":2412:2442   */\n      tag_134\n        /* \"#utility.yul\":2430:2441   */\n      dup2\n        /* \"#utility.yul\":2412:2442   */\n      tag_98\n      jump\t// in\n    tag_134:\n        /* \"#utility.yul\":2401:2442   */\n      swap2\n      pop\n        /* \"#utility.yul\":2591:2592   */\n      dup3\n        /* \"#utility.yul\":2582:2589   */\n      dup3\n        /* \"#utility.yul\":2578:2593   */\n      div\n        /* \"#utility.yul\":2575:2576   */\n      dup5\n        /* \"#utility.yul\":2572:2594   */\n      eq\n        /* \"#utility.yul\":2552:2553   */\n      dup4\n        /* \"#utility.yul\":2545:2554   */\n      iszero\n        /* \"#utility.yul\":2525:2608   */\n      or\n        /* \"#utility.yul\":2502:2641   */\n      tag_135\n      jumpi\n        /* \"#utility.yul\":2621:2639   */\n      tag_136\n      tag_104\n      jump\t// in\n    tag_136:\n        /* \"#utility.yul\":2502:2641   */\n    tag_135:\n        /* \"#utility.yul\":2286:2648   */\n      pop\n        /* \"#utility.yul\":2238:2648   */\n      swap3\n      swap2\n      pop\n      pop\n      jump\t// out\n\n    auxdata: 0xa2646970667358221220c796c45597c2f8a28610482ee7ac662f207a97e13cec036784b6feb160cdffb764736f6c634300081c0033\n}\n",
				"bytecode": {
					"linkReferences": {},
					"object": "60806040523360015f6101000a81548173ffffffffffffffffffffffffffffffffffffffff021916908373ffffffffffffffffffffffffffffffffffffffff1602179055506002346100519190610104565b5f81905550345f5460026100659190610134565b1461009c576040517fbe3e4c4200000000000000000000000000000000000000000000000000000000815260040160405180910390fd5b610175565b5f819050919050565b7f4e487b71000000000000000000000000000000000000000000000000000000005f52601260045260245ffd5b7f4e487b71000000000000000000000000000000000000000000000000000000005f52601160045260245ffd5b5f61010e826100a1565b9150610119836100a1565b925082610129576101286100aa565b5b828204905092915050565b5f61013e826100a1565b9150610149836100a1565b9250828202610157816100a1565b9150828204841483151761016e5761016d6100d7565b5b5092915050565b6109d3806101825f395ff3fe60806040526004361061007a575f3560e01c806373fac6f01161004d57806373fac6f014610112578063c19d93fb14610128578063c7981b1b14610152578063d6960697146101685761007a565b806308551a531461007e57806335a063b4146100a85780633fa4f245146100be5780637150d8ae146100e8575b5f5ffd5b348015610089575f5ffd5b50610092610172565b60405161009f9190610859565b60405180910390f35b3480156100b3575f5ffd5b506100bc610197565b005b3480156100c9575f5ffd5b506100d2610349565b6040516100df919061088a565b60405180910390f35b3480156100f3575f5ffd5b506100fc61034e565b6040516101099190610859565b60405180910390f35b34801561011d575f5ffd5b50610126610373565b005b348015610133575f5ffd5b5061013c610526565b6040516101499190610916565b60405180910390f35b34801561015d575f5ffd5b50610166610539565b005b6101706106f9565b005b60015f9054906101000a900473ffffffffffffffffffffffffffffffffffffffff1681565b60015f9054906101000a900473ffffffffffffffffffffffffffffffffffffffff1673ffffffffffffffffffffffffffffffffffffffff163373ffffffffffffffffffffffffffffffffffffffff161461021d576040517f85d1f72600000000000000000000000000000000000000000000000000000000815260040160405180910390fd5b5f806003811115610231576102306108a3565b5b600260149054906101000a900460ff166003811115610253576102526108a3565b5b1461028a576040517fbaf3f0f700000000000000000000000000000000000000000000000000000000815260040160405180910390fd5b7f72c874aeff0b183a56e2b79c71b46e1aed4dee5e09862134b8821ba2fddbf8bf60405160405180910390a16003600260146101000a81548160ff021916908360038111156102dc576102db6108a3565b5b021790555060015f9054906101000a900473ffffffffffffffffffffffffffffffffffffffff1673ffffffffffffffffffffffffffffffffffffffff166108fc4790811502906040515f60405180830381858888f19350505050158015610345573d5f5f3e3d5ffd5b5050565b5f5481565b60025f9054906101000a900473ffffffffffffffffffffffffffffffffffffffff1681565b60025f9054906101000a900473ffffffffffffffffffffffffffffffffffffffff1673ffffffffffffffffffffffffffffffffffffffff163373ffffffffffffffffffffffffffffffffffffffff16146103f9576040517f86efbb5500000000000000000000000000000000000000000000000000000000815260040160405180910390fd5b600180600381111561040e5761040d6108a3565b5b600260149054906101000a900460ff1660038111156104305761042f6108a3565b5b14610467576040517fbaf3f0f700000000000000000000000000000000000000000000000000000000815260040160405180910390fd5b7fe89152acd703c9d8c7d28829d443260b411454d45394e7995815140c8cbcbcf760405160405180910390a160028060146101000a81548160ff021916908360038111156104b8576104b76108a3565b5b021790555060025f9054906101000a900473ffffffffffffffffffffffffffffffffffffffff1673ffffffffffffffffffffffffffffffffffffffff166108fc5f5490811502906040515f60405180830381858888f19350505050158015610522573d5f5f3e3d5ffd5b5050565b600260149054906101000a900460ff1681565b60015f9054906101000a900473ffffffffffffffffffffffffffffffffffffffff1673ffffffffffffffffffffffffffffffffffffffff163373ffffffffffffffffffffffffffffffffffffffff16146105bf576040517f85d1f72600000000000000000000000000000000000000000000000000000000815260040160405180910390fd5b60028060038111156105d4576105d36108a3565b5b600260149054906101000a900460ff1660038111156105f6576105f56108a3565b5b1461062d576040517fbaf3f0f700000000000000000000000000000000000000000000000000000000815260040160405180910390fd5b7ffda69c32bcfdba840a167777906b173b607eb8b4d8853b97a80d26e613d858db60405160405180910390a16003600260146101000a81548160ff0219169083600381111561067f5761067e6108a3565b5b021790555060015f9054906101000a900473ffffffffffffffffffffffffffffffffffffffff1673ffffffffffffffffffffffffffffffffffffffff166108fc5f5460036106cd919061095c565b90811502906040515f60405180830381858888f193505050501580156106f5573d5f5f3e3d5ffd5b5050565b5f80600381111561070d5761070c6108a3565b5b600260149054906101000a900460ff16600381111561072f5761072e6108a3565b5b14610766576040517fbaf3f0f700000000000000000000000000000000000000000000000000000000815260040160405180910390fd5b5f546002610774919061095c565b34148061077f575f5ffd5b7fd5d55c8a68912e9a110618df8d5e2e83b8d83211c57a8ddd1203df92885dc88160405160405180910390a13360025f6101000a81548173ffffffffffffffffffffffffffffffffffffffff021916908373ffffffffffffffffffffffffffffffffffffffff1602179055506001600260146101000a81548160ff02191690836003811115610811576108106108a3565b5b02179055505050565b5f73ffffffffffffffffffffffffffffffffffffffff82169050919050565b5f6108438261081a565b9050919050565b61085381610839565b82525050565b5f60208201905061086c5f83018461084a565b92915050565b5f819050919050565b61088481610872565b82525050565b5f60208201905061089d5f83018461087b565b92915050565b7f4e487b71000000000000000000000000000000000000000000000000000000005f52602160045260245ffd5b600481106108e1576108e06108a3565b5b50565b5f8190506108f1826108d0565b919050565b5f610900826108e4565b9050919050565b610910816108f6565b82525050565b5f6020820190506109295f830184610907565b92915050565b7f4e487b71000000000000000000000000000000000000000000000000000000005f52601160045260245ffd5b5f61096682610872565b915061097183610872565b925082820261097f81610872565b915082820484148315176109965761099561092f565b5b509291505056fea2646970667358221220c796c45597c2f8a28610482ee7ac662f207a97e13cec036784b6feb160cdffb764736f6c634300081c0033",
					"opcodes": "PUSH1 0x80 PUSH1 0x40 MSTORE CALLER PUSH1 0x1 PUSH0 PUSH2 0x100 EXP DUP2 SLOAD DUP2 PUSH20 0xFFFFFFFFFFFFFFFFFFFFFFFFFFFFFFFFFFFFFFFF MUL NOT AND SWAP1 DUP4 PUSH20 0xFFFFFFFFFFFFFFFFFFFFFFFFFFFFFFFFFFFFFFFF AND MUL OR SWAP1 SSTORE POP PUSH1 0x2 CALLVALUE PUSH2 0x51 SWAP2 SWAP1 PUSH2 0x104 JUMP JUMPDEST PUSH0 DUP2 SWAP1 SSTORE POP CALLVALUE PUSH0 SLOAD PUSH1 0x2 PUSH2 0x65 SWAP2 SWAP1 PUSH2 0x134 JUMP JUMPDEST EQ PUSH2 0x9C JUMPI PUSH1 0x40 MLOAD PUSH32 0xBE3E4C4200000000000000000000000000000000000000000000000000000000 DUP2 MSTORE PUSH1 0x4 ADD PUSH1 0x40 MLOAD DUP1 SWAP2 SUB SWAP1 REVERT JUMPDEST PUSH2 0x175 JUMP JUMPDEST PUSH0 DUP2 SWAP1 POP SWAP2 SWAP1 POP JUMP JUMPDEST PUSH32 0x4E487B7100000000000000000000000000000000000000000000000000000000 PUSH0 MSTORE PUSH1 0x12 PUSH1 0x4 MSTORE PUSH1 0x24 PUSH0 REVERT JUMPDEST PUSH32 0x4E487B7100000000000000000000000000000000000000000000000000000000 PUSH0 MSTORE PUSH1 0x11 PUSH1 0x4 MSTORE PUSH1 0x24 PUSH0 REVERT JUMPDEST PUSH0 PUSH2 0x10E DUP3 PUSH2 0xA1 JUMP JUMPDEST SWAP2 POP PUSH2 0x119 DUP4 PUSH2 0xA1 JUMP JUMPDEST SWAP3 POP DUP3 PUSH2 0x129 JUMPI PUSH2 0x128 PUSH2 0xAA JUMP JUMPDEST JUMPDEST DUP3 DUP3 DIV SWAP1 POP SWAP3 SWAP2 POP POP JUMP JUMPDEST PUSH0 PUSH2 0x13E DUP3 PUSH2 0xA1 JUMP JUMPDEST SWAP2 POP PUSH2 0x149 DUP4 PUSH2 0xA1 JUMP JUMPDEST SWAP3 POP DUP3 DUP3 MUL PUSH2 0x157 DUP2 PUSH2 0xA1 JUMP JUMPDEST SWAP2 POP DUP3 DUP3 DIV DUP5 EQ DUP4 ISZERO OR PUSH2 0x16E JUMPI PUSH2 0x16D PUSH2 0xD7 JUMP JUMPDEST JUMPDEST POP SWAP3 SWAP2 POP POP JUMP JUMPDEST PUSH2 0x9D3 DUP1 PUSH2 0x182 PUSH0 CODECOPY PUSH0 RETURN INVALID PUSH1 0x80 PUSH1 0x40 MSTORE PUSH1 0x4 CALLDATASIZE LT PUSH2 0x7A JUMPI PUSH0 CALLDATALOAD PUSH1 0xE0 SHR DUP1 PUSH4 0x73FAC6F0 GT PUSH2 0x4D JUMPI DUP1 PUSH4 0x73FAC6F0 EQ PUSH2 0x112 JUMPI DUP1 PUSH4 0xC19D93FB EQ PUSH2 0x128 JUMPI DUP1 PUSH4 0xC7981B1B EQ PUSH2 0x152 JUMPI DUP1 PUSH4 0xD6960697 EQ PUSH2 0x168 JUMPI PUSH2 0x7A JUMP JUMPDEST DUP1 PUSH4 0x8551A53 EQ PUSH2 0x7E JUMPI DUP1 PUSH4 0x35A063B4 EQ PUSH2 0xA8 JUMPI DUP1 PUSH4 0x3FA4F245 EQ PUSH2 0xBE JUMPI DUP1 PUSH4 0x7150D8AE EQ PUSH2 0xE8 JUMPI JUMPDEST PUSH0 PUSH0 REVERT JUMPDEST CALLVALUE DUP1 ISZERO PUSH2 0x89 JUMPI PUSH0 PUSH0 REVERT JUMPDEST POP PUSH2 0x92 PUSH2 0x172 JUMP JUMPDEST PUSH1 0x40 MLOAD PUSH2 0x9F SWAP2 SWAP1 PUSH2 0x859 JUMP JUMPDEST PUSH1 0x40 MLOAD DUP1 SWAP2 SUB SWAP1 RETURN JUMPDEST CALLVALUE DUP1 ISZERO PUSH2 0xB3 JUMPI PUSH0 PUSH0 REVERT JUMPDEST POP PUSH2 0xBC PUSH2 0x197 JUMP JUMPDEST STOP JUMPDEST CALLVALUE DUP1 ISZERO PUSH2 0xC9 JUMPI PUSH0 PUSH0 REVERT JUMPDEST POP PUSH2 0xD2 PUSH2 0x349 JUMP JUMPDEST PUSH1 0x40 MLOAD PUSH2 0xDF SWAP2 SWAP1 PUSH2 0x88A JUMP JUMPDEST PUSH1 0x40 MLOAD DUP1 SWAP2 SUB SWAP1 RETURN JUMPDEST CALLVALUE DUP1 ISZERO PUSH2 0xF3 JUMPI PUSH0 PUSH0 REVERT JUMPDEST POP PUSH2 0xFC PUSH2 0x34E JUMP JUMPDEST PUSH1 0x40 MLOAD PUSH2 0x109 SWAP2 SWAP1 PUSH2 0x859 JUMP JUMPDEST PUSH1 0x40 MLOAD DUP1 SWAP2 SUB SWAP1 RETURN JUMPDEST CALLVALUE DUP1 ISZERO PUSH2 0x11D JUMPI PUSH0 PUSH0 REVERT JUMPDEST POP PUSH2 0x126 PUSH2 0x373 JUMP JUMPDEST STOP JUMPDEST CALLVALUE DUP1 ISZERO PUSH2 0x133 JUMPI PUSH0 PUSH0 REVERT JUMPDEST POP PUSH2 0x13C PUSH2 0x526 JUMP JUMPDEST PUSH1 0x40 MLOAD PUSH2 0x149 SWAP2 SWAP1 PUSH2 0x916 JUMP JUMPDEST PUSH1 0x40 MLOAD DUP1 SWAP2 SUB SWAP1 RETURN JUMPDEST CALLVALUE DUP1 ISZERO PUSH2 0x15D JUMPI PUSH0 PUSH0 REVERT JUMPDEST POP PUSH2 0x166 PUSH2 0x539 JUMP JUMPDEST STOP JUMPDEST PUSH2 0x170 PUSH2 0x6F9 JUMP JUMPDEST STOP JUMPDEST PUSH1 0x1 PUSH0 SWAP1 SLOAD SWAP1 PUSH2 0x100 EXP SWAP1 DIV PUSH20 0xFFFFFFFFFFFFFFFFFFFFFFFFFFFFFFFFFFFFFFFF AND DUP2 JUMP JUMPDEST PUSH1 0x1 PUSH0 SWAP1 SLOAD SWAP1 PUSH2 0x100 EXP SWAP1 DIV PUSH20 0xFFFFFFFFFFFFFFFFFFFFFFFFFFFFFFFFFFFFFFFF AND PUSH20 0xFFFFFFFFFFFFFFFFFFFFFFFFFFFFFFFFFFFFFFFF AND CALLER PUSH20 0xFFFFFFFFFFFFFFFFFFFFFFFFFFFFFFFFFFFFFFFF AND EQ PUSH2 0x21D JUMPI PUSH1 0x40 MLOAD PUSH32 0x85D1F72600000000000000000000000000000000000000000000000000000000 DUP2 MSTORE PUSH1 0x4 ADD PUSH1 0x40 MLOAD DUP1 SWAP2 SUB SWAP1 REVERT JUMPDEST PUSH0 DUP1 PUSH1 0x3 DUP2 GT ISZERO PUSH2 0x231 JUMPI PUSH2 0x230 PUSH2 0x8A3 JUMP JUMPDEST JUMPDEST PUSH1 0x2 PUSH1 0x14 SWAP1 SLOAD SWAP1 PUSH2 0x100 EXP SWAP1 DIV PUSH1 0xFF AND PUSH1 0x3 DUP2 GT ISZERO PUSH2 0x253 JUMPI PUSH2 0x252 PUSH2 0x8A3 JUMP JUMPDEST JUMPDEST EQ PUSH2 0x28A JUMPI PUSH1 0x40 MLOAD PUSH32 0xBAF3F0F700000000000000000000000000000000000000000000000000000000 DUP2 MSTORE PUSH1 0x4 ADD PUSH1 0x40 MLOAD DUP1 SWAP2 SUB SWAP1 REVERT JUMPDEST PUSH32 0x72C874AEFF0B183A56E2B79C71B46E1AED4DEE5E09862134B8821BA2FDDBF8BF PUSH1 0x40 MLOAD PUSH1 0x40 MLOAD DUP1 SWAP2 SUB SWAP1 LOG1 PUSH1 0x3 PUSH1 0x2 PUSH1 0x14 PUSH2 0x100 EXP DUP2 SLOAD DUP2 PUSH1 0xFF MUL NOT AND SWAP1 DUP4 PUSH1 0x3 DUP2 GT ISZERO PUSH2 0x2DC JUMPI PUSH2 0x2DB PUSH2 0x8A3 JUMP JUMPDEST JUMPDEST MUL OR SWAP1 SSTORE POP PUSH1 0x1 PUSH0 SWAP1 SLOAD SWAP1 PUSH2 0x100 EXP SWAP1 DIV PUSH20 0xFFFFFFFFFFFFFFFFFFFFFFFFFFFFFFFFFFFFFFFF AND PUSH20 0xFFFFFFFFFFFFFFFFFFFFFFFFFFFFFFFFFFFFFFFF AND PUSH2 0x8FC SELFBALANCE SWAP1 DUP2 ISZERO MUL SWAP1 PUSH1 0x40 MLOAD PUSH0 PUSH1 0x40 MLOAD DUP1 DUP4 SUB DUP2 DUP6 DUP9 DUP9 CALL SWAP4 POP POP POP POP ISZERO DUP1 ISZERO PUSH2 0x345 JUMPI RETURNDATASIZE PUSH0 PUSH0 RETURNDATACOPY RETURNDATASIZE PUSH0 REVERT JUMPDEST POP POP JUMP JUMPDEST PUSH0 SLOAD DUP2 JUMP JUMPDEST PUSH1 0x2 PUSH0 SWAP1 SLOAD SWAP1 PUSH2 0x100 EXP SWAP1 DIV PUSH20 0xFFFFFFFFFFFFFFFFFFFFFFFFFFFFFFFFFFFFFFFF AND DUP2 JUMP JUMPDEST PUSH1 0x2 PUSH0 SWAP1 SLOAD SWAP1 PUSH2 0x100 EXP SWAP1 DIV PUSH20 0xFFFFFFFFFFFFFFFFFFFFFFFFFFFFFFFFFFFFFFFF AND PUSH20 0xFFFFFFFFFFFFFFFFFFFFFFFFFFFFFFFFFFFFFFFF AND CALLER PUSH20 0xFFFFFFFFFFFFFFFFFFFFFFFFFFFFFFFFFFFFFFFF AND EQ PUSH2 0x3F9 JUMPI PUSH1 0x40 MLOAD PUSH32 0x86EFBB5500000000000000000000000000000000000000000000000000000000 DUP2 MSTORE PUSH1 0x4 ADD PUSH1 0x40 MLOAD DUP1 SWAP2 SUB SWAP1 REVERT JUMPDEST PUSH1 0x1 DUP1 PUSH1 0x3 DUP2 GT ISZERO PUSH2 0x40E JUMPI PUSH2 0x40D PUSH2 0x8A3 JUMP JUMPDEST JUMPDEST PUSH1 0x2 PUSH1 0x14 SWAP1 SLOAD SWAP1 PUSH2 0x100 EXP SWAP1 DIV PUSH1 0xFF AND PUSH1 0x3 DUP2 GT ISZERO PUSH2 0x430 JUMPI PUSH2 0x42F PUSH2 0x8A3 JUMP JUMPDEST JUMPDEST EQ PUSH2 0x467 JUMPI PUSH1 0x40 MLOAD PUSH32 0xBAF3F0F700000000000000000000000000000000000000000000000000000000 DUP2 MSTORE PUSH1 0x4 ADD PUSH1 0x40 MLOAD DUP1 SWAP2 SUB SWAP1 REVERT JUMPDEST PUSH32 0xE89152ACD703C9D8C7D28829D443260B411454D45394E7995815140C8CBCBCF7 PUSH1 0x40 MLOAD PUSH1 0x40 MLOAD DUP1 SWAP2 SUB SWAP1 LOG1 PUSH1 0x2 DUP1 PUSH1 0x14 PUSH2 0x100 EXP DUP2 SLOAD DUP2 PUSH1 0xFF MUL NOT AND SWAP1 DUP4 PUSH1 0x3 DUP2 GT ISZERO PUSH2 0x4B8 JUMPI PUSH2 0x4B7 PUSH2 0x8A3 JUMP JUMPDEST JUMPDEST MUL OR SWAP1 SSTORE POP PUSH1 0x2 PUSH0 SWAP1 SLOAD SWAP1 PUSH2 0x100 EXP SWAP1 DIV PUSH20 0xFFFFFFFFFFFFFFFFFFFFFFFFFFFFFFFFFFFFFFFF AND PUSH20 0xFFFFFFFFFFFFFFFFFFFFFFFFFFFFFFFFFFFFFFFF AND PUSH2 0x8FC PUSH0 SLOAD SWAP1 DUP2 ISZERO MUL SWAP1 PUSH1 0x40 MLOAD PUSH0 PUSH1 0x40 MLOAD DUP1 DUP4 SUB DUP2 DUP6 DUP9 DUP9 CALL SWAP4 POP POP POP POP ISZERO DUP1 ISZERO PUSH2 0x522 JUMPI RETURNDATASIZE PUSH0 PUSH0 RETURNDATACOPY RETURNDATASIZE PUSH0 REVERT JUMPDEST POP POP JUMP JUMPDEST PUSH1 0x2 PUSH1 0x14 SWAP1 SLOAD SWAP1 PUSH2 0x100 EXP SWAP1 DIV PUSH1 0xFF AND DUP2 JUMP JUMPDEST PUSH1 0x1 PUSH0 SWAP1 SLOAD SWAP1 PUSH2 0x100 EXP SWAP1 DIV PUSH20 0xFFFFFFFFFFFFFFFFFFFFFFFFFFFFFFFFFFFFFFFF AND PUSH20 0xFFFFFFFFFFFFFFFFFFFFFFFFFFFFFFFFFFFFFFFF AND CALLER PUSH20 0xFFFFFFFFFFFFFFFFFFFFFFFFFFFFFFFFFFFFFFFF AND EQ PUSH2 0x5BF JUMPI PUSH1 0x40 MLOAD PUSH32 0x85D1F72600000000000000000000000000000000000000000000000000000000 DUP2 MSTORE PUSH1 0x4 ADD PUSH1 0x40 MLOAD DUP1 SWAP2 SUB SWAP1 REVERT JUMPDEST PUSH1 0x2 DUP1 PUSH1 0x3 DUP2 GT ISZERO PUSH2 0x5D4 JUMPI PUSH2 0x5D3 PUSH2 0x8A3 JUMP JUMPDEST JUMPDEST PUSH1 0x2 PUSH1 0x14 SWAP1 SLOAD SWAP1 PUSH2 0x100 EXP SWAP1 DIV PUSH1 0xFF AND PUSH1 0x3 DUP2 GT ISZERO PUSH2 0x5F6 JUMPI PUSH2 0x5F5 PUSH2 0x8A3 JUMP JUMPDEST JUMPDEST EQ PUSH2 0x62D JUMPI PUSH1 0x40 MLOAD PUSH32 0xBAF3F0F700000000000000000000000000000000000000000000000000000000 DUP2 MSTORE PUSH1 0x4 ADD PUSH1 0x40 MLOAD DUP1 SWAP2 SUB SWAP1 REVERT JUMPDEST PUSH32 0xFDA69C32BCFDBA840A167777906B173B607EB8B4D8853B97A80D26E613D858DB PUSH1 0x40 MLOAD PUSH1 0x40 MLOAD DUP1 SWAP2 SUB SWAP1 LOG1 PUSH1 0x3 PUSH1 0x2 PUSH1 0x14 PUSH2 0x100 EXP DUP2 SLOAD DUP2 PUSH1 0xFF MUL NOT AND SWAP1 DUP4 PUSH1 0x3 DUP2 GT ISZERO PUSH2 0x67F JUMPI PUSH2 0x67E PUSH2 0x8A3 JUMP JUMPDEST JUMPDEST MUL OR SWAP1 SSTORE POP PUSH1 0x1 PUSH0 SWAP1 SLOAD SWAP1 PUSH2 0x100 EXP SWAP1 DIV PUSH20 0xFFFFFFFFFFFFFFFFFFFFFFFFFFFFFFFFFFFFFFFF AND PUSH20 0xFFFFFFFFFFFFFFFFFFFFFFFFFFFFFFFFFFFFFFFF AND PUSH2 0x8FC PUSH0 SLOAD PUSH1 0x3 PUSH2 0x6CD SWAP2 SWAP1 PUSH2 0x95C JUMP JUMPDEST SWAP1 DUP2 ISZERO MUL SWAP1 PUSH1 0x40 MLOAD PUSH0 PUSH1 0x40 MLOAD DUP1 DUP4 SUB DUP2 DUP6 DUP9 DUP9 CALL SWAP4 POP POP POP POP ISZERO DUP1 ISZERO PUSH2 0x6F5 JUMPI RETURNDATASIZE PUSH0 PUSH0 RETURNDATACOPY RETURNDATASIZE PUSH0 REVERT JUMPDEST POP POP JUMP JUMPDEST PUSH0 DUP1 PUSH1 0x3 DUP2 GT ISZERO PUSH2 0x70D JUMPI PUSH2 0x70C PUSH2 0x8A3 JUMP JUMPDEST JUMPDEST PUSH1 0x2 PUSH1 0x14 SWAP1 SLOAD SWAP1 PUSH2 0x100 EXP SWAP1 DIV PUSH1 0xFF AND PUSH1 0x3 DUP2 GT ISZERO PUSH2 0x72F JUMPI PUSH2 0x72E PUSH2 0x8A3 JUMP JUMPDEST JUMPDEST EQ PUSH2 0x766 JUMPI PUSH1 0x40 MLOAD PUSH32 0xBAF3F0F700000000000000000000000000000000000000000000000000000000 DUP2 MSTORE PUSH1 0x4 ADD PUSH1 0x40 MLOAD DUP1 SWAP2 SUB SWAP1 REVERT JUMPDEST PUSH0 SLOAD PUSH1 0x2 PUSH2 0x774 SWAP2 SWAP1 PUSH2 0x95C JUMP JUMPDEST CALLVALUE EQ DUP1 PUSH2 0x77F JUMPI PUSH0 PUSH0 REVERT JUMPDEST PUSH32 0xD5D55C8A68912E9A110618DF8D5E2E83B8D83211C57A8DDD1203DF92885DC881 PUSH1 0x40 MLOAD PUSH1 0x40 MLOAD DUP1 SWAP2 SUB SWAP1 LOG1 CALLER PUSH1 0x2 PUSH0 PUSH2 0x100 EXP DUP2 SLOAD DUP2 PUSH20 0xFFFFFFFFFFFFFFFFFFFFFFFFFFFFFFFFFFFFFFFF MUL NOT AND SWAP1 DUP4 PUSH20 0xFFFFFFFFFFFFFFFFFFFFFFFFFFFFFFFFFFFFFFFF AND MUL OR SWAP1 SSTORE POP PUSH1 0x1 PUSH1 0x2 PUSH1 0x14 PUSH2 0x100 EXP DUP2 SLOAD DUP2 PUSH1 0xFF MUL NOT AND SWAP1 DUP4 PUSH1 0x3 DUP2 GT ISZERO PUSH2 0x811 JUMPI PUSH2 0x810 PUSH2 0x8A3 JUMP JUMPDEST JUMPDEST MUL OR SWAP1 SSTORE POP POP POP JUMP JUMPDEST PUSH0 PUSH20 0xFFFFFFFFFFFFFFFFFFFFFFFFFFFFFFFFFFFFFFFF DUP3 AND SWAP1 POP SWAP2 SWAP1 POP JUMP JUMPDEST PUSH0 PUSH2 0x843 DUP3 PUSH2 0x81A JUMP JUMPDEST SWAP1 POP SWAP2 SWAP1 POP JUMP JUMPDEST PUSH2 0x853 DUP2 PUSH2 0x839 JUMP JUMPDEST DUP3 MSTORE POP POP JUMP JUMPDEST PUSH0 PUSH1 0x20 DUP3 ADD SWAP1 POP PUSH2 0x86C PUSH0 DUP4 ADD DUP5 PUSH2 0x84A JUMP JUMPDEST SWAP3 SWAP2 POP POP JUMP JUMPDEST PUSH0 DUP2 SWAP1 POP SWAP2 SWAP1 POP JUMP JUMPDEST PUSH2 0x884 DUP2 PUSH2 0x872 JUMP JUMPDEST DUP3 MSTORE POP POP JUMP JUMPDEST PUSH0 PUSH1 0x20 DUP3 ADD SWAP1 POP PUSH2 0x89D PUSH0 DUP4 ADD DUP5 PUSH2 0x87B JUMP JUMPDEST SWAP3 SWAP2 POP POP JUMP JUMPDEST PUSH32 0x4E487B7100000000000000000000000000000000000000000000000000000000 PUSH0 MSTORE PUSH1 0x21 PUSH1 0x4 MSTORE PUSH1 0x24 PUSH0 REVERT JUMPDEST PUSH1 0x4 DUP2 LT PUSH2 0x8E1 JUMPI PUSH2 0x8E0 PUSH2 0x8A3 JUMP JUMPDEST JUMPDEST POP JUMP JUMPDEST PUSH0 DUP2 SWAP1 POP PUSH2 0x8F1 DUP3 PUSH2 0x8D0 JUMP JUMPDEST SWAP2 SWAP1 POP JUMP JUMPDEST PUSH0 PUSH2 0x900 DUP3 PUSH2 0x8E4 JUMP JUMPDEST SWAP1 POP SWAP2 SWAP1 POP JUMP JUMPDEST PUSH2 0x910 DUP2 PUSH2 0x8F6 JUMP JUMPDEST DUP3 MSTORE POP POP JUMP JUMPDEST PUSH0 PUSH1 0x20 DUP3 ADD SWAP1 POP PUSH2 0x929 PUSH0 DUP4 ADD DUP5 PUSH2 0x907 JUMP JUMPDEST SWAP3 SWAP2 POP POP JUMP JUMPDEST PUSH32 0x4E487B7100000000000000000000000000000000000000000000000000000000 PUSH0 MSTORE PUSH1 0x11 PUSH1 0x4 MSTORE PUSH1 0x24 PUSH0 REVERT JUMPDEST PUSH0 PUSH2 0x966 DUP3 PUSH2 0x872 JUMP JUMPDEST SWAP2 POP PUSH2 0x971 DUP4 PUSH2 0x872 JUMP JUMPDEST SWAP3 POP DUP3 DUP3 MUL PUSH2 0x97F DUP2 PUSH2 0x872 JUMP JUMPDEST SWAP2 POP DUP3 DUP3 DIV DUP5 EQ DUP4 ISZERO OR PUSH2 0x996 JUMPI PUSH2 0x995 PUSH2 0x92F JUMP JUMPDEST JUMPDEST POP SWAP3 SWAP2 POP POP JUMP INVALID LOG2 PUSH5 0x6970667358 0x22 SLT KECCAK256 0xC7 SWAP7 0xC4 SSTORE SWAP8 0xC2 0xF8 LOG2 DUP7 LT BASEFEE 0x2E 0xE7 0xAC PUSH7 0x2F207A97E13CEC SUB PUSH8 0x84B6FEB160CDFFB7 PUSH5 0x736F6C6343 STOP ADDMOD SHR STOP CALLER "
				},
				"gasEstimates": {
					"creation": {
						"codeDepositCost": "503000",
						"executionCost": "infinite",
						"totalCost": "infinite"
					},
					"external": {
						"abort()": "infinite",
						"buyer()": "2575",
						"confirmPurchase()": "infinite",
						"confirmReceived()": "infinite",
						"refundSeller()": "infinite",
						"seller()": "2509",
						"state()": "2627",
						"value()": "2469"
					}
				},
				"methodIdentifiers": {
					"abort()": "35a063b4",
					"buyer()": "7150d8ae",
					"confirmPurchase()": "d6960697",
					"confirmReceived()": "73fac6f0",
					"refundSeller()": "c7981b1b",
					"seller()": "08551a53",
					"state()": "c19d93fb",
					"value()": "3fa4f245"
				}
			},
			"storageLayout": {
				"storage": [
					{
						"astId": 3,
						"contract": "Contracts/Safe Remote Purchase.sol:Purchase",
						"label": "value",
						"offset": 0,
						"slot": "0",
						"type": "t_uint256"
					},
					{
						"astId": 5,
						"contract": "Contracts/Safe Remote Purchase.sol:Purchase",
						"label": "seller",
						"offset": 0,
						"slot": "1",
						"type": "t_address_payable"
					},
					{
						"astId": 7,
						"contract": "Contracts/Safe Remote Purchase.sol:Purchase",
						"label": "buyer",
						"offset": 0,
						"slot": "2",
						"type": "t_address_payable"
					},
					{
						"astId": 15,
						"contract": "Contracts/Safe Remote Purchase.sol:Purchase",
						"label": "state",
						"offset": 20,
						"slot": "2",
						"type": "t_enum(State)12"
					}
				],
				"types": {
					"t_address_payable": {
						"encoding": "inplace",
						"label": "address payable",
						"numberOfBytes": "20"
					},
					"t_enum(State)12": {
						"encoding": "inplace",
						"label": "enum Purchase.State",
						"numberOfBytes": "1"
					},
					"t_uint256": {
						"encoding": "inplace",
						"label": "uint256",
						"numberOfBytes": "32"
					}
				}
			},
			"userdoc": {
				"errors": {
					"InvalidState()": [
						{
							"notice": "The function cannot be called at the current state."
						}
					],
					"OnlyBuyer()": [
						{
							"notice": "Only the buyer can call this function."
						}
					],
					"OnlySeller()": [
						{
							"notice": "Only the seller can call this function."
						}
					],
					"ValueNotEven()": [
						{
							"notice": "The provided value has to be even."
						}
					]
				},
				"kind": "user",
				"methods": {
					"abort()": {
						"notice": "Abort the purchase and reclaim the ether. Can only be called by the seller before the contract is locked."
					},
					"confirmPurchase()": {
						"notice": "Confirm the purchase as buyer. Transaction has to include `2 * value` ether. The ether will be locked until confirmReceived is called."
					},
					"confirmReceived()": {
						"notice": "Confirm that you (the buyer) received the item. This will release the locked ether."
					},
					"refundSeller()": {
						"notice": "This function refunds the seller, i.e. pays back the locked funds of the seller."
					}
				},
				"version": 1
			}
		}
	}
}