{
	"Contracts/Signature.sol": {
		"ReceiverPays": {
			"abi": [
				{
					"inputs": [],
					"stateMutability": "payable",
					"type": "constructor"
				},
				{
					"inputs": [
						{
							"internalType": "uint256",
							"name": "amount",
							"type": "uint256"
						},
						{
							"internalType": "uint256",
							"name": "nonce",
							"type": "uint256"
						},
						{
							"internalType": "bytes",
							"name": "signature",
							"type": "bytes"
						}
					],
					"name": "claimPayment",
					"outputs": [],
					"stateMutability": "nonpayable",
					"type": "function"
				},
				{
					"inputs": [],
					"name": "shutdown",
					"outputs": [],
					"stateMutability": "nonpayable",
					"type": "function"
				}
			],
			"devdoc": {
				"kind": "dev",
				"methods": {},
				"version": 1
			},
			"evm": {
				"assembly": "    /* \"Contracts/Signature.sol\":68:1820  contract ReceiverPays {... */\n  mstore(0x40, 0x80)\n    /* \"Contracts/Signature.sol\":112:122  msg.sender */\n  caller\n    /* \"Contracts/Signature.sol\":96:122  address owner = msg.sender */\n  0x00\n  dup1\n  0x0100\n  exp\n  dup2\n  sload\n  dup2\n  0xffffffffffffffffffffffffffffffffffffffff\n  mul\n  not\n  and\n  swap1\n  dup4\n  0xffffffffffffffffffffffffffffffffffffffff\n  and\n  mul\n  or\n  swap1\n  sstore\n  pop\n    /* \"Contracts/Signature.sol\":68:1820  contract ReceiverPays {... */\n  dataSize(sub_0)\n  dup1\n  dataOffset(sub_0)\n  0x00\n  codecopy\n  0x00\n  return\nstop\n\nsub_0: assembly {\n        /* \"Contracts/Signature.sol\":68:1820  contract ReceiverPays {... */\n      mstore(0x40, 0x80)\n      callvalue\n      dup1\n      iszero\n      tag_1\n      jumpi\n      0x00\n      dup1\n      revert\n    tag_1:\n      pop\n      jumpi(tag_2, lt(calldatasize, 0x04))\n      shr(0xe0, calldataload(0x00))\n      dup1\n      0xa90ae887\n      eq\n      tag_3\n      jumpi\n      dup1\n      0xfc0e74d1\n      eq\n      tag_4\n      jumpi\n    tag_2:\n      0x00\n      dup1\n      revert\n        /* \"Contracts/Signature.sol\":201:641  function claimPayment(uint256 amount, uint256 nonce, bytes memory signature) external {... */\n    tag_3:\n      tag_5\n      0x04\n      dup1\n      calldatasize\n      sub\n      dup2\n      add\n      swap1\n      tag_6\n      swap2\n      swap1\n      tag_7\n      jump\t// in\n    tag_6:\n      tag_8\n      jump\t// in\n    tag_5:\n      stop\n        /* \"Contracts/Signature.sol\":708:825  function shutdown() external {... */\n    tag_4:\n      tag_9\n      tag_10\n      jump\t// in\n    tag_9:\n      stop\n        /* \"Contracts/Signature.sol\":201:641  function claimPayment(uint256 amount, uint256 nonce, bytes memory signature) external {... */\n    tag_8:\n        /* \"Contracts/Signature.sol\":306:316  usedNonces */\n      0x01\n        /* \"Contracts/Signature.sol\":306:323  usedNonces[nonce] */\n      0x00\n        /* \"Contracts/Signature.sol\":317:322  nonce */\n      dup4\n        /* \"Contracts/Signature.sol\":306:323  usedNonces[nonce] */\n      dup2\n      mstore\n      0x20\n      add\n      swap1\n      dup2\n      mstore\n      0x20\n      add\n      0x00\n      keccak256\n      0x00\n      swap1\n      sload\n      swap1\n      0x0100\n      exp\n      swap1\n      div\n      0xff\n      and\n        /* \"Contracts/Signature.sol\":305:323  !usedNonces[nonce] */\n      iszero\n        /* \"Contracts/Signature.sol\":297:324  require(!usedNonces[nonce]) */\n      tag_12\n      jumpi\n      0x00\n      dup1\n      revert\n    tag_12:\n        /* \"Contracts/Signature.sol\":354:358  true */\n      0x01\n        /* \"Contracts/Signature.sol\":334:344  usedNonces */\n      dup1\n        /* \"Contracts/Signature.sol\":334:351  usedNonces[nonce] */\n      0x00\n        /* \"Contracts/Signature.sol\":345:350  nonce */\n      dup5\n        /* \"Contracts/Signature.sol\":334:351  usedNonces[nonce] */\n      dup2\n      mstore\n      0x20\n      add\n      swap1\n      dup2\n      mstore\n      0x20\n      add\n      0x00\n      keccak256\n      0x00\n        /* \"Contracts/Signature.sol\":334:358  usedNonces[nonce] = true */\n      0x0100\n      exp\n      dup2\n      sload\n      dup2\n      0xff\n      mul\n      not\n      and\n      swap1\n      dup4\n      iszero\n      iszero\n      mul\n      or\n      swap1\n      sstore\n      pop\n        /* \"Contracts/Signature.sol\":437:452  bytes32 message */\n      0x00\n        /* \"Contracts/Signature.sol\":455:525  prefixed(keccak256(abi.encodePacked(msg.sender, amount, nonce, this))) */\n      tag_13\n        /* \"Contracts/Signature.sol\":491:501  msg.sender */\n      caller\n        /* \"Contracts/Signature.sol\":503:509  amount */\n      dup6\n        /* \"Contracts/Signature.sol\":511:516  nonce */\n      dup6\n        /* \"Contracts/Signature.sol\":518:522  this */\n      address\n        /* \"Contracts/Signature.sol\":474:523  abi.encodePacked(msg.sender, amount, nonce, this) */\n      add(0x20, mload(0x40))\n      tag_14\n      swap5\n      swap4\n      swap3\n      swap2\n      swap1\n      tag_15\n      jump\t// in\n    tag_14:\n      mload(0x40)\n      0x20\n      dup2\n      dup4\n      sub\n      sub\n      dup2\n      mstore\n      swap1\n      0x40\n      mstore\n        /* \"Contracts/Signature.sol\":464:524  keccak256(abi.encodePacked(msg.sender, amount, nonce, this)) */\n      dup1\n      mload\n      swap1\n      0x20\n      add\n      keccak256\n        /* \"Contracts/Signature.sol\":455:463  prefixed */\n      tag_16\n        /* \"Contracts/Signature.sol\":455:525  prefixed(keccak256(abi.encodePacked(msg.sender, amount, nonce, this))) */\n      jump\t// in\n    tag_13:\n        /* \"Contracts/Signature.sol\":437:525  bytes32 message = prefixed(keccak256(abi.encodePacked(msg.sender, amount, nonce, this))) */\n      swap1\n      pop\n        /* \"Contracts/Signature.sol\":581:586  owner */\n      0x00\n      dup1\n      sload\n      swap1\n      0x0100\n      exp\n      swap1\n      div\n      0xffffffffffffffffffffffffffffffffffffffff\n      and\n        /* \"Contracts/Signature.sol\":544:586  recoverSigner(message, signature) == owner */\n      0xffffffffffffffffffffffffffffffffffffffff\n      and\n        /* \"Contracts/Signature.sol\":544:577  recoverSigner(message, signature) */\n      tag_17\n        /* \"Contracts/Signature.sol\":558:565  message */\n      dup3\n        /* \"Contracts/Signature.sol\":567:576  signature */\n      dup5\n        /* \"Contracts/Signature.sol\":544:557  recoverSigner */\n      tag_18\n        /* \"Contracts/Signature.sol\":544:577  recoverSigner(message, signature) */\n      jump\t// in\n    tag_17:\n        /* \"Contracts/Signature.sol\":544:586  recoverSigner(message, signature) == owner */\n      0xffffffffffffffffffffffffffffffffffffffff\n      and\n      eq\n        /* \"Contracts/Signature.sol\":536:587  require(recoverSigner(message, signature) == owner) */\n      tag_19\n      jumpi\n      0x00\n      dup1\n      revert\n    tag_19:\n        /* \"Contracts/Signature.sol\":606:616  msg.sender */\n      caller\n        /* \"Contracts/Signature.sol\":598:626  payable(msg.sender).transfer */\n      0xffffffffffffffffffffffffffffffffffffffff\n      and\n        /* \"Contracts/Signature.sol\":598:634  payable(msg.sender).transfer(amount) */\n      0x08fc\n        /* \"Contracts/Signature.sol\":627:633  amount */\n      dup6\n        /* \"Contracts/Signature.sol\":598:634  payable(msg.sender).transfer(amount) */\n      swap1\n      dup2\n      iszero\n      mul\n      swap1\n      mload(0x40)\n      0x00\n      mload(0x40)\n      dup1\n      dup4\n      sub\n      dup2\n      dup6\n      dup9\n      dup9\n      call\n      swap4\n      pop\n      pop\n      pop\n      pop\n      iszero\n      dup1\n      iszero\n      tag_21\n      jumpi\n      returndatasize\n      0x00\n      dup1\n      returndatacopy\n      revert(0x00, returndatasize)\n    tag_21:\n      pop\n        /* \"Contracts/Signature.sol\":287:641  {... */\n      pop\n        /* \"Contracts/Signature.sol\":201:641  function claimPayment(uint256 amount, uint256 nonce, bytes memory signature) external {... */\n      pop\n      pop\n      pop\n      jump\t// out\n        /* \"Contracts/Signature.sol\":708:825  function shutdown() external {... */\n    tag_10:\n        /* \"Contracts/Signature.sol\":769:774  owner */\n      0x00\n      dup1\n      sload\n      swap1\n      0x0100\n      exp\n      swap1\n      div\n      0xffffffffffffffffffffffffffffffffffffffff\n      and\n        /* \"Contracts/Signature.sol\":755:774  msg.sender == owner */\n      0xffffffffffffffffffffffffffffffffffffffff\n      and\n        /* \"Contracts/Signature.sol\":755:765  msg.sender */\n      caller\n        /* \"Contracts/Signature.sol\":755:774  msg.sender == owner */\n      0xffffffffffffffffffffffffffffffffffffffff\n      and\n      eq\n        /* \"Contracts/Signature.sol\":747:775  require(msg.sender == owner) */\n      tag_23\n      jumpi\n      0x00\n      dup1\n      revert\n    tag_23:\n        /* \"Contracts/Signature.sol\":806:816  msg.sender */\n      caller\n        /* \"Contracts/Signature.sol\":785:818  selfdestruct(payable(msg.sender)) */\n      0xffffffffffffffffffffffffffffffffffffffff\n      and\n      selfdestruct\n        /* \"Contracts/Signature.sol\":1661:1818  function prefixed(bytes32 hash) internal pure returns (bytes32) {... */\n    tag_16:\n        /* \"Contracts/Signature.sol\":1716:1723  bytes32 */\n      0x00\n        /* \"Contracts/Signature.sol\":1805:1809  hash */\n      dup2\n        /* \"Contracts/Signature.sol\":1752:1810  abi.encodePacked(\"\\x19Ethereum Signed Message:\\n32\", hash) */\n      add(0x20, mload(0x40))\n      tag_25\n      swap2\n      swap1\n      tag_26\n      jump\t// in\n    tag_25:\n      mload(0x40)\n      0x20\n      dup2\n      dup4\n      sub\n      sub\n      dup2\n      mstore\n      swap1\n      0x40\n      mstore\n        /* \"Contracts/Signature.sol\":1742:1811  keccak256(abi.encodePacked(\"\\x19Ethereum Signed Message:\\n32\", hash)) */\n      dup1\n      mload\n      swap1\n      0x20\n      add\n      keccak256\n        /* \"Contracts/Signature.sol\":1735:1811  return keccak256(abi.encodePacked(\"\\x19Ethereum Signed Message:\\n32\", hash)) */\n      swap1\n      pop\n        /* \"Contracts/Signature.sol\":1661:1818  function prefixed(bytes32 hash) internal pure returns (bytes32) {... */\n      swap2\n      swap1\n      pop\n      jump\t// out\n        /* \"Contracts/Signature.sol\":1356:1589  function recoverSigner(bytes32 message, bytes memory sig)... */\n    tag_18:\n        /* \"Contracts/Signature.sol\":1461:1468  address */\n      0x00\n        /* \"Contracts/Signature.sol\":1485:1492  uint8 v */\n      dup1\n        /* \"Contracts/Signature.sol\":1494:1503  bytes32 r */\n      0x00\n        /* \"Contracts/Signature.sol\":1505:1514  bytes32 s */\n      dup1\n        /* \"Contracts/Signature.sol\":1518:1537  splitSignature(sig) */\n      tag_28\n        /* \"Contracts/Signature.sol\":1533:1536  sig */\n      dup6\n        /* \"Contracts/Signature.sol\":1518:1532  splitSignature */\n      tag_29\n        /* \"Contracts/Signature.sol\":1518:1537  splitSignature(sig) */\n      jump\t// in\n    tag_28:\n        /* \"Contracts/Signature.sol\":1484:1537  (uint8 v, bytes32 r, bytes32 s) = splitSignature(sig) */\n      swap3\n      pop\n      swap3\n      pop\n      swap3\n      pop\n        /* \"Contracts/Signature.sol\":1555:1582  ecrecover(message, v, r, s) */\n      0x01\n        /* \"Contracts/Signature.sol\":1565:1572  message */\n      dup7\n        /* \"Contracts/Signature.sol\":1574:1575  v */\n      dup5\n        /* \"Contracts/Signature.sol\":1577:1578  r */\n      dup5\n        /* \"Contracts/Signature.sol\":1580:1581  s */\n      dup5\n        /* \"Contracts/Signature.sol\":1555:1582  ecrecover(message, v, r, s) */\n      mload(0x40)\n      0x00\n      dup2\n      mstore\n      0x20\n      add\n      0x40\n      mstore\n      mload(0x40)\n      tag_30\n      swap5\n      swap4\n      swap3\n      swap2\n      swap1\n      tag_31\n      jump\t// in\n    tag_30:\n      0x20\n      mload(0x40)\n      0x20\n      dup2\n      sub\n      swap1\n      dup1\n      dup5\n      sub\n      swap1\n      dup6\n      gas\n      staticcall\n      iszero\n      dup1\n      iszero\n      tag_33\n      jumpi\n      returndatasize\n      0x00\n      dup1\n      returndatacopy\n      revert(0x00, returndatasize)\n    tag_33:\n      pop\n      pop\n      pop\n      mload(sub(mload(0x40), 0x20))\n        /* \"Contracts/Signature.sol\":1548:1582  return ecrecover(message, v, r, s) */\n      swap4\n      pop\n      pop\n      pop\n      pop\n        /* \"Contracts/Signature.sol\":1356:1589  function recoverSigner(bytes32 message, bytes memory sig)... */\n      swap3\n      swap2\n      pop\n      pop\n      jump\t// out\n        /* \"Contracts/Signature.sol\":858:1350  function splitSignature(bytes memory sig)... */\n    tag_29:\n        /* \"Contracts/Signature.sol\":947:954  uint8 v */\n      0x00\n        /* \"Contracts/Signature.sol\":956:965  bytes32 r */\n      dup1\n        /* \"Contracts/Signature.sol\":967:976  bytes32 s */\n      0x00\n        /* \"Contracts/Signature.sol\":1014:1016  65 */\n      0x41\n        /* \"Contracts/Signature.sol\":1000:1003  sig */\n      dup5\n        /* \"Contracts/Signature.sol\":1000:1010  sig.length */\n      mload\n        /* \"Contracts/Signature.sol\":1000:1016  sig.length == 65 */\n      eq\n        /* \"Contracts/Signature.sol\":992:1017  require(sig.length == 65) */\n      tag_35\n      jumpi\n      0x00\n      dup1\n      revert\n    tag_35:\n        /* \"Contracts/Signature.sol\":1127:1129  32 */\n      0x20\n        /* \"Contracts/Signature.sol\":1122:1125  sig */\n      dup5\n        /* \"Contracts/Signature.sol\":1118:1130  add(sig, 32) */\n      add\n        /* \"Contracts/Signature.sol\":1112:1131  mload(add(sig, 32)) */\n      mload\n        /* \"Contracts/Signature.sol\":1107:1131  r := mload(add(sig, 32)) */\n      swap2\n      pop\n        /* \"Contracts/Signature.sol\":1196:1198  64 */\n      0x40\n        /* \"Contracts/Signature.sol\":1191:1194  sig */\n      dup5\n        /* \"Contracts/Signature.sol\":1187:1199  add(sig, 64) */\n      add\n        /* \"Contracts/Signature.sol\":1181:1200  mload(add(sig, 64)) */\n      mload\n        /* \"Contracts/Signature.sol\":1176:1200  s := mload(add(sig, 64)) */\n      swap1\n      pop\n        /* \"Contracts/Signature.sol\":1302:1304  96 */\n      0x60\n        /* \"Contracts/Signature.sol\":1297:1300  sig */\n      dup5\n        /* \"Contracts/Signature.sol\":1293:1305  add(sig, 96) */\n      add\n        /* \"Contracts/Signature.sol\":1287:1306  mload(add(sig, 96)) */\n      mload\n        /* \"Contracts/Signature.sol\":1284:1285  0 */\n      0x00\n        /* \"Contracts/Signature.sol\":1279:1307  byte(0, mload(add(sig, 96))) */\n      byte\n        /* \"Contracts/Signature.sol\":1274:1307  v := byte(0, mload(add(sig, 96))) */\n      swap3\n      pop\n        /* \"Contracts/Signature.sol\":858:1350  function splitSignature(bytes memory sig)... */\n      swap2\n      swap4\n      swap1\n      swap3\n      pop\n      jump\t// out\n        /* \"#utility.yul\":7:82   */\n    tag_36:\n        /* \"#utility.yul\":40:46   */\n      0x00\n        /* \"#utility.yul\":73:75   */\n      0x40\n        /* \"#utility.yul\":67:76   */\n      mload\n        /* \"#utility.yul\":57:76   */\n      swap1\n      pop\n        /* \"#utility.yul\":7:82   */\n      swap1\n      jump\t// out\n        /* \"#utility.yul\":88:205   */\n    tag_37:\n        /* \"#utility.yul\":197:198   */\n      0x00\n        /* \"#utility.yul\":194:195   */\n      dup1\n        /* \"#utility.yul\":187:199   */\n      revert\n        /* \"#utility.yul\":211:328   */\n    tag_38:\n        /* \"#utility.yul\":320:321   */\n      0x00\n        /* \"#utility.yul\":317:318   */\n      dup1\n        /* \"#utility.yul\":310:322   */\n      revert\n        /* \"#utility.yul\":334:411   */\n    tag_39:\n        /* \"#utility.yul\":371:378   */\n      0x00\n        /* \"#utility.yul\":400:405   */\n      dup2\n        /* \"#utility.yul\":389:405   */\n      swap1\n      pop\n        /* \"#utility.yul\":334:411   */\n      swap2\n      swap1\n      pop\n      jump\t// out\n        /* \"#utility.yul\":417:539   */\n    tag_40:\n        /* \"#utility.yul\":490:514   */\n      tag_80\n        /* \"#utility.yul\":508:513   */\n      dup2\n        /* \"#utility.yul\":490:514   */\n      tag_39\n      jump\t// in\n    tag_80:\n        /* \"#utility.yul\":483:488   */\n      dup2\n        /* \"#utility.yul\":480:515   */\n      eq\n        /* \"#utility.yul\":470:533   */\n      tag_81\n      jumpi\n        /* \"#utility.yul\":529:530   */\n      0x00\n        /* \"#utility.yul\":526:527   */\n      dup1\n        /* \"#utility.yul\":519:531   */\n      revert\n        /* \"#utility.yul\":470:533   */\n    tag_81:\n        /* \"#utility.yul\":417:539   */\n      pop\n      jump\t// out\n        /* \"#utility.yul\":545:684   */\n    tag_41:\n        /* \"#utility.yul\":591:596   */\n      0x00\n        /* \"#utility.yul\":629:635   */\n      dup2\n        /* \"#utility.yul\":616:636   */\n      calldataload\n        /* \"#utility.yul\":607:636   */\n      swap1\n      pop\n        /* \"#utility.yul\":645:678   */\n      tag_83\n        /* \"#utility.yul\":672:677   */\n      dup2\n        /* \"#utility.yul\":645:678   */\n      tag_40\n      jump\t// in\n    tag_83:\n        /* \"#utility.yul\":545:684   */\n      swap3\n      swap2\n      pop\n      pop\n      jump\t// out\n        /* \"#utility.yul\":690:807   */\n    tag_42:\n        /* \"#utility.yul\":799:800   */\n      0x00\n        /* \"#utility.yul\":796:797   */\n      dup1\n        /* \"#utility.yul\":789:801   */\n      revert\n        /* \"#utility.yul\":813:930   */\n    tag_43:\n        /* \"#utility.yul\":922:923   */\n      0x00\n        /* \"#utility.yul\":919:920   */\n      dup1\n        /* \"#utility.yul\":912:924   */\n      revert\n        /* \"#utility.yul\":936:1038   */\n    tag_44:\n        /* \"#utility.yul\":977:983   */\n      0x00\n        /* \"#utility.yul\":1028:1030   */\n      0x1f\n        /* \"#utility.yul\":1024:1031   */\n      not\n        /* \"#utility.yul\":1019:1021   */\n      0x1f\n        /* \"#utility.yul\":1012:1017   */\n      dup4\n        /* \"#utility.yul\":1008:1022   */\n      add\n        /* \"#utility.yul\":1004:1032   */\n      and\n        /* \"#utility.yul\":994:1032   */\n      swap1\n      pop\n        /* \"#utility.yul\":936:1038   */\n      swap2\n      swap1\n      pop\n      jump\t// out\n        /* \"#utility.yul\":1044:1224   */\n    tag_45:\n        /* \"#utility.yul\":1092:1169   */\n      0x4e487b7100000000000000000000000000000000000000000000000000000000\n        /* \"#utility.yul\":1089:1090   */\n      0x00\n        /* \"#utility.yul\":1082:1170   */\n      mstore\n        /* \"#utility.yul\":1189:1193   */\n      0x41\n        /* \"#utility.yul\":1186:1187   */\n      0x04\n        /* \"#utility.yul\":1179:1194   */\n      mstore\n        /* \"#utility.yul\":1213:1217   */\n      0x24\n        /* \"#utility.yul\":1210:1211   */\n      0x00\n        /* \"#utility.yul\":1203:1218   */\n      revert\n        /* \"#utility.yul\":1230:1511   */\n    tag_46:\n        /* \"#utility.yul\":1313:1340   */\n      tag_89\n        /* \"#utility.yul\":1335:1339   */\n      dup3\n        /* \"#utility.yul\":1313:1340   */\n      tag_44\n      jump\t// in\n    tag_89:\n        /* \"#utility.yul\":1305:1311   */\n      dup2\n        /* \"#utility.yul\":1301:1341   */\n      add\n        /* \"#utility.yul\":1443:1449   */\n      dup2\n        /* \"#utility.yul\":1431:1441   */\n      dup2\n        /* \"#utility.yul\":1428:1450   */\n      lt\n        /* \"#utility.yul\":1407:1425   */\n      0xffffffffffffffff\n        /* \"#utility.yul\":1395:1405   */\n      dup3\n        /* \"#utility.yul\":1392:1426   */\n      gt\n        /* \"#utility.yul\":1389:1451   */\n      or\n        /* \"#utility.yul\":1386:1474   */\n      iszero\n      tag_90\n      jumpi\n        /* \"#utility.yul\":1454:1472   */\n      tag_91\n      tag_45\n      jump\t// in\n    tag_91:\n        /* \"#utility.yul\":1386:1474   */\n    tag_90:\n        /* \"#utility.yul\":1494:1504   */\n      dup1\n        /* \"#utility.yul\":1490:1492   */\n      0x40\n        /* \"#utility.yul\":1483:1505   */\n      mstore\n        /* \"#utility.yul\":1273:1511   */\n      pop\n        /* \"#utility.yul\":1230:1511   */\n      pop\n      pop\n      jump\t// out\n        /* \"#utility.yul\":1517:1646   */\n    tag_47:\n        /* \"#utility.yul\":1551:1557   */\n      0x00\n        /* \"#utility.yul\":1578:1598   */\n      tag_93\n      tag_36\n      jump\t// in\n    tag_93:\n        /* \"#utility.yul\":1568:1598   */\n      swap1\n      pop\n        /* \"#utility.yul\":1607:1640   */\n      tag_94\n        /* \"#utility.yul\":1635:1639   */\n      dup3\n        /* \"#utility.yul\":1627:1633   */\n      dup3\n        /* \"#utility.yul\":1607:1640   */\n      tag_46\n      jump\t// in\n    tag_94:\n        /* \"#utility.yul\":1517:1646   */\n      swap2\n      swap1\n      pop\n      jump\t// out\n        /* \"#utility.yul\":1652:1959   */\n    tag_48:\n        /* \"#utility.yul\":1713:1717   */\n      0x00\n        /* \"#utility.yul\":1803:1821   */\n      0xffffffffffffffff\n        /* \"#utility.yul\":1795:1801   */\n      dup3\n        /* \"#utility.yul\":1792:1822   */\n      gt\n        /* \"#utility.yul\":1789:1845   */\n      iszero\n      tag_96\n      jumpi\n        /* \"#utility.yul\":1825:1843   */\n      tag_97\n      tag_45\n      jump\t// in\n    tag_97:\n        /* \"#utility.yul\":1789:1845   */\n    tag_96:\n        /* \"#utility.yul\":1863:1892   */\n      tag_98\n        /* \"#utility.yul\":1885:1891   */\n      dup3\n        /* \"#utility.yul\":1863:1892   */\n      tag_44\n      jump\t// in\n    tag_98:\n        /* \"#utility.yul\":1855:1892   */\n      swap1\n      pop\n        /* \"#utility.yul\":1947:1951   */\n      0x20\n        /* \"#utility.yul\":1941:1945   */\n      dup2\n        /* \"#utility.yul\":1937:1952   */\n      add\n        /* \"#utility.yul\":1929:1952   */\n      swap1\n      pop\n        /* \"#utility.yul\":1652:1959   */\n      swap2\n      swap1\n      pop\n      jump\t// out\n        /* \"#utility.yul\":1965:2113   */\n    tag_49:\n        /* \"#utility.yul\":2063:2069   */\n      dup3\n        /* \"#utility.yul\":2058:2061   */\n      dup2\n        /* \"#utility.yul\":2053:2056   */\n      dup4\n        /* \"#utility.yul\":2040:2070   */\n      calldatacopy\n        /* \"#utility.yul\":2104:2105   */\n      0x00\n        /* \"#utility.yul\":2095:2101   */\n      dup4\n        /* \"#utility.yul\":2090:2093   */\n      dup4\n        /* \"#utility.yul\":2086:2102   */\n      add\n        /* \"#utility.yul\":2079:2106   */\n      mstore\n        /* \"#utility.yul\":1965:2113   */\n      pop\n      pop\n      pop\n      jump\t// out\n        /* \"#utility.yul\":2119:2542   */\n    tag_50:\n        /* \"#utility.yul\":2196:2201   */\n      0x00\n        /* \"#utility.yul\":2221:2286   */\n      tag_101\n        /* \"#utility.yul\":2237:2285   */\n      tag_102\n        /* \"#utility.yul\":2278:2284   */\n      dup5\n        /* \"#utility.yul\":2237:2285   */\n      tag_48\n      jump\t// in\n    tag_102:\n        /* \"#utility.yul\":2221:2286   */\n      tag_47\n      jump\t// in\n    tag_101:\n        /* \"#utility.yul\":2212:2286   */\n      swap1\n      pop\n        /* \"#utility.yul\":2309:2315   */\n      dup3\n        /* \"#utility.yul\":2302:2307   */\n      dup2\n        /* \"#utility.yul\":2295:2316   */\n      mstore\n        /* \"#utility.yul\":2347:2351   */\n      0x20\n        /* \"#utility.yul\":2340:2345   */\n      dup2\n        /* \"#utility.yul\":2336:2352   */\n      add\n        /* \"#utility.yul\":2385:2388   */\n      dup5\n        /* \"#utility.yul\":2376:2382   */\n      dup5\n        /* \"#utility.yul\":2371:2374   */\n      dup5\n        /* \"#utility.yul\":2367:2383   */\n      add\n        /* \"#utility.yul\":2364:2389   */\n      gt\n        /* \"#utility.yul\":2361:2473   */\n      iszero\n      tag_103\n      jumpi\n        /* \"#utility.yul\":2392:2471   */\n      tag_104\n      tag_43\n      jump\t// in\n    tag_104:\n        /* \"#utility.yul\":2361:2473   */\n    tag_103:\n        /* \"#utility.yul\":2482:2536   */\n      tag_105\n        /* \"#utility.yul\":2529:2535   */\n      dup5\n        /* \"#utility.yul\":2524:2527   */\n      dup3\n        /* \"#utility.yul\":2519:2522   */\n      dup6\n        /* \"#utility.yul\":2482:2536   */\n      tag_49\n      jump\t// in\n    tag_105:\n        /* \"#utility.yul\":2202:2542   */\n      pop\n        /* \"#utility.yul\":2119:2542   */\n      swap4\n      swap3\n      pop\n      pop\n      pop\n      jump\t// out\n        /* \"#utility.yul\":2561:2899   */\n    tag_51:\n        /* \"#utility.yul\":2616:2621   */\n      0x00\n        /* \"#utility.yul\":2665:2668   */\n      dup3\n        /* \"#utility.yul\":2658:2662   */\n      0x1f\n        /* \"#utility.yul\":2650:2656   */\n      dup4\n        /* \"#utility.yul\":2646:2663   */\n      add\n        /* \"#utility.yul\":2642:2669   */\n      slt\n        /* \"#utility.yul\":2632:2754   */\n      tag_107\n      jumpi\n        /* \"#utility.yul\":2673:2752   */\n      tag_108\n      tag_42\n      jump\t// in\n    tag_108:\n        /* \"#utility.yul\":2632:2754   */\n    tag_107:\n        /* \"#utility.yul\":2790:2796   */\n      dup2\n        /* \"#utility.yul\":2777:2797   */\n      calldataload\n        /* \"#utility.yul\":2815:2893   */\n      tag_109\n        /* \"#utility.yul\":2889:2892   */\n      dup5\n        /* \"#utility.yul\":2881:2887   */\n      dup3\n        /* \"#utility.yul\":2874:2878   */\n      0x20\n        /* \"#utility.yul\":2866:2872   */\n      dup7\n        /* \"#utility.yul\":2862:2879   */\n      add\n        /* \"#utility.yul\":2815:2893   */\n      tag_50\n      jump\t// in\n    tag_109:\n        /* \"#utility.yul\":2806:2893   */\n      swap2\n      pop\n        /* \"#utility.yul\":2622:2899   */\n      pop\n        /* \"#utility.yul\":2561:2899   */\n      swap3\n      swap2\n      pop\n      pop\n      jump\t// out\n        /* \"#utility.yul\":2905:3702   */\n    tag_7:\n        /* \"#utility.yul\":2991:2997   */\n      0x00\n        /* \"#utility.yul\":2999:3005   */\n      dup1\n        /* \"#utility.yul\":3007:3013   */\n      0x00\n        /* \"#utility.yul\":3056:3058   */\n      0x60\n        /* \"#utility.yul\":3044:3053   */\n      dup5\n        /* \"#utility.yul\":3035:3042   */\n      dup7\n        /* \"#utility.yul\":3031:3054   */\n      sub\n        /* \"#utility.yul\":3027:3059   */\n      slt\n        /* \"#utility.yul\":3024:3143   */\n      iszero\n      tag_111\n      jumpi\n        /* \"#utility.yul\":3062:3141   */\n      tag_112\n      tag_37\n      jump\t// in\n    tag_112:\n        /* \"#utility.yul\":3024:3143   */\n    tag_111:\n        /* \"#utility.yul\":3182:3183   */\n      0x00\n        /* \"#utility.yul\":3207:3260   */\n      tag_113\n        /* \"#utility.yul\":3252:3259   */\n      dup7\n        /* \"#utility.yul\":3243:3249   */\n      dup3\n        /* \"#utility.yul\":3232:3241   */\n      dup8\n        /* \"#utility.yul\":3228:3250   */\n      add\n        /* \"#utility.yul\":3207:3260   */\n      tag_41\n      jump\t// in\n    tag_113:\n        /* \"#utility.yul\":3197:3260   */\n      swap4\n      pop\n        /* \"#utility.yul\":3153:3270   */\n      pop\n        /* \"#utility.yul\":3309:3311   */\n      0x20\n        /* \"#utility.yul\":3335:3388   */\n      tag_114\n        /* \"#utility.yul\":3380:3387   */\n      dup7\n        /* \"#utility.yul\":3371:3377   */\n      dup3\n        /* \"#utility.yul\":3360:3369   */\n      dup8\n        /* \"#utility.yul\":3356:3378   */\n      add\n        /* \"#utility.yul\":3335:3388   */\n      tag_41\n      jump\t// in\n    tag_114:\n        /* \"#utility.yul\":3325:3388   */\n      swap3\n      pop\n        /* \"#utility.yul\":3280:3398   */\n      pop\n        /* \"#utility.yul\":3465:3467   */\n      0x40\n        /* \"#utility.yul\":3454:3463   */\n      dup5\n        /* \"#utility.yul\":3450:3468   */\n      add\n        /* \"#utility.yul\":3437:3469   */\n      calldataload\n        /* \"#utility.yul\":3496:3514   */\n      0xffffffffffffffff\n        /* \"#utility.yul\":3488:3494   */\n      dup2\n        /* \"#utility.yul\":3485:3515   */\n      gt\n        /* \"#utility.yul\":3482:3599   */\n      iszero\n      tag_115\n      jumpi\n        /* \"#utility.yul\":3518:3597   */\n      tag_116\n      tag_38\n      jump\t// in\n    tag_116:\n        /* \"#utility.yul\":3482:3599   */\n    tag_115:\n        /* \"#utility.yul\":3623:3685   */\n      tag_117\n        /* \"#utility.yul\":3677:3684   */\n      dup7\n        /* \"#utility.yul\":3668:3674   */\n      dup3\n        /* \"#utility.yul\":3657:3666   */\n      dup8\n        /* \"#utility.yul\":3653:3675   */\n      add\n        /* \"#utility.yul\":3623:3685   */\n      tag_51\n      jump\t// in\n    tag_117:\n        /* \"#utility.yul\":3613:3685   */\n      swap2\n      pop\n        /* \"#utility.yul\":3408:3695   */\n      pop\n        /* \"#utility.yul\":2905:3702   */\n      swap3\n      pop\n      swap3\n      pop\n      swap3\n      jump\t// out\n        /* \"#utility.yul\":3708:3834   */\n    tag_52:\n        /* \"#utility.yul\":3745:3752   */\n      0x00\n        /* \"#utility.yul\":3785:3827   */\n      0xffffffffffffffffffffffffffffffffffffffff\n        /* \"#utility.yul\":3778:3783   */\n      dup3\n        /* \"#utility.yul\":3774:3828   */\n      and\n        /* \"#utility.yul\":3763:3828   */\n      swap1\n      pop\n        /* \"#utility.yul\":3708:3834   */\n      swap2\n      swap1\n      pop\n      jump\t// out\n        /* \"#utility.yul\":3840:3936   */\n    tag_53:\n        /* \"#utility.yul\":3877:3884   */\n      0x00\n        /* \"#utility.yul\":3906:3930   */\n      tag_120\n        /* \"#utility.yul\":3924:3929   */\n      dup3\n        /* \"#utility.yul\":3906:3930   */\n      tag_52\n      jump\t// in\n    tag_120:\n        /* \"#utility.yul\":3895:3930   */\n      swap1\n      pop\n        /* \"#utility.yul\":3840:3936   */\n      swap2\n      swap1\n      pop\n      jump\t// out\n        /* \"#utility.yul\":3942:4036   */\n    tag_54:\n        /* \"#utility.yul\":3975:3983   */\n      0x00\n        /* \"#utility.yul\":4023:4028   */\n      dup2\n        /* \"#utility.yul\":4019:4021   */\n      0x60\n        /* \"#utility.yul\":4015:4029   */\n      shl\n        /* \"#utility.yul\":3994:4029   */\n      swap1\n      pop\n        /* \"#utility.yul\":3942:4036   */\n      swap2\n      swap1\n      pop\n      jump\t// out\n        /* \"#utility.yul\":4042:4136   */\n    tag_55:\n        /* \"#utility.yul\":4081:4088   */\n      0x00\n        /* \"#utility.yul\":4110:4130   */\n      tag_123\n        /* \"#utility.yul\":4124:4129   */\n      dup3\n        /* \"#utility.yul\":4110:4130   */\n      tag_54\n      jump\t// in\n    tag_123:\n        /* \"#utility.yul\":4099:4130   */\n      swap1\n      pop\n        /* \"#utility.yul\":4042:4136   */\n      swap2\n      swap1\n      pop\n      jump\t// out\n        /* \"#utility.yul\":4142:4242   */\n    tag_56:\n        /* \"#utility.yul\":4181:4188   */\n      0x00\n        /* \"#utility.yul\":4210:4236   */\n      tag_125\n        /* \"#utility.yul\":4230:4235   */\n      dup3\n        /* \"#utility.yul\":4210:4236   */\n      tag_55\n      jump\t// in\n    tag_125:\n        /* \"#utility.yul\":4199:4236   */\n      swap1\n      pop\n        /* \"#utility.yul\":4142:4242   */\n      swap2\n      swap1\n      pop\n      jump\t// out\n        /* \"#utility.yul\":4248:4405   */\n    tag_57:\n        /* \"#utility.yul\":4353:4398   */\n      tag_127\n        /* \"#utility.yul\":4373:4397   */\n      tag_128\n        /* \"#utility.yul\":4391:4396   */\n      dup3\n        /* \"#utility.yul\":4373:4397   */\n      tag_53\n      jump\t// in\n    tag_128:\n        /* \"#utility.yul\":4353:4398   */\n      tag_56\n      jump\t// in\n    tag_127:\n        /* \"#utility.yul\":4348:4351   */\n      dup3\n        /* \"#utility.yul\":4341:4399   */\n      mstore\n        /* \"#utility.yul\":4248:4405   */\n      pop\n      pop\n      jump\t// out\n        /* \"#utility.yul\":4411:4490   */\n    tag_58:\n        /* \"#utility.yul\":4450:4457   */\n      0x00\n        /* \"#utility.yul\":4479:4484   */\n      dup2\n        /* \"#utility.yul\":4468:4484   */\n      swap1\n      pop\n        /* \"#utility.yul\":4411:4490   */\n      swap2\n      swap1\n      pop\n      jump\t// out\n        /* \"#utility.yul\":4496:4653   */\n    tag_59:\n        /* \"#utility.yul\":4601:4646   */\n      tag_131\n        /* \"#utility.yul\":4621:4645   */\n      tag_132\n        /* \"#utility.yul\":4639:4644   */\n      dup3\n        /* \"#utility.yul\":4621:4645   */\n      tag_39\n      jump\t// in\n    tag_132:\n        /* \"#utility.yul\":4601:4646   */\n      tag_58\n      jump\t// in\n    tag_131:\n        /* \"#utility.yul\":4596:4599   */\n      dup3\n        /* \"#utility.yul\":4589:4647   */\n      mstore\n        /* \"#utility.yul\":4496:4653   */\n      pop\n      pop\n      jump\t// out\n        /* \"#utility.yul\":4659:4719   */\n    tag_60:\n        /* \"#utility.yul\":4687:4690   */\n      0x00\n        /* \"#utility.yul\":4708:4713   */\n      dup2\n        /* \"#utility.yul\":4701:4713   */\n      swap1\n      pop\n        /* \"#utility.yul\":4659:4719   */\n      swap2\n      swap1\n      pop\n      jump\t// out\n        /* \"#utility.yul\":4725:4867   */\n    tag_61:\n        /* \"#utility.yul\":4775:4784   */\n      0x00\n        /* \"#utility.yul\":4808:4861   */\n      tag_135\n        /* \"#utility.yul\":4826:4860   */\n      tag_136\n        /* \"#utility.yul\":4835:4859   */\n      tag_137\n        /* \"#utility.yul\":4853:4858   */\n      dup5\n        /* \"#utility.yul\":4835:4859   */\n      tag_52\n      jump\t// in\n    tag_137:\n        /* \"#utility.yul\":4826:4860   */\n      tag_60\n      jump\t// in\n    tag_136:\n        /* \"#utility.yul\":4808:4861   */\n      tag_52\n      jump\t// in\n    tag_135:\n        /* \"#utility.yul\":4795:4861   */\n      swap1\n      pop\n        /* \"#utility.yul\":4725:4867   */\n      swap2\n      swap1\n      pop\n      jump\t// out\n        /* \"#utility.yul\":4873:4999   */\n    tag_62:\n        /* \"#utility.yul\":4923:4932   */\n      0x00\n        /* \"#utility.yul\":4956:4993   */\n      tag_139\n        /* \"#utility.yul\":4987:4992   */\n      dup3\n        /* \"#utility.yul\":4956:4993   */\n      tag_61\n      jump\t// in\n    tag_139:\n        /* \"#utility.yul\":4943:4993   */\n      swap1\n      pop\n        /* \"#utility.yul\":4873:4999   */\n      swap2\n      swap1\n      pop\n      jump\t// out\n        /* \"#utility.yul\":5005:5151   */\n    tag_63:\n        /* \"#utility.yul\":5075:5084   */\n      0x00\n        /* \"#utility.yul\":5108:5145   */\n      tag_141\n        /* \"#utility.yul\":5139:5144   */\n      dup3\n        /* \"#utility.yul\":5108:5145   */\n      tag_62\n      jump\t// in\n    tag_141:\n        /* \"#utility.yul\":5095:5145   */\n      swap1\n      pop\n        /* \"#utility.yul\":5005:5151   */\n      swap2\n      swap1\n      pop\n      jump\t// out\n        /* \"#utility.yul\":5157:5367   */\n    tag_64:\n        /* \"#utility.yul\":5282:5360   */\n      tag_143\n        /* \"#utility.yul\":5302:5359   */\n      tag_144\n        /* \"#utility.yul\":5353:5358   */\n      dup3\n        /* \"#utility.yul\":5302:5359   */\n      tag_63\n      jump\t// in\n    tag_144:\n        /* \"#utility.yul\":5282:5360   */\n      tag_56\n      jump\t// in\n    tag_143:\n        /* \"#utility.yul\":5277:5280   */\n      dup3\n        /* \"#utility.yul\":5270:5361   */\n      mstore\n        /* \"#utility.yul\":5157:5367   */\n      pop\n      pop\n      jump\t// out\n        /* \"#utility.yul\":5373:6092   */\n    tag_15:\n        /* \"#utility.yul\":5589:5592   */\n      0x00\n        /* \"#utility.yul\":5604:5679   */\n      tag_146\n        /* \"#utility.yul\":5675:5678   */\n      dup3\n        /* \"#utility.yul\":5666:5672   */\n      dup8\n        /* \"#utility.yul\":5604:5679   */\n      tag_57\n      jump\t// in\n    tag_146:\n        /* \"#utility.yul\":5704:5706   */\n      0x14\n        /* \"#utility.yul\":5699:5702   */\n      dup3\n        /* \"#utility.yul\":5695:5707   */\n      add\n        /* \"#utility.yul\":5688:5707   */\n      swap2\n      pop\n        /* \"#utility.yul\":5717:5792   */\n      tag_147\n        /* \"#utility.yul\":5788:5791   */\n      dup3\n        /* \"#utility.yul\":5779:5785   */\n      dup7\n        /* \"#utility.yul\":5717:5792   */\n      tag_59\n      jump\t// in\n    tag_147:\n        /* \"#utility.yul\":5817:5819   */\n      0x20\n        /* \"#utility.yul\":5812:5815   */\n      dup3\n        /* \"#utility.yul\":5808:5820   */\n      add\n        /* \"#utility.yul\":5801:5820   */\n      swap2\n      pop\n        /* \"#utility.yul\":5830:5905   */\n      tag_148\n        /* \"#utility.yul\":5901:5904   */\n      dup3\n        /* \"#utility.yul\":5892:5898   */\n      dup6\n        /* \"#utility.yul\":5830:5905   */\n      tag_59\n      jump\t// in\n    tag_148:\n        /* \"#utility.yul\":5930:5932   */\n      0x20\n        /* \"#utility.yul\":5925:5928   */\n      dup3\n        /* \"#utility.yul\":5921:5933   */\n      add\n        /* \"#utility.yul\":5914:5933   */\n      swap2\n      pop\n        /* \"#utility.yul\":5943:6038   */\n      tag_149\n        /* \"#utility.yul\":6034:6037   */\n      dup3\n        /* \"#utility.yul\":6025:6031   */\n      dup5\n        /* \"#utility.yul\":5943:6038   */\n      tag_64\n      jump\t// in\n    tag_149:\n        /* \"#utility.yul\":6063:6065   */\n      0x14\n        /* \"#utility.yul\":6058:6061   */\n      dup3\n        /* \"#utility.yul\":6054:6066   */\n      add\n        /* \"#utility.yul\":6047:6066   */\n      swap2\n      pop\n        /* \"#utility.yul\":6083:6086   */\n      dup2\n        /* \"#utility.yul\":6076:6086   */\n      swap1\n      pop\n        /* \"#utility.yul\":5373:6092   */\n      swap6\n      swap5\n      pop\n      pop\n      pop\n      pop\n      pop\n      jump\t// out\n        /* \"#utility.yul\":6098:6246   */\n    tag_65:\n        /* \"#utility.yul\":6200:6211   */\n      0x00\n        /* \"#utility.yul\":6237:6240   */\n      dup2\n        /* \"#utility.yul\":6222:6240   */\n      swap1\n      pop\n        /* \"#utility.yul\":6098:6246   */\n      swap3\n      swap2\n      pop\n      pop\n      jump\t// out\n        /* \"#utility.yul\":6252:6466   */\n    tag_66:\n        /* \"#utility.yul\":6392:6458   */\n      0x19457468657265756d205369676e6564204d6573736167653a0a333200000000\n        /* \"#utility.yul\":6388:6389   */\n      0x00\n        /* \"#utility.yul\":6380:6386   */\n      dup3\n        /* \"#utility.yul\":6376:6390   */\n      add\n        /* \"#utility.yul\":6369:6459   */\n      mstore\n        /* \"#utility.yul\":6252:6466   */\n      pop\n      jump\t// out\n        /* \"#utility.yul\":6472:6874   */\n    tag_67:\n        /* \"#utility.yul\":6632:6635   */\n      0x00\n        /* \"#utility.yul\":6653:6738   */\n      tag_153\n        /* \"#utility.yul\":6735:6737   */\n      0x1c\n        /* \"#utility.yul\":6730:6733   */\n      dup4\n        /* \"#utility.yul\":6653:6738   */\n      tag_65\n      jump\t// in\n    tag_153:\n        /* \"#utility.yul\":6646:6738   */\n      swap2\n      pop\n        /* \"#utility.yul\":6747:6840   */\n      tag_154\n        /* \"#utility.yul\":6836:6839   */\n      dup3\n        /* \"#utility.yul\":6747:6840   */\n      tag_66\n      jump\t// in\n    tag_154:\n        /* \"#utility.yul\":6865:6867   */\n      0x1c\n        /* \"#utility.yul\":6860:6863   */\n      dup3\n        /* \"#utility.yul\":6856:6868   */\n      add\n        /* \"#utility.yul\":6849:6868   */\n      swap1\n      pop\n        /* \"#utility.yul\":6472:6874   */\n      swap2\n      swap1\n      pop\n      jump\t// out\n        /* \"#utility.yul\":6880:6957   */\n    tag_68:\n        /* \"#utility.yul\":6917:6924   */\n      0x00\n        /* \"#utility.yul\":6946:6951   */\n      dup2\n        /* \"#utility.yul\":6935:6951   */\n      swap1\n      pop\n        /* \"#utility.yul\":6880:6957   */\n      swap2\n      swap1\n      pop\n      jump\t// out\n        /* \"#utility.yul\":6963:7042   */\n    tag_69:\n        /* \"#utility.yul\":7002:7009   */\n      0x00\n        /* \"#utility.yul\":7031:7036   */\n      dup2\n        /* \"#utility.yul\":7020:7036   */\n      swap1\n      pop\n        /* \"#utility.yul\":6963:7042   */\n      swap2\n      swap1\n      pop\n      jump\t// out\n        /* \"#utility.yul\":7048:7205   */\n    tag_70:\n        /* \"#utility.yul\":7153:7198   */\n      tag_158\n        /* \"#utility.yul\":7173:7197   */\n      tag_159\n        /* \"#utility.yul\":7191:7196   */\n      dup3\n        /* \"#utility.yul\":7173:7197   */\n      tag_68\n      jump\t// in\n    tag_159:\n        /* \"#utility.yul\":7153:7198   */\n      tag_69\n      jump\t// in\n    tag_158:\n        /* \"#utility.yul\":7148:7151   */\n      dup3\n        /* \"#utility.yul\":7141:7199   */\n      mstore\n        /* \"#utility.yul\":7048:7205   */\n      pop\n      pop\n      jump\t// out\n        /* \"#utility.yul\":7211:7733   */\n    tag_26:\n        /* \"#utility.yul\":7424:7427   */\n      0x00\n        /* \"#utility.yul\":7446:7594   */\n      tag_161\n        /* \"#utility.yul\":7590:7593   */\n      dup3\n        /* \"#utility.yul\":7446:7594   */\n      tag_67\n      jump\t// in\n    tag_161:\n        /* \"#utility.yul\":7439:7594   */\n      swap2\n      pop\n        /* \"#utility.yul\":7604:7679   */\n      tag_162\n        /* \"#utility.yul\":7675:7678   */\n      dup3\n        /* \"#utility.yul\":7666:7672   */\n      dup5\n        /* \"#utility.yul\":7604:7679   */\n      tag_70\n      jump\t// in\n    tag_162:\n        /* \"#utility.yul\":7704:7706   */\n      0x20\n        /* \"#utility.yul\":7699:7702   */\n      dup3\n        /* \"#utility.yul\":7695:7707   */\n      add\n        /* \"#utility.yul\":7688:7707   */\n      swap2\n      pop\n        /* \"#utility.yul\":7724:7727   */\n      dup2\n        /* \"#utility.yul\":7717:7727   */\n      swap1\n      pop\n        /* \"#utility.yul\":7211:7733   */\n      swap3\n      swap2\n      pop\n      pop\n      jump\t// out\n        /* \"#utility.yul\":7739:7857   */\n    tag_71:\n        /* \"#utility.yul\":7826:7850   */\n      tag_164\n        /* \"#utility.yul\":7844:7849   */\n      dup2\n        /* \"#utility.yul\":7826:7850   */\n      tag_68\n      jump\t// in\n    tag_164:\n        /* \"#utility.yul\":7821:7824   */\n      dup3\n        /* \"#utility.yul\":7814:7851   */\n      mstore\n        /* \"#utility.yul\":7739:7857   */\n      pop\n      pop\n      jump\t// out\n        /* \"#utility.yul\":7863:7949   */\n    tag_72:\n        /* \"#utility.yul\":7898:7905   */\n      0x00\n        /* \"#utility.yul\":7938:7942   */\n      0xff\n        /* \"#utility.yul\":7931:7936   */\n      dup3\n        /* \"#utility.yul\":7927:7943   */\n      and\n        /* \"#utility.yul\":7916:7943   */\n      swap1\n      pop\n        /* \"#utility.yul\":7863:7949   */\n      swap2\n      swap1\n      pop\n      jump\t// out\n        /* \"#utility.yul\":7955:8067   */\n    tag_73:\n        /* \"#utility.yul\":8038:8060   */\n      tag_167\n        /* \"#utility.yul\":8054:8059   */\n      dup2\n        /* \"#utility.yul\":8038:8060   */\n      tag_72\n      jump\t// in\n    tag_167:\n        /* \"#utility.yul\":8033:8036   */\n      dup3\n        /* \"#utility.yul\":8026:8061   */\n      mstore\n        /* \"#utility.yul\":7955:8067   */\n      pop\n      pop\n      jump\t// out\n        /* \"#utility.yul\":8073:8618   */\n    tag_31:\n        /* \"#utility.yul\":8246:8250   */\n      0x00\n        /* \"#utility.yul\":8284:8287   */\n      0x80\n        /* \"#utility.yul\":8273:8282   */\n      dup3\n        /* \"#utility.yul\":8269:8288   */\n      add\n        /* \"#utility.yul\":8261:8288   */\n      swap1\n      pop\n        /* \"#utility.yul\":8298:8369   */\n      tag_169\n        /* \"#utility.yul\":8366:8367   */\n      0x00\n        /* \"#utility.yul\":8355:8364   */\n      dup4\n        /* \"#utility.yul\":8351:8368   */\n      add\n        /* \"#utility.yul\":8342:8348   */\n      dup8\n        /* \"#utility.yul\":8298:8369   */\n      tag_71\n      jump\t// in\n    tag_169:\n        /* \"#utility.yul\":8379:8447   */\n      tag_170\n        /* \"#utility.yul\":8443:8445   */\n      0x20\n        /* \"#utility.yul\":8432:8441   */\n      dup4\n        /* \"#utility.yul\":8428:8446   */\n      add\n        /* \"#utility.yul\":8419:8425   */\n      dup7\n        /* \"#utility.yul\":8379:8447   */\n      tag_73\n      jump\t// in\n    tag_170:\n        /* \"#utility.yul\":8457:8529   */\n      tag_171\n        /* \"#utility.yul\":8525:8527   */\n      0x40\n        /* \"#utility.yul\":8514:8523   */\n      dup4\n        /* \"#utility.yul\":8510:8528   */\n      add\n        /* \"#utility.yul\":8501:8507   */\n      dup6\n        /* \"#utility.yul\":8457:8529   */\n      tag_71\n      jump\t// in\n    tag_171:\n        /* \"#utility.yul\":8539:8611   */\n      tag_172\n        /* \"#utility.yul\":8607:8609   */\n      0x60\n        /* \"#utility.yul\":8596:8605   */\n      dup4\n        /* \"#utility.yul\":8592:8610   */\n      add\n        /* \"#utility.yul\":8583:8589   */\n      dup5\n        /* \"#utility.yul\":8539:8611   */\n      tag_71\n      jump\t// in\n    tag_172:\n        /* \"#utility.yul\":8073:8618   */\n      swap6\n      swap5\n      pop\n      pop\n      pop\n      pop\n      pop\n      jump\t// out\n\n    auxdata: 0xa2646970667358221220369c6dc0c507736b2d47f29c516a933a69436eef2614bd7b05239c44bd656e1864736f6c634300081a0033\n}\n",
				"bytecode": {
					"linkReferences": {},
					"object": "6080604052335f806101000a81548173ffffffffffffffffffffffffffffffffffffffff021916908373ffffffffffffffffffffffffffffffffffffffff16021790555061073a806100505f395ff3fe608060405234801561000f575f80fd5b5060043610610034575f3560e01c8063a90ae88714610038578063fc0e74d114610054575b5f80fd5b610052600480360381019061004d9190610444565b61005e565b005b61005c61018e565b005b60015f8381526020019081526020015f205f9054906101000a900460ff1615610085575f80fd5b6001805f8481526020019081526020015f205f6101000a81548160ff0219169083151502179055505f6100e3338585306040516020016100c894939291906105a8565b604051602081830303815290604052805190602001206101fd565b90505f8054906101000a900473ffffffffffffffffffffffffffffffffffffffff1673ffffffffffffffffffffffffffffffffffffffff16610125828461022c565b73ffffffffffffffffffffffffffffffffffffffff1614610144575f80fd5b3373ffffffffffffffffffffffffffffffffffffffff166108fc8590811502906040515f60405180830381858888f19350505050158015610187573d5f803e3d5ffd5b5050505050565b5f8054906101000a900473ffffffffffffffffffffffffffffffffffffffff1673ffffffffffffffffffffffffffffffffffffffff163373ffffffffffffffffffffffffffffffffffffffff16146101e4575f80fd5b3373ffffffffffffffffffffffffffffffffffffffff16ff5b5f8160405160200161020f9190610672565b604051602081830303815290604052805190602001209050919050565b5f805f8061023985610296565b9250925092506001868484846040515f815260200160405260405161026194939291906106c1565b6020604051602081039080840390855afa158015610281573d5f803e3d5ffd5b50505060206040510351935050505092915050565b5f805f60418451146102a6575f80fd5b602084015191506040840151905060608401515f1a92509193909250565b5f604051905090565b5f80fd5b5f80fd5b5f819050919050565b6102e7816102d5565b81146102f1575f80fd5b50565b5f81359050610302816102de565b92915050565b5f80fd5b5f80fd5b5f601f19601f8301169050919050565b7f4e487b71000000000000000000000000000000000000000000000000000000005f52604160045260245ffd5b61035682610310565b810181811067ffffffffffffffff8211171561037557610374610320565b5b80604052505050565b5f6103876102c4565b9050610393828261034d565b919050565b5f67ffffffffffffffff8211156103b2576103b1610320565b5b6103bb82610310565b9050602081019050919050565b828183375f83830152505050565b5f6103e86103e384610398565b61037e565b9050828152602081018484840111156104045761040361030c565b5b61040f8482856103c8565b509392505050565b5f82601f83011261042b5761042a610308565b5b813561043b8482602086016103d6565b91505092915050565b5f805f6060848603121561045b5761045a6102cd565b5b5f610468868287016102f4565b9350506020610479868287016102f4565b925050604084013567ffffffffffffffff81111561049a576104996102d1565b5b6104a686828701610417565b9150509250925092565b5f73ffffffffffffffffffffffffffffffffffffffff82169050919050565b5f6104d9826104b0565b9050919050565b5f8160601b9050919050565b5f6104f6826104e0565b9050919050565b5f610507826104ec565b9050919050565b61051f61051a826104cf565b6104fd565b82525050565b5f819050919050565b61053f61053a826102d5565b610525565b82525050565b5f819050919050565b5f61056861056361055e846104b0565b610545565b6104b0565b9050919050565b5f6105798261054e565b9050919050565b5f61058a8261056f565b9050919050565b6105a261059d82610580565b6104fd565b82525050565b5f6105b3828761050e565b6014820191506105c3828661052e565b6020820191506105d3828561052e565b6020820191506105e38284610591565b60148201915081905095945050505050565b5f81905092915050565b7f19457468657265756d205369676e6564204d6573736167653a0a3332000000005f82015250565b5f610633601c836105f5565b915061063e826105ff565b601c82019050919050565b5f819050919050565b5f819050919050565b61066c61066782610649565b610652565b82525050565b5f61067c82610627565b9150610688828461065b565b60208201915081905092915050565b6106a081610649565b82525050565b5f60ff82169050919050565b6106bb816106a6565b82525050565b5f6080820190506106d45f830187610697565b6106e160208301866106b2565b6106ee6040830185610697565b6106fb6060830184610697565b9594505050505056fea2646970667358221220369c6dc0c507736b2d47f29c516a933a69436eef2614bd7b05239c44bd656e1864736f6c634300081a0033",
					"opcodes": "PUSH1 0x80 PUSH1 0x40 MSTORE CALLER PUSH0 DUP1 PUSH2 0x100 EXP DUP2 SLOAD DUP2 PUSH20 0xFFFFFFFFFFFFFFFFFFFFFFFFFFFFFFFFFFFFFFFF MUL NOT AND SWAP1 DUP4 PUSH20 0xFFFFFFFFFFFFFFFFFFFFFFFFFFFFFFFFFFFFFFFF AND MUL OR SWAP1 SSTORE POP PUSH2 0x73A DUP1 PUSH2 0x50 PUSH0 CODECOPY PUSH0 RETURN INVALID PUSH1 0x80 PUSH1 0x40 MSTORE CALLVALUE DUP1 ISZERO PUSH2 0xF JUMPI PUSH0 DUP1 REVERT JUMPDEST POP PUSH1 0x4 CALLDATASIZE LT PUSH2 0x34 JUMPI PUSH0 CALLDATALOAD PUSH1 0xE0 SHR DUP1 PUSH4 0xA90AE887 EQ PUSH2 0x38 JUMPI DUP1 PUSH4 0xFC0E74D1 EQ PUSH2 0x54 JUMPI JUMPDEST PUSH0 DUP1 REVERT JUMPDEST PUSH2 0x52 PUSH1 0x4 DUP1 CALLDATASIZE SUB DUP2 ADD SWAP1 PUSH2 0x4D SWAP2 SWAP1 PUSH2 0x444 JUMP JUMPDEST PUSH2 0x5E JUMP JUMPDEST STOP JUMPDEST PUSH2 0x5C PUSH2 0x18E JUMP JUMPDEST STOP JUMPDEST PUSH1 0x1 PUSH0 DUP4 DUP2 MSTORE PUSH1 0x20 ADD SWAP1 DUP2 MSTORE PUSH1 0x20 ADD PUSH0 KECCAK256 PUSH0 SWAP1 SLOAD SWAP1 PUSH2 0x100 EXP SWAP1 DIV PUSH1 0xFF AND ISZERO PUSH2 0x85 JUMPI PUSH0 DUP1 REVERT JUMPDEST PUSH1 0x1 DUP1 PUSH0 DUP5 DUP2 MSTORE PUSH1 0x20 ADD SWAP1 DUP2 MSTORE PUSH1 0x20 ADD PUSH0 KECCAK256 PUSH0 PUSH2 0x100 EXP DUP2 SLOAD DUP2 PUSH1 0xFF MUL NOT AND SWAP1 DUP4 ISZERO ISZERO MUL OR SWAP1 SSTORE POP PUSH0 PUSH2 0xE3 CALLER DUP6 DUP6 ADDRESS PUSH1 0x40 MLOAD PUSH1 0x20 ADD PUSH2 0xC8 SWAP5 SWAP4 SWAP3 SWAP2 SWAP1 PUSH2 0x5A8 JUMP JUMPDEST PUSH1 0x40 MLOAD PUSH1 0x20 DUP2 DUP4 SUB SUB DUP2 MSTORE SWAP1 PUSH1 0x40 MSTORE DUP1 MLOAD SWAP1 PUSH1 0x20 ADD KECCAK256 PUSH2 0x1FD JUMP JUMPDEST SWAP1 POP PUSH0 DUP1 SLOAD SWAP1 PUSH2 0x100 EXP SWAP1 DIV PUSH20 0xFFFFFFFFFFFFFFFFFFFFFFFFFFFFFFFFFFFFFFFF AND PUSH20 0xFFFFFFFFFFFFFFFFFFFFFFFFFFFFFFFFFFFFFFFF AND PUSH2 0x125 DUP3 DUP5 PUSH2 0x22C JUMP JUMPDEST PUSH20 0xFFFFFFFFFFFFFFFFFFFFFFFFFFFFFFFFFFFFFFFF AND EQ PUSH2 0x144 JUMPI PUSH0 DUP1 REVERT JUMPDEST CALLER PUSH20 0xFFFFFFFFFFFFFFFFFFFFFFFFFFFFFFFFFFFFFFFF AND PUSH2 0x8FC DUP6 SWAP1 DUP2 ISZERO MUL SWAP1 PUSH1 0x40 MLOAD PUSH0 PUSH1 0x40 MLOAD DUP1 DUP4 SUB DUP2 DUP6 DUP9 DUP9 CALL SWAP4 POP POP POP POP ISZERO DUP1 ISZERO PUSH2 0x187 JUMPI RETURNDATASIZE PUSH0 DUP1 RETURNDATACOPY RETURNDATASIZE PUSH0 REVERT JUMPDEST POP POP POP POP POP JUMP JUMPDEST PUSH0 DUP1 SLOAD SWAP1 PUSH2 0x100 EXP SWAP1 DIV PUSH20 0xFFFFFFFFFFFFFFFFFFFFFFFFFFFFFFFFFFFFFFFF AND PUSH20 0xFFFFFFFFFFFFFFFFFFFFFFFFFFFFFFFFFFFFFFFF AND CALLER PUSH20 0xFFFFFFFFFFFFFFFFFFFFFFFFFFFFFFFFFFFFFFFF AND EQ PUSH2 0x1E4 JUMPI PUSH0 DUP1 REVERT JUMPDEST CALLER PUSH20 0xFFFFFFFFFFFFFFFFFFFFFFFFFFFFFFFFFFFFFFFF AND SELFDESTRUCT JUMPDEST PUSH0 DUP2 PUSH1 0x40 MLOAD PUSH1 0x20 ADD PUSH2 0x20F SWAP2 SWAP1 PUSH2 0x672 JUMP JUMPDEST PUSH1 0x40 MLOAD PUSH1 0x20 DUP2 DUP4 SUB SUB DUP2 MSTORE SWAP1 PUSH1 0x40 MSTORE DUP1 MLOAD SWAP1 PUSH1 0x20 ADD KECCAK256 SWAP1 POP SWAP2 SWAP1 POP JUMP JUMPDEST PUSH0 DUP1 PUSH0 DUP1 PUSH2 0x239 DUP6 PUSH2 0x296 JUMP JUMPDEST SWAP3 POP SWAP3 POP SWAP3 POP PUSH1 0x1 DUP7 DUP5 DUP5 DUP5 PUSH1 0x40 MLOAD PUSH0 DUP2 MSTORE PUSH1 0x20 ADD PUSH1 0x40 MSTORE PUSH1 0x40 MLOAD PUSH2 0x261 SWAP5 SWAP4 SWAP3 SWAP2 SWAP1 PUSH2 0x6C1 JUMP JUMPDEST PUSH1 0x20 PUSH1 0x40 MLOAD PUSH1 0x20 DUP2 SUB SWAP1 DUP1 DUP5 SUB SWAP1 DUP6 GAS STATICCALL ISZERO DUP1 ISZERO PUSH2 0x281 JUMPI RETURNDATASIZE PUSH0 DUP1 RETURNDATACOPY RETURNDATASIZE PUSH0 REVERT JUMPDEST POP POP POP PUSH1 0x20 PUSH1 0x40 MLOAD SUB MLOAD SWAP4 POP POP POP POP SWAP3 SWAP2 POP POP JUMP JUMPDEST PUSH0 DUP1 PUSH0 PUSH1 0x41 DUP5 MLOAD EQ PUSH2 0x2A6 JUMPI PUSH0 DUP1 REVERT JUMPDEST PUSH1 0x20 DUP5 ADD MLOAD SWAP2 POP PUSH1 0x40 DUP5 ADD MLOAD SWAP1 POP PUSH1 0x60 DUP5 ADD MLOAD PUSH0 BYTE SWAP3 POP SWAP2 SWAP4 SWAP1 SWAP3 POP JUMP JUMPDEST PUSH0 PUSH1 0x40 MLOAD SWAP1 POP SWAP1 JUMP JUMPDEST PUSH0 DUP1 REVERT JUMPDEST PUSH0 DUP1 REVERT JUMPDEST PUSH0 DUP2 SWAP1 POP SWAP2 SWAP1 POP JUMP JUMPDEST PUSH2 0x2E7 DUP2 PUSH2 0x2D5 JUMP JUMPDEST DUP2 EQ PUSH2 0x2F1 JUMPI PUSH0 DUP1 REVERT JUMPDEST POP JUMP JUMPDEST PUSH0 DUP2 CALLDATALOAD SWAP1 POP PUSH2 0x302 DUP2 PUSH2 0x2DE JUMP JUMPDEST SWAP3 SWAP2 POP POP JUMP JUMPDEST PUSH0 DUP1 REVERT JUMPDEST PUSH0 DUP1 REVERT JUMPDEST PUSH0 PUSH1 0x1F NOT PUSH1 0x1F DUP4 ADD AND SWAP1 POP SWAP2 SWAP1 POP JUMP JUMPDEST PUSH32 0x4E487B7100000000000000000000000000000000000000000000000000000000 PUSH0 MSTORE PUSH1 0x41 PUSH1 0x4 MSTORE PUSH1 0x24 PUSH0 REVERT JUMPDEST PUSH2 0x356 DUP3 PUSH2 0x310 JUMP JUMPDEST DUP2 ADD DUP2 DUP2 LT PUSH8 0xFFFFFFFFFFFFFFFF DUP3 GT OR ISZERO PUSH2 0x375 JUMPI PUSH2 0x374 PUSH2 0x320 JUMP JUMPDEST JUMPDEST DUP1 PUSH1 0x40 MSTORE POP POP POP JUMP JUMPDEST PUSH0 PUSH2 0x387 PUSH2 0x2C4 JUMP JUMPDEST SWAP1 POP PUSH2 0x393 DUP3 DUP3 PUSH2 0x34D JUMP JUMPDEST SWAP2 SWAP1 POP JUMP JUMPDEST PUSH0 PUSH8 0xFFFFFFFFFFFFFFFF DUP3 GT ISZERO PUSH2 0x3B2 JUMPI PUSH2 0x3B1 PUSH2 0x320 JUMP JUMPDEST JUMPDEST PUSH2 0x3BB DUP3 PUSH2 0x310 JUMP JUMPDEST SWAP1 POP PUSH1 0x20 DUP2 ADD SWAP1 POP SWAP2 SWAP1 POP JUMP JUMPDEST DUP3 DUP2 DUP4 CALLDATACOPY PUSH0 DUP4 DUP4 ADD MSTORE POP POP POP JUMP JUMPDEST PUSH0 PUSH2 0x3E8 PUSH2 0x3E3 DUP5 PUSH2 0x398 JUMP JUMPDEST PUSH2 0x37E JUMP JUMPDEST SWAP1 POP DUP3 DUP2 MSTORE PUSH1 0x20 DUP2 ADD DUP5 DUP5 DUP5 ADD GT ISZERO PUSH2 0x404 JUMPI PUSH2 0x403 PUSH2 0x30C JUMP JUMPDEST JUMPDEST PUSH2 0x40F DUP5 DUP3 DUP6 PUSH2 0x3C8 JUMP JUMPDEST POP SWAP4 SWAP3 POP POP POP JUMP JUMPDEST PUSH0 DUP3 PUSH1 0x1F DUP4 ADD SLT PUSH2 0x42B JUMPI PUSH2 0x42A PUSH2 0x308 JUMP JUMPDEST JUMPDEST DUP2 CALLDATALOAD PUSH2 0x43B DUP5 DUP3 PUSH1 0x20 DUP7 ADD PUSH2 0x3D6 JUMP JUMPDEST SWAP2 POP POP SWAP3 SWAP2 POP POP JUMP JUMPDEST PUSH0 DUP1 PUSH0 PUSH1 0x60 DUP5 DUP7 SUB SLT ISZERO PUSH2 0x45B JUMPI PUSH2 0x45A PUSH2 0x2CD JUMP JUMPDEST JUMPDEST PUSH0 PUSH2 0x468 DUP7 DUP3 DUP8 ADD PUSH2 0x2F4 JUMP JUMPDEST SWAP4 POP POP PUSH1 0x20 PUSH2 0x479 DUP7 DUP3 DUP8 ADD PUSH2 0x2F4 JUMP JUMPDEST SWAP3 POP POP PUSH1 0x40 DUP5 ADD CALLDATALOAD PUSH8 0xFFFFFFFFFFFFFFFF DUP2 GT ISZERO PUSH2 0x49A JUMPI PUSH2 0x499 PUSH2 0x2D1 JUMP JUMPDEST JUMPDEST PUSH2 0x4A6 DUP7 DUP3 DUP8 ADD PUSH2 0x417 JUMP JUMPDEST SWAP2 POP POP SWAP3 POP SWAP3 POP SWAP3 JUMP JUMPDEST PUSH0 PUSH20 0xFFFFFFFFFFFFFFFFFFFFFFFFFFFFFFFFFFFFFFFF DUP3 AND SWAP1 POP SWAP2 SWAP1 POP JUMP JUMPDEST PUSH0 PUSH2 0x4D9 DUP3 PUSH2 0x4B0 JUMP JUMPDEST SWAP1 POP SWAP2 SWAP1 POP JUMP JUMPDEST PUSH0 DUP2 PUSH1 0x60 SHL SWAP1 POP SWAP2 SWAP1 POP JUMP JUMPDEST PUSH0 PUSH2 0x4F6 DUP3 PUSH2 0x4E0 JUMP JUMPDEST SWAP1 POP SWAP2 SWAP1 POP JUMP JUMPDEST PUSH0 PUSH2 0x507 DUP3 PUSH2 0x4EC JUMP JUMPDEST SWAP1 POP SWAP2 SWAP1 POP JUMP JUMPDEST PUSH2 0x51F PUSH2 0x51A DUP3 PUSH2 0x4CF JUMP JUMPDEST PUSH2 0x4FD JUMP JUMPDEST DUP3 MSTORE POP POP JUMP JUMPDEST PUSH0 DUP2 SWAP1 POP SWAP2 SWAP1 POP JUMP JUMPDEST PUSH2 0x53F PUSH2 0x53A DUP3 PUSH2 0x2D5 JUMP JUMPDEST PUSH2 0x525 JUMP JUMPDEST DUP3 MSTORE POP POP JUMP JUMPDEST PUSH0 DUP2 SWAP1 POP SWAP2 SWAP1 POP JUMP JUMPDEST PUSH0 PUSH2 0x568 PUSH2 0x563 PUSH2 0x55E DUP5 PUSH2 0x4B0 JUMP JUMPDEST PUSH2 0x545 JUMP JUMPDEST PUSH2 0x4B0 JUMP JUMPDEST SWAP1 POP SWAP2 SWAP1 POP JUMP JUMPDEST PUSH0 PUSH2 0x579 DUP3 PUSH2 0x54E JUMP JUMPDEST SWAP1 POP SWAP2 SWAP1 POP JUMP JUMPDEST PUSH0 PUSH2 0x58A DUP3 PUSH2 0x56F JUMP JUMPDEST SWAP1 POP SWAP2 SWAP1 POP JUMP JUMPDEST PUSH2 0x5A2 PUSH2 0x59D DUP3 PUSH2 0x580 JUMP JUMPDEST PUSH2 0x4FD JUMP JUMPDEST DUP3 MSTORE POP POP JUMP JUMPDEST PUSH0 PUSH2 0x5B3 DUP3 DUP8 PUSH2 0x50E JUMP JUMPDEST PUSH1 0x14 DUP3 ADD SWAP2 POP PUSH2 0x5C3 DUP3 DUP7 PUSH2 0x52E JUMP JUMPDEST PUSH1 0x20 DUP3 ADD SWAP2 POP PUSH2 0x5D3 DUP3 DUP6 PUSH2 0x52E JUMP JUMPDEST PUSH1 0x20 DUP3 ADD SWAP2 POP PUSH2 0x5E3 DUP3 DUP5 PUSH2 0x591 JUMP JUMPDEST PUSH1 0x14 DUP3 ADD SWAP2 POP DUP2 SWAP1 POP SWAP6 SWAP5 POP POP POP POP POP JUMP JUMPDEST PUSH0 DUP2 SWAP1 POP SWAP3 SWAP2 POP POP JUMP JUMPDEST PUSH32 0x19457468657265756D205369676E6564204D6573736167653A0A333200000000 PUSH0 DUP3 ADD MSTORE POP JUMP JUMPDEST PUSH0 PUSH2 0x633 PUSH1 0x1C DUP4 PUSH2 0x5F5 JUMP JUMPDEST SWAP2 POP PUSH2 0x63E DUP3 PUSH2 0x5FF JUMP JUMPDEST PUSH1 0x1C DUP3 ADD SWAP1 POP SWAP2 SWAP1 POP JUMP JUMPDEST PUSH0 DUP2 SWAP1 POP SWAP2 SWAP1 POP JUMP JUMPDEST PUSH0 DUP2 SWAP1 POP SWAP2 SWAP1 POP JUMP JUMPDEST PUSH2 0x66C PUSH2 0x667 DUP3 PUSH2 0x649 JUMP JUMPDEST PUSH2 0x652 JUMP JUMPDEST DUP3 MSTORE POP POP JUMP JUMPDEST PUSH0 PUSH2 0x67C DUP3 PUSH2 0x627 JUMP JUMPDEST SWAP2 POP PUSH2 0x688 DUP3 DUP5 PUSH2 0x65B JUMP JUMPDEST PUSH1 0x20 DUP3 ADD SWAP2 POP DUP2 SWAP1 POP SWAP3 SWAP2 POP POP JUMP JUMPDEST PUSH2 0x6A0 DUP2 PUSH2 0x649 JUMP JUMPDEST DUP3 MSTORE POP POP JUMP JUMPDEST PUSH0 PUSH1 0xFF DUP3 AND SWAP1 POP SWAP2 SWAP1 POP JUMP JUMPDEST PUSH2 0x6BB DUP2 PUSH2 0x6A6 JUMP JUMPDEST DUP3 MSTORE POP POP JUMP JUMPDEST PUSH0 PUSH1 0x80 DUP3 ADD SWAP1 POP PUSH2 0x6D4 PUSH0 DUP4 ADD DUP8 PUSH2 0x697 JUMP JUMPDEST PUSH2 0x6E1 PUSH1 0x20 DUP4 ADD DUP7 PUSH2 0x6B2 JUMP JUMPDEST PUSH2 0x6EE PUSH1 0x40 DUP4 ADD DUP6 PUSH2 0x697 JUMP JUMPDEST PUSH2 0x6FB PUSH1 0x60 DUP4 ADD DUP5 PUSH2 0x697 JUMP JUMPDEST SWAP6 SWAP5 POP POP POP POP POP JUMP INVALID LOG2 PUSH5 0x6970667358 0x22 SLT KECCAK256 CALLDATASIZE SWAP13 PUSH14 0xC0C507736B2D47F29C516A933A69 NUMBER PUSH15 0xEF2614BD7B05239C44BD656E186473 PUSH16 0x6C634300081A00330000000000000000 "
				},
				"gasEstimates": {
					"creation": {
						"codeDepositCost": "370000",
						"executionCost": "24644",
						"totalCost": "394644"
					},
					"external": {
						"claimPayment(uint256,uint256,bytes)": "infinite",
						"shutdown()": "29908"
					},
					"internal": {
						"prefixed(bytes32)": "infinite",
						"recoverSigner(bytes32,bytes memory)": "infinite",
						"splitSignature(bytes memory)": "infinite"
					}
				},
				"methodIdentifiers": {
					"claimPayment(uint256,uint256,bytes)": "a90ae887",
					"shutdown()": "fc0e74d1"
				}
			},
			"storageLayout": {
				"storage": [
					{
						"astId": 5,
						"contract": "Contracts/Signature.sol:ReceiverPays",
						"label": "owner",
						"offset": 0,
						"slot": "0",
						"type": "t_address"
					},
					{
						"astId": 9,
						"contract": "Contracts/Signature.sol:ReceiverPays",
						"label": "usedNonces",
						"offset": 0,
						"slot": "1",
						"type": "t_mapping(t_uint256,t_bool)"
					}
				],
				"types": {
					"t_address": {
						"encoding": "inplace",
						"label": "address",
						"numberOfBytes": "20"
					},
					"t_bool": {
						"encoding": "inplace",
						"label": "bool",
						"numberOfBytes": "1"
					},
					"t_mapping(t_uint256,t_bool)": {
						"encoding": "mapping",
						"key": "t_uint256",
						"label": "mapping(uint256 => bool)",
						"numberOfBytes": "32",
						"value": "t_bool"
					},
					"t_uint256": {
						"encoding": "inplace",
						"label": "uint256",
						"numberOfBytes": "32"
					}
				}
			},
			"userdoc": {
				"kind": "user",
				"methods": {
					"shutdown()": {
						"notice": "destroy the contract and reclaim the leftover funds."
					}
				},
				"version": 1
			}
		}
	}
}