{
	"Contracts/Payment Channel.sol": {
		"SimplePaymentChannel": {
			"abi": [
				{
					"inputs": [
						{
							"internalType": "address payable",
							"name": "recipientAddress",
							"type": "address"
						},
						{
							"internalType": "uint256",
							"name": "duration",
							"type": "uint256"
						}
					],
					"stateMutability": "payable",
					"type": "constructor"
				},
				{
					"inputs": [],
					"name": "claimTimeout",
					"outputs": [],
					"stateMutability": "nonpayable",
					"type": "function"
				},
				{
					"inputs": [
						{
							"internalType": "uint256",
							"name": "amount",
							"type": "uint256"
						},
						{
							"internalType": "bytes",
							"name": "signature",
							"type": "bytes"
						}
					],
					"name": "close",
					"outputs": [],
					"stateMutability": "nonpayable",
					"type": "function"
				},
				{
					"inputs": [],
					"name": "expiration",
					"outputs": [
						{
							"internalType": "uint256",
							"name": "",
							"type": "uint256"
						}
					],
					"stateMutability": "view",
					"type": "function"
				},
				{
					"inputs": [
						{
							"internalType": "uint256",
							"name": "newExpiration",
							"type": "uint256"
						}
					],
					"name": "extend",
					"outputs": [],
					"stateMutability": "nonpayable",
					"type": "function"
				},
				{
					"inputs": [],
					"name": "recipient",
					"outputs": [
						{
							"internalType": "address payable",
							"name": "",
							"type": "address"
						}
					],
					"stateMutability": "view",
					"type": "function"
				},
				{
					"inputs": [],
					"name": "sender",
					"outputs": [
						{
							"internalType": "address payable",
							"name": "",
							"type": "address"
						}
					],
					"stateMutability": "view",
					"type": "function"
				}
			],
			"devdoc": {
				"kind": "dev",
				"methods": {},
				"version": 1
			},
			"evm": {
				"assembly": "    /* \"Contracts/Payment Channel.sol\":68:2915  contract SimplePaymentChannel {... */\n  mstore(0x40, 0x80)\n    /* \"Contracts/Payment Channel.sol\":336:553  constructor (address payable recipientAddress, uint256 duration)... */\n  mload(0x40)\n  sub(codesize, bytecodeSize)\n  dup1\n  bytecodeSize\n  dup4\n  codecopy\n  dup2\n  dup2\n  add\n  0x40\n  mstore\n  dup2\n  add\n  swap1\n  tag_1\n  swap2\n  swap1\n  tag_2\n  jump\t// in\ntag_1:\n    /* \"Contracts/Payment Channel.sol\":448:458  msg.sender */\n  caller\n    /* \"Contracts/Payment Channel.sol\":431:437  sender */\n  0x00\n  0x00\n    /* \"Contracts/Payment Channel.sol\":431:459  sender = payable(msg.sender) */\n  0x0100\n  exp\n  dup2\n  sload\n  dup2\n  0xffffffffffffffffffffffffffffffffffffffff\n  mul\n  not\n  and\n  swap1\n  dup4\n  0xffffffffffffffffffffffffffffffffffffffff\n  and\n  mul\n  or\n  swap1\n  sstore\n  pop\n    /* \"Contracts/Payment Channel.sol\":481:497  recipientAddress */\n  dup2\n    /* \"Contracts/Payment Channel.sol\":469:478  recipient */\n  0x01\n  0x00\n    /* \"Contracts/Payment Channel.sol\":469:497  recipient = recipientAddress */\n  0x0100\n  exp\n  dup2\n  sload\n  dup2\n  0xffffffffffffffffffffffffffffffffffffffff\n  mul\n  not\n  and\n  swap1\n  dup4\n  0xffffffffffffffffffffffffffffffffffffffff\n  and\n  mul\n  or\n  swap1\n  sstore\n  pop\n    /* \"Contracts/Payment Channel.sol\":538:546  duration */\n  dup1\n    /* \"Contracts/Payment Channel.sol\":520:535  block.timestamp */\n  timestamp\n    /* \"Contracts/Payment Channel.sol\":520:546  block.timestamp + duration */\n  tag_5\n  swap2\n  swap1\n  tag_6\n  jump\t// in\ntag_5:\n    /* \"Contracts/Payment Channel.sol\":507:517  expiration */\n  0x02\n    /* \"Contracts/Payment Channel.sol\":507:546  expiration = block.timestamp + duration */\n  dup2\n  swap1\n  sstore\n  pop\n    /* \"Contracts/Payment Channel.sol\":336:553  constructor (address payable recipientAddress, uint256 duration)... */\n  pop\n  pop\n    /* \"Contracts/Payment Channel.sol\":68:2915  contract SimplePaymentChannel {... */\n  jump(tag_7)\n    /* \"#utility.yul\":88:205   */\ntag_9:\n    /* \"#utility.yul\":197:198   */\n  0x00\n    /* \"#utility.yul\":194:195   */\n  0x00\n    /* \"#utility.yul\":187:199   */\n  revert\n    /* \"#utility.yul\":334:460   */\ntag_11:\n    /* \"#utility.yul\":371:378   */\n  0x00\n    /* \"#utility.yul\":411:453   */\n  0xffffffffffffffffffffffffffffffffffffffff\n    /* \"#utility.yul\":404:409   */\n  dup3\n    /* \"#utility.yul\":400:454   */\n  and\n    /* \"#utility.yul\":389:454   */\n  swap1\n  pop\n    /* \"#utility.yul\":334:460   */\n  swap2\n  swap1\n  pop\n  jump\t// out\n    /* \"#utility.yul\":466:570   */\ntag_12:\n    /* \"#utility.yul\":511:518   */\n  0x00\n    /* \"#utility.yul\":540:564   */\n  tag_25\n    /* \"#utility.yul\":558:563   */\n  dup3\n    /* \"#utility.yul\":540:564   */\n  tag_11\n  jump\t// in\ntag_25:\n    /* \"#utility.yul\":529:564   */\n  swap1\n  pop\n    /* \"#utility.yul\":466:570   */\n  swap2\n  swap1\n  pop\n  jump\t// out\n    /* \"#utility.yul\":576:714   */\ntag_13:\n    /* \"#utility.yul\":657:689   */\n  tag_27\n    /* \"#utility.yul\":683:688   */\n  dup2\n    /* \"#utility.yul\":657:689   */\n  tag_12\n  jump\t// in\ntag_27:\n    /* \"#utility.yul\":650:655   */\n  dup2\n    /* \"#utility.yul\":647:690   */\n  eq\n    /* \"#utility.yul\":637:708   */\n  tag_28\n  jumpi\n    /* \"#utility.yul\":704:705   */\n  0x00\n    /* \"#utility.yul\":701:702   */\n  0x00\n    /* \"#utility.yul\":694:706   */\n  revert\n    /* \"#utility.yul\":637:708   */\ntag_28:\n    /* \"#utility.yul\":576:714   */\n  pop\n  jump\t// out\n    /* \"#utility.yul\":720:879   */\ntag_14:\n    /* \"#utility.yul\":785:790   */\n  0x00\n    /* \"#utility.yul\":816:822   */\n  dup2\n    /* \"#utility.yul\":810:823   */\n  mload\n    /* \"#utility.yul\":801:823   */\n  swap1\n  pop\n    /* \"#utility.yul\":832:873   */\n  tag_30\n    /* \"#utility.yul\":867:872   */\n  dup2\n    /* \"#utility.yul\":832:873   */\n  tag_13\n  jump\t// in\ntag_30:\n    /* \"#utility.yul\":720:879   */\n  swap3\n  swap2\n  pop\n  pop\n  jump\t// out\n    /* \"#utility.yul\":885:962   */\ntag_15:\n    /* \"#utility.yul\":922:929   */\n  0x00\n    /* \"#utility.yul\":951:956   */\n  dup2\n    /* \"#utility.yul\":940:956   */\n  swap1\n  pop\n    /* \"#utility.yul\":885:962   */\n  swap2\n  swap1\n  pop\n  jump\t// out\n    /* \"#utility.yul\":968:1090   */\ntag_16:\n    /* \"#utility.yul\":1041:1065   */\n  tag_33\n    /* \"#utility.yul\":1059:1064   */\n  dup2\n    /* \"#utility.yul\":1041:1065   */\n  tag_15\n  jump\t// in\ntag_33:\n    /* \"#utility.yul\":1034:1039   */\n  dup2\n    /* \"#utility.yul\":1031:1066   */\n  eq\n    /* \"#utility.yul\":1021:1084   */\n  tag_34\n  jumpi\n    /* \"#utility.yul\":1080:1081   */\n  0x00\n    /* \"#utility.yul\":1077:1078   */\n  0x00\n    /* \"#utility.yul\":1070:1082   */\n  revert\n    /* \"#utility.yul\":1021:1084   */\ntag_34:\n    /* \"#utility.yul\":968:1090   */\n  pop\n  jump\t// out\n    /* \"#utility.yul\":1096:1239   */\ntag_17:\n    /* \"#utility.yul\":1153:1158   */\n  0x00\n    /* \"#utility.yul\":1184:1190   */\n  dup2\n    /* \"#utility.yul\":1178:1191   */\n  mload\n    /* \"#utility.yul\":1169:1191   */\n  swap1\n  pop\n    /* \"#utility.yul\":1200:1233   */\n  tag_36\n    /* \"#utility.yul\":1227:1232   */\n  dup2\n    /* \"#utility.yul\":1200:1233   */\n  tag_16\n  jump\t// in\ntag_36:\n    /* \"#utility.yul\":1096:1239   */\n  swap3\n  swap2\n  pop\n  pop\n  jump\t// out\n    /* \"#utility.yul\":1245:1768   */\ntag_2:\n    /* \"#utility.yul\":1332:1338   */\n  0x00\n    /* \"#utility.yul\":1340:1346   */\n  0x00\n    /* \"#utility.yul\":1389:1391   */\n  0x40\n    /* \"#utility.yul\":1377:1386   */\n  dup4\n    /* \"#utility.yul\":1368:1375   */\n  dup6\n    /* \"#utility.yul\":1364:1387   */\n  sub\n    /* \"#utility.yul\":1360:1392   */\n  slt\n    /* \"#utility.yul\":1357:1476   */\n  iszero\n  tag_38\n  jumpi\n    /* \"#utility.yul\":1395:1474   */\n  tag_39\n  tag_9\n  jump\t// in\ntag_39:\n    /* \"#utility.yul\":1357:1476   */\ntag_38:\n    /* \"#utility.yul\":1515:1516   */\n  0x00\n    /* \"#utility.yul\":1540:1612   */\n  tag_40\n    /* \"#utility.yul\":1604:1611   */\n  dup6\n    /* \"#utility.yul\":1595:1601   */\n  dup3\n    /* \"#utility.yul\":1584:1593   */\n  dup7\n    /* \"#utility.yul\":1580:1602   */\n  add\n    /* \"#utility.yul\":1540:1612   */\n  tag_14\n  jump\t// in\ntag_40:\n    /* \"#utility.yul\":1530:1612   */\n  swap3\n  pop\n    /* \"#utility.yul\":1486:1622   */\n  pop\n    /* \"#utility.yul\":1661:1663   */\n  0x20\n    /* \"#utility.yul\":1687:1751   */\n  tag_41\n    /* \"#utility.yul\":1743:1750   */\n  dup6\n    /* \"#utility.yul\":1734:1740   */\n  dup3\n    /* \"#utility.yul\":1723:1732   */\n  dup7\n    /* \"#utility.yul\":1719:1741   */\n  add\n    /* \"#utility.yul\":1687:1751   */\n  tag_17\n  jump\t// in\ntag_41:\n    /* \"#utility.yul\":1677:1751   */\n  swap2\n  pop\n    /* \"#utility.yul\":1632:1761   */\n  pop\n    /* \"#utility.yul\":1245:1768   */\n  swap3\n  pop\n  swap3\n  swap1\n  pop\n  jump\t// out\n    /* \"#utility.yul\":1774:1954   */\ntag_18:\n    /* \"#utility.yul\":1822:1899   */\n  0x4e487b7100000000000000000000000000000000000000000000000000000000\n    /* \"#utility.yul\":1819:1820   */\n  0x00\n    /* \"#utility.yul\":1812:1900   */\n  mstore\n    /* \"#utility.yul\":1919:1923   */\n  0x11\n    /* \"#utility.yul\":1916:1917   */\n  0x04\n    /* \"#utility.yul\":1909:1924   */\n  mstore\n    /* \"#utility.yul\":1943:1947   */\n  0x24\n    /* \"#utility.yul\":1940:1941   */\n  0x00\n    /* \"#utility.yul\":1933:1948   */\n  revert\n    /* \"#utility.yul\":1960:2151   */\ntag_6:\n    /* \"#utility.yul\":2000:2003   */\n  0x00\n    /* \"#utility.yul\":2019:2039   */\n  tag_44\n    /* \"#utility.yul\":2037:2038   */\n  dup3\n    /* \"#utility.yul\":2019:2039   */\n  tag_15\n  jump\t// in\ntag_44:\n    /* \"#utility.yul\":2014:2039   */\n  swap2\n  pop\n    /* \"#utility.yul\":2053:2073   */\n  tag_45\n    /* \"#utility.yul\":2071:2072   */\n  dup4\n    /* \"#utility.yul\":2053:2073   */\n  tag_15\n  jump\t// in\ntag_45:\n    /* \"#utility.yul\":2048:2073   */\n  swap3\n  pop\n    /* \"#utility.yul\":2096:2097   */\n  dup3\n    /* \"#utility.yul\":2093:2094   */\n  dup3\n    /* \"#utility.yul\":2089:2098   */\n  add\n    /* \"#utility.yul\":2082:2098   */\n  swap1\n  pop\n    /* \"#utility.yul\":2117:2120   */\n  dup1\n    /* \"#utility.yul\":2114:2115   */\n  dup3\n    /* \"#utility.yul\":2111:2121   */\n  gt\n    /* \"#utility.yul\":2108:2144   */\n  iszero\n  tag_46\n  jumpi\n    /* \"#utility.yul\":2124:2142   */\n  tag_47\n  tag_18\n  jump\t// in\ntag_47:\n    /* \"#utility.yul\":2108:2144   */\ntag_46:\n    /* \"#utility.yul\":1960:2151   */\n  swap3\n  swap2\n  pop\n  pop\n  jump\t// out\n    /* \"Contracts/Payment Channel.sol\":68:2915  contract SimplePaymentChannel {... */\ntag_7:\n  dataSize(sub_0)\n  dup1\n  dataOffset(sub_0)\n  0x00\n  codecopy\n  0x00\n  return\nstop\n\nsub_0: assembly {\n        /* \"Contracts/Payment Channel.sol\":68:2915  contract SimplePaymentChannel {... */\n      mstore(0x40, 0x80)\n      callvalue\n      dup1\n      iszero\n      tag_1\n      jumpi\n      revert(0x00, 0x00)\n    tag_1:\n      pop\n      jumpi(tag_2, lt(calldatasize, 0x04))\n      shr(0xe0, calldataload(0x00))\n      dup1\n      0x0e1da6c3\n      eq\n      tag_3\n      jumpi\n      dup1\n      0x415ffba7\n      eq\n      tag_4\n      jumpi\n      dup1\n      0x4665096d\n      eq\n      tag_5\n      jumpi\n      dup1\n      0x66d003ac\n      eq\n      tag_6\n      jumpi\n      dup1\n      0x67e404ce\n      eq\n      tag_7\n      jumpi\n      dup1\n      0x9714378c\n      eq\n      tag_8\n      jumpi\n    tag_2:\n      revert(0x00, 0x00)\n        /* \"Contracts/Payment Channel.sol\":1374:1492  function claimTimeout() external {... */\n    tag_3:\n      tag_9\n      tag_10\n      jump\t// in\n    tag_9:\n      stop\n        /* \"Contracts/Payment Channel.sol\":763:997  function close(uint256 amount, bytes memory signature) external {... */\n    tag_4:\n      tag_11\n      0x04\n      dup1\n      calldatasize\n      sub\n      dup2\n      add\n      swap1\n      tag_12\n      swap2\n      swap1\n      tag_13\n      jump\t// in\n    tag_12:\n      tag_14\n      jump\t// in\n    tag_11:\n      stop\n        /* \"Contracts/Payment Channel.sol\":256:281  uint256 public expiration */\n    tag_5:\n      tag_15\n      tag_16\n      jump\t// in\n    tag_15:\n      mload(0x40)\n      tag_17\n      swap2\n      swap1\n      tag_18\n      jump\t// in\n    tag_17:\n      mload(0x40)\n      dup1\n      swap2\n      sub\n      swap1\n      return\n        /* \"Contracts/Payment Channel.sol\":177:209  address payable public recipient */\n    tag_6:\n      tag_19\n      tag_20\n      jump\t// in\n    tag_19:\n      mload(0x40)\n      tag_21\n      swap2\n      swap1\n      tag_22\n      jump\t// in\n    tag_21:\n      mload(0x40)\n      dup1\n      swap2\n      sub\n      swap1\n      return\n        /* \"Contracts/Payment Channel.sol\":104:133  address payable public sender */\n    tag_7:\n      tag_23\n      tag_24\n      jump\t// in\n    tag_23:\n      mload(0x40)\n      tag_25\n      swap2\n      swap1\n      tag_22\n      jump\t// in\n    tag_25:\n      mload(0x40)\n      dup1\n      swap2\n      sub\n      swap1\n      return\n        /* \"Contracts/Payment Channel.sol\":1060:1236  function extend(uint256 newExpiration) external {... */\n    tag_8:\n      tag_26\n      0x04\n      dup1\n      calldatasize\n      sub\n      dup2\n      add\n      swap1\n      tag_27\n      swap2\n      swap1\n      tag_28\n      jump\t// in\n    tag_27:\n      tag_29\n      jump\t// in\n    tag_26:\n      stop\n        /* \"Contracts/Payment Channel.sol\":1374:1492  function claimTimeout() external {... */\n    tag_10:\n        /* \"Contracts/Payment Channel.sol\":1444:1454  expiration */\n      sload(0x02)\n        /* \"Contracts/Payment Channel.sol\":1425:1440  block.timestamp */\n      timestamp\n        /* \"Contracts/Payment Channel.sol\":1425:1454  block.timestamp >= expiration */\n      lt\n      iszero\n        /* \"Contracts/Payment Channel.sol\":1417:1455  require(block.timestamp >= expiration) */\n      tag_31\n      jumpi\n      revert(0x00, 0x00)\n    tag_31:\n        /* \"Contracts/Payment Channel.sol\":1478:1484  sender */\n      0x00\n      0x00\n      swap1\n      sload\n      swap1\n      0x0100\n      exp\n      swap1\n      div\n      0xffffffffffffffffffffffffffffffffffffffff\n      and\n        /* \"Contracts/Payment Channel.sol\":1465:1485  selfdestruct(sender) */\n      0xffffffffffffffffffffffffffffffffffffffff\n      and\n      selfdestruct\n        /* \"Contracts/Payment Channel.sol\":763:997  function close(uint256 amount, bytes memory signature) external {... */\n    tag_14:\n        /* \"Contracts/Payment Channel.sol\":859:868  recipient */\n      0x01\n      0x00\n      swap1\n      sload\n      swap1\n      0x0100\n      exp\n      swap1\n      div\n      0xffffffffffffffffffffffffffffffffffffffff\n      and\n        /* \"Contracts/Payment Channel.sol\":845:868  msg.sender == recipient */\n      0xffffffffffffffffffffffffffffffffffffffff\n      and\n        /* \"Contracts/Payment Channel.sol\":845:855  msg.sender */\n      caller\n        /* \"Contracts/Payment Channel.sol\":845:868  msg.sender == recipient */\n      0xffffffffffffffffffffffffffffffffffffffff\n      and\n      eq\n        /* \"Contracts/Payment Channel.sol\":837:869  require(msg.sender == recipient) */\n      tag_33\n      jumpi\n      revert(0x00, 0x00)\n    tag_33:\n        /* \"Contracts/Payment Channel.sol\":887:922  isValidSignature(amount, signature) */\n      tag_34\n        /* \"Contracts/Payment Channel.sol\":904:910  amount */\n      dup3\n        /* \"Contracts/Payment Channel.sol\":912:921  signature */\n      dup3\n        /* \"Contracts/Payment Channel.sol\":887:903  isValidSignature */\n      tag_35\n        /* \"Contracts/Payment Channel.sol\":887:922  isValidSignature(amount, signature) */\n      jump\t// in\n    tag_34:\n        /* \"Contracts/Payment Channel.sol\":879:923  require(isValidSignature(amount, signature)) */\n      tag_36\n      jumpi\n      revert(0x00, 0x00)\n    tag_36:\n        /* \"Contracts/Payment Channel.sol\":934:943  recipient */\n      0x01\n      0x00\n      swap1\n      sload\n      swap1\n      0x0100\n      exp\n      swap1\n      div\n      0xffffffffffffffffffffffffffffffffffffffff\n      and\n        /* \"Contracts/Payment Channel.sol\":934:952  recipient.transfer */\n      0xffffffffffffffffffffffffffffffffffffffff\n      and\n        /* \"Contracts/Payment Channel.sol\":934:960  recipient.transfer(amount) */\n      0x08fc\n        /* \"Contracts/Payment Channel.sol\":953:959  amount */\n      dup4\n        /* \"Contracts/Payment Channel.sol\":934:960  recipient.transfer(amount) */\n      swap1\n      dup2\n      iszero\n      mul\n      swap1\n      mload(0x40)\n      0x00\n      mload(0x40)\n      dup1\n      dup4\n      sub\n      dup2\n      dup6\n      dup9\n      dup9\n      call\n      swap4\n      pop\n      pop\n      pop\n      pop\n      iszero\n      dup1\n      iszero\n      tag_38\n      jumpi\n      returndatacopy(0x00, 0x00, returndatasize)\n      revert(0x00, returndatasize)\n    tag_38:\n      pop\n        /* \"Contracts/Payment Channel.sol\":983:989  sender */\n      0x00\n      0x00\n      swap1\n      sload\n      swap1\n      0x0100\n      exp\n      swap1\n      div\n      0xffffffffffffffffffffffffffffffffffffffff\n      and\n        /* \"Contracts/Payment Channel.sol\":970:990  selfdestruct(sender) */\n      0xffffffffffffffffffffffffffffffffffffffff\n      and\n      selfdestruct\n        /* \"Contracts/Payment Channel.sol\":256:281  uint256 public expiration */\n    tag_16:\n      sload(0x02)\n      dup2\n      jump\t// out\n        /* \"Contracts/Payment Channel.sol\":177:209  address payable public recipient */\n    tag_20:\n      0x01\n      0x00\n      swap1\n      sload\n      swap1\n      0x0100\n      exp\n      swap1\n      div\n      0xffffffffffffffffffffffffffffffffffffffff\n      and\n      dup2\n      jump\t// out\n        /* \"Contracts/Payment Channel.sol\":104:133  address payable public sender */\n    tag_24:\n      0x00\n      0x00\n      swap1\n      sload\n      swap1\n      0x0100\n      exp\n      swap1\n      div\n      0xffffffffffffffffffffffffffffffffffffffff\n      and\n      dup2\n      jump\t// out\n        /* \"Contracts/Payment Channel.sol\":1060:1236  function extend(uint256 newExpiration) external {... */\n    tag_29:\n        /* \"Contracts/Payment Channel.sol\":1140:1146  sender */\n      0x00\n      0x00\n      swap1\n      sload\n      swap1\n      0x0100\n      exp\n      swap1\n      div\n      0xffffffffffffffffffffffffffffffffffffffff\n      and\n        /* \"Contracts/Payment Channel.sol\":1126:1146  msg.sender == sender */\n      0xffffffffffffffffffffffffffffffffffffffff\n      and\n        /* \"Contracts/Payment Channel.sol\":1126:1136  msg.sender */\n      caller\n        /* \"Contracts/Payment Channel.sol\":1126:1146  msg.sender == sender */\n      0xffffffffffffffffffffffffffffffffffffffff\n      and\n      eq\n        /* \"Contracts/Payment Channel.sol\":1118:1147  require(msg.sender == sender) */\n      tag_40\n      jumpi\n      revert(0x00, 0x00)\n    tag_40:\n        /* \"Contracts/Payment Channel.sol\":1181:1191  expiration */\n      sload(0x02)\n        /* \"Contracts/Payment Channel.sol\":1165:1178  newExpiration */\n      dup2\n        /* \"Contracts/Payment Channel.sol\":1165:1191  newExpiration > expiration */\n      gt\n        /* \"Contracts/Payment Channel.sol\":1157:1192  require(newExpiration > expiration) */\n      tag_41\n      jumpi\n      revert(0x00, 0x00)\n    tag_41:\n        /* \"Contracts/Payment Channel.sol\":1216:1229  newExpiration */\n      dup1\n        /* \"Contracts/Payment Channel.sol\":1203:1213  expiration */\n      0x02\n        /* \"Contracts/Payment Channel.sol\":1203:1229  expiration = newExpiration */\n      dup2\n      swap1\n      sstore\n      pop\n        /* \"Contracts/Payment Channel.sol\":1060:1236  function extend(uint256 newExpiration) external {... */\n      pop\n      jump\t// out\n        /* \"Contracts/Payment Channel.sol\":1498:1831  function isValidSignature(uint256 amount, bytes memory signature)... */\n    tag_35:\n        /* \"Contracts/Payment Channel.sol\":1611:1615  bool */\n      0x00\n        /* \"Contracts/Payment Channel.sol\":1631:1646  bytes32 message */\n      0x00\n        /* \"Contracts/Payment Channel.sol\":1649:1700  prefixed(keccak256(abi.encodePacked(this, amount))) */\n      tag_43\n        /* \"Contracts/Payment Channel.sol\":1685:1689  this */\n      address\n        /* \"Contracts/Payment Channel.sol\":1691:1697  amount */\n      dup6\n        /* \"Contracts/Payment Channel.sol\":1668:1698  abi.encodePacked(this, amount) */\n      add(0x20, mload(0x40))\n      tag_44\n      swap3\n      swap2\n      swap1\n      tag_45\n      jump\t// in\n    tag_44:\n      mload(0x40)\n      0x20\n      dup2\n      dup4\n      sub\n      sub\n      dup2\n      mstore\n      swap1\n      0x40\n      mstore\n        /* \"Contracts/Payment Channel.sol\":1658:1699  keccak256(abi.encodePacked(this, amount)) */\n      dup1\n      mload\n      swap1\n      0x20\n      add\n      keccak256\n        /* \"Contracts/Payment Channel.sol\":1649:1657  prefixed */\n      tag_46\n        /* \"Contracts/Payment Channel.sol\":1649:1700  prefixed(keccak256(abi.encodePacked(this, amount))) */\n      jump\t// in\n    tag_43:\n        /* \"Contracts/Payment Channel.sol\":1631:1700  bytes32 message = prefixed(keccak256(abi.encodePacked(this, amount))) */\n      swap1\n      pop\n        /* \"Contracts/Payment Channel.sol\":1818:1824  sender */\n      0x00\n      0x00\n      swap1\n      sload\n      swap1\n      0x0100\n      exp\n      swap1\n      div\n      0xffffffffffffffffffffffffffffffffffffffff\n      and\n        /* \"Contracts/Payment Channel.sol\":1781:1824  recoverSigner(message, signature) == sender */\n      0xffffffffffffffffffffffffffffffffffffffff\n      and\n        /* \"Contracts/Payment Channel.sol\":1781:1814  recoverSigner(message, signature) */\n      tag_47\n        /* \"Contracts/Payment Channel.sol\":1795:1802  message */\n      dup3\n        /* \"Contracts/Payment Channel.sol\":1804:1813  signature */\n      dup6\n        /* \"Contracts/Payment Channel.sol\":1781:1794  recoverSigner */\n      tag_48\n        /* \"Contracts/Payment Channel.sol\":1781:1814  recoverSigner(message, signature) */\n      jump\t// in\n    tag_47:\n        /* \"Contracts/Payment Channel.sol\":1781:1824  recoverSigner(message, signature) == sender */\n      0xffffffffffffffffffffffffffffffffffffffff\n      and\n      eq\n        /* \"Contracts/Payment Channel.sol\":1774:1824  return recoverSigner(message, signature) == sender */\n      swap2\n      pop\n      pop\n        /* \"Contracts/Payment Channel.sol\":1498:1831  function isValidSignature(uint256 amount, bytes memory signature)... */\n      swap3\n      swap2\n      pop\n      pop\n      jump\t// out\n        /* \"Contracts/Payment Channel.sol\":2756:2913  function prefixed(bytes32 hash) internal pure returns (bytes32) {... */\n    tag_46:\n        /* \"Contracts/Payment Channel.sol\":2811:2818  bytes32 */\n      0x00\n        /* \"Contracts/Payment Channel.sol\":2900:2904  hash */\n      dup2\n        /* \"Contracts/Payment Channel.sol\":2847:2905  abi.encodePacked(\"\\x19Ethereum Signed Message:\\n32\", hash) */\n      add(0x20, mload(0x40))\n      tag_50\n      swap2\n      swap1\n      tag_51\n      jump\t// in\n    tag_50:\n      mload(0x40)\n      0x20\n      dup2\n      dup4\n      sub\n      sub\n      dup2\n      mstore\n      swap1\n      0x40\n      mstore\n        /* \"Contracts/Payment Channel.sol\":2837:2906  keccak256(abi.encodePacked(\"\\x19Ethereum Signed Message:\\n32\", hash)) */\n      dup1\n      mload\n      swap1\n      0x20\n      add\n      keccak256\n        /* \"Contracts/Payment Channel.sol\":2830:2906  return keccak256(abi.encodePacked(\"\\x19Ethereum Signed Message:\\n32\", hash)) */\n      swap1\n      pop\n        /* \"Contracts/Payment Channel.sol\":2756:2913  function prefixed(bytes32 hash) internal pure returns (bytes32) {... */\n      swap2\n      swap1\n      pop\n      jump\t// out\n        /* \"Contracts/Payment Channel.sol\":2451:2684  function recoverSigner(bytes32 message, bytes memory sig)... */\n    tag_48:\n        /* \"Contracts/Payment Channel.sol\":2556:2563  address */\n      0x00\n        /* \"Contracts/Payment Channel.sol\":2580:2587  uint8 v */\n      0x00\n        /* \"Contracts/Payment Channel.sol\":2589:2598  bytes32 r */\n      0x00\n        /* \"Contracts/Payment Channel.sol\":2600:2609  bytes32 s */\n      0x00\n        /* \"Contracts/Payment Channel.sol\":2613:2632  splitSignature(sig) */\n      tag_53\n        /* \"Contracts/Payment Channel.sol\":2628:2631  sig */\n      dup6\n        /* \"Contracts/Payment Channel.sol\":2613:2627  splitSignature */\n      tag_54\n        /* \"Contracts/Payment Channel.sol\":2613:2632  splitSignature(sig) */\n      jump\t// in\n    tag_53:\n        /* \"Contracts/Payment Channel.sol\":2579:2632  (uint8 v, bytes32 r, bytes32 s) = splitSignature(sig) */\n      swap3\n      pop\n      swap3\n      pop\n      swap3\n      pop\n        /* \"Contracts/Payment Channel.sol\":2650:2677  ecrecover(message, v, r, s) */\n      0x01\n        /* \"Contracts/Payment Channel.sol\":2660:2667  message */\n      dup7\n        /* \"Contracts/Payment Channel.sol\":2669:2670  v */\n      dup5\n        /* \"Contracts/Payment Channel.sol\":2672:2673  r */\n      dup5\n        /* \"Contracts/Payment Channel.sol\":2675:2676  s */\n      dup5\n        /* \"Contracts/Payment Channel.sol\":2650:2677  ecrecover(message, v, r, s) */\n      mload(0x40)\n      0x00\n      dup2\n      mstore\n      0x20\n      add\n      0x40\n      mstore\n      mload(0x40)\n      tag_55\n      swap5\n      swap4\n      swap3\n      swap2\n      swap1\n      tag_56\n      jump\t// in\n    tag_55:\n      0x20\n      mload(0x40)\n      0x20\n      dup2\n      sub\n      swap1\n      dup1\n      dup5\n      sub\n      swap1\n      dup6\n      gas\n      staticcall\n      iszero\n      dup1\n      iszero\n      tag_58\n      jumpi\n      returndatacopy(0x00, 0x00, returndatasize)\n      revert(0x00, returndatasize)\n    tag_58:\n      pop\n      pop\n      pop\n      mload(sub(mload(0x40), 0x20))\n        /* \"Contracts/Payment Channel.sol\":2643:2677  return ecrecover(message, v, r, s) */\n      swap4\n      pop\n      pop\n      pop\n      pop\n        /* \"Contracts/Payment Channel.sol\":2451:2684  function recoverSigner(bytes32 message, bytes memory sig)... */\n      swap3\n      swap2\n      pop\n      pop\n      jump\t// out\n        /* \"Contracts/Payment Channel.sol\":1956:2445  function splitSignature(bytes memory sig)... */\n    tag_54:\n        /* \"Contracts/Payment Channel.sol\":2045:2052  uint8 v */\n      0x00\n        /* \"Contracts/Payment Channel.sol\":2054:2063  bytes32 r */\n      0x00\n        /* \"Contracts/Payment Channel.sol\":2065:2074  bytes32 s */\n      0x00\n        /* \"Contracts/Payment Channel.sol\":2112:2114  65 */\n      0x41\n        /* \"Contracts/Payment Channel.sol\":2098:2101  sig */\n      dup5\n        /* \"Contracts/Payment Channel.sol\":2098:2108  sig.length */\n      mload\n        /* \"Contracts/Payment Channel.sol\":2098:2114  sig.length == 65 */\n      eq\n        /* \"Contracts/Payment Channel.sol\":2090:2115  require(sig.length == 65) */\n      tag_60\n      jumpi\n      revert(0x00, 0x00)\n    tag_60:\n        /* \"Contracts/Payment Channel.sol\":2224:2226  32 */\n      0x20\n        /* \"Contracts/Payment Channel.sol\":2219:2222  sig */\n      dup5\n        /* \"Contracts/Payment Channel.sol\":2215:2227  add(sig, 32) */\n      add\n        /* \"Contracts/Payment Channel.sol\":2209:2228  mload(add(sig, 32)) */\n      mload\n        /* \"Contracts/Payment Channel.sol\":2204:2228  r := mload(add(sig, 32)) */\n      swap2\n      pop\n        /* \"Contracts/Payment Channel.sol\":2292:2294  64 */\n      0x40\n        /* \"Contracts/Payment Channel.sol\":2287:2290  sig */\n      dup5\n        /* \"Contracts/Payment Channel.sol\":2283:2295  add(sig, 64) */\n      add\n        /* \"Contracts/Payment Channel.sol\":2277:2296  mload(add(sig, 64)) */\n      mload\n        /* \"Contracts/Payment Channel.sol\":2272:2296  s := mload(add(sig, 64)) */\n      swap1\n      pop\n        /* \"Contracts/Payment Channel.sol\":2397:2399  96 */\n      0x60\n        /* \"Contracts/Payment Channel.sol\":2392:2395  sig */\n      dup5\n        /* \"Contracts/Payment Channel.sol\":2388:2400  add(sig, 96) */\n      add\n        /* \"Contracts/Payment Channel.sol\":2382:2401  mload(add(sig, 96)) */\n      mload\n        /* \"Contracts/Payment Channel.sol\":2379:2380  0 */\n      0x00\n        /* \"Contracts/Payment Channel.sol\":2374:2402  byte(0, mload(add(sig, 96))) */\n      byte\n        /* \"Contracts/Payment Channel.sol\":2369:2402  v := byte(0, mload(add(sig, 96))) */\n      swap3\n      pop\n        /* \"Contracts/Payment Channel.sol\":1956:2445  function splitSignature(bytes memory sig)... */\n      swap2\n      swap4\n      swap1\n      swap3\n      pop\n      jump\t// out\n        /* \"#utility.yul\":7:82   */\n    tag_61:\n        /* \"#utility.yul\":40:46   */\n      0x00\n        /* \"#utility.yul\":73:75   */\n      0x40\n        /* \"#utility.yul\":67:76   */\n      mload\n        /* \"#utility.yul\":57:76   */\n      swap1\n      pop\n        /* \"#utility.yul\":7:82   */\n      swap1\n      jump\t// out\n        /* \"#utility.yul\":88:205   */\n    tag_62:\n        /* \"#utility.yul\":197:198   */\n      0x00\n        /* \"#utility.yul\":194:195   */\n      0x00\n        /* \"#utility.yul\":187:199   */\n      revert\n        /* \"#utility.yul\":211:328   */\n    tag_63:\n        /* \"#utility.yul\":320:321   */\n      0x00\n        /* \"#utility.yul\":317:318   */\n      0x00\n        /* \"#utility.yul\":310:322   */\n      revert\n        /* \"#utility.yul\":334:411   */\n    tag_64:\n        /* \"#utility.yul\":371:378   */\n      0x00\n        /* \"#utility.yul\":400:405   */\n      dup2\n        /* \"#utility.yul\":389:405   */\n      swap1\n      pop\n        /* \"#utility.yul\":334:411   */\n      swap2\n      swap1\n      pop\n      jump\t// out\n        /* \"#utility.yul\":417:539   */\n    tag_65:\n        /* \"#utility.yul\":490:514   */\n      tag_106\n        /* \"#utility.yul\":508:513   */\n      dup2\n        /* \"#utility.yul\":490:514   */\n      tag_64\n      jump\t// in\n    tag_106:\n        /* \"#utility.yul\":483:488   */\n      dup2\n        /* \"#utility.yul\":480:515   */\n      eq\n        /* \"#utility.yul\":470:533   */\n      tag_107\n      jumpi\n        /* \"#utility.yul\":529:530   */\n      0x00\n        /* \"#utility.yul\":526:527   */\n      0x00\n        /* \"#utility.yul\":519:531   */\n      revert\n        /* \"#utility.yul\":470:533   */\n    tag_107:\n        /* \"#utility.yul\":417:539   */\n      pop\n      jump\t// out\n        /* \"#utility.yul\":545:684   */\n    tag_66:\n        /* \"#utility.yul\":591:596   */\n      0x00\n        /* \"#utility.yul\":629:635   */\n      dup2\n        /* \"#utility.yul\":616:636   */\n      calldataload\n        /* \"#utility.yul\":607:636   */\n      swap1\n      pop\n        /* \"#utility.yul\":645:678   */\n      tag_109\n        /* \"#utility.yul\":672:677   */\n      dup2\n        /* \"#utility.yul\":645:678   */\n      tag_65\n      jump\t// in\n    tag_109:\n        /* \"#utility.yul\":545:684   */\n      swap3\n      swap2\n      pop\n      pop\n      jump\t// out\n        /* \"#utility.yul\":690:807   */\n    tag_67:\n        /* \"#utility.yul\":799:800   */\n      0x00\n        /* \"#utility.yul\":796:797   */\n      0x00\n        /* \"#utility.yul\":789:801   */\n      revert\n        /* \"#utility.yul\":813:930   */\n    tag_68:\n        /* \"#utility.yul\":922:923   */\n      0x00\n        /* \"#utility.yul\":919:920   */\n      0x00\n        /* \"#utility.yul\":912:924   */\n      revert\n        /* \"#utility.yul\":936:1038   */\n    tag_69:\n        /* \"#utility.yul\":977:983   */\n      0x00\n        /* \"#utility.yul\":1028:1030   */\n      0x1f\n        /* \"#utility.yul\":1024:1031   */\n      not\n        /* \"#utility.yul\":1019:1021   */\n      0x1f\n        /* \"#utility.yul\":1012:1017   */\n      dup4\n        /* \"#utility.yul\":1008:1022   */\n      add\n        /* \"#utility.yul\":1004:1032   */\n      and\n        /* \"#utility.yul\":994:1032   */\n      swap1\n      pop\n        /* \"#utility.yul\":936:1038   */\n      swap2\n      swap1\n      pop\n      jump\t// out\n        /* \"#utility.yul\":1044:1224   */\n    tag_70:\n        /* \"#utility.yul\":1092:1169   */\n      0x4e487b7100000000000000000000000000000000000000000000000000000000\n        /* \"#utility.yul\":1089:1090   */\n      0x00\n        /* \"#utility.yul\":1082:1170   */\n      mstore\n        /* \"#utility.yul\":1189:1193   */\n      0x41\n        /* \"#utility.yul\":1186:1187   */\n      0x04\n        /* \"#utility.yul\":1179:1194   */\n      mstore\n        /* \"#utility.yul\":1213:1217   */\n      0x24\n        /* \"#utility.yul\":1210:1211   */\n      0x00\n        /* \"#utility.yul\":1203:1218   */\n      revert\n        /* \"#utility.yul\":1230:1511   */\n    tag_71:\n        /* \"#utility.yul\":1313:1340   */\n      tag_115\n        /* \"#utility.yul\":1335:1339   */\n      dup3\n        /* \"#utility.yul\":1313:1340   */\n      tag_69\n      jump\t// in\n    tag_115:\n        /* \"#utility.yul\":1305:1311   */\n      dup2\n        /* \"#utility.yul\":1301:1341   */\n      add\n        /* \"#utility.yul\":1443:1449   */\n      dup2\n        /* \"#utility.yul\":1431:1441   */\n      dup2\n        /* \"#utility.yul\":1428:1450   */\n      lt\n        /* \"#utility.yul\":1407:1425   */\n      0xffffffffffffffff\n        /* \"#utility.yul\":1395:1405   */\n      dup3\n        /* \"#utility.yul\":1392:1426   */\n      gt\n        /* \"#utility.yul\":1389:1451   */\n      or\n        /* \"#utility.yul\":1386:1474   */\n      iszero\n      tag_116\n      jumpi\n        /* \"#utility.yul\":1454:1472   */\n      tag_117\n      tag_70\n      jump\t// in\n    tag_117:\n        /* \"#utility.yul\":1386:1474   */\n    tag_116:\n        /* \"#utility.yul\":1494:1504   */\n      dup1\n        /* \"#utility.yul\":1490:1492   */\n      0x40\n        /* \"#utility.yul\":1483:1505   */\n      mstore\n        /* \"#utility.yul\":1273:1511   */\n      pop\n        /* \"#utility.yul\":1230:1511   */\n      pop\n      pop\n      jump\t// out\n        /* \"#utility.yul\":1517:1646   */\n    tag_72:\n        /* \"#utility.yul\":1551:1557   */\n      0x00\n        /* \"#utility.yul\":1578:1598   */\n      tag_119\n      tag_61\n      jump\t// in\n    tag_119:\n        /* \"#utility.yul\":1568:1598   */\n      swap1\n      pop\n        /* \"#utility.yul\":1607:1640   */\n      tag_120\n        /* \"#utility.yul\":1635:1639   */\n      dup3\n        /* \"#utility.yul\":1627:1633   */\n      dup3\n        /* \"#utility.yul\":1607:1640   */\n      tag_71\n      jump\t// in\n    tag_120:\n        /* \"#utility.yul\":1517:1646   */\n      swap2\n      swap1\n      pop\n      jump\t// out\n        /* \"#utility.yul\":1652:1959   */\n    tag_73:\n        /* \"#utility.yul\":1713:1717   */\n      0x00\n        /* \"#utility.yul\":1803:1821   */\n      0xffffffffffffffff\n        /* \"#utility.yul\":1795:1801   */\n      dup3\n        /* \"#utility.yul\":1792:1822   */\n      gt\n        /* \"#utility.yul\":1789:1845   */\n      iszero\n      tag_122\n      jumpi\n        /* \"#utility.yul\":1825:1843   */\n      tag_123\n      tag_70\n      jump\t// in\n    tag_123:\n        /* \"#utility.yul\":1789:1845   */\n    tag_122:\n        /* \"#utility.yul\":1863:1892   */\n      tag_124\n        /* \"#utility.yul\":1885:1891   */\n      dup3\n        /* \"#utility.yul\":1863:1892   */\n      tag_69\n      jump\t// in\n    tag_124:\n        /* \"#utility.yul\":1855:1892   */\n      swap1\n      pop\n        /* \"#utility.yul\":1947:1951   */\n      0x20\n        /* \"#utility.yul\":1941:1945   */\n      dup2\n        /* \"#utility.yul\":1937:1952   */\n      add\n        /* \"#utility.yul\":1929:1952   */\n      swap1\n      pop\n        /* \"#utility.yul\":1652:1959   */\n      swap2\n      swap1\n      pop\n      jump\t// out\n        /* \"#utility.yul\":1965:2113   */\n    tag_74:\n        /* \"#utility.yul\":2063:2069   */\n      dup3\n        /* \"#utility.yul\":2058:2061   */\n      dup2\n        /* \"#utility.yul\":2053:2056   */\n      dup4\n        /* \"#utility.yul\":2040:2070   */\n      calldatacopy\n        /* \"#utility.yul\":2104:2105   */\n      0x00\n        /* \"#utility.yul\":2095:2101   */\n      dup4\n        /* \"#utility.yul\":2090:2093   */\n      dup4\n        /* \"#utility.yul\":2086:2102   */\n      add\n        /* \"#utility.yul\":2079:2106   */\n      mstore\n        /* \"#utility.yul\":1965:2113   */\n      pop\n      pop\n      pop\n      jump\t// out\n        /* \"#utility.yul\":2119:2542   */\n    tag_75:\n        /* \"#utility.yul\":2196:2201   */\n      0x00\n        /* \"#utility.yul\":2221:2286   */\n      tag_127\n        /* \"#utility.yul\":2237:2285   */\n      tag_128\n        /* \"#utility.yul\":2278:2284   */\n      dup5\n        /* \"#utility.yul\":2237:2285   */\n      tag_73\n      jump\t// in\n    tag_128:\n        /* \"#utility.yul\":2221:2286   */\n      tag_72\n      jump\t// in\n    tag_127:\n        /* \"#utility.yul\":2212:2286   */\n      swap1\n      pop\n        /* \"#utility.yul\":2309:2315   */\n      dup3\n        /* \"#utility.yul\":2302:2307   */\n      dup2\n        /* \"#utility.yul\":2295:2316   */\n      mstore\n        /* \"#utility.yul\":2347:2351   */\n      0x20\n        /* \"#utility.yul\":2340:2345   */\n      dup2\n        /* \"#utility.yul\":2336:2352   */\n      add\n        /* \"#utility.yul\":2385:2388   */\n      dup5\n        /* \"#utility.yul\":2376:2382   */\n      dup5\n        /* \"#utility.yul\":2371:2374   */\n      dup5\n        /* \"#utility.yul\":2367:2383   */\n      add\n        /* \"#utility.yul\":2364:2389   */\n      gt\n        /* \"#utility.yul\":2361:2473   */\n      iszero\n      tag_129\n      jumpi\n        /* \"#utility.yul\":2392:2471   */\n      tag_130\n      tag_68\n      jump\t// in\n    tag_130:\n        /* \"#utility.yul\":2361:2473   */\n    tag_129:\n        /* \"#utility.yul\":2482:2536   */\n      tag_131\n        /* \"#utility.yul\":2529:2535   */\n      dup5\n        /* \"#utility.yul\":2524:2527   */\n      dup3\n        /* \"#utility.yul\":2519:2522   */\n      dup6\n        /* \"#utility.yul\":2482:2536   */\n      tag_74\n      jump\t// in\n    tag_131:\n        /* \"#utility.yul\":2202:2542   */\n      pop\n        /* \"#utility.yul\":2119:2542   */\n      swap4\n      swap3\n      pop\n      pop\n      pop\n      jump\t// out\n        /* \"#utility.yul\":2561:2899   */\n    tag_76:\n        /* \"#utility.yul\":2616:2621   */\n      0x00\n        /* \"#utility.yul\":2665:2668   */\n      dup3\n        /* \"#utility.yul\":2658:2662   */\n      0x1f\n        /* \"#utility.yul\":2650:2656   */\n      dup4\n        /* \"#utility.yul\":2646:2663   */\n      add\n        /* \"#utility.yul\":2642:2669   */\n      slt\n        /* \"#utility.yul\":2632:2754   */\n      tag_133\n      jumpi\n        /* \"#utility.yul\":2673:2752   */\n      tag_134\n      tag_67\n      jump\t// in\n    tag_134:\n        /* \"#utility.yul\":2632:2754   */\n    tag_133:\n        /* \"#utility.yul\":2790:2796   */\n      dup2\n        /* \"#utility.yul\":2777:2797   */\n      calldataload\n        /* \"#utility.yul\":2815:2893   */\n      tag_135\n        /* \"#utility.yul\":2889:2892   */\n      dup5\n        /* \"#utility.yul\":2881:2887   */\n      dup3\n        /* \"#utility.yul\":2874:2878   */\n      0x20\n        /* \"#utility.yul\":2866:2872   */\n      dup7\n        /* \"#utility.yul\":2862:2879   */\n      add\n        /* \"#utility.yul\":2815:2893   */\n      tag_75\n      jump\t// in\n    tag_135:\n        /* \"#utility.yul\":2806:2893   */\n      swap2\n      pop\n        /* \"#utility.yul\":2622:2899   */\n      pop\n        /* \"#utility.yul\":2561:2899   */\n      swap3\n      swap2\n      pop\n      pop\n      jump\t// out\n        /* \"#utility.yul\":2905:3557   */\n    tag_13:\n        /* \"#utility.yul\":2982:2988   */\n      0x00\n        /* \"#utility.yul\":2990:2996   */\n      0x00\n        /* \"#utility.yul\":3039:3041   */\n      0x40\n        /* \"#utility.yul\":3027:3036   */\n      dup4\n        /* \"#utility.yul\":3018:3025   */\n      dup6\n        /* \"#utility.yul\":3014:3037   */\n      sub\n        /* \"#utility.yul\":3010:3042   */\n      slt\n        /* \"#utility.yul\":3007:3126   */\n      iszero\n      tag_137\n      jumpi\n        /* \"#utility.yul\":3045:3124   */\n      tag_138\n      tag_62\n      jump\t// in\n    tag_138:\n        /* \"#utility.yul\":3007:3126   */\n    tag_137:\n        /* \"#utility.yul\":3165:3166   */\n      0x00\n        /* \"#utility.yul\":3190:3243   */\n      tag_139\n        /* \"#utility.yul\":3235:3242   */\n      dup6\n        /* \"#utility.yul\":3226:3232   */\n      dup3\n        /* \"#utility.yul\":3215:3224   */\n      dup7\n        /* \"#utility.yul\":3211:3233   */\n      add\n        /* \"#utility.yul\":3190:3243   */\n      tag_66\n      jump\t// in\n    tag_139:\n        /* \"#utility.yul\":3180:3243   */\n      swap3\n      pop\n        /* \"#utility.yul\":3136:3253   */\n      pop\n        /* \"#utility.yul\":3320:3322   */\n      0x20\n        /* \"#utility.yul\":3309:3318   */\n      dup4\n        /* \"#utility.yul\":3305:3323   */\n      add\n        /* \"#utility.yul\":3292:3324   */\n      calldataload\n        /* \"#utility.yul\":3351:3369   */\n      0xffffffffffffffff\n        /* \"#utility.yul\":3343:3349   */\n      dup2\n        /* \"#utility.yul\":3340:3370   */\n      gt\n        /* \"#utility.yul\":3337:3454   */\n      iszero\n      tag_140\n      jumpi\n        /* \"#utility.yul\":3373:3452   */\n      tag_141\n      tag_63\n      jump\t// in\n    tag_141:\n        /* \"#utility.yul\":3337:3454   */\n    tag_140:\n        /* \"#utility.yul\":3478:3540   */\n      tag_142\n        /* \"#utility.yul\":3532:3539   */\n      dup6\n        /* \"#utility.yul\":3523:3529   */\n      dup3\n        /* \"#utility.yul\":3512:3521   */\n      dup7\n        /* \"#utility.yul\":3508:3530   */\n      add\n        /* \"#utility.yul\":3478:3540   */\n      tag_76\n      jump\t// in\n    tag_142:\n        /* \"#utility.yul\":3468:3540   */\n      swap2\n      pop\n        /* \"#utility.yul\":3263:3550   */\n      pop\n        /* \"#utility.yul\":2905:3557   */\n      swap3\n      pop\n      swap3\n      swap1\n      pop\n      jump\t// out\n        /* \"#utility.yul\":3563:3681   */\n    tag_77:\n        /* \"#utility.yul\":3650:3674   */\n      tag_144\n        /* \"#utility.yul\":3668:3673   */\n      dup2\n        /* \"#utility.yul\":3650:3674   */\n      tag_64\n      jump\t// in\n    tag_144:\n        /* \"#utility.yul\":3645:3648   */\n      dup3\n        /* \"#utility.yul\":3638:3675   */\n      mstore\n        /* \"#utility.yul\":3563:3681   */\n      pop\n      pop\n      jump\t// out\n        /* \"#utility.yul\":3687:3909   */\n    tag_18:\n        /* \"#utility.yul\":3780:3784   */\n      0x00\n        /* \"#utility.yul\":3818:3820   */\n      0x20\n        /* \"#utility.yul\":3807:3816   */\n      dup3\n        /* \"#utility.yul\":3803:3821   */\n      add\n        /* \"#utility.yul\":3795:3821   */\n      swap1\n      pop\n        /* \"#utility.yul\":3831:3902   */\n      tag_146\n        /* \"#utility.yul\":3899:3900   */\n      0x00\n        /* \"#utility.yul\":3888:3897   */\n      dup4\n        /* \"#utility.yul\":3884:3901   */\n      add\n        /* \"#utility.yul\":3875:3881   */\n      dup5\n        /* \"#utility.yul\":3831:3902   */\n      tag_77\n      jump\t// in\n    tag_146:\n        /* \"#utility.yul\":3687:3909   */\n      swap3\n      swap2\n      pop\n      pop\n      jump\t// out\n        /* \"#utility.yul\":3915:4041   */\n    tag_78:\n        /* \"#utility.yul\":3952:3959   */\n      0x00\n        /* \"#utility.yul\":3992:4034   */\n      0xffffffffffffffffffffffffffffffffffffffff\n        /* \"#utility.yul\":3985:3990   */\n      dup3\n        /* \"#utility.yul\":3981:4035   */\n      and\n        /* \"#utility.yul\":3970:4035   */\n      swap1\n      pop\n        /* \"#utility.yul\":3915:4041   */\n      swap2\n      swap1\n      pop\n      jump\t// out\n        /* \"#utility.yul\":4047:4151   */\n    tag_79:\n        /* \"#utility.yul\":4092:4099   */\n      0x00\n        /* \"#utility.yul\":4121:4145   */\n      tag_149\n        /* \"#utility.yul\":4139:4144   */\n      dup3\n        /* \"#utility.yul\":4121:4145   */\n      tag_78\n      jump\t// in\n    tag_149:\n        /* \"#utility.yul\":4110:4145   */\n      swap1\n      pop\n        /* \"#utility.yul\":4047:4151   */\n      swap2\n      swap1\n      pop\n      jump\t// out\n        /* \"#utility.yul\":4157:4299   */\n    tag_80:\n        /* \"#utility.yul\":4260:4292   */\n      tag_151\n        /* \"#utility.yul\":4286:4291   */\n      dup2\n        /* \"#utility.yul\":4260:4292   */\n      tag_79\n      jump\t// in\n    tag_151:\n        /* \"#utility.yul\":4255:4258   */\n      dup3\n        /* \"#utility.yul\":4248:4293   */\n      mstore\n        /* \"#utility.yul\":4157:4299   */\n      pop\n      pop\n      jump\t// out\n        /* \"#utility.yul\":4305:4559   */\n    tag_22:\n        /* \"#utility.yul\":4414:4418   */\n      0x00\n        /* \"#utility.yul\":4452:4454   */\n      0x20\n        /* \"#utility.yul\":4441:4450   */\n      dup3\n        /* \"#utility.yul\":4437:4455   */\n      add\n        /* \"#utility.yul\":4429:4455   */\n      swap1\n      pop\n        /* \"#utility.yul\":4465:4552   */\n      tag_153\n        /* \"#utility.yul\":4549:4550   */\n      0x00\n        /* \"#utility.yul\":4538:4547   */\n      dup4\n        /* \"#utility.yul\":4534:4551   */\n      add\n        /* \"#utility.yul\":4525:4531   */\n      dup5\n        /* \"#utility.yul\":4465:4552   */\n      tag_80\n      jump\t// in\n    tag_153:\n        /* \"#utility.yul\":4305:4559   */\n      swap3\n      swap2\n      pop\n      pop\n      jump\t// out\n        /* \"#utility.yul\":4565:4894   */\n    tag_28:\n        /* \"#utility.yul\":4624:4630   */\n      0x00\n        /* \"#utility.yul\":4673:4675   */\n      0x20\n        /* \"#utility.yul\":4661:4670   */\n      dup3\n        /* \"#utility.yul\":4652:4659   */\n      dup5\n        /* \"#utility.yul\":4648:4671   */\n      sub\n        /* \"#utility.yul\":4644:4676   */\n      slt\n        /* \"#utility.yul\":4641:4760   */\n      iszero\n      tag_155\n      jumpi\n        /* \"#utility.yul\":4679:4758   */\n      tag_156\n      tag_62\n      jump\t// in\n    tag_156:\n        /* \"#utility.yul\":4641:4760   */\n    tag_155:\n        /* \"#utility.yul\":4799:4800   */\n      0x00\n        /* \"#utility.yul\":4824:4877   */\n      tag_157\n        /* \"#utility.yul\":4869:4876   */\n      dup5\n        /* \"#utility.yul\":4860:4866   */\n      dup3\n        /* \"#utility.yul\":4849:4858   */\n      dup6\n        /* \"#utility.yul\":4845:4867   */\n      add\n        /* \"#utility.yul\":4824:4877   */\n      tag_66\n      jump\t// in\n    tag_157:\n        /* \"#utility.yul\":4814:4877   */\n      swap2\n      pop\n        /* \"#utility.yul\":4770:4887   */\n      pop\n        /* \"#utility.yul\":4565:4894   */\n      swap3\n      swap2\n      pop\n      pop\n      jump\t// out\n        /* \"#utility.yul\":4900:4960   */\n    tag_81:\n        /* \"#utility.yul\":4928:4931   */\n      0x00\n        /* \"#utility.yul\":4949:4954   */\n      dup2\n        /* \"#utility.yul\":4942:4954   */\n      swap1\n      pop\n        /* \"#utility.yul\":4900:4960   */\n      swap2\n      swap1\n      pop\n      jump\t// out\n        /* \"#utility.yul\":4966:5108   */\n    tag_82:\n        /* \"#utility.yul\":5016:5025   */\n      0x00\n        /* \"#utility.yul\":5049:5102   */\n      tag_160\n        /* \"#utility.yul\":5067:5101   */\n      tag_161\n        /* \"#utility.yul\":5076:5100   */\n      tag_162\n        /* \"#utility.yul\":5094:5099   */\n      dup5\n        /* \"#utility.yul\":5076:5100   */\n      tag_78\n      jump\t// in\n    tag_162:\n        /* \"#utility.yul\":5067:5101   */\n      tag_81\n      jump\t// in\n    tag_161:\n        /* \"#utility.yul\":5049:5102   */\n      tag_78\n      jump\t// in\n    tag_160:\n        /* \"#utility.yul\":5036:5102   */\n      swap1\n      pop\n        /* \"#utility.yul\":4966:5108   */\n      swap2\n      swap1\n      pop\n      jump\t// out\n        /* \"#utility.yul\":5114:5240   */\n    tag_83:\n        /* \"#utility.yul\":5164:5173   */\n      0x00\n        /* \"#utility.yul\":5197:5234   */\n      tag_164\n        /* \"#utility.yul\":5228:5233   */\n      dup3\n        /* \"#utility.yul\":5197:5234   */\n      tag_82\n      jump\t// in\n    tag_164:\n        /* \"#utility.yul\":5184:5234   */\n      swap1\n      pop\n        /* \"#utility.yul\":5114:5240   */\n      swap2\n      swap1\n      pop\n      jump\t// out\n        /* \"#utility.yul\":5246:5400   */\n    tag_84:\n        /* \"#utility.yul\":5324:5333   */\n      0x00\n        /* \"#utility.yul\":5357:5394   */\n      tag_166\n        /* \"#utility.yul\":5388:5393   */\n      dup3\n        /* \"#utility.yul\":5357:5394   */\n      tag_83\n      jump\t// in\n    tag_166:\n        /* \"#utility.yul\":5344:5394   */\n      swap1\n      pop\n        /* \"#utility.yul\":5246:5400   */\n      swap2\n      swap1\n      pop\n      jump\t// out\n        /* \"#utility.yul\":5406:5500   */\n    tag_85:\n        /* \"#utility.yul\":5439:5447   */\n      0x00\n        /* \"#utility.yul\":5487:5492   */\n      dup2\n        /* \"#utility.yul\":5483:5485   */\n      0x60\n        /* \"#utility.yul\":5479:5493   */\n      shl\n        /* \"#utility.yul\":5458:5493   */\n      swap1\n      pop\n        /* \"#utility.yul\":5406:5500   */\n      swap2\n      swap1\n      pop\n      jump\t// out\n        /* \"#utility.yul\":5506:5600   */\n    tag_86:\n        /* \"#utility.yul\":5545:5552   */\n      0x00\n        /* \"#utility.yul\":5574:5594   */\n      tag_169\n        /* \"#utility.yul\":5588:5593   */\n      dup3\n        /* \"#utility.yul\":5574:5594   */\n      tag_85\n      jump\t// in\n    tag_169:\n        /* \"#utility.yul\":5563:5594   */\n      swap1\n      pop\n        /* \"#utility.yul\":5506:5600   */\n      swap2\n      swap1\n      pop\n      jump\t// out\n        /* \"#utility.yul\":5606:5706   */\n    tag_87:\n        /* \"#utility.yul\":5645:5652   */\n      0x00\n        /* \"#utility.yul\":5674:5700   */\n      tag_171\n        /* \"#utility.yul\":5694:5699   */\n      dup3\n        /* \"#utility.yul\":5674:5700   */\n      tag_86\n      jump\t// in\n    tag_171:\n        /* \"#utility.yul\":5663:5700   */\n      swap1\n      pop\n        /* \"#utility.yul\":5606:5706   */\n      swap2\n      swap1\n      pop\n      jump\t// out\n        /* \"#utility.yul\":5712:5938   */\n    tag_88:\n        /* \"#utility.yul\":5845:5931   */\n      tag_173\n        /* \"#utility.yul\":5865:5930   */\n      tag_174\n        /* \"#utility.yul\":5924:5929   */\n      dup3\n        /* \"#utility.yul\":5865:5930   */\n      tag_84\n      jump\t// in\n    tag_174:\n        /* \"#utility.yul\":5845:5931   */\n      tag_87\n      jump\t// in\n    tag_173:\n        /* \"#utility.yul\":5840:5843   */\n      dup3\n        /* \"#utility.yul\":5833:5932   */\n      mstore\n        /* \"#utility.yul\":5712:5938   */\n      pop\n      pop\n      jump\t// out\n        /* \"#utility.yul\":5944:6023   */\n    tag_89:\n        /* \"#utility.yul\":5983:5990   */\n      0x00\n        /* \"#utility.yul\":6012:6017   */\n      dup2\n        /* \"#utility.yul\":6001:6017   */\n      swap1\n      pop\n        /* \"#utility.yul\":5944:6023   */\n      swap2\n      swap1\n      pop\n      jump\t// out\n        /* \"#utility.yul\":6029:6186   */\n    tag_90:\n        /* \"#utility.yul\":6134:6179   */\n      tag_177\n        /* \"#utility.yul\":6154:6178   */\n      tag_178\n        /* \"#utility.yul\":6172:6177   */\n      dup3\n        /* \"#utility.yul\":6154:6178   */\n      tag_64\n      jump\t// in\n    tag_178:\n        /* \"#utility.yul\":6134:6179   */\n      tag_89\n      jump\t// in\n    tag_177:\n        /* \"#utility.yul\":6129:6132   */\n      dup3\n        /* \"#utility.yul\":6122:6180   */\n      mstore\n        /* \"#utility.yul\":6029:6186   */\n      pop\n      pop\n      jump\t// out\n        /* \"#utility.yul\":6192:6645   */\n    tag_45:\n        /* \"#utility.yul\":6360:6363   */\n      0x00\n        /* \"#utility.yul\":6375:6478   */\n      tag_180\n        /* \"#utility.yul\":6474:6477   */\n      dup3\n        /* \"#utility.yul\":6465:6471   */\n      dup6\n        /* \"#utility.yul\":6375:6478   */\n      tag_88\n      jump\t// in\n    tag_180:\n        /* \"#utility.yul\":6503:6505   */\n      0x14\n        /* \"#utility.yul\":6498:6501   */\n      dup3\n        /* \"#utility.yul\":6494:6506   */\n      add\n        /* \"#utility.yul\":6487:6506   */\n      swap2\n      pop\n        /* \"#utility.yul\":6516:6591   */\n      tag_181\n        /* \"#utility.yul\":6587:6590   */\n      dup3\n        /* \"#utility.yul\":6578:6584   */\n      dup5\n        /* \"#utility.yul\":6516:6591   */\n      tag_90\n      jump\t// in\n    tag_181:\n        /* \"#utility.yul\":6616:6618   */\n      0x20\n        /* \"#utility.yul\":6611:6614   */\n      dup3\n        /* \"#utility.yul\":6607:6619   */\n      add\n        /* \"#utility.yul\":6600:6619   */\n      swap2\n      pop\n        /* \"#utility.yul\":6636:6639   */\n      dup2\n        /* \"#utility.yul\":6629:6639   */\n      swap1\n      pop\n        /* \"#utility.yul\":6192:6645   */\n      swap4\n      swap3\n      pop\n      pop\n      pop\n      jump\t// out\n        /* \"#utility.yul\":6651:6799   */\n    tag_91:\n        /* \"#utility.yul\":6753:6764   */\n      0x00\n        /* \"#utility.yul\":6790:6793   */\n      dup2\n        /* \"#utility.yul\":6775:6793   */\n      swap1\n      pop\n        /* \"#utility.yul\":6651:6799   */\n      swap3\n      swap2\n      pop\n      pop\n      jump\t// out\n        /* \"#utility.yul\":6805:7019   */\n    tag_92:\n        /* \"#utility.yul\":6945:7011   */\n      0x19457468657265756d205369676e6564204d6573736167653a0a333200000000\n        /* \"#utility.yul\":6941:6942   */\n      0x00\n        /* \"#utility.yul\":6933:6939   */\n      dup3\n        /* \"#utility.yul\":6929:6943   */\n      add\n        /* \"#utility.yul\":6922:7012   */\n      mstore\n        /* \"#utility.yul\":6805:7019   */\n      pop\n      jump\t// out\n        /* \"#utility.yul\":7025:7427   */\n    tag_93:\n        /* \"#utility.yul\":7185:7188   */\n      0x00\n        /* \"#utility.yul\":7206:7291   */\n      tag_185\n        /* \"#utility.yul\":7288:7290   */\n      0x1c\n        /* \"#utility.yul\":7283:7286   */\n      dup4\n        /* \"#utility.yul\":7206:7291   */\n      tag_91\n      jump\t// in\n    tag_185:\n        /* \"#utility.yul\":7199:7291   */\n      swap2\n      pop\n        /* \"#utility.yul\":7300:7393   */\n      tag_186\n        /* \"#utility.yul\":7389:7392   */\n      dup3\n        /* \"#utility.yul\":7300:7393   */\n      tag_92\n      jump\t// in\n    tag_186:\n        /* \"#utility.yul\":7418:7420   */\n      0x1c\n        /* \"#utility.yul\":7413:7416   */\n      dup3\n        /* \"#utility.yul\":7409:7421   */\n      add\n        /* \"#utility.yul\":7402:7421   */\n      swap1\n      pop\n        /* \"#utility.yul\":7025:7427   */\n      swap2\n      swap1\n      pop\n      jump\t// out\n        /* \"#utility.yul\":7433:7510   */\n    tag_94:\n        /* \"#utility.yul\":7470:7477   */\n      0x00\n        /* \"#utility.yul\":7499:7504   */\n      dup2\n        /* \"#utility.yul\":7488:7504   */\n      swap1\n      pop\n        /* \"#utility.yul\":7433:7510   */\n      swap2\n      swap1\n      pop\n      jump\t// out\n        /* \"#utility.yul\":7516:7595   */\n    tag_95:\n        /* \"#utility.yul\":7555:7562   */\n      0x00\n        /* \"#utility.yul\":7584:7589   */\n      dup2\n        /* \"#utility.yul\":7573:7589   */\n      swap1\n      pop\n        /* \"#utility.yul\":7516:7595   */\n      swap2\n      swap1\n      pop\n      jump\t// out\n        /* \"#utility.yul\":7601:7758   */\n    tag_96:\n        /* \"#utility.yul\":7706:7751   */\n      tag_190\n        /* \"#utility.yul\":7726:7750   */\n      tag_191\n        /* \"#utility.yul\":7744:7749   */\n      dup3\n        /* \"#utility.yul\":7726:7750   */\n      tag_94\n      jump\t// in\n    tag_191:\n        /* \"#utility.yul\":7706:7751   */\n      tag_95\n      jump\t// in\n    tag_190:\n        /* \"#utility.yul\":7701:7704   */\n      dup3\n        /* \"#utility.yul\":7694:7752   */\n      mstore\n        /* \"#utility.yul\":7601:7758   */\n      pop\n      pop\n      jump\t// out\n        /* \"#utility.yul\":7764:8286   */\n    tag_51:\n        /* \"#utility.yul\":7977:7980   */\n      0x00\n        /* \"#utility.yul\":7999:8147   */\n      tag_193\n        /* \"#utility.yul\":8143:8146   */\n      dup3\n        /* \"#utility.yul\":7999:8147   */\n      tag_93\n      jump\t// in\n    tag_193:\n        /* \"#utility.yul\":7992:8147   */\n      swap2\n      pop\n        /* \"#utility.yul\":8157:8232   */\n      tag_194\n        /* \"#utility.yul\":8228:8231   */\n      dup3\n        /* \"#utility.yul\":8219:8225   */\n      dup5\n        /* \"#utility.yul\":8157:8232   */\n      tag_96\n      jump\t// in\n    tag_194:\n        /* \"#utility.yul\":8257:8259   */\n      0x20\n        /* \"#utility.yul\":8252:8255   */\n      dup3\n        /* \"#utility.yul\":8248:8260   */\n      add\n        /* \"#utility.yul\":8241:8260   */\n      swap2\n      pop\n        /* \"#utility.yul\":8277:8280   */\n      dup2\n        /* \"#utility.yul\":8270:8280   */\n      swap1\n      pop\n        /* \"#utility.yul\":7764:8286   */\n      swap3\n      swap2\n      pop\n      pop\n      jump\t// out\n        /* \"#utility.yul\":8292:8410   */\n    tag_97:\n        /* \"#utility.yul\":8379:8403   */\n      tag_196\n        /* \"#utility.yul\":8397:8402   */\n      dup2\n        /* \"#utility.yul\":8379:8403   */\n      tag_94\n      jump\t// in\n    tag_196:\n        /* \"#utility.yul\":8374:8377   */\n      dup3\n        /* \"#utility.yul\":8367:8404   */\n      mstore\n        /* \"#utility.yul\":8292:8410   */\n      pop\n      pop\n      jump\t// out\n        /* \"#utility.yul\":8416:8502   */\n    tag_98:\n        /* \"#utility.yul\":8451:8458   */\n      0x00\n        /* \"#utility.yul\":8491:8495   */\n      0xff\n        /* \"#utility.yul\":8484:8489   */\n      dup3\n        /* \"#utility.yul\":8480:8496   */\n      and\n        /* \"#utility.yul\":8469:8496   */\n      swap1\n      pop\n        /* \"#utility.yul\":8416:8502   */\n      swap2\n      swap1\n      pop\n      jump\t// out\n        /* \"#utility.yul\":8508:8620   */\n    tag_99:\n        /* \"#utility.yul\":8591:8613   */\n      tag_199\n        /* \"#utility.yul\":8607:8612   */\n      dup2\n        /* \"#utility.yul\":8591:8613   */\n      tag_98\n      jump\t// in\n    tag_199:\n        /* \"#utility.yul\":8586:8589   */\n      dup3\n        /* \"#utility.yul\":8579:8614   */\n      mstore\n        /* \"#utility.yul\":8508:8620   */\n      pop\n      pop\n      jump\t// out\n        /* \"#utility.yul\":8626:9171   */\n    tag_56:\n        /* \"#utility.yul\":8799:8803   */\n      0x00\n        /* \"#utility.yul\":8837:8840   */\n      0x80\n        /* \"#utility.yul\":8826:8835   */\n      dup3\n        /* \"#utility.yul\":8822:8841   */\n      add\n        /* \"#utility.yul\":8814:8841   */\n      swap1\n      pop\n        /* \"#utility.yul\":8851:8922   */\n      tag_201\n        /* \"#utility.yul\":8919:8920   */\n      0x00\n        /* \"#utility.yul\":8908:8917   */\n      dup4\n        /* \"#utility.yul\":8904:8921   */\n      add\n        /* \"#utility.yul\":8895:8901   */\n      dup8\n        /* \"#utility.yul\":8851:8922   */\n      tag_97\n      jump\t// in\n    tag_201:\n        /* \"#utility.yul\":8932:9000   */\n      tag_202\n        /* \"#utility.yul\":8996:8998   */\n      0x20\n        /* \"#utility.yul\":8985:8994   */\n      dup4\n        /* \"#utility.yul\":8981:8999   */\n      add\n        /* \"#utility.yul\":8972:8978   */\n      dup7\n        /* \"#utility.yul\":8932:9000   */\n      tag_99\n      jump\t// in\n    tag_202:\n        /* \"#utility.yul\":9010:9082   */\n      tag_203\n        /* \"#utility.yul\":9078:9080   */\n      0x40\n        /* \"#utility.yul\":9067:9076   */\n      dup4\n        /* \"#utility.yul\":9063:9081   */\n      add\n        /* \"#utility.yul\":9054:9060   */\n      dup6\n        /* \"#utility.yul\":9010:9082   */\n      tag_97\n      jump\t// in\n    tag_203:\n        /* \"#utility.yul\":9092:9164   */\n      tag_204\n        /* \"#utility.yul\":9160:9162   */\n      0x60\n        /* \"#utility.yul\":9149:9158   */\n      dup4\n        /* \"#utility.yul\":9145:9163   */\n      add\n        /* \"#utility.yul\":9136:9142   */\n      dup5\n        /* \"#utility.yul\":9092:9164   */\n      tag_97\n      jump\t// in\n    tag_204:\n        /* \"#utility.yul\":8626:9171   */\n      swap6\n      swap5\n      pop\n      pop\n      pop\n      pop\n      pop\n      jump\t// out\n\n    auxdata: 0xa26469706673582212202a50871edc32da48f852cecb7be2199a66389d264ade54b7c45bc438d94d5e8b64736f6c634300081c0033\n}\n",
				"bytecode": {
					"linkReferences": {},
					"object": "6080604052604051610b08380380610b088339818101604052810190610025919061014e565b335f5f6101000a81548173ffffffffffffffffffffffffffffffffffffffff021916908373ffffffffffffffffffffffffffffffffffffffff1602179055508160015f6101000a81548173ffffffffffffffffffffffffffffffffffffffff021916908373ffffffffffffffffffffffffffffffffffffffff16021790555080426100b091906101b9565b60028190555050506101ec565b5f5ffd5b5f73ffffffffffffffffffffffffffffffffffffffff82169050919050565b5f6100ea826100c1565b9050919050565b6100fa816100e0565b8114610104575f5ffd5b50565b5f81519050610115816100f1565b92915050565b5f819050919050565b61012d8161011b565b8114610137575f5ffd5b50565b5f8151905061014881610124565b92915050565b5f5f60408385031215610164576101636100bd565b5b5f61017185828601610107565b92505060206101828582860161013a565b9150509250929050565b7f4e487b71000000000000000000000000000000000000000000000000000000005f52601160045260245ffd5b5f6101c38261011b565b91506101ce8361011b565b92508282019050808211156101e6576101e561018c565b5b92915050565b61090f806101f95f395ff3fe608060405234801561000f575f5ffd5b5060043610610060575f3560e01c80630e1da6c314610064578063415ffba71461006e5780634665096d1461008a57806366d003ac146100a857806367e404ce146100c65780639714378c146100e4575b5f5ffd5b61006c610100565b005b610088600480360381019061008391906105e9565b610147565b005b61009261024f565b60405161009f9190610652565b60405180910390f35b6100b0610255565b6040516100bd91906106aa565b60405180910390f35b6100ce61027a565b6040516100db91906106aa565b60405180910390f35b6100fe60048036038101906100f991906106c3565b61029e565b005b60025442101561010e575f5ffd5b5f5f9054906101000a900473ffffffffffffffffffffffffffffffffffffffff1673ffffffffffffffffffffffffffffffffffffffff16ff5b60015f9054906101000a900473ffffffffffffffffffffffffffffffffffffffff1673ffffffffffffffffffffffffffffffffffffffff163373ffffffffffffffffffffffffffffffffffffffff161461019f575f5ffd5b6101a9828261030c565b6101b1575f5ffd5b60015f9054906101000a900473ffffffffffffffffffffffffffffffffffffffff1673ffffffffffffffffffffffffffffffffffffffff166108fc8390811502906040515f60405180830381858888f19350505050158015610215573d5f5f3e3d5ffd5b505f5f9054906101000a900473ffffffffffffffffffffffffffffffffffffffff1673ffffffffffffffffffffffffffffffffffffffff16ff5b60025481565b60015f9054906101000a900473ffffffffffffffffffffffffffffffffffffffff1681565b5f5f9054906101000a900473ffffffffffffffffffffffffffffffffffffffff1681565b5f5f9054906101000a900473ffffffffffffffffffffffffffffffffffffffff1673ffffffffffffffffffffffffffffffffffffffff163373ffffffffffffffffffffffffffffffffffffffff16146102f5575f5ffd5b6002548111610302575f5ffd5b8060028190555050565b5f5f61033f308560405160200161032492919061079f565b604051602081830303815290604052805190602001206103a2565b90505f5f9054906101000a900473ffffffffffffffffffffffffffffffffffffffff1673ffffffffffffffffffffffffffffffffffffffff1661038282856103d1565b73ffffffffffffffffffffffffffffffffffffffff161491505092915050565b5f816040516020016103b49190610847565b604051602081830303815290604052805190602001209050919050565b5f5f5f5f6103de8561043b565b9250925092506001868484846040515f81526020016040526040516104069493929190610896565b6020604051602081039080840390855afa158015610426573d5f5f3e3d5ffd5b50505060206040510351935050505092915050565b5f5f5f604184511461044b575f5ffd5b602084015191506040840151905060608401515f1a92509193909250565b5f604051905090565b5f5ffd5b5f5ffd5b5f819050919050565b61048c8161047a565b8114610496575f5ffd5b50565b5f813590506104a781610483565b92915050565b5f5ffd5b5f5ffd5b5f601f19601f8301169050919050565b7f4e487b71000000000000000000000000000000000000000000000000000000005f52604160045260245ffd5b6104fb826104b5565b810181811067ffffffffffffffff8211171561051a576105196104c5565b5b80604052505050565b5f61052c610469565b905061053882826104f2565b919050565b5f67ffffffffffffffff821115610557576105566104c5565b5b610560826104b5565b9050602081019050919050565b828183375f83830152505050565b5f61058d6105888461053d565b610523565b9050828152602081018484840111156105a9576105a86104b1565b5b6105b484828561056d565b509392505050565b5f82601f8301126105d0576105cf6104ad565b5b81356105e084826020860161057b565b91505092915050565b5f5f604083850312156105ff576105fe610472565b5b5f61060c85828601610499565b925050602083013567ffffffffffffffff81111561062d5761062c610476565b5b610639858286016105bc565b9150509250929050565b61064c8161047a565b82525050565b5f6020820190506106655f830184610643565b92915050565b5f73ffffffffffffffffffffffffffffffffffffffff82169050919050565b5f6106948261066b565b9050919050565b6106a48161068a565b82525050565b5f6020820190506106bd5f83018461069b565b92915050565b5f602082840312156106d8576106d7610472565b5b5f6106e584828501610499565b91505092915050565b5f819050919050565b5f61071161070c6107078461066b565b6106ee565b61066b565b9050919050565b5f610722826106f7565b9050919050565b5f61073382610718565b9050919050565b5f8160601b9050919050565b5f6107508261073a565b9050919050565b5f61076182610746565b9050919050565b61077961077482610729565b610757565b82525050565b5f819050919050565b6107996107948261047a565b61077f565b82525050565b5f6107aa8285610768565b6014820191506107ba8284610788565b6020820191508190509392505050565b5f81905092915050565b7f19457468657265756d205369676e6564204d6573736167653a0a3332000000005f82015250565b5f610808601c836107ca565b9150610813826107d4565b601c82019050919050565b5f819050919050565b5f819050919050565b61084161083c8261081e565b610827565b82525050565b5f610851826107fc565b915061085d8284610830565b60208201915081905092915050565b6108758161081e565b82525050565b5f60ff82169050919050565b6108908161087b565b82525050565b5f6080820190506108a95f83018761086c565b6108b66020830186610887565b6108c3604083018561086c565b6108d0606083018461086c565b9594505050505056fea26469706673582212202a50871edc32da48f852cecb7be2199a66389d264ade54b7c45bc438d94d5e8b64736f6c634300081c0033",
					"opcodes": "PUSH1 0x80 PUSH1 0x40 MSTORE PUSH1 0x40 MLOAD PUSH2 0xB08 CODESIZE SUB DUP1 PUSH2 0xB08 DUP4 CODECOPY DUP2 DUP2 ADD PUSH1 0x40 MSTORE DUP2 ADD SWAP1 PUSH2 0x25 SWAP2 SWAP1 PUSH2 0x14E JUMP JUMPDEST CALLER PUSH0 PUSH0 PUSH2 0x100 EXP DUP2 SLOAD DUP2 PUSH20 0xFFFFFFFFFFFFFFFFFFFFFFFFFFFFFFFFFFFFFFFF MUL NOT AND SWAP1 DUP4 PUSH20 0xFFFFFFFFFFFFFFFFFFFFFFFFFFFFFFFFFFFFFFFF AND MUL OR SWAP1 SSTORE POP DUP2 PUSH1 0x1 PUSH0 PUSH2 0x100 EXP DUP2 SLOAD DUP2 PUSH20 0xFFFFFFFFFFFFFFFFFFFFFFFFFFFFFFFFFFFFFFFF MUL NOT AND SWAP1 DUP4 PUSH20 0xFFFFFFFFFFFFFFFFFFFFFFFFFFFFFFFFFFFFFFFF AND MUL OR SWAP1 SSTORE POP DUP1 TIMESTAMP PUSH2 0xB0 SWAP2 SWAP1 PUSH2 0x1B9 JUMP JUMPDEST PUSH1 0x2 DUP2 SWAP1 SSTORE POP POP POP PUSH2 0x1EC JUMP JUMPDEST PUSH0 PUSH0 REVERT JUMPDEST PUSH0 PUSH20 0xFFFFFFFFFFFFFFFFFFFFFFFFFFFFFFFFFFFFFFFF DUP3 AND SWAP1 POP SWAP2 SWAP1 POP JUMP JUMPDEST PUSH0 PUSH2 0xEA DUP3 PUSH2 0xC1 JUMP JUMPDEST SWAP1 POP SWAP2 SWAP1 POP JUMP JUMPDEST PUSH2 0xFA DUP2 PUSH2 0xE0 JUMP JUMPDEST DUP2 EQ PUSH2 0x104 JUMPI PUSH0 PUSH0 REVERT JUMPDEST POP JUMP JUMPDEST PUSH0 DUP2 MLOAD SWAP1 POP PUSH2 0x115 DUP2 PUSH2 0xF1 JUMP JUMPDEST SWAP3 SWAP2 POP POP JUMP JUMPDEST PUSH0 DUP2 SWAP1 POP SWAP2 SWAP1 POP JUMP JUMPDEST PUSH2 0x12D DUP2 PUSH2 0x11B JUMP JUMPDEST DUP2 EQ PUSH2 0x137 JUMPI PUSH0 PUSH0 REVERT JUMPDEST POP JUMP JUMPDEST PUSH0 DUP2 MLOAD SWAP1 POP PUSH2 0x148 DUP2 PUSH2 0x124 JUMP JUMPDEST SWAP3 SWAP2 POP POP JUMP JUMPDEST PUSH0 PUSH0 PUSH1 0x40 DUP4 DUP6 SUB SLT ISZERO PUSH2 0x164 JUMPI PUSH2 0x163 PUSH2 0xBD JUMP JUMPDEST JUMPDEST PUSH0 PUSH2 0x171 DUP6 DUP3 DUP7 ADD PUSH2 0x107 JUMP JUMPDEST SWAP3 POP POP PUSH1 0x20 PUSH2 0x182 DUP6 DUP3 DUP7 ADD PUSH2 0x13A JUMP JUMPDEST SWAP2 POP POP SWAP3 POP SWAP3 SWAP1 POP JUMP JUMPDEST PUSH32 0x4E487B7100000000000000000000000000000000000000000000000000000000 PUSH0 MSTORE PUSH1 0x11 PUSH1 0x4 MSTORE PUSH1 0x24 PUSH0 REVERT JUMPDEST PUSH0 PUSH2 0x1C3 DUP3 PUSH2 0x11B JUMP JUMPDEST SWAP2 POP PUSH2 0x1CE DUP4 PUSH2 0x11B JUMP JUMPDEST SWAP3 POP DUP3 DUP3 ADD SWAP1 POP DUP1 DUP3 GT ISZERO PUSH2 0x1E6 JUMPI PUSH2 0x1E5 PUSH2 0x18C JUMP JUMPDEST JUMPDEST SWAP3 SWAP2 POP POP JUMP JUMPDEST PUSH2 0x90F DUP1 PUSH2 0x1F9 PUSH0 CODECOPY PUSH0 RETURN INVALID PUSH1 0x80 PUSH1 0x40 MSTORE CALLVALUE DUP1 ISZERO PUSH2 0xF JUMPI PUSH0 PUSH0 REVERT JUMPDEST POP PUSH1 0x4 CALLDATASIZE LT PUSH2 0x60 JUMPI PUSH0 CALLDATALOAD PUSH1 0xE0 SHR DUP1 PUSH4 0xE1DA6C3 EQ PUSH2 0x64 JUMPI DUP1 PUSH4 0x415FFBA7 EQ PUSH2 0x6E JUMPI DUP1 PUSH4 0x4665096D EQ PUSH2 0x8A JUMPI DUP1 PUSH4 0x66D003AC EQ PUSH2 0xA8 JUMPI DUP1 PUSH4 0x67E404CE EQ PUSH2 0xC6 JUMPI DUP1 PUSH4 0x9714378C EQ PUSH2 0xE4 JUMPI JUMPDEST PUSH0 PUSH0 REVERT JUMPDEST PUSH2 0x6C PUSH2 0x100 JUMP JUMPDEST STOP JUMPDEST PUSH2 0x88 PUSH1 0x4 DUP1 CALLDATASIZE SUB DUP2 ADD SWAP1 PUSH2 0x83 SWAP2 SWAP1 PUSH2 0x5E9 JUMP JUMPDEST PUSH2 0x147 JUMP JUMPDEST STOP JUMPDEST PUSH2 0x92 PUSH2 0x24F JUMP JUMPDEST PUSH1 0x40 MLOAD PUSH2 0x9F SWAP2 SWAP1 PUSH2 0x652 JUMP JUMPDEST PUSH1 0x40 MLOAD DUP1 SWAP2 SUB SWAP1 RETURN JUMPDEST PUSH2 0xB0 PUSH2 0x255 JUMP JUMPDEST PUSH1 0x40 MLOAD PUSH2 0xBD SWAP2 SWAP1 PUSH2 0x6AA JUMP JUMPDEST PUSH1 0x40 MLOAD DUP1 SWAP2 SUB SWAP1 RETURN JUMPDEST PUSH2 0xCE PUSH2 0x27A JUMP JUMPDEST PUSH1 0x40 MLOAD PUSH2 0xDB SWAP2 SWAP1 PUSH2 0x6AA JUMP JUMPDEST PUSH1 0x40 MLOAD DUP1 SWAP2 SUB SWAP1 RETURN JUMPDEST PUSH2 0xFE PUSH1 0x4 DUP1 CALLDATASIZE SUB DUP2 ADD SWAP1 PUSH2 0xF9 SWAP2 SWAP1 PUSH2 0x6C3 JUMP JUMPDEST PUSH2 0x29E JUMP JUMPDEST STOP JUMPDEST PUSH1 0x2 SLOAD TIMESTAMP LT ISZERO PUSH2 0x10E JUMPI PUSH0 PUSH0 REVERT JUMPDEST PUSH0 PUSH0 SWAP1 SLOAD SWAP1 PUSH2 0x100 EXP SWAP1 DIV PUSH20 0xFFFFFFFFFFFFFFFFFFFFFFFFFFFFFFFFFFFFFFFF AND PUSH20 0xFFFFFFFFFFFFFFFFFFFFFFFFFFFFFFFFFFFFFFFF AND SELFDESTRUCT JUMPDEST PUSH1 0x1 PUSH0 SWAP1 SLOAD SWAP1 PUSH2 0x100 EXP SWAP1 DIV PUSH20 0xFFFFFFFFFFFFFFFFFFFFFFFFFFFFFFFFFFFFFFFF AND PUSH20 0xFFFFFFFFFFFFFFFFFFFFFFFFFFFFFFFFFFFFFFFF AND CALLER PUSH20 0xFFFFFFFFFFFFFFFFFFFFFFFFFFFFFFFFFFFFFFFF AND EQ PUSH2 0x19F JUMPI PUSH0 PUSH0 REVERT JUMPDEST PUSH2 0x1A9 DUP3 DUP3 PUSH2 0x30C JUMP JUMPDEST PUSH2 0x1B1 JUMPI PUSH0 PUSH0 REVERT JUMPDEST PUSH1 0x1 PUSH0 SWAP1 SLOAD SWAP1 PUSH2 0x100 EXP SWAP1 DIV PUSH20 0xFFFFFFFFFFFFFFFFFFFFFFFFFFFFFFFFFFFFFFFF AND PUSH20 0xFFFFFFFFFFFFFFFFFFFFFFFFFFFFFFFFFFFFFFFF AND PUSH2 0x8FC DUP4 SWAP1 DUP2 ISZERO MUL SWAP1 PUSH1 0x40 MLOAD PUSH0 PUSH1 0x40 MLOAD DUP1 DUP4 SUB DUP2 DUP6 DUP9 DUP9 CALL SWAP4 POP POP POP POP ISZERO DUP1 ISZERO PUSH2 0x215 JUMPI RETURNDATASIZE PUSH0 PUSH0 RETURNDATACOPY RETURNDATASIZE PUSH0 REVERT JUMPDEST POP PUSH0 PUSH0 SWAP1 SLOAD SWAP1 PUSH2 0x100 EXP SWAP1 DIV PUSH20 0xFFFFFFFFFFFFFFFFFFFFFFFFFFFFFFFFFFFFFFFF AND PUSH20 0xFFFFFFFFFFFFFFFFFFFFFFFFFFFFFFFFFFFFFFFF AND SELFDESTRUCT JUMPDEST PUSH1 0x2 SLOAD DUP2 JUMP JUMPDEST PUSH1 0x1 PUSH0 SWAP1 SLOAD SWAP1 PUSH2 0x100 EXP SWAP1 DIV PUSH20 0xFFFFFFFFFFFFFFFFFFFFFFFFFFFFFFFFFFFFFFFF AND DUP2 JUMP JUMPDEST PUSH0 PUSH0 SWAP1 SLOAD SWAP1 PUSH2 0x100 EXP SWAP1 DIV PUSH20 0xFFFFFFFFFFFFFFFFFFFFFFFFFFFFFFFFFFFFFFFF AND DUP2 JUMP JUMPDEST PUSH0 PUSH0 SWAP1 SLOAD SWAP1 PUSH2 0x100 EXP SWAP1 DIV PUSH20 0xFFFFFFFFFFFFFFFFFFFFFFFFFFFFFFFFFFFFFFFF AND PUSH20 0xFFFFFFFFFFFFFFFFFFFFFFFFFFFFFFFFFFFFFFFF AND CALLER PUSH20 0xFFFFFFFFFFFFFFFFFFFFFFFFFFFFFFFFFFFFFFFF AND EQ PUSH2 0x2F5 JUMPI PUSH0 PUSH0 REVERT JUMPDEST PUSH1 0x2 SLOAD DUP2 GT PUSH2 0x302 JUMPI PUSH0 PUSH0 REVERT JUMPDEST DUP1 PUSH1 0x2 DUP2 SWAP1 SSTORE POP POP JUMP JUMPDEST PUSH0 PUSH0 PUSH2 0x33F ADDRESS DUP6 PUSH1 0x40 MLOAD PUSH1 0x20 ADD PUSH2 0x324 SWAP3 SWAP2 SWAP1 PUSH2 0x79F JUMP JUMPDEST PUSH1 0x40 MLOAD PUSH1 0x20 DUP2 DUP4 SUB SUB DUP2 MSTORE SWAP1 PUSH1 0x40 MSTORE DUP1 MLOAD SWAP1 PUSH1 0x20 ADD KECCAK256 PUSH2 0x3A2 JUMP JUMPDEST SWAP1 POP PUSH0 PUSH0 SWAP1 SLOAD SWAP1 PUSH2 0x100 EXP SWAP1 DIV PUSH20 0xFFFFFFFFFFFFFFFFFFFFFFFFFFFFFFFFFFFFFFFF AND PUSH20 0xFFFFFFFFFFFFFFFFFFFFFFFFFFFFFFFFFFFFFFFF AND PUSH2 0x382 DUP3 DUP6 PUSH2 0x3D1 JUMP JUMPDEST PUSH20 0xFFFFFFFFFFFFFFFFFFFFFFFFFFFFFFFFFFFFFFFF AND EQ SWAP2 POP POP SWAP3 SWAP2 POP POP JUMP JUMPDEST PUSH0 DUP2 PUSH1 0x40 MLOAD PUSH1 0x20 ADD PUSH2 0x3B4 SWAP2 SWAP1 PUSH2 0x847 JUMP JUMPDEST PUSH1 0x40 MLOAD PUSH1 0x20 DUP2 DUP4 SUB SUB DUP2 MSTORE SWAP1 PUSH1 0x40 MSTORE DUP1 MLOAD SWAP1 PUSH1 0x20 ADD KECCAK256 SWAP1 POP SWAP2 SWAP1 POP JUMP JUMPDEST PUSH0 PUSH0 PUSH0 PUSH0 PUSH2 0x3DE DUP6 PUSH2 0x43B JUMP JUMPDEST SWAP3 POP SWAP3 POP SWAP3 POP PUSH1 0x1 DUP7 DUP5 DUP5 DUP5 PUSH1 0x40 MLOAD PUSH0 DUP2 MSTORE PUSH1 0x20 ADD PUSH1 0x40 MSTORE PUSH1 0x40 MLOAD PUSH2 0x406 SWAP5 SWAP4 SWAP3 SWAP2 SWAP1 PUSH2 0x896 JUMP JUMPDEST PUSH1 0x20 PUSH1 0x40 MLOAD PUSH1 0x20 DUP2 SUB SWAP1 DUP1 DUP5 SUB SWAP1 DUP6 GAS STATICCALL ISZERO DUP1 ISZERO PUSH2 0x426 JUMPI RETURNDATASIZE PUSH0 PUSH0 RETURNDATACOPY RETURNDATASIZE PUSH0 REVERT JUMPDEST POP POP POP PUSH1 0x20 PUSH1 0x40 MLOAD SUB MLOAD SWAP4 POP POP POP POP SWAP3 SWAP2 POP POP JUMP JUMPDEST PUSH0 PUSH0 PUSH0 PUSH1 0x41 DUP5 MLOAD EQ PUSH2 0x44B JUMPI PUSH0 PUSH0 REVERT JUMPDEST PUSH1 0x20 DUP5 ADD MLOAD SWAP2 POP PUSH1 0x40 DUP5 ADD MLOAD SWAP1 POP PUSH1 0x60 DUP5 ADD MLOAD PUSH0 BYTE SWAP3 POP SWAP2 SWAP4 SWAP1 SWAP3 POP JUMP JUMPDEST PUSH0 PUSH1 0x40 MLOAD SWAP1 POP SWAP1 JUMP JUMPDEST PUSH0 PUSH0 REVERT JUMPDEST PUSH0 PUSH0 REVERT JUMPDEST PUSH0 DUP2 SWAP1 POP SWAP2 SWAP1 POP JUMP JUMPDEST PUSH2 0x48C DUP2 PUSH2 0x47A JUMP JUMPDEST DUP2 EQ PUSH2 0x496 JUMPI PUSH0 PUSH0 REVERT JUMPDEST POP JUMP JUMPDEST PUSH0 DUP2 CALLDATALOAD SWAP1 POP PUSH2 0x4A7 DUP2 PUSH2 0x483 JUMP JUMPDEST SWAP3 SWAP2 POP POP JUMP JUMPDEST PUSH0 PUSH0 REVERT JUMPDEST PUSH0 PUSH0 REVERT JUMPDEST PUSH0 PUSH1 0x1F NOT PUSH1 0x1F DUP4 ADD AND SWAP1 POP SWAP2 SWAP1 POP JUMP JUMPDEST PUSH32 0x4E487B7100000000000000000000000000000000000000000000000000000000 PUSH0 MSTORE PUSH1 0x41 PUSH1 0x4 MSTORE PUSH1 0x24 PUSH0 REVERT JUMPDEST PUSH2 0x4FB DUP3 PUSH2 0x4B5 JUMP JUMPDEST DUP2 ADD DUP2 DUP2 LT PUSH8 0xFFFFFFFFFFFFFFFF DUP3 GT OR ISZERO PUSH2 0x51A JUMPI PUSH2 0x519 PUSH2 0x4C5 JUMP JUMPDEST JUMPDEST DUP1 PUSH1 0x40 MSTORE POP POP POP JUMP JUMPDEST PUSH0 PUSH2 0x52C PUSH2 0x469 JUMP JUMPDEST SWAP1 POP PUSH2 0x538 DUP3 DUP3 PUSH2 0x4F2 JUMP JUMPDEST SWAP2 SWAP1 POP JUMP JUMPDEST PUSH0 PUSH8 0xFFFFFFFFFFFFFFFF DUP3 GT ISZERO PUSH2 0x557 JUMPI PUSH2 0x556 PUSH2 0x4C5 JUMP JUMPDEST JUMPDEST PUSH2 0x560 DUP3 PUSH2 0x4B5 JUMP JUMPDEST SWAP1 POP PUSH1 0x20 DUP2 ADD SWAP1 POP SWAP2 SWAP1 POP JUMP JUMPDEST DUP3 DUP2 DUP4 CALLDATACOPY PUSH0 DUP4 DUP4 ADD MSTORE POP POP POP JUMP JUMPDEST PUSH0 PUSH2 0x58D PUSH2 0x588 DUP5 PUSH2 0x53D JUMP JUMPDEST PUSH2 0x523 JUMP JUMPDEST SWAP1 POP DUP3 DUP2 MSTORE PUSH1 0x20 DUP2 ADD DUP5 DUP5 DUP5 ADD GT ISZERO PUSH2 0x5A9 JUMPI PUSH2 0x5A8 PUSH2 0x4B1 JUMP JUMPDEST JUMPDEST PUSH2 0x5B4 DUP5 DUP3 DUP6 PUSH2 0x56D JUMP JUMPDEST POP SWAP4 SWAP3 POP POP POP JUMP JUMPDEST PUSH0 DUP3 PUSH1 0x1F DUP4 ADD SLT PUSH2 0x5D0 JUMPI PUSH2 0x5CF PUSH2 0x4AD JUMP JUMPDEST JUMPDEST DUP2 CALLDATALOAD PUSH2 0x5E0 DUP5 DUP3 PUSH1 0x20 DUP7 ADD PUSH2 0x57B JUMP JUMPDEST SWAP2 POP POP SWAP3 SWAP2 POP POP JUMP JUMPDEST PUSH0 PUSH0 PUSH1 0x40 DUP4 DUP6 SUB SLT ISZERO PUSH2 0x5FF JUMPI PUSH2 0x5FE PUSH2 0x472 JUMP JUMPDEST JUMPDEST PUSH0 PUSH2 0x60C DUP6 DUP3 DUP7 ADD PUSH2 0x499 JUMP JUMPDEST SWAP3 POP POP PUSH1 0x20 DUP4 ADD CALLDATALOAD PUSH8 0xFFFFFFFFFFFFFFFF DUP2 GT ISZERO PUSH2 0x62D JUMPI PUSH2 0x62C PUSH2 0x476 JUMP JUMPDEST JUMPDEST PUSH2 0x639 DUP6 DUP3 DUP7 ADD PUSH2 0x5BC JUMP JUMPDEST SWAP2 POP POP SWAP3 POP SWAP3 SWAP1 POP JUMP JUMPDEST PUSH2 0x64C DUP2 PUSH2 0x47A JUMP JUMPDEST DUP3 MSTORE POP POP JUMP JUMPDEST PUSH0 PUSH1 0x20 DUP3 ADD SWAP1 POP PUSH2 0x665 PUSH0 DUP4 ADD DUP5 PUSH2 0x643 JUMP JUMPDEST SWAP3 SWAP2 POP POP JUMP JUMPDEST PUSH0 PUSH20 0xFFFFFFFFFFFFFFFFFFFFFFFFFFFFFFFFFFFFFFFF DUP3 AND SWAP1 POP SWAP2 SWAP1 POP JUMP JUMPDEST PUSH0 PUSH2 0x694 DUP3 PUSH2 0x66B JUMP JUMPDEST SWAP1 POP SWAP2 SWAP1 POP JUMP JUMPDEST PUSH2 0x6A4 DUP2 PUSH2 0x68A JUMP JUMPDEST DUP3 MSTORE POP POP JUMP JUMPDEST PUSH0 PUSH1 0x20 DUP3 ADD SWAP1 POP PUSH2 0x6BD PUSH0 DUP4 ADD DUP5 PUSH2 0x69B JUMP JUMPDEST SWAP3 SWAP2 POP POP JUMP JUMPDEST PUSH0 PUSH1 0x20 DUP3 DUP5 SUB SLT ISZERO PUSH2 0x6D8 JUMPI PUSH2 0x6D7 PUSH2 0x472 JUMP JUMPDEST JUMPDEST PUSH0 PUSH2 0x6E5 DUP5 DUP3 DUP6 ADD PUSH2 0x499 JUMP JUMPDEST SWAP2 POP POP SWAP3 SWAP2 POP POP JUMP JUMPDEST PUSH0 DUP2 SWAP1 POP SWAP2 SWAP1 POP JUMP JUMPDEST PUSH0 PUSH2 0x711 PUSH2 0x70C PUSH2 0x707 DUP5 PUSH2 0x66B JUMP JUMPDEST PUSH2 0x6EE JUMP JUMPDEST PUSH2 0x66B JUMP JUMPDEST SWAP1 POP SWAP2 SWAP1 POP JUMP JUMPDEST PUSH0 PUSH2 0x722 DUP3 PUSH2 0x6F7 JUMP JUMPDEST SWAP1 POP SWAP2 SWAP1 POP JUMP JUMPDEST PUSH0 PUSH2 0x733 DUP3 PUSH2 0x718 JUMP JUMPDEST SWAP1 POP SWAP2 SWAP1 POP JUMP JUMPDEST PUSH0 DUP2 PUSH1 0x60 SHL SWAP1 POP SWAP2 SWAP1 POP JUMP JUMPDEST PUSH0 PUSH2 0x750 DUP3 PUSH2 0x73A JUMP JUMPDEST SWAP1 POP SWAP2 SWAP1 POP JUMP JUMPDEST PUSH0 PUSH2 0x761 DUP3 PUSH2 0x746 JUMP JUMPDEST SWAP1 POP SWAP2 SWAP1 POP JUMP JUMPDEST PUSH2 0x779 PUSH2 0x774 DUP3 PUSH2 0x729 JUMP JUMPDEST PUSH2 0x757 JUMP JUMPDEST DUP3 MSTORE POP POP JUMP JUMPDEST PUSH0 DUP2 SWAP1 POP SWAP2 SWAP1 POP JUMP JUMPDEST PUSH2 0x799 PUSH2 0x794 DUP3 PUSH2 0x47A JUMP JUMPDEST PUSH2 0x77F JUMP JUMPDEST DUP3 MSTORE POP POP JUMP JUMPDEST PUSH0 PUSH2 0x7AA DUP3 DUP6 PUSH2 0x768 JUMP JUMPDEST PUSH1 0x14 DUP3 ADD SWAP2 POP PUSH2 0x7BA DUP3 DUP5 PUSH2 0x788 JUMP JUMPDEST PUSH1 0x20 DUP3 ADD SWAP2 POP DUP2 SWAP1 POP SWAP4 SWAP3 POP POP POP JUMP JUMPDEST PUSH0 DUP2 SWAP1 POP SWAP3 SWAP2 POP POP JUMP JUMPDEST PUSH32 0x19457468657265756D205369676E6564204D6573736167653A0A333200000000 PUSH0 DUP3 ADD MSTORE POP JUMP JUMPDEST PUSH0 PUSH2 0x808 PUSH1 0x1C DUP4 PUSH2 0x7CA JUMP JUMPDEST SWAP2 POP PUSH2 0x813 DUP3 PUSH2 0x7D4 JUMP JUMPDEST PUSH1 0x1C DUP3 ADD SWAP1 POP SWAP2 SWAP1 POP JUMP JUMPDEST PUSH0 DUP2 SWAP1 POP SWAP2 SWAP1 POP JUMP JUMPDEST PUSH0 DUP2 SWAP1 POP SWAP2 SWAP1 POP JUMP JUMPDEST PUSH2 0x841 PUSH2 0x83C DUP3 PUSH2 0x81E JUMP JUMPDEST PUSH2 0x827 JUMP JUMPDEST DUP3 MSTORE POP POP JUMP JUMPDEST PUSH0 PUSH2 0x851 DUP3 PUSH2 0x7FC JUMP JUMPDEST SWAP2 POP PUSH2 0x85D DUP3 DUP5 PUSH2 0x830 JUMP JUMPDEST PUSH1 0x20 DUP3 ADD SWAP2 POP DUP2 SWAP1 POP SWAP3 SWAP2 POP POP JUMP JUMPDEST PUSH2 0x875 DUP2 PUSH2 0x81E JUMP JUMPDEST DUP3 MSTORE POP POP JUMP JUMPDEST PUSH0 PUSH1 0xFF DUP3 AND SWAP1 POP SWAP2 SWAP1 POP JUMP JUMPDEST PUSH2 0x890 DUP2 PUSH2 0x87B JUMP JUMPDEST DUP3 MSTORE POP POP JUMP JUMPDEST PUSH0 PUSH1 0x80 DUP3 ADD SWAP1 POP PUSH2 0x8A9 PUSH0 DUP4 ADD DUP8 PUSH2 0x86C JUMP JUMPDEST PUSH2 0x8B6 PUSH1 0x20 DUP4 ADD DUP7 PUSH2 0x887 JUMP JUMPDEST PUSH2 0x8C3 PUSH1 0x40 DUP4 ADD DUP6 PUSH2 0x86C JUMP JUMPDEST PUSH2 0x8D0 PUSH1 0x60 DUP4 ADD DUP5 PUSH2 0x86C JUMP JUMPDEST SWAP6 SWAP5 POP POP POP POP POP JUMP INVALID LOG2 PUSH5 0x6970667358 0x22 SLT KECCAK256 0x2A POP DUP8 0x1E 0xDC ORIGIN 0xDA BASEFEE 0xF8 MSTORE 0xCE 0xCB PUSH28 0xE2199A66389D264ADE54B7C45BC438D94D5E8B64736F6C634300081C STOP CALLER "
				},
				"gasEstimates": {
					"creation": {
						"codeDepositCost": "463800",
						"executionCost": "infinite",
						"totalCost": "infinite"
					},
					"external": {
						"claimTimeout()": "31980",
						"close(uint256,bytes)": "infinite",
						"expiration()": "2447",
						"extend(uint256)": "26894",
						"recipient()": "2552",
						"sender()": "2573"
					},
					"internal": {
						"isValidSignature(uint256,bytes memory)": "infinite",
						"prefixed(bytes32)": "infinite",
						"recoverSigner(bytes32,bytes memory)": "infinite",
						"splitSignature(bytes memory)": "infinite"
					}
				},
				"methodIdentifiers": {
					"claimTimeout()": "0e1da6c3",
					"close(uint256,bytes)": "415ffba7",
					"expiration()": "4665096d",
					"extend(uint256)": "9714378c",
					"recipient()": "66d003ac",
					"sender()": "67e404ce"
				}
			},
			"storageLayout": {
				"storage": [
					{
						"astId": 3,
						"contract": "Contracts/Payment Channel.sol:SimplePaymentChannel",
						"label": "sender",
						"offset": 0,
						"slot": "0",
						"type": "t_address_payable"
					},
					{
						"astId": 5,
						"contract": "Contracts/Payment Channel.sol:SimplePaymentChannel",
						"label": "recipient",
						"offset": 0,
						"slot": "1",
						"type": "t_address_payable"
					},
					{
						"astId": 7,
						"contract": "Contracts/Payment Channel.sol:SimplePaymentChannel",
						"label": "expiration",
						"offset": 0,
						"slot": "2",
						"type": "t_uint256"
					}
				],
				"types": {
					"t_address_payable": {
						"encoding": "inplace",
						"label": "address payable",
						"numberOfBytes": "20"
					},
					"t_uint256": {
						"encoding": "inplace",
						"label": "uint256",
						"numberOfBytes": "32"
					}
				}
			},
			"userdoc": {
				"kind": "user",
				"methods": {
					"claimTimeout()": {
						"notice": "if the timeout is reached without the recipient closing the channel, then the Ether is released back to the sender."
					},
					"close(uint256,bytes)": {
						"notice": "the recipient can close the channel at any time by presenting a signed amount from the sender. the recipient will be sent that amount, and the remainder will go back to the sender"
					},
					"extend(uint256)": {
						"notice": "the sender can extend the expiration at any time"
					}
				},
				"version": 1
			}
		}
	}
}