{
	"data": {
		"bytecode": {
			"linkReferences": {},
			"object": "6080604052335f5f6101000a81548173ffffffffffffffffffffffffffffffffffffffff021916908373ffffffffffffffffffffffffffffffffffffffff16021790555061073c806100505f395ff3fe608060405234801561000f575f5ffd5b5060043610610034575f3560e01c8063a90ae88714610038578063fc0e74d114610054575b5f5ffd5b610052600480360381019061004d9190610446565b61005e565b005b61005c61018f565b005b60015f8381526020019081526020015f205f9054906101000a900460ff1615610085575f5ffd5b6001805f8481526020019081526020015f205f6101000a81548160ff0219169083151502179055505f6100e3338585306040516020016100c894939291906105aa565b604051602081830303815290604052805190602001206101ff565b90505f5f9054906101000a900473ffffffffffffffffffffffffffffffffffffffff1673ffffffffffffffffffffffffffffffffffffffff16610126828461022e565b73ffffffffffffffffffffffffffffffffffffffff1614610145575f5ffd5b3373ffffffffffffffffffffffffffffffffffffffff166108fc8590811502906040515f60405180830381858888f19350505050158015610188573d5f5f3e3d5ffd5b5050505050565b5f5f9054906101000a900473ffffffffffffffffffffffffffffffffffffffff1673ffffffffffffffffffffffffffffffffffffffff163373ffffffffffffffffffffffffffffffffffffffff16146101e6575f5ffd5b3373ffffffffffffffffffffffffffffffffffffffff16ff5b5f816040516020016102119190610674565b604051602081830303815290604052805190602001209050919050565b5f5f5f5f61023b85610298565b9250925092506001868484846040515f815260200160405260405161026394939291906106c3565b6020604051602081039080840390855afa158015610283573d5f5f3e3d5ffd5b50505060206040510351935050505092915050565b5f5f5f60418451146102a8575f5ffd5b602084015191506040840151905060608401515f1a92509193909250565b5f604051905090565b5f5ffd5b5f5ffd5b5f819050919050565b6102e9816102d7565b81146102f3575f5ffd5b50565b5f81359050610304816102e0565b92915050565b5f5ffd5b5f5ffd5b5f601f19601f8301169050919050565b7f4e487b71000000000000000000000000000000000000000000000000000000005f52604160045260245ffd5b61035882610312565b810181811067ffffffffffffffff8211171561037757610376610322565b5b80604052505050565b5f6103896102c6565b9050610395828261034f565b919050565b5f67ffffffffffffffff8211156103b4576103b3610322565b5b6103bd82610312565b9050602081019050919050565b828183375f83830152505050565b5f6103ea6103e58461039a565b610380565b9050828152602081018484840111156104065761040561030e565b5b6104118482856103ca565b509392505050565b5f82601f83011261042d5761042c61030a565b5b813561043d8482602086016103d8565b91505092915050565b5f5f5f6060848603121561045d5761045c6102cf565b5b5f61046a868287016102f6565b935050602061047b868287016102f6565b925050604084013567ffffffffffffffff81111561049c5761049b6102d3565b5b6104a886828701610419565b9150509250925092565b5f73ffffffffffffffffffffffffffffffffffffffff82169050919050565b5f6104db826104b2565b9050919050565b5f8160601b9050919050565b5f6104f8826104e2565b9050919050565b5f610509826104ee565b9050919050565b61052161051c826104d1565b6104ff565b82525050565b5f819050919050565b61054161053c826102d7565b610527565b82525050565b5f819050919050565b5f61056a610565610560846104b2565b610547565b6104b2565b9050919050565b5f61057b82610550565b9050919050565b5f61058c82610571565b9050919050565b6105a461059f82610582565b6104ff565b82525050565b5f6105b58287610510565b6014820191506105c58286610530565b6020820191506105d58285610530565b6020820191506105e58284610593565b60148201915081905095945050505050565b5f81905092915050565b7f19457468657265756d205369676e6564204d6573736167653a0a3332000000005f82015250565b5f610635601c836105f7565b915061064082610601565b601c82019050919050565b5f819050919050565b5f819050919050565b61066e6106698261064b565b610654565b82525050565b5f61067e82610629565b915061068a828461065d565b60208201915081905092915050565b6106a28161064b565b82525050565b5f60ff82169050919050565b6106bd816106a8565b82525050565b5f6080820190506106d65f830187610699565b6106e360208301866106b4565b6106f06040830185610699565b6106fd6060830184610699565b9594505050505056fea2646970667358221220a5ad4b3544c1308e379dd0e9a092d525535c9ae4d9d761515af7d2a741bf3dac64736f6c634300081c0033",
			"opcodes": "PUSH1 0x80 PUSH1 0x40 MSTORE CALLER PUSH0 PUSH0 PUSH2 0x100 EXP DUP2 SLOAD DUP2 PUSH20 0xFFFFFFFFFFFFFFFFFFFFFFFFFFFFFFFFFFFFFFFF MUL NOT AND SWAP1 DUP4 PUSH20 0xFFFFFFFFFFFFFFFFFFFFFFFFFFFFFFFFFFFFFFFF AND MUL OR SWAP1 SSTORE POP PUSH2 0x73C DUP1 PUSH2 0x50 PUSH0 CODECOPY PUSH0 RETURN INVALID PUSH1 0x80 PUSH1 0x40 MSTORE CALLVALUE DUP1 ISZERO PUSH2 0xF JUMPI PUSH0 PUSH0 REVERT JUMPDEST POP PUSH1 0x4 CALLDATASIZE LT PUSH2 0x34 JUMPI PUSH0 CALLDATALOAD PUSH1 0xE0 SHR DUP1 PUSH4 0xA90AE887 EQ PUSH2 0x38 JUMPI DUP1 PUSH4 0xFC0E74D1 EQ PUSH2 0x54 JUMPI JUMPDEST PUSH0 PUSH0 REVERT JUMPDEST PUSH2 0x52 PUSH1 0x4 DUP1 CALLDATASIZE SUB DUP2 ADD SWAP1 PUSH2 0x4D SWAP2 SWAP1 PUSH2 0x446 JUMP JUMPDEST PUSH2 0x5E JUMP JUMPDEST STOP JUMPDEST PUSH2 0x5C PUSH2 0x18F JUMP JUMPDEST STOP JUMPDEST PUSH1 0x1 PUSH0 DUP4 DUP2 MSTORE PUSH1 0x20 ADD SWAP1 DUP2 MSTORE PUSH1 0x20 ADD PUSH0 KECCAK256 PUSH0 SWAP1 SLOAD SWAP1 PUSH2 0x100 EXP SWAP1 DIV PUSH1 0xFF AND ISZERO PUSH2 0x85 JUMPI PUSH0 PUSH0 REVERT JUMPDEST PUSH1 0x1 DUP1 PUSH0 DUP5 DUP2 MSTORE PUSH1 0x20 ADD SWAP1 DUP2 MSTORE PUSH1 0x20 ADD PUSH0 KECCAK256 PUSH0 PUSH2 0x100 EXP DUP2 SLOAD DUP2 PUSH1 0xFF MUL NOT AND SWAP1 DUP4 ISZERO ISZERO MUL OR SWAP1 SSTORE POP PUSH0 PUSH2 0xE3 CALLER DUP6 DUP6 ADDRESS PUSH1 0x40 MLOAD PUSH1 0x20 ADD PUSH2 0xC8 SWAP5 SWAP4 SWAP3 SWAP2 SWAP1 PUSH2 0x5AA JUMP JUMPDEST PUSH1 0x40 MLOAD PUSH1 0x20 DUP2 DUP4 SUB SUB DUP2 MSTORE SWAP1 PUSH1 0x40 MSTORE DUP1 MLOAD SWAP1 PUSH1 0x20 ADD KECCAK256 PUSH2 0x1FF JUMP JUMPDEST SWAP1 POP PUSH0 PUSH0 SWAP1 SLOAD SWAP1 PUSH2 0x100 EXP SWAP1 DIV PUSH20 0xFFFFFFFFFFFFFFFFFFFFFFFFFFFFFFFFFFFFFFFF AND PUSH20 0xFFFFFFFFFFFFFFFFFFFFFFFFFFFFFFFFFFFFFFFF AND PUSH2 0x126 DUP3 DUP5 PUSH2 0x22E JUMP JUMPDEST PUSH20 0xFFFFFFFFFFFFFFFFFFFFFFFFFFFFFFFFFFFFFFFF AND EQ PUSH2 0x145 JUMPI PUSH0 PUSH0 REVERT JUMPDEST CALLER PUSH20 0xFFFFFFFFFFFFFFFFFFFFFFFFFFFFFFFFFFFFFFFF AND PUSH2 0x8FC DUP6 SWAP1 DUP2 ISZERO MUL SWAP1 PUSH1 0x40 MLOAD PUSH0 PUSH1 0x40 MLOAD DUP1 DUP4 SUB DUP2 DUP6 DUP9 DUP9 CALL SWAP4 POP POP POP POP ISZERO DUP1 ISZERO PUSH2 0x188 JUMPI RETURNDATASIZE PUSH0 PUSH0 RETURNDATACOPY RETURNDATASIZE PUSH0 REVERT JUMPDEST POP POP POP POP POP JUMP JUMPDEST PUSH0 PUSH0 SWAP1 SLOAD SWAP1 PUSH2 0x100 EXP SWAP1 DIV PUSH20 0xFFFFFFFFFFFFFFFFFFFFFFFFFFFFFFFFFFFFFFFF AND PUSH20 0xFFFFFFFFFFFFFFFFFFFFFFFFFFFFFFFFFFFFFFFF AND CALLER PUSH20 0xFFFFFFFFFFFFFFFFFFFFFFFFFFFFFFFFFFFFFFFF AND EQ PUSH2 0x1E6 JUMPI PUSH0 PUSH0 REVERT JUMPDEST CALLER PUSH20 0xFFFFFFFFFFFFFFFFFFFFFFFFFFFFFFFFFFFFFFFF AND SELFDESTRUCT JUMPDEST PUSH0 DUP2 PUSH1 0x40 MLOAD PUSH1 0x20 ADD PUSH2 0x211 SWAP2 SWAP1 PUSH2 0x674 JUMP JUMPDEST PUSH1 0x40 MLOAD PUSH1 0x20 DUP2 DUP4 SUB SUB DUP2 MSTORE SWAP1 PUSH1 0x40 MSTORE DUP1 MLOAD SWAP1 PUSH1 0x20 ADD KECCAK256 SWAP1 POP SWAP2 SWAP1 POP JUMP JUMPDEST PUSH0 PUSH0 PUSH0 PUSH0 PUSH2 0x23B DUP6 PUSH2 0x298 JUMP JUMPDEST SWAP3 POP SWAP3 POP SWAP3 POP PUSH1 0x1 DUP7 DUP5 DUP5 DUP5 PUSH1 0x40 MLOAD PUSH0 DUP2 MSTORE PUSH1 0x20 ADD PUSH1 0x40 MSTORE PUSH1 0x40 MLOAD PUSH2 0x263 SWAP5 SWAP4 SWAP3 SWAP2 SWAP1 PUSH2 0x6C3 JUMP JUMPDEST PUSH1 0x20 PUSH1 0x40 MLOAD PUSH1 0x20 DUP2 SUB SWAP1 DUP1 DUP5 SUB SWAP1 DUP6 GAS STATICCALL ISZERO DUP1 ISZERO PUSH2 0x283 JUMPI RETURNDATASIZE PUSH0 PUSH0 RETURNDATACOPY RETURNDATASIZE PUSH0 REVERT JUMPDEST POP POP POP PUSH1 0x20 PUSH1 0x40 MLOAD SUB MLOAD SWAP4 POP POP POP POP SWAP3 SWAP2 POP POP JUMP JUMPDEST PUSH0 PUSH0 PUSH0 PUSH1 0x41 DUP5 MLOAD EQ PUSH2 0x2A8 JUMPI PUSH0 PUSH0 REVERT JUMPDEST PUSH1 0x20 DUP5 ADD MLOAD SWAP2 POP PUSH1 0x40 DUP5 ADD MLOAD SWAP1 POP PUSH1 0x60 DUP5 ADD MLOAD PUSH0 BYTE SWAP3 POP SWAP2 SWAP4 SWAP1 SWAP3 POP JUMP JUMPDEST PUSH0 PUSH1 0x40 MLOAD SWAP1 POP SWAP1 JUMP JUMPDEST PUSH0 PUSH0 REVERT JUMPDEST PUSH0 PUSH0 REVERT JUMPDEST PUSH0 DUP2 SWAP1 POP SWAP2 SWAP1 POP JUMP JUMPDEST PUSH2 0x2E9 DUP2 PUSH2 0x2D7 JUMP JUMPDEST DUP2 EQ PUSH2 0x2F3 JUMPI PUSH0 PUSH0 REVERT JUMPDEST POP JUMP JUMPDEST PUSH0 DUP2 CALLDATALOAD SWAP1 POP PUSH2 0x304 DUP2 PUSH2 0x2E0 JUMP JUMPDEST SWAP3 SWAP2 POP POP JUMP JUMPDEST PUSH0 PUSH0 REVERT JUMPDEST PUSH0 PUSH0 REVERT JUMPDEST PUSH0 PUSH1 0x1F NOT PUSH1 0x1F DUP4 ADD AND SWAP1 POP SWAP2 SWAP1 POP JUMP JUMPDEST PUSH32 0x4E487B7100000000000000000000000000000000000000000000000000000000 PUSH0 MSTORE PUSH1 0x41 PUSH1 0x4 MSTORE PUSH1 0x24 PUSH0 REVERT JUMPDEST PUSH2 0x358 DUP3 PUSH2 0x312 JUMP JUMPDEST DUP2 ADD DUP2 DUP2 LT PUSH8 0xFFFFFFFFFFFFFFFF DUP3 GT OR ISZERO PUSH2 0x377 JUMPI PUSH2 0x376 PUSH2 0x322 JUMP JUMPDEST JUMPDEST DUP1 PUSH1 0x40 MSTORE POP POP POP JUMP JUMPDEST PUSH0 PUSH2 0x389 PUSH2 0x2C6 JUMP JUMPDEST SWAP1 POP PUSH2 0x395 DUP3 DUP3 PUSH2 0x34F JUMP JUMPDEST SWAP2 SWAP1 POP JUMP JUMPDEST PUSH0 PUSH8 0xFFFFFFFFFFFFFFFF DUP3 GT ISZERO PUSH2 0x3B4 JUMPI PUSH2 0x3B3 PUSH2 0x322 JUMP JUMPDEST JUMPDEST PUSH2 0x3BD DUP3 PUSH2 0x312 JUMP JUMPDEST SWAP1 POP PUSH1 0x20 DUP2 ADD SWAP1 POP SWAP2 SWAP1 POP JUMP JUMPDEST DUP3 DUP2 DUP4 CALLDATACOPY PUSH0 DUP4 DUP4 ADD MSTORE POP POP POP JUMP JUMPDEST PUSH0 PUSH2 0x3EA PUSH2 0x3E5 DUP5 PUSH2 0x39A JUMP JUMPDEST PUSH2 0x380 JUMP JUMPDEST SWAP1 POP DUP3 DUP2 MSTORE PUSH1 0x20 DUP2 ADD DUP5 DUP5 DUP5 ADD GT ISZERO PUSH2 0x406 JUMPI PUSH2 0x405 PUSH2 0x30E JUMP JUMPDEST JUMPDEST PUSH2 0x411 DUP5 DUP3 DUP6 PUSH2 0x3CA JUMP JUMPDEST POP SWAP4 SWAP3 POP POP POP JUMP JUMPDEST PUSH0 DUP3 PUSH1 0x1F DUP4 ADD SLT PUSH2 0x42D JUMPI PUSH2 0x42C PUSH2 0x30A JUMP JUMPDEST JUMPDEST DUP2 CALLDATALOAD PUSH2 0x43D DUP5 DUP3 PUSH1 0x20 DUP7 ADD PUSH2 0x3D8 JUMP JUMPDEST SWAP2 POP POP SWAP3 SWAP2 POP POP JUMP JUMPDEST PUSH0 PUSH0 PUSH0 PUSH1 0x60 DUP5 DUP7 SUB SLT ISZERO PUSH2 0x45D JUMPI PUSH2 0x45C PUSH2 0x2CF JUMP JUMPDEST JUMPDEST PUSH0 PUSH2 0x46A DUP7 DUP3 DUP8 ADD PUSH2 0x2F6 JUMP JUMPDEST SWAP4 POP POP PUSH1 0x20 PUSH2 0x47B DUP7 DUP3 DUP8 ADD PUSH2 0x2F6 JUMP JUMPDEST SWAP3 POP POP PUSH1 0x40 DUP5 ADD CALLDATALOAD PUSH8 0xFFFFFFFFFFFFFFFF DUP2 GT ISZERO PUSH2 0x49C JUMPI PUSH2 0x49B PUSH2 0x2D3 JUMP JUMPDEST JUMPDEST PUSH2 0x4A8 DUP7 DUP3 DUP8 ADD PUSH2 0x419 JUMP JUMPDEST SWAP2 POP POP SWAP3 POP SWAP3 POP SWAP3 JUMP JUMPDEST PUSH0 PUSH20 0xFFFFFFFFFFFFFFFFFFFFFFFFFFFFFFFFFFFFFFFF DUP3 AND SWAP1 POP SWAP2 SWAP1 POP JUMP JUMPDEST PUSH0 PUSH2 0x4DB DUP3 PUSH2 0x4B2 JUMP JUMPDEST SWAP1 POP SWAP2 SWAP1 POP JUMP JUMPDEST PUSH0 DUP2 PUSH1 0x60 SHL SWAP1 POP SWAP2 SWAP1 POP JUMP JUMPDEST PUSH0 PUSH2 0x4F8 DUP3 PUSH2 0x4E2 JUMP JUMPDEST SWAP1 POP SWAP2 SWAP1 POP JUMP JUMPDEST PUSH0 PUSH2 0x509 DUP3 PUSH2 0x4EE JUMP JUMPDEST SWAP1 POP SWAP2 SWAP1 POP JUMP JUMPDEST PUSH2 0x521 PUSH2 0x51C DUP3 PUSH2 0x4D1 JUMP JUMPDEST PUSH2 0x4FF JUMP JUMPDEST DUP3 MSTORE POP POP JUMP JUMPDEST PUSH0 DUP2 SWAP1 POP SWAP2 SWAP1 POP JUMP JUMPDEST PUSH2 0x541 PUSH2 0x53C DUP3 PUSH2 0x2D7 JUMP JUMPDEST PUSH2 0x527 JUMP JUMPDEST DUP3 MSTORE POP POP JUMP JUMPDEST PUSH0 DUP2 SWAP1 POP SWAP2 SWAP1 POP JUMP JUMPDEST PUSH0 PUSH2 0x56A PUSH2 0x565 PUSH2 0x560 DUP5 PUSH2 0x4B2 JUMP JUMPDEST PUSH2 0x547 JUMP JUMPDEST PUSH2 0x4B2 JUMP JUMPDEST SWAP1 POP SWAP2 SWAP1 POP JUMP JUMPDEST PUSH0 PUSH2 0x57B DUP3 PUSH2 0x550 JUMP JUMPDEST SWAP1 POP SWAP2 SWAP1 POP JUMP JUMPDEST PUSH0 PUSH2 0x58C DUP3 PUSH2 0x571 JUMP JUMPDEST SWAP1 POP SWAP2 SWAP1 POP JUMP JUMPDEST PUSH2 0x5A4 PUSH2 0x59F DUP3 PUSH2 0x582 JUMP JUMPDEST PUSH2 0x4FF JUMP JUMPDEST DUP3 MSTORE POP POP JUMP JUMPDEST PUSH0 PUSH2 0x5B5 DUP3 DUP8 PUSH2 0x510 JUMP JUMPDEST PUSH1 0x14 DUP3 ADD SWAP2 POP PUSH2 0x5C5 DUP3 DUP7 PUSH2 0x530 JUMP JUMPDEST PUSH1 0x20 DUP3 ADD SWAP2 POP PUSH2 0x5D5 DUP3 DUP6 PUSH2 0x530 JUMP JUMPDEST PUSH1 0x20 DUP3 ADD SWAP2 POP PUSH2 0x5E5 DUP3 DUP5 PUSH2 0x593 JUMP JUMPDEST PUSH1 0x14 DUP3 ADD SWAP2 POP DUP2 SWAP1 POP SWAP6 SWAP5 POP POP POP POP POP JUMP JUMPDEST PUSH0 DUP2 SWAP1 POP SWAP3 SWAP2 POP POP JUMP JUMPDEST PUSH32 0x19457468657265756D205369676E6564204D6573736167653A0A333200000000 PUSH0 DUP3 ADD MSTORE POP JUMP JUMPDEST PUSH0 PUSH2 0x635 PUSH1 0x1C DUP4 PUSH2 0x5F7 JUMP JUMPDEST SWAP2 POP PUSH2 0x640 DUP3 PUSH2 0x601 JUMP JUMPDEST PUSH1 0x1C DUP3 ADD SWAP1 POP SWAP2 SWAP1 POP JUMP JUMPDEST PUSH0 DUP2 SWAP1 POP SWAP2 SWAP1 POP JUMP JUMPDEST PUSH0 DUP2 SWAP1 POP SWAP2 SWAP1 POP JUMP JUMPDEST PUSH2 0x66E PUSH2 0x669 DUP3 PUSH2 0x64B JUMP JUMPDEST PUSH2 0x654 JUMP JUMPDEST DUP3 MSTORE POP POP JUMP JUMPDEST PUSH0 PUSH2 0x67E DUP3 PUSH2 0x629 JUMP JUMPDEST SWAP2 POP PUSH2 0x68A DUP3 DUP5 PUSH2 0x65D JUMP JUMPDEST PUSH1 0x20 DUP3 ADD SWAP2 POP DUP2 SWAP1 POP SWAP3 SWAP2 POP POP JUMP JUMPDEST PUSH2 0x6A2 DUP2 PUSH2 0x64B JUMP JUMPDEST DUP3 MSTORE POP POP JUMP JUMPDEST PUSH0 PUSH1 0xFF DUP3 AND SWAP1 POP SWAP2 SWAP1 POP JUMP JUMPDEST PUSH2 0x6BD DUP2 PUSH2 0x6A8 JUMP JUMPDEST DUP3 MSTORE POP POP JUMP JUMPDEST PUSH0 PUSH1 0x80 DUP3 ADD SWAP1 POP PUSH2 0x6D6 PUSH0 DUP4 ADD DUP8 PUSH2 0x699 JUMP JUMPDEST PUSH2 0x6E3 PUSH1 0x20 DUP4 ADD DUP7 PUSH2 0x6B4 JUMP JUMPDEST PUSH2 0x6F0 PUSH1 0x40 DUP4 ADD DUP6 PUSH2 0x699 JUMP JUMPDEST PUSH2 0x6FD PUSH1 0x60 DUP4 ADD DUP5 PUSH2 0x699 JUMP JUMPDEST SWAP6 SWAP5 POP POP POP POP POP JUMP INVALID LOG2 PUSH5 0x6970667358 0x22 SLT KECCAK256 0xA5 0xAD 0x4B CALLDATALOAD PREVRANDAO 0xC1 ADDRESS DUP15 CALLDATACOPY SWAP14 0xD0 0xE9 LOG0 SWAP3 0xD5 0x25 MSTORE8 TLOAD SWAP11 0xE4 0xD9 0xD7 PUSH2 0x515A 0xF7 0xD2 0xA7 COINBASE 0xBF RETURNDATASIZE 0xAC PUSH5 0x736F6C6343 STOP ADDMOD SHR STOP CALLER "
		},
		"gasEstimates": {
			"creation": {
				"codeDepositCost": "370400",
				"executionCost": "24643",
				"totalCost": "395043"
			},
			"external": {
				"claimPayment(uint256,uint256,bytes)": "infinite",
				"shutdown()": "29910"
			},
			"internal": {
				"prefixed(bytes32)": "infinite",
				"recoverSigner(bytes32,bytes memory)": "infinite",
				"splitSignature(bytes memory)": "infinite"
			}
		},
		"methodIdentifiers": {
			"claimPayment(uint256,uint256,bytes)": "a90ae887",
			"shutdown()": "fc0e74d1"
		}
	},
	"abi": [
		{
			"inputs": [],
			"stateMutability": "payable",
			"type": "constructor"
		},
		{
			"inputs": [
				{
					"internalType": "uint256",
					"name": "amount",
					"type": "uint256"
				},
				{
					"internalType": "uint256",
					"name": "nonce",
					"type": "uint256"
				},
				{
					"internalType": "bytes",
					"name": "signature",
					"type": "bytes"
				}
			],
			"name": "claimPayment",
			"outputs": [],
			"stateMutability": "nonpayable",
			"type": "function"
		},
		{
			"inputs": [],
			"name": "shutdown",
			"outputs": [],
			"stateMutability": "nonpayable",
			"type": "function"
		}
	]
}